S00C00006D61696E2E7372656373
S11300000C9472120C948F120C948F120C94504016
S11300100C948F120C948F120C948F120C948F12D8
S11300200C948F120C948F120C948F120C948F12C8
S11300300C948F120C9466540C948F120C948F129F
S11300400C948F120C948F120C948F120C948F12A8
S11300500C946B560C948F120C948F120C948F1278
S11300600C948F120C948F120C948F120C948F1288
S1130070524553455420202D2072657365742074B5
S1130080686520415652202D20436F6E74726F6C48
S11300906C65720D0A415250202020202D206C697D
S11300A073742074686520415250207461626C65D9
S11300B00D0A544350202020202D206C6973742095
S11300C074686520746370207461626C650D0A49FC
S11300D05020202020202D206C6973742F636861C8
S11300E06E67652069700D0A4E4554202020202D2E
S11300F0206C6973742F6368616E6765206E657424
S11301006D61736B0D0A524F55544552202D206C6E
S11301106973742F6368616E676520726F757465A7
S1130120722069700D0A4E5450202020202D206C1E
S11301306973742F6368616E6765204E54500D0AAD
S11301404E5450522020202D204E5450205265668B
S1130150726573680D0A4D4143202020202D206CC8
S1130160697374204D41432D616464726573730D2A
S11301700A564552202020202D206C697374206576
S11301806E632076657273696F6E206E756D62653D
S1130190720D0A535620202020202D2073657420D0
S11301A07661726961626C650D0A50494E47202080
S11301B0202D2073656E642050696E670D0A5449C2
S11301C04D452020202D206765742074696D650DD0
S11301D00A48454C502020202D207072696E7420EE
S11301E048656C70746578740D0A3F2020202020C7
S11301F0202D207072696E742048656C7074657867
S1130200740D0A004D792049503A202531692E2574
S113021031692E2531692E2531690D0A004E455468
S11302204D41534B3A202531692E2531692E253114
S1130230692E2531690D0A00526F75746572204963
S1130240503A202531692E2531692E2531692E2514
S113025031690D0A004D79204D41433A2025327809
S11302603A2532783A2532783A2532783A25327866
S11302703A2532780D0A00454E4332384A36302D3D
S113028056657273696F6E3A202531780D0A002520
S1130290326920204D41433A253278002E253278A8
S11302A0002E253278002E253278002E2532780053
S11302B02E25327800202049503A253369002E2516
S11302C03369002E253369002E253369002020541C
S11302D0696D653A2534690D0A00253269002020CC
S11302E049503A253369002E253369002E25336998
S11302F0002E253369002020504F52543A2534698A
S113030000202054696D653A2534690D0A00496E50
S113031068616C7420646572205661726961626CF4
S1130320655B2532695D203D202532690D0A000A8E
S11303300D54494D453A202532693A2532693A250A
S113034032690D0A0025630057696E20004C6F73F3
S11303507400546965200048414C4C4F0000000073
S1130360000000005F00000003000300147F147FFE
S113037014242A7F2A1226160834324A55215000A2
S11303800000030000001C2241000041221C002246
S1130390147F142208083E08080000603000080892
S11303A0080808000060600020100804023E414173
S11303B0413E00427F400042615149462241494941
S11303C0360C0A497F482F494949313E4949493247
S11303D001710905033649494936264949493E0010
S11303E0003636000000563600081422410014146A
S11303F0141414412214080002015109063E415DFF
S1130400551E7E0909097E7F494949363E414141CD
S1130410227F4141413E7F494949417F09090909F8
S11304203E4149493A7F0808087F00417F41003036
S113043040413F017F08081463007F4040407F042F
S113044008047F7F020C107F3E4141413E7F090931
S113045009063E4151617E7F0919294626494949C9
S11304603201017F01013F4040403F0718601807F7
S11304701F6018601F631408146303047804036185
S113048051494543007F41410002040810200041C6
S1130490417F000402010204404040404000010248
S11304A00000304A4A4A7C007F444438384444447B
S11304B000003844447F3854545418087E0901001D
S11304C00C5252523C7F0404047800007A0000204D
S11304D0403A00007F1028440000007F00007C04A4
S11304E0180478007804047838444444387C14248C
S11304F02418182424147C7C0804040048545454FC
S11305002400023F42003C4040403C1C2040201C50
S11305103C4030403C44281028440C5050503C444B
S113052064544C00083641410000007F0000414102
S113053036080008040810081F111F00001F1D15AD
S11305401715151F07041F17151D1F151D01011F62
S11305501F151F17157F3C21444F43545950452004
S113056068746D6C205055424C494320222D2F2F26
S11305705733432F2F4454442048544D4C20342E99
S11305803031205472616E736974696F6E616C2FBF
S11305902F454E222022687474703A2F2F77777774
S11305A02E77332E6F72672F54522F68746D6C340C
S11305B02F6C6F6F73652E647464223E0D0A3C6861
S11305C0746D6C3E3C686561643E0D0A3C6D6574F7
S11305D06120687474702D65717569763D22636F4E
S11305E06E74656E742D747970652220636F6E74F9
S11305F0656E743D22746578742F68746D6C3B204D
S1130600636861727365743D49534F2D38383539C9
S11306102D31223E0D0A3C7469746C653E4156527C
S1130620206D696E69205765627365727665722004
S11306303A20486F6D653C2F7469746C653E0D0AF1
S11306403C6C696E6B2072656C3D227374796C65C9
S113065073686565742220747970653D22746578C9
S1130660742F637373222020687265663D2273744D
S1130670796C65732E637373223E3C2F68656164E5
S11306803E3C626F64793E0D0A3C68313E415652ED
S1130690206D696E69205765627365727665722094
S11306A03A20486F6D653C2F68313E0D0A3C646901
S11306B0762069643D226E6176223E3C6120687238
S11306C065663D22696E6465782E68746D223E48C5
S11306D06F6D653C2F613E3C6120687265663D220A
S11306E07374617475732E68746D223E53746174EF
S11306F075733C2F613E3C2F6469763E0D0A3C6461
S113070069762069643D226D61696E223E3C6832DF
S11307103E476CFC636B77756E736368213C2F688E
S1130720323E3C62723E0D0A3C696D67207372630F
S11307303D2272616B65742E676966222077696455
S113074074683D22393022206865696768743D22E7
S113075039322220616C743D22223E3C62723E3C5E
S113076062723E0D0A3C703E4475206861737420C9
S11307706573206765736368616666743A204465CF
S11307807220576562736572766572206CE47566D3
S113079074213C2F703E3C62723E3C68723E3C6267
S11307A0723E0D0A3C646976207374796C653D224F
S11307B077696474683A32303070783B6D6172677F
S11307C0696E3A2030206175746F3B223E0D0A3CFD
S11307D0646976207374796C653D22666C6F61740C
S11307E03A6C6566743B77696474683A313030708A
S11307F078223E0D0A3C666F726D206D6574686FD9
S1130800643D22706F73742220616374696F6E3D5E
S113081022696E6465782E68746D223E0D0A3C6907
S11308206E707574206E616D653D224F55542220A3
S1130830747970653D22636865636B626F7822200A
S113084076616C75653D2241222025504F525441FA
S1130850303E506F727420412050696E20303C62EB
S1130860723E0D0A3C696E707574206E616D653D53
S1130870224F55542220747970653D226368656364
S11308806B626F78222076616C75653D224222206E
S113089025504F525441313E506F727420412050C4
S11308A0696E20313C62723E0D0A3C696E7075744B
S11308B0206E616D653D224F555422207479706518
S11308C03D22636865636B626F78222076616C7584
S11308D0653D2243222025504F525441323E506FF1
S11308E0727420412050696E20323C62723E3C6238
S11308F0723E0D0A3C696E707574206E616D653DC3
S113090022535542222076616C75653D2253656EF3
S113091064656E2220747970653D227375626D6919
S113092074223E0D0A3C2F666F726D3E3C2F646943
S1130930763E0D0A3C646976207374796C653D22B9
S1130940666C6F61743A6C6566743B207769647495
S1130950683A3130307078223E0D0A3C696D672068
S11309607372633D222550494E44372220616C74D2
S11309703D22223E20506F727420442050696E2024
S1130980373C62723E3C696D67207372633D222579
S113099050494E44362220616C743D22223E205040
S11309A06F727420442050696E20363C62723E3C63
S11309B0696D67207372633D222550494E44352288
S11309C020616C743D22223E20506F7274204420BA
S11309D050696E20353C62723E3C2F6469763E3C21
S11309E02F6469763E0D0A3C64697620636C6173FA
S11309F0733D22636C656172223E3C2F6469763ECE
S1130A000D0A3C62723E3C68723E3C62723E0D0AC4
S1130A103C7461626C6520626F726465723D223061
S1130A202220636C6173733D2274656D7054626C33
S1130A302220616C69676E3D2263656E7465722263
S1130A402077696474683D2234303070783B223EEC
S1130A500D0A3C74723E0D0A3C74683E45696E672B
S1130A60616E673C2F74683E0D0A3C74683E4261B7
S1130A706C6B656E3C2F74683E0D0A3C74683E5482
S1130A80656D70657261747572205BB0435D3C2F57
S1130A9074683E0D0A3C2F74723E3C74723E0D0A1B
S1130AA03C74643E41442D4B616E616C303C2F7448
S1130AB0643E0D0A3C7464207374796C653D227441
S1130AC06578742D616C69676E3A6C656674223E54
S1130AD03C696D67207372633D22696E6465782D8D
S1130AE04461746569656E2F62616C6B652E67691C
S1130AF0662220616C743D222220686569676874EF
S1130B003D223130222077696474683D22255641A4
S1130B10403030223E3C2F74643E0D0A3C74643EE7
S1130B202556414030303C2F74643E0D0A3C2F74EE
S1130B30723E3C74723E0D0A3C74643E41442D4B3B
S1130B40616E616C313C2F74643E0D0A3C74642008
S1130B507374796C653D22746578742D616C696772
S1130B606E3A6C656674223E3C696D6720737263ED
S1130B703D22696E6465782D4461746569656E2FE4
S1130B8062616C6B652E6769662220616C743D221C
S1130B9022206865696768743D22313022207769B4
S1130BA06474683D22255641403031223E3C2F7406
S1130BB0643E0D0A3C74643E2556414030313C2F5E
S1130BC074643E0D0A3C2F74723E3C74723E0D0AEE
S1130BD03C74643E41442D4B616E616C323C2F7415
S1130BE0643E0D0A3C7464207374796C653D227410
S1130BF06578742D616C69676E3A6C656674223E23
S1130C003C696D67207372633D22696E6465782D5B
S1130C104461746569656E2F62616C6B652E6769EA
S1130C20662220616C743D222220686569676874BD
S1130C303D223130222077696474683D2225564173
S1130C40403032223E3C2F74643E0D0A3C74643EB4
S1130C502556414030323C2F74643E0D0A3C2F74BB
S1130C60723E3C74723E0D0A3C74643E41442D4B0A
S1130C70616E616C333C2F74643E0D0A3C746420D5
S1130C807374796C653D22746578742D616C696741
S1130C906E3A6C656674223E3C696D6720737263BC
S1130CA03D22696E6465782D4461746569656E2FB3
S1130CB062616C6B652E6769662220616C743D22EB
S1130CC022206865696768743D2231302220776983
S1130CD06474683D22255641403033223E3C2F74D3
S1130CE0643E0D0A3C74643E2556414030333C2F2B
S1130CF074643E0D0A3C2F74723E0D0A3C2F7461DD
S1130D00626C653E0D0A3C2F6469763E3C646976EC
S1130D102069643D227461696C223E3C61206872E2
S1130D2065663D22687474703A2F2F7777772E7535
S1130D306C7269636872616469672E6465223E77C8
S1130D4077772E756C7269636872616469672E6463
S1130D50653C2F613E20556C726963682052616462
S1130D60696720323030383C2F6469763E0D0A3C86
S1130D702F626F64793E3C2F68746D6C3E25454E3E
S1130D8044003C21444F43545950452068746D6CD1
S1130D90205055424C494320222D2F2F5733432FA7
S1130DA02F4454442048544D4C20342E3031205488
S1130DB072616E736974696F6E616C2F2F454E2278
S1130DC02022687474703A2F2F7777772E77332E1A
S1130DD06F72672F54522F68746D6C342F6C6F6F61
S1130DE073652E647464223E0D0A3C68746D6C3E17
S1130DF03C686561643E0D0A3C6D657461206874ED
S1130E0074702D65717569763D22636F6E74656EBD
S1130E10742D747970652220636F6E74656E743DF1
S1130E2022746578742F68746D6C3B2063686172FA
S1130E307365743D49534F2D383835392D31223E71
S1130E400D0A3C7469746C653E415652206D696E9E
S1130E506920576562736572766572203A2053740F
S1130E60617475733C2F7469746C653E0D0A3C6C37
S1130E70696E6B2072656C3D227374796C6573685E
S1130E806565742220747970653D22746578742FC9
S1130E90637373222020687265663D227374796CD3
S1130EA065732E637373223E3C2F686561643E3C18
S1130EB0626F64793E3C68313E415652206D696EE2
S1130EC06920576562736572766572203A2053749F
S1130ED0617475733C2F68313E0D0A3C6469762059
S1130EE069643D226E6176223E3C612068726566CB
S1130EF03D22696E6465782E68746D223E486F6D7C
S1130F00653C2F613E3C6120687265663D227374C6
S1130F10617475732E68746D223E537461747573B5
S1130F203C2F613E3C2F6469763E0D0A3C64697631
S1130F302069643D226D61696E223E0D0A436F6D26
S1130F4070696C6965727420616D204A616E20322B
S1130F5035203230313720756D2032323A33333A0E
S1130F6033343C62723E3C62723E0D0A436F6D70D4
S1130F70696C69657274206D697420474343205617
S1130F80657273696F6E20342E392E323C62723E64
S1130F903C62723E0D0A4265737563686572207324
S1130FA06569742053746172742064657320576595
S1130FB06273657276657273202825564140303914
S1130FC0293C62723E3C62723E0D0A3C2F64697693
S1130FD03E3C6469762069643D227461696C223EFA
S1130FE03C6120687265663D22687474703A2F2FE4
S1130FF07777772E756C7269636872616469672E9E
S11310006465223E7777772E756C726963687261C6
S11310106469672E64653C2F613E20556C72696378
S11310206820526164696720323030383C2F64692B
S1131030763E0D0A3C2F626F64793E3C2F68746DD6
S11310406C3E0D0A25454E4400626F64797B6D61E8
S11310507267696E3A20343070783B7D20626F6429
S1131060792C702C6469762C68312C68322C746469
S11310702C74687B666F6E742D66616D696C793A49
S113108073616E732D73657269663B666F6E742D42
S113109073697A653A313170787D68317B666F6E39
S11310A0742D73697A653A323070783B636F6C6F74
S11310B0723A77686974653B206261636B67726F2B
S11310C0756E642D636F6C6F723A23393642313119
S11310D0433B6D617267696E3A3170783B7061644D
S11310E064696E673A3570783B746578742D616C09
S11310F069676E3A63656E7465723B7D68327B66C0
S11311006F6E742D73697A653A313870783B636F0A
S11311106C6F723A233936423131437D702C683218
S11311207B6D617267696E3A3070783070783570B3
S1131130783070787D696D677B626F726465723A2E
S1131140307D68727B636F6C6F723A73696C76651D
S1131150723B206261636B67726F756E642D636F9F
S11311606C6F723A73696C7665723B626F72646518
S1131170723A303B6865696768743A3170787D23E8
S11311806E61767B666F6E742D73697A653A203171
S11311903670783B206261636B67726F756E642D85
S11311A0636F6C6F723A73696C7665723B6D6172D2
S11311B067696E3A3170783B70616464696E673A4E
S11311C03570783B666F6E742D7765696768743A1D
S11311D0626F6C647D236E617620612C20237461C0
S11311E0696C20617B636F6C6F723A7768697465B0
S11311F03B2070616464696E673A313070783B7487
S11312006578742D6465636F726174696F6E3A6E8C
S11312106F6E657D236E617620613A686F766572C4
S11312202C237461696C20613A686F7665727B74F3
S11312306578742D6465636F726174696F6E3A7555
S11312406E6465726C696E657D237461696C7B2064
S1131250636F6C6F723A77686974653B206261638F
S11312606B67726F756E642D636F6C6F723A73691E
S11312706C7665723B746578742D616C69676E3A3F
S113128063656E7465723B70616464696E673A3558
S113129070787D236D61696E7B746578742D616CE3
S11312A069676E3A63656E7465723B6D61726769F6
S11312B06E3A323070787D2E636C6561727B636C3C
S11312C06561723A6C6566747D2E74656D705462E6
S11312D06C207B7461626C652D6C61796F75743AF6
S11312E06175746F3B626F726465722D73706163B4
S11312F0696E673A307D2E74656D7054626C20742B
S1131300647B746578742D616C69676E3A63656E8D
S11313107465723B70616464696E673A3770787D96
S11313202E74656D7054626C2074687B6261636BAB
S113133067726F756E642D636F6C6F723A73696C4C
S11313407665727D25454E4400474946383961111A
S1131350001100A2070062626219AD2121E22CA5EE
S1131360A5A564E66BA5F3A9D5D5D5FFFFFF21F9A3
S11313700401000007002C0000000011001100000F
S1131380036078AAD6F366C9D3EABB5156127A171A
S113139000302C4DF109A8D085591308444CA46A97
S11313A048192A51EC73BA0E2ED8AE10A305444145
S11313B01D8F56130D5EB2A231F478A17ACCA3D35B
S11313C0CA9C020C4F6EF777A8767D364AE8E4D3C0
S11313D08E1483B5C7439D1842F8FC7B528EE3F705
S11313E00A09003B25454E444749463839611100F6
S11313F01100A207005756576969697E7E7E909155
S113140091B0B0B0C8C8C8E7E7E7FFFFFF21F9040F
S113141001000007002C000000001100110000036F
S11314206F78AA5645B0AC794C73706839AD190120
S1131430200642492C56416A43199001670503442A
S113144068A5F00A55D1128E47CBA503AA6A85C6B2
S11314502DA7A3390048CCB03482406B99A940042D
S1131460B00A58386615C42CBB00029FCE9C237565
S11314700F2D125B0708280A2E793BF45610767C50
S1131480757C2713782F5C55140B372124840B09A2
S1131490003B25454E4447494638396102000A005D
S11314A0A20000A2A5ED848FE5667CDD4960D6210B
S11314B044DAFE010200000000000021F9040514D2
S11314C00005002C0000000002000A0000030A4886
S11314D03423120148001D5309003B25454E44475F
S11314E049463839615A005C00A204007979D8F67B
S11314F0F4E1C9C9E09C98D8FFFFFFF4F6B0F9FD08
S11315007CA6A48E21F90401000004002C00000034
S1131510005A005C000003FF48BADCFE2E2C49820E
S1131520A5B35A21B49618068D64697A8D85A65C94
S1131530A5A88F78CEB429BF99300C541FD7C0E02A
S11315400B36C4650803C0C018E84C6EC228E9C253
S11315502C1061802C2EB0937A69A04B58614D55A4
S1131560B2CB854009837EDF9FDE6E27085FD6EC11
S113157057B2FE72C2836E165620493B597C61787D
S11315803C1549794D7C7F80442F05655C4A0B7B73
S11315904F8A9968126B7E9133622E13959F8E4DFC
S11315A059228A1B9E4D7B6E66A2712201950567A6
S11315B075033AAF139A04781D9769A5B45362B6BC
S11315C0B81600BB599E4F3B206B3CAABCC647C70C
S11315D00C17832015CB01ABC1070790DF052D1530
S11315E03A2087A3B25282A7210506A785F176B7D0
S11315F0DD1A75E8E5B693B0450A03CE14BD41B1D2
S1131600E4A90860A05E087C4364F8785763E2B9F3
S11316106594E8D53BD30CFF1C8886959EDCF2A12B
S1131620A00EAC39739C488C716524A145FA1C6AE0
S1131630A8041215008FB740E6A260A59B0E434A8A
S11316409E3DE345D1863E668E3426D3B8F1D281E1
S113165053DF1ACABC50AE97D0431C1A350B184539
S11316609F95A1FD6A4E90BA33CB017D511D3ED2A8
S11316702A94688F4B5B6D40007850119B9C213FEE
S11316808A4D380897D5ABBC4C4EE840CDDC082ACF
S1131690DB20E06A648817CD4115C85AD8034EC0D0
S11316A001B687DA20A9C38183129546BEE8632C6C
S11316B05480C6534CCB911340D60A1E349030F05C
S11316C0A016B85D9C6C5304FE6A86F9A9CED4E5D5
S11316D068D63B35D41B150985B0668EE04256B2F8
S11316E0E35B9270E9DDFAF76372955EA721D54456
S11316F095A77B22B92373C91D390058CDD0300575
S113170029B53DF6ECCF86254EFEB9D173852BE67F
S1131710C6537861556061FFEBB5D75E01C1557260
S1131720407C0F5503562F1BE08213185E6124CCB6
S11317301C43AD67A1813D3DA59D1C48F0321401B9
S11317409971E0A03C15CD34A277577972DA7A67A3
S113175079155C38F1BD70DE6B5B0913C059273A0B
S1131760F7033723FE445F85023674A069FE3CF517
S1131770D587C87986206CEFED03CF7E12D687C655
S11317807941D6438E95375971A050145083203532
S113179016F806996E42C454532CAEB056E5630055
S11317A0B4A81563EAB4E5DD2DEF8D51D42C89E599
S11317B044965D4205285C439C31560782483C337D
S11317C0D9564D3257620AF19055085BA691859D12
S11317D090E830E6CA2B9C3068594FC655F4DC0DAE
S11317E0661A306456663145A0985AC608171A25F9
S11317F0119584862671F59C1950E6F8C44105605C
S1131800B6CA80A6B245C1A399750763766DF03850
S1131810A293DB1C7BAC18FF8FF90854A441127807
S1131820950BB114320C1E46DAE120AF24EA37A23C
S113183080CAC2D899B57E0AE38B74C13C6A1591FB
S11318403D05D8DA984FB0F4A74E96B1AB8856BE92
S1131850ED69DF67BF02104C8A866EBB26B2C5CA2B
S1131860EA154834667BD9B8879CF69A3554EC015E
S113187070A9550E470A9E571401258D6D1A5918E3
S11318808DCBC009A60B1C6FD5C4A4D196815B6215
S1131890CCD9525285A756A26B96D2F24B4D29341D
S11318A03AE62EAFC9CC45E60F71B201D201F5E894
S11318B06AE496E2C4F27271A755DCCDC59E7ECA75
S11318C0CE56B8106D40CE05BEF9B21334B2EB1A41
S11318D0394D3E8D4FCF2DD79A239AB80CFD2ABB94
S11318E048C7050A4766DD62D99655851D61B80B60
S11318F035D7E8C01E1FF8CF85B8E63A25D7E7AD3F
S11319001AA96B6E556DF58003F3C76CDA551A5935
S113191029D857AED9C84FFFBFFC952FE594435E35
S1131920317B39CE1AD1B1553DF2C8DCE0A2E309CE
S1131930262A681EA088A7FE9DB2E352BB7CEB203A
S113194073736E64B45B32131B5C4446DBD0A1F941
S1131950E25D828E796744D3E2038AABCE220A5CCD
S11319606EAAE7C3C7E7A0E8DE00B1D0E36B0E7848
S11319703972D0C3C8C38A93120D5FC30FDE898D39
S1131980320237EEF133242F819498EFD55F9556C8
S1131990D00E47B07E2C5FF4B9901AAA1FABD46066
S11319A09E7CE9EF46476B5B9BF2671DA9F9CC7FF0
S11319B0FF930A76E686A2D8F0E255015A8DA974FF
S11319C037AFD989ED2DA3EBE0FFD0911D67D0810E
S11319D001ADE0DDBC8E558F08864E6FCA8AE16387
S11319E03628B90985427A1174A10CF1B6BDBBD170
S11319F00E4A8C1B1A1B38108686E55087A8B9CF6F
S1131A00A722203ABD852A48306ADDD47677441D62
S1131A10E6AD76EA63949EFF2A7689D6A5EB333B3E
S1131A20634F156B923DA8E1C904D4AB92304A02CE
S1131A30170302507F221CA1CA7E16AFC3EC2D757A
S1131A409261157AD86021C9516E8C3AE18AF60EFA
S1131A5096BAB411CB50872A5C0C75F7B96FB526CA
S1131A607B92E8A0B284F89314D54177C1D9541A73
S1131A70B9B5378F94088818E9A4222AF98C002E66
S1131A80905403108E6BE208995A91D11D3EB4C450
S1131A904CC8D216544A4E756E425FEC82172DF62E
S1131AA03105313EC36206B668005D718698AA4B63
S1131AB06501866296DCB19224FB211B4B7AE632E7
S1131AC0644EE92A6E04494796591A7DCCED99472C
S1131AD070A01DA1D380158202338EE11D6B6A367E
S1131AE0000362C8913A99263073131064DE8807A4
S1131AF080B14CE48A470E625A898C2B7C4844445A
S1131B006321DFD1C63F37999D75B8F54841F00A86
S1131B1068803091645471FF23255CAE9D3B0BE3D8
S1131B20BB4C350455CE110E66BB030F8664ADDD88
S1131B30C5B13A1335D53C66F8D1AE18AB585B390C
S1131B40447CBCE627860254A55B98A120077994BF
S1131B50B7B493183662214A6B52503385A41411DA
S1131B609AA724667512EF0CAA4D2B5A6141FFD433
S1131B700D4342B3204F229BE9D0A320A80234A5F1
S1131B806025632703914579027321DFA3862A1D0B
S1131B90FA55B14AC614810C8D5CFF10021BFD443A
S1131BA04F550DAB5AB6988B8C582C04DA88C01A52
S1131BB061111685AC68ACB39489F2A01258A412D2
S1131BC022582DC02BB3C42AD9C4CEF1A52B390673
S1131BD07A0473BBBD4A961B62010146B670144574
S1131BE095691B5DB2D627221BA15BEDF51C8ABD4E
S1131BF0882C6B51D6131CE724A0E98E8964E9D0A4
S1131C00CBE2E5B6587562637BE196FE8DCDB51FD8
S1131C10FD6DB2BAE5C4DA5BE6461D88E85F087973
S1131C20EB155F22E6B82B13453541F8969EC2901A
S1131C30B1CAA34B4B032B50634041109AB988752A
S1131C40496BC6C69A964CE8156F5F6F75D6F6BA9F
S1131C5077A9A0026F47EBA9D4FB9E9689060BB027
S1131C6073FD6B94F3F697C08DDDA97D114C5EE492
S1131C70213801003B25454E44485454502F312E01
S1131C80302032303020446F63756D656E74206689
S1131C906F6C6C6F77730D0A5365727665723A20B8
S1131CA04156525F536D616C6C5F57656273657228
S1131CB07665720D0A436F6E74656E742D54797077
S1131CC0653A20746578742F706C61696E0D0A0D25
S1131CD00A00485454502F312E30203230302044E2
S1131CE06F63756D656E7420666F6C6C6F77730DC2
S1131CF00A5365727665723A204156525F536D619C
S1131D006C6C5F5765627365727665720D0A436F1A
S1131D106E74656E742D547970653A2074657874A8
S1131D202F68746D6C0D0A0D0A00485454502F31FD
S1131D302E302034303120556E617574686F7269AD
S1131D407A65640D0A5365727665723A204156527B
S1131D505F536D616C6C5F57656273657276657213
S1131D600D0A5757572D41757468656E7469636120
S1131D7074653A204261736963207265616C6D3DDC
S1131D80224E65656450617373776F7264220D0A25
S1131D90436F6E74656E742D547970653A20746562
S1131DA078742F68746D6C0D0A0D0A0048545450F1
S1131DB02F312E302032303020446F63756D656EC4
S1131DC07420666F6C6C6F77730D0A536572766559
S1131DD0723A204156525F536D616C6C5F57656275
S1131DE07365727665720D0A436F6E74656E742D39
S1131DF0547970653A20696D6167652F6A7065670B
S1131E000D0A0D0A00485454502F312E3020323020
S1131E103020446F63756D656E7420666F6C6C6FF3
S1131E2077730D0A5365727665723A204156525F94
S1131E30536D616C6C5F5765627365727665720D84
S1131E400A43616368652D436F6E74726F6C3A2048
S1131E506D61782D6167653D363030303030300D3E
S1131E600A436F6E74656E742D547970653A2069F7
S1131E706D6167652F6769660D0A0D0A0048545441
S1131E80502F312E302032303020446F63756D6511
S1131E906E7420666F6C6C6F77730D0A536572767F
S1131EA065723A204156525F536D616C6C5F5765A1
S1131EB0627365727665720D0A43616368652D43CA
S1131EC06F6E74726F6C3A206D61782D6167653D39
S1131ED0363030303030300D0A436F6E74656E74B6
S1131EE02D547970653A20746578742F6373730D7B
S1131EF00A0D0A0034303120556E617574686F72B2
S1131F00697A656425454E4400504F535400636814
S1131F1065636B65640000006C65646F6E2E6769B1
S1131F2066006C65646F66662E676966000A0D5309
S1131F30797374656D2052656164790A0D00436F8D
S1131F406D70696C6965727420616D204A616E20E0
S1131F503235203230313720756D2032323A333306
S1131F603A33340D0A00436F6D70696C696572749D
S1131F70206D6974204743432056657273696F6E00
S1131F8020342E392E320D0A000D0A49502020200B
S1131F902531692E2531692E2531692E2531690DAA
S1131FA00A004D41534B202531692E2531692E25D8
S1131FB031692E2531690D0A00475720202025312B
S1131FC0692E2531692E2531692E2531690D0A00C6
S1131FD00D0A0052656164790D0A0D0A00455252DA
S1131FE04F520D0A0D0A0047657420504F4E473A70
S1131FF02025692E25692E25692E25690D0A0004E0
S113200000051A06FF071F080009000AFF0B19C183
S113201000C00DC233CAEECB05C415C612E400E5F8
S113202020E218E3B1E015E16F7500FFFF00010045
S1132030140742FFFF0A0D4E494320696E69743A42
S1132040004D792049503A202531692E2531692ED9
S11320502531692E2531690D0A0D0A0045696E7412
S1132060726167207769726420656E746665726E4A
S113207074204D41585F4552524F522053544143AE
S11320804B3A25690D0A005061636B6574207769CA
S113209072642065726E65757420676573656E641D
S11320A0657420535441434B3A25690D0A00544347
S11320B050205A757669656C6520416E77656E644B
S11320C0756E67656E2077757264656E20676573DB
S11320D07461727465740D0A0054435020416E7724
S11320E0656E64756E67207769726420696E204C32
S11320F0697374652065696E676574726167656E7E
S11321003A2045696E747261672025690D0A0028BA
S1132110506F7274E46E646572756E672920506F37
S11321207274207775726465206E696368742067C1
S11321306566756E64656E0D0A0054435020416EE9
S113214077656E64756E6720506F727420E46E64F8
S113215065726E3A2045696E747261672025690D57
S11321600A005A757669656C652055445020416EA5
S113217077656E64756E67656E2077757264656EDB
S1132180206765737461727465740D0A0055445058
S113219020416E77656E64756E672077697264207E
S11321A0696E204C697374652065696E6765747225
S11321B06167656E3A2045696E74726167202569AE
S11321C00D0A002569002E2569002E2569002E259B
S11321D069203A004B65696E20415250206F646556
S11321E072204950205061636B6574210D0A0041CF
S11321F0525020656E74727920746162656C6C65EE
S113220020766F6C6C210D0A004152502045696E96
S113221074726167206E6963687420676566756EA1
S113222064656E2A0D0A004152502045696E74722D
S11322306167206E6963687420676566756E64659E
S11322406E0D0A00415250205245504C5920454DC4
S11322505046414E47454E210D0A004D59204E45EA
S113226054574F524B210D0A00524F5554494E4773
S1132270210D0A004152502045494E5452414720F5
S1132280474546554E44454E210D0A002A2A4B45E2
S1132290494E454E204152502045494E54524147E3
S11322A020474546554E44454E2A2A0D0A005443BC
S11322B05020456E74727920676566756E64656E2C
S11322C02025690D0A0054435020456E747279200C
S11322D06E657565722045696E7472616720256943
S11322E00D0A005365727665722042757379202851
S11322F04E4F204D4F524520434F4E4E4543544977
S11323004F4E5329210D0A00554450204B65696EE8
S11323106520416E77656E64756E672067656675C6
S11323206E64656E210D0A00544350204B65696E3E
S11323306520416E77656E64756E672067656675A6
S11323406E64656E210D0A005443502045696E7415
S1132350726167206E69636874206572666F6C676A
S11323607265696368210D0A0054435020506F72EE
S11323707420777572646520766F6D20536572766C
S11323806572206765F666666E6574205354414332
S11323904B3A25690D0A005443502045696E747206
S11323A06167206E69636874206572666F6C67721A
S11323B065696368210D0A00544350204E657720F7
S11323C053455256455220436F6E6E656374696F70
S11323D06E2120535441434B3A25690D0A0054435E
S11323E0502045696E74726167206E696368742059
S11323F0676566756E64656E0D0A005443502D530F
S11324007461636B2045696E747261672067656CE3
S1132410F6736368742120535441434B3A25690D84
S11324200A005443502D537461636B2045696E74E4
S11324307261672067656CF6736368742120535476
S113244041434B3A25690D0A0054435020537263AB
S1132450506F7274202534690D0A00506F72742015
S11324607769726420696D2054435020537461630A
S11324706B2067657363686C6F7373656E20535468
S113248041434B3A25690D0A004F656666656E2027
S113249065696E657320506F727473206D69742062
S11324A05365727665720D0A00544350204F70656F
S11324B06E206E657565722045696E747261672061
S11324C025690D0A004275737920284E4F204D4F1F
S11324D0524520434F4E4E454354494F4E532921B4
S11324E00D0A000011241FBECFEFD0E1DEBFCDBF27
S11324F012E0A0E0B1E0EAEDF9EB02C005900D9224
S1132500A436B107D9F728E0A4E6B2E001C01D92D1
S1132510AC3CB207E1F70E943B360C94EB5C0C94A4
S113252000000F931F93CF93DF9300D000D000D00F
S1132530CDB7DEB79E838D831982CE01059664EEF6
S113254071E00E94F95B9C838B8313C089818F5F48
S113255089838981882F90E0880F991F880F991F9C
S113256080509F4FFC0180819181892B11F480E080
S113257048C08981882F90E0880F991F880F991F80
S113258080509F4FFC01808191812B813C81B90156
S11325900E94CB5B892BD1F61A8221C0CE0105960D
S11325A066EE71E00E94F95B9C838B838A81082F1D
S11325B010E08B819C8140E050E060E070E00E947C
S11325C08A5ADC01CB019C01C801880F991F8A5CDF
S11325D09C4FFC01318320838A818F5F8A838A81A7
S11325E08A30E0F28981882F90E0880F991F880F44
S11325F0991F8E5F9E4FFC0180819181FC0109959A
S113260081E026960FB6F894DEBF0FBECDBFDF91F2
S1132610CF911F910F910895CF93DF93CDB7DEB77C
S1132620E0E0F0E00994DF91CF9108950F931F93B8
S1132630CF93DF93CDB7DEB78EE190E00E9489138C
S113264009EB18E040EC58EA61E073E68EE190E0B3
S11326500E94483DDC01CB01F80180839183A28371
S1132660B3838091BC08E82FF0E08091BB08682F09
S113267070E08091BA08482F50E08091B908282F63
S113268030E084E092E0AF2FAF93EF93E72FEF9326
S11326906F93652F6F934F93432F4F932F93292F4E
S11326A02F938F930E9419558DB79EB70A960FB634
S11326B0F894DEBF0FBECDBF66EC78E089EB98E0FE
S11326C0FC01208131814281538181EC98E0FC013D
S11326D080819181A281B381282339234A235B23FA
S11326E081EC98E0FC0180819181A281B381809585
S11326F09095A095B095822B932BA42BB52BFB0121
S113270080839183A283B383DF91CF911F910F9133
S11327100895CF93DF9300D01F92CDB7DEB79B838C
S11327208A8386E393E0FC0180819181892B39F1CE
S1132730198222C08FE390E0FC018081882F90E011
S113274082709927892BB1F78981882F90E0880FAF
S1132750991F8A5C9C4FFC0180819181482F89815B
S1132760282F30E08A819B81820F931F642F0E945F
S1132770645C89818F5F898389818430D8F20F906A
S11327800F900F90DF91CF910895CF93DF93CDB742
S1132790DEB7DF91CF9108950F931F93CF93DF930B
S11327A0CDB7DEB782E290E00E94891301EC18E015
S11327B04FEF5FEF6FEF70E082E290E00E94483DE0
S11327C0DC01CB01F80180839183A283B3838091E0
S11327D0C408E82FF0E08091C308682F70E080916E
S11327E0C208482F50E08091C108282F30E08DE1C5
S11327F092E0AF2FAF93EF93E72FEF936F93652F93
S11328006F934F93432F4F932F93292F2F938F938E
S11328100E9419558DB79EB70A960FB6F894DEBF7D
S11328200FBECDBF66EC78E089EB98E0FC01208117
S113283031814281538181EC98E0FC018081918156
S1132840A281B381282339234A235B2381EC98E0B6
S1132850FC0180819181A281B38180959095A0959E
S1132860B095822B932BA42BB52BFB0180839183F2
S1132870A283B383DF91CF911F910F9108950F939A
S11328801F93CF93DF93CDB7DEB786E290E00E942B
S113289089130DEB18E040EC58EA61E071E086E240
S11328A090E00E94483DDC01CB01F80180839183D4
S11328B0A283B3838091C008E82FF0E08091BF0821
S11328C0682F70E08091BE08482F50E08091BD08C9
S11328D0282F30E088E392E0AF2FAF93EF93E72FF8
S11328E0EF936F93652F6F934F93432F4F932F93D2
S11328F0292F2F938F930E9419558DB79EB70A964F
S11329000FB6F894DEBF0FBECDBFDF91CF911F91FC
S11329100F910895FF920F931F93CF93DF93CDB739
S1132920DEB78091FF03082F10E08091FE03A82FEB
S1132930B0E08091FD03E82FF0E08091FC03682F64
S113294070E08091FB03482F50E08091FA03282F18
S113295030E085E592E0F12EFF92102F1F931B2F9C
S11329601F93AF93AF2FAF93EF93E72FEF936F9333
S1132970652F6F934F93432F4F932F93292F2F93AB
S11329808F930E9419558DB79EB70E960FB6F89483
S1132990DEBF0FBECDBFDF91CF911F910F91FF908E
S11329A00895CF93DF93CDB7DEB780916402282FCB
S11329B030E087E792E0432F4F932F93292F2F93F3
S11329C08F930E9419550F900F900F900F90DF91E5
S11329D0CF910895CF93DF931F92CDB7DEB71982BD
S11329E09EC18981282F30E0C901880F991F820F69
S11329F0931F880F991F880F991F87509D4FFC01C3
S1132A008081482F50E08981282F30E08FE892E0C0
S1132A10652F6F934F93432F4F932F93292F2F930A
S1132A208F930E9419550F900F900F900F900F9055
S1132A300F908981282F30E0C901880F991F820FD8
S1132A40931F880F991F880F991F86509D4FFC0173
S1132A508081282F30E08CE992E0432F4F932F930D
S1132A60292F2F938F930E9419550F900F900F9039
S1132A700F908981282F30E0C901880F991F820F98
S1132A80931F880F991F880F991F85509D4FFC0134
S1132A908081282F30E081EA92E0432F4F932F93D7
S1132AA0292F2F938F930E9419550F900F900F90F9
S1132AB00F908981282F30E0C901880F991F820F58
S1132AC0931F880F991F880F991F84509D4FFC01F5
S1132AD08081282F30E086EA92E0432F4F932F9392
S1132AE0292F2F938F930E9419550F900F900F90B9
S1132AF00F908981282F30E0C901880F991F820F18
S1132B00931F880F991F880F991F83509D4FFC01B5
S1132B108081282F30E08BEA92E0432F4F932F934C
S1132B20292F2F938F930E9419550F900F900F9078
S1132B300F908981282F30E0C901880F991F820FD7
S1132B40931F880F991F880F991F82509D4FFC0176
S1132B508081282F30E080EB92E0432F4F932F9316
S1132B60292F2F938F930E9419550F900F900F9038
S1132B700F908981282F30E0C901880F991F820F97
S1132B80931F880F991F880F991F81509D4FFC0137
S1132B9080819181A281B3819927AA27BB2725EB44
S1132BA032E04B2F4F934A2F4F93492F4F938F93DC
S1132BB0832F8F93822F8F930E9419550F900F901C
S1132BC00F900F900F900F908981282F30E0C9014A
S1132BD0880F991F820F931F880F991F880F991FC1
S1132BE081509D4FFC0180819181A281B38188270E
S1132BF0AA27BB27892F9A2FAB2FBB272EEB32E0B6
S1132C004B2F4F934A2F4F93492F4F938F93832FDB
S1132C108F93822F8F930E9419550F900F900F90CE
S1132C200F900F900F908981282F30E0C901880FF1
S1132C30991F820F931F880F991F880F991F815026
S1132C409D4FFC0180819181A281B38188279927BE
S1132C50BB27CD01AA27BB2723EC32E04B2F4F9390
S1132C604A2F4F93492F4F938F93832F8F93822F04
S1132C708F930E9419550F900F900F900F900F9003
S1132C800F908981282F30E0C901880F991F820F86
S1132C90931F880F991F880F991F81509D4FFC0126
S1132CA080819181A281B3818B2F9927AA27BB2789
S1132CB028EC32E04B2F4F934A2F4F93492F4F93D9
S1132CC08F93832F8F93822F8F930E9419550F9088
S1132CD00F900F900F900F900F908981282F30E064
S1132CE0C901880F991F820F931F880F991F880F9E
S1132CF0991F8D5F9C4FFC01208131818DEC92E006
S1132D00432F4F932F93292F2F938F930E9419555D
S1132D100F900F900F900F9089818F5F8983898125
S1132D20853008F45ECE0F90DF91CF910895CF9354
S1132D30DF931F92CDB7DEB7198209C18981282F8D
S1132D4030E08AED92E0432F4F932F93292F2F9356
S1132D508F930E9419550F900F900F900F908981B7
S1132D60282F30E046E1429FC001439F900D11247B
S1132D70855B9C4FFC0180819181A281B38199275D
S1132D80AA27BB272EED32E04B2F4F934A2F4F93A8
S1132D90492F4F938F93832F8F93822F8F930E946A
S1132DA019550F900F900F900F900F900F908981ED
S1132DB0282F30E046E1429FC001439F900D11242B
S1132DC0855B9C4FFC0180819181A281B38188271E
S1132DD0AA27BB27892F9A2FAB2FBB2727EE32E0D8
S1132DE04B2F4F934A2F4F93492F4F938F93832FFA
S1132DF08F93822F8F930E9419550F900F900F90ED
S1132E000F900F900F908981282F30E046E1429F68
S1132E10C001439F900D1124855B9C4FFC01808170
S1132E209181A281B38188279927BB27CD01AA2745
S1132E30BB272CEE32E04B2F4F934A2F4F93492F51
S1132E404F938F93832F8F93822F8F930E941955C3
S1132E500F900F900F900F900F900F908981282F53
S1132E6030E046E1429FC001439F900D1124855BF1
S1132E709C4FFC0180819181A281B3818B2F992782
S1132E80AA27BB2721EF32E04B2F4F934A2F4F93B2
S1132E90492F4F938F93832F8F93822F8F930E9469
S1132EA019550F900F900F900F900F900F908981EC
S1132EB0282F30E046E1429FC001439F900D11242A
S1132EC0815B9C4FFC0180819181382F222789816D
S1132ED0482F50E066E1649FC001659F900D112466
S1132EE0815B9C4FFC0180819181892F9927282B3C
S1132EF0392B86EF92E0432F4F932F93292F2F9353
S1132F008F930E9419550F900F900F900F90898105
S1132F10282F30E046E1429FC001439F900D1124C9
S1132F20825A9C4FFC018081282F30E081E093E09D
S1132F30432F4F932F93292F2F938F930E9419552B
S1132F400F900F900F900F9089818F5F89838981F3
S1132F50853008F4F3CE0F90DF91CF910895CF938D
S1132F60DF93CDB7DEB7809136039091370320917C
S1132F70380330913903880F991F8E579E4FFC01F7
S1132F80318320838091360390913703880F991FF2
S1132F908E579E4FFC014081518120913603309120
S1132FA037038EE093E0652F6F934F93432F4F9336
S1132FB02F93292F2F938F930E9419550F900F90C1
S1132FC00F900F900F900F90DF91CF910895CF93B2
S1132FD0DF93CDB7DEB767970FB6F894DEBF0FBEA9
S1132FE0CDBF8091D1039091D203A091D303B0912E
S1132FF0D40320E13EE040E050E0BC01CD010E945A
S1133000FD59DA01C90128E130E040E050E0BC019B
S1133010CD010E94FD59DC01CB0189838091D1034C
S11330209091D203A091D303B091D4032CE330E068
S113303040E050E0BC01CD010E94FD59DA01C90114
S11330402CE330E040E050E0BC01CD010E94FD598A
S1133050DC01CB018A838091D1039091D203A091AA
S1133060D303B091D4032CE330E040E050E0BC0142
S1133070CD010E94FD59DC01CB018B838B81682F2C
S113308070E08A81482F50E08981282F30E08FE258
S113309093E0E72FEF936F93652F6F934F93432F35
S11330A04F932F93292F2F938F930E9419558DB7E8
S11330B09EB708960FB6F894DEBF0FBECDBF6796D5
S11330C00FB6F894DEBF0FBECDBFDF91CF91089548
S11330D0CF93DF93CDB7DEB7DF91CF910895CF9330
S11330E0DF93CDB7DEB7DF91CF910895EF92FF92D2
S11330F00F931F93CF93DF93CDB7DEB786E393E0AF
S1133100FC0180819181892B09F457C061EB78E03F
S113311080913603909137039C0140E050E0809108
S1133120380390913903CC01A0E0B0E0BA2FA92F65
S1133130982F8827280F391F4A1F5B1F80913A0355
S113314090913B03CC01A0E0B0E0DC0199278827F3
S1133150280F391F4A1F5B1F80913C0390913D0348
S1133160CC01A0E0B0E0B82FAA2799278827820FC6
S1133170931FA41FB51FFB0180839183A283B38394
S113318081EB98E0FC0180819181A281B381BC0133
S1133190CD010E94FB4581EB98E0FC018081918187
S11331A0A281B381EE24E394F12C01E010E020E04D
S11331B048E0BC01CD010E944947DF91CF911F91A6
S11331C00F91FF90EF900895CF93DF9300D000D03C
S11331D000D0CDB7DEB780E790E09A8389838981F8
S11331E09A819C012F5F3F4F3A8329839C838B8371
S11331F08B819C81FC0184918D838D818E838E8152
S1133200282F30E085E493E0432F4F932F93292F09
S11332102F938F930E9419550F900F900F900F903A
S11332208E818823E1F626960FB6F894DEBF0FBE92
S1133230CDBFDF91CF910895CF93DF9300D01F923C
S1133240CDB7DEB719821BC08FE390E0FC0180810B
S1133250882F90E082709927892BB1F78981882F74
S113326090E08754974FFC0120818981882F90E05A
S11332704E96622F0E94645C89818F5F8983898165
S1133280843010F31A821BC08FE390E0FC0180812C
S1133290882F90E082709927892BB1F78A81882F33
S11332A090E08F53974FFC0120818A81882F90E012
S11332B08296622F0E94645C8A818F5F8A838A81EE
S11332C0843010F31B821BC08FE390E0FC018081EB
S11332D0882F90E082709927892BB1F78B81882FF2
S11332E090E08354974FFC0120818B81882F90E0DC
S11332F08696622F0E94645C8B818F5F8B838B81A7
S1133300843010F30F900F900F90DF91CF910895B8
S11333100F931F93CF93DF93CDB7DEB709EB18E07C
S113332040EC58EA61E073E68EE190E00E94483D8B
S1133330DC01CB01F80180839183A283B38301EC88
S113334018E04FEF5FEF6FEF70E082E290E00E94D1
S1133350483DDC01CB01F80180839183A283B383D0
S11333600DEB18E040EC58EA61E071E086E290E091
S11333700E94483DDC01CB01F80180839183A28344
S1133380B38366EC78E089EB98E0FC01208131811D
S11333904281538181EC98E0FC0180819181A2817A
S11333A0B381282339234A235B2381EC98E0FC0171
S11333B080819181A281B38180959095A095B095EB
S11333C0822B932BA42BB52BFB0180839183A283A7
S11333D0B383DF91CF911F910F910895CF93DF9322
S11333E0CDB7DEB7C054D1090FB6F894DEBF0FBE17
S11333F0CDBF8BE290E02BE230E0F9012081206127
S1133400FC01208380E090E0A0E1B1E489839A8309
S1133410AB83BC832BEA3AEA4AEA50E469817A81B5
S11334208B819C810E943559DC01CB018D839E8365
S1133430AF83B88720E030E040E850E469817A81C6
S11334408B819C810E943559DC01CB0189879A8745
S1133450AB87BC8720E030E040E85FE36D817E818C
S11334608F8198850E949A5788231CF481E08D8768
S1133470B2C020E03FEF4FE757E469857A858B853A
S11334809C850E94305918160CF07BC020E030E077
S11334904AE754E469817A818B819C810E949F5719
S11334A0DC01CB018E879F87A88BB98B20E030E0AD
S11334B04AE755E46E857F85888999890E94355944
S11334C0DC01CB018A8B9B8BAC8BBD8B20E030E085
S11334D040E85FE36A897B898C899D890E949A57B9
S11334E088232CF481E090E09F8B8E8B3FC020E0FA
S11334F03FEF4FE757E46A897B898C899D890E9455
S1133500305918164CF520E030E040E251E46E8565
S11335107F85888999890E943559DC01CB01BC01DA
S1133520CD010E941158DC01CB019F8B8E8B0FC003
S113353080E991E0998F888F888D998D0197F1F7B3
S1133540998F888F8E899F8901979F8B8E8B8E8907
S11335509F89892B69F73FC06A897B898C899D89FA
S11335600E941158DC01CB019F8B8E8B8E899F8921
S11335709B8F8A8F8A8D9B8D0197F1F79B8F8A8F02
S11335802AC020E030E04FE753E46D817E818F81D3
S113359098850E9430591816ACF469857A858B8514
S11335A09C850E941158DC01CB019D8F8C8F8C8DE2
S11335B09D8D9F8F8E8F8E8D9F8D0197F1F79F8F9D
S11335C08E8F0FC06D817E818F8198850E941158E6
S11335D0DC01CB018D878D8588A388A18A95F1F7BD
S11335E088A38BE290E02BE230E0F90120812F7E6A
S11335F0FC01208380E090E0A0E1B1E489A39AA3D8
S1133600ABA3BCA32BEA3AEA4AEA50E469A17AA143
S11336108BA19CA10E943559DC01CB018DA39EA3F3
S1133620AFA3B8A720E030E040E850E469A17AA154
S11336308BA19CA10E943559DC01CB0189A79AA7D3
S1133640ABA7BCA720E030E040E85FE36DA17EA11A
S11336508FA198A50E949A5788231CF481E08DA716
S1133660B2C020E03FEF4FE757E469A57AA58BA5E8
S11336709CA50E94305918160CF07BC020E030E065
S11336804AE754E469A17AA18BA19CA10E949F57A7
S1133690DC01CB018EA79FA7A8ABB9AB20E030E03B
S11336A04AE755E46EA57FA588A999A90E943559D2
S11336B0DC01CB018AAB9BABACABBDAB20E030E013
S11336C040E85FE36AA97BA98CA99DA90E949A5747
S11336D088232CF481E090E09FAB8EAB3FC020E0C8
S11336E03FEF4FE757E46AA97BA98CA99DA90E94E3
S11336F0305918164CF520E030E040E251E46EA554
S11337007FA588A999A90E943559DC01CB01BC0188
S1133710CD010E941158DC01CB019FAB8EAB0FC0D1
S113372080E991E099AF88AF88AD99AD0197F1F741
S113373099AF88AF8EA99FA901979FAB8EAB8EA935
S11337409FA9892B69F73FC06AA97BA98CA99DA968
S11337500E941158DC01CB019FAB8EAB8EA99FA9AF
S11337609BAF8AAF8AAD9BAD0197F1F79BAF8AAF50
S11337702AC020E030E04FE753E46DA17EA18FA181
S113378098A50E9430591816ACF469A57AA58BA5A2
S11337909CA50E941158DC01CB019DAF8CAF8CAD70
S11337A09DAD9FAF8EAF8EAD9FAD0197F1F79FAFEB
S11337B08EAF1CC06DA17EA18FA198A50E94115847
S11337C0DC01CB018DA72DA5CE01805C9F4FFC01B0
S11337D02083CE01805C9F4FFC018081282F2A9595
S11337E0F1F7CE01805C9F4FFC012083C05CDF4F6A
S11337F00FB6F894DEBF0FBECDBFDF91CF91089511
S11338000F931F93CF93DF93CDB7DEB7C056D10983
S11338100FB6F894DEBF0FBECDBF87E290E02FEF66
S1133820FC0120838AE290E02FEFFC0120838BE2ED
S113383090E02BE230E0F90120812068FC01208334
S11338408BE290E02BE230E0F90120812F77FC013C
S1133850208380E090E0A6E9B3E489839A83AB8374
S1133860BC832BEA3AEA4AEA50E469817A818B8183
S11338709C810E943559DC01CB018D839E83AF83EB
S1133880B88720E030E040E850E469817A818B8198
S11338909C810E943559DC01CB0189879A87AB87CB
S11338A0BC8720E030E040E85FE36D817E818F815A
S11338B098850E949A5788231CF481E08D87B2C0B2
S11338C020E03FEF4FE757E469857A858B859C8537
S11338D00E94305918160CF07BC020E030E04AE713
S11338E054E469817A818B819C810E949F57DC0119
S11338F0CB018E879F87A88BB98B20E030E04AE705
S113390055E46E857F85888999890E943559DC0143
S1133910CB018A8B9B8BAC8BBD8B20E030E040E8E5
S11339205FE36A897B898C899D890E949A578823E1
S11339302CF481E090E09F8B8E8B3FC020E03FEF22
S11339404FE757E46A897B898C899D890E943059A5
S113395018164CF520E030E040E251E46E857F8596
S1133960888999890E943559DC01CB01BC01CD01BC
S11339700E941158DC01CB019F8B8E8B0FC080E914
S113398091E0998F888F888D998D0197F1F7998FA0
S1133990888F8E899F8901979F8B8E8B8E899F89B3
S11339A0892B69F73FC06A897B898C899D890E942C
S11339B01158DC01CB019F8B8E8B8E899F899B8F45
S11339C08A8F8A8D9B8D0197F1F79B8F8A8F2AC0EE
S11339D020E030E04FE753E46D817E818F8198854C
S11339E00E9430591816ACF469857A858B859C85BC
S11339F00E941158DC01CB019D8F8C8F8C8D9D8D85
S1133A009F8F8E8F8E8D9F8D0197F1F79F8F8E8F55
S1133A100FC06D817E818F8198850E941158DC01D1
S1133A20CB018D878D8588A388A18A95F1F788A31A
S1133A308BE290E02BE230E0F90120812068FC0168
S1133A40208380E090E0A6E9B3E489A39AA3ABA322
S1133A50BCA32BEA3AEA4AEA50E469A17AA18BA111
S1133A609CA10E943559DC01CB018DA39EA3AFA379
S1133A70B8A720E030E040E850E469A17AA18BA126
S1133A809CA10E943559DC01CB0189A79AA7ABA759
S1133A90BCA720E030E040E85FE36DA17EA18FA1E8
S1133AA098A50E949A5788231CF481E08DA7B2C080
S1133AB020E03FEF4FE757E469A57AA58BA59CA5C5
S1133AC00E94305918160CF07BC020E030E04AE721
S1133AD054E469A17AA18BA19CA10E949F57DC01A7
S1133AE0CB018EA79FA7A8ABB9AB20E030E04AE793
S1133AF055E46EA57FA588A999A90E943559DC01D2
S1133B00CB018AAB9BABACABBDAB20E030E040E873
S1133B105FE36AA97BA98CA99DA90E949A5788236F
S1133B202CF481E090E09FAB8EAB3FC020E03FEFF0
S1133B304FE757E46AA97BA98CA99DA90E94305933
S1133B4018164CF520E030E040E251E46EA57FA564
S1133B5088A999A90E943559DC01CB01BC01CD018A
S1133B600E941158DC01CB019FAB8EAB0FC080E9E2
S1133B7091E099AF88AF88AD99AD0197F1F799AF0E
S1133B8088AF8EA99FA901979FAB8EAB8EA99FA9E1
S1133B90892B69F73FC06AA97BA98CA99DA90E94BA
S1133BA01158DC01CB019FAB8EAB8EA99FA99BAFB3
S1133BB08AAF8AAD9BAD0197F1F79BAF8AAF2AC05C
S1133BC020E030E04FE753E46DA17EA18FA198A5DA
S1133BD00E9430591816ACF469A57AA58BA59CA54A
S1133BE00E941158DC01CB019DAF8CAF8CAD9DAD13
S1133BF09FAF8EAF8EAD9FAD0197F1F79FAF8EAFA4
S1133C001CC06DA17EA18FA198A50E941158DC0152
S1133C10CB018DA72DA5CE01805C9F4FFC01208395
S1133C20CE01805C9F4FFC018081282F2A95F1F7FB
S1133C30CE01805C9F4FFC0120838BE290E02BE25D
S1133C4030E0F90120812F77FC0120839E012F5B56
S1133C503F4F80E090E0A6E9B3E4F90180839183CB
S1133C60A283B3838E010B5B1F4FCE018F5B9F4FEB
S1133C702BEA3AEA4AEA50E4FC01608171818281CC
S1133C8093810E943559DC01CB01F8018083918333
S1133C90A283B3838E01075B1F4FCE018F5B9F4FBF
S1133CA020E030E040E850E4FC01608171818281D1
S1133CB093810E943559DC01CB01F8018083918303
S1133CC0A283B383CE018B5B9F4F20E030E040E8BA
S1133CD05FE3FC0160817181828193810E949A5724
S1133CE088233CF4CE01835B9F4F21E0FC012083B9
S1133CF030C1CE01875B9F4F20E03FEF4FE757E491
S1133D00FC0160817181828193810E94305918166F
S1133D100CF0D1C0CE018F5B9F4F20E030E04AE72A
S1133D2054E4FC0160817181828193810E949F57D8
S1133D30DC01CB019E01225B3F4FF901808391831B
S1133D40A283B3838E010E5A1F4FCE01825B9F4F15
S1133D5020E030E04AE755E4FC0160817181828112
S1133D6093810E943559DC01CB01F8018083918352
S1133D70A283B383CE018E5A9F4F20E030E040E807
S1133D805FE3FC0160817181828193810E949A5773
S1133D9088234CF4CE018A5A9F4F21E030E0FC0185
S1133DA0318320836DC0CE018E5A9F4F20E03FEFB8
S1133DB04FE757E4FC0160817181828193810E9405
S1133DC0305918160CF04AC0CE01825B9F4F20E098
S1133DD030E040E251E4FC01608171818281938191
S1133DE00E943559DC01CB018E010A5A1F4FBC01D8
S1133DF0CD010E941158DC01CB01F801918380832D
S1133E0024C0CE01885A9F4F20E931E0FC01318360
S1133E102083CE01885A9F4FFC01808191810197B4
S1133E20F1F79E01285A3F4FF90191838083CE0117
S1133E308A5A9F4F9E012A5A3F4FF90120813181AE
S1133E4021503109FC0131832083CE018A5A9F4FCE
S1133E50FC0180819181892BA1F67BC08E010A5AD5
S1133E601F4FCE018E5A9F4FFC0160817181828168
S1133E7093810E941158DC01CB01F8019183808366
S1133E80CE01865A9F4F9E012A5A3F4FF901208145
S1133E903181FC0131832083CE01865A9F4FFC017E
S1133EA0808191810197F1F79E01265A3F4FF901D4
S1133EB0918380834EC0CE018B5B9F4F20E030E026
S1133EC04FE753E4FC0160817181828193810E94F8
S1133ED0305918166CF58E01045A1F4FCE01875BBA
S1133EE09F4FFC0160817181828193810E941158EE
S1133EF0DC01CB01F80191838083CE01825A9F4F6C
S1133F009E01245A3F4FF90120813181FC01318304
S1133F102083CE01825A9F4FFC01808191810197B9
S1133F20F1F79E01225A3F4FF9019183808328C003
S1133F308E01035B1F4FCE018B5B9F4FFC016081A1
S1133F407181828193810E941158DC01CB01F801B7
S1133F508083CE01805A9F4F9E01235B3F4FF9011E
S1133F602081FC012083CE01805A9F4FFC01808177
S1133F70282F2A95F1F7CE01805A9F4FFC01208308
S1133F808BE290E02BE230E0F90120812068FC0113
S1133F9020830E94D91F0E946A22C05ADF4F0FB6A5
S1133FA0F894DEBF0FBECDBFDF91CF911F910F916B
S1133FB00895CF93DF93CDB7DEB78BE290E02BE289
S1133FC030E0F90120812062FC0120838BE290E043
S1133FD02BE230E0F90120812064FC0120838BE294
S1133FE090E02BE230E0F90120812B7FFC0120835B
S1133FF08BE290E02BE230E0F9012081277FFC0185
S1134000208388E290E02FE3FC0120830E94EE19D4
S1134010DF91CF910895CF93DF93CDB7DEB78BE2D5
S113402090E02BE230E0F90120812062FC01208342
S11340308BE290E02BE230E0F90120812064FC0166
S113404020838BE290E02BE230E0F90120812B7F8A
S1134050FC0120838BE290E02BE230E0F901208127
S1134060277FFC01208388E290E02EE3FC0120837B
S11340700E94EE19DF91CF910895CF93DF931F92A1
S1134080CDB7DEB789838BE290E02BE230E0F90113
S113409020812B7FFC0120838BE290E02BE230E037
S11340A0F9012081277FFC0120838BE290E02BE241
S11340B030E0F90120812062FC0120838BE290E052
S11340C02BE230E0F90120812064FC01208388E2A6
S11340D090E02981206CFC0120830E94EE190F904E
S11340E0DF91CF910895CF93DF9300D01F92CDB786
S11340F0DEB79B838A838BE290E02BE230E0F90108
S113410020812B7FFC0120838BE290E02BE230E0C6
S1134110F9012081277FFC0120838A819B818034DF
S11341209105A8F48BE290E02BE230E0F9012081C4
S11341302062FC0120838BE290E02BE230E0F90165
S113414020812F7BFC0120838A8189831CC08A8182
S11341509B8180389105B0F48BE290E02BE230E053
S1134160F90120812F7DFC0120838BE290E02BE27A
S113417030E0F90120812064FC0120838A8180548D
S1134180898301C00BC089818F738064898388E22D
S113419090E02981FC0120830E94EE190F900F907A
S11341A00F90DF91CF910895CF93DF9300D01F92AA
S11341B0CDB7DEB79B838A838BE290E02BE230E0BD
S11341C0F90120812B7FFC0120838BE290E02BE21C
S11341D030E0F9012081277FFC0120838A818770E8
S11341E0886B898388E290E02981FC0120830E9406
S11341F0EE190F900F900F90DF91CF910895CF9308
S1134200DF9300D000D0CDB7DEB79A8389837C8357
S11342106B8389819A810E9473208B819C810E9487
S1134220D4200F900F900F900F90DF91CF910895AD
S1134230CF93DF93CDB7DEB7A1970FB6F894DEBF67
S11342400FBECDBF89A38BE290E02BE230E0F901F1
S113425020812460FC0120838BE290E02BE230E09B
S1134260F9012081277FFC01208388E290E029A1C5
S1134270FC01208380E090E0A0E2B1E489839A838A
S1134280AB83BC832BEA3AEA4AEA50E469817A8137
S11342908B819C810E943559DC01CB018D839E83E7
S11342A0AF83B88720E030E040E850E469817A8148
S11342B08B819C810E943559DC01CB0189879A87C7
S11342C0AB87BC8720E030E040E85FE36D817E810E
S11342D08F8198850E949A5788231CF481E08D87EA
S11342E0B2C020E03FEF4FE757E469857A858B85BC
S11342F09C850E94305918160CF07BC020E030E0F9
S11343004AE754E469817A818B819C810E949F579A
S1134310DC01CB018E879F87A88BB98B20E030E02E
S11343204AE755E46E857F85888999890E943559C5
S1134330DC01CB018A8B9B8BAC8BBD8B20E030E006
S113434040E85FE36A897B898C899D890E949A573A
S113435088232CF481E090E09F8B8E8B3FC020E07B
S11343603FEF4FE757E46A897B898C899D890E94D6
S1134370305918164CF520E030E040E251E46E85E7
S11343807F85888999890E943559DC01CB01BC015C
S1134390CD010E941158DC01CB019F8B8E8B0FC085
S11343A080E991E0998F888F888D998D0197F1F735
S11343B0998F888F8E899F8901979F8B8E8B8E8989
S11343C09F89892B69F73FC06A897B898C899D897C
S11343D00E941158DC01CB019F8B8E8B8E899F89A3
S11343E09B8F8A8F8A8D9B8D0197F1F79B8F8A8F84
S11343F02AC020E030E04FE753E46D817E818F8155
S113440098850E9430591816ACF469857A858B8595
S11344109C850E941158DC01CB019D8F8C8F8C8D63
S11344209D8D9F8F8E8F8E8D9F8D0197F1F79F8F1E
S11344308E8F0FC06D817E818F8198850E94115867
S1134440DC01CB018D878D8588A388A18A95F1F73E
S113445088A30E94EE19A1960FB6F894DEBF0FBE92
S1134460CDBFDF91CF910895CF93DF9300D01F92FA
S1134470CDB7DEB78B838B81882F90E0BC0180E0C1
S113448090E00E94FF208B81882F90E0BC0180E4A3
S113449090E00E94FF208BE290E02BE230E0F901F3
S11344A020812062FC0120831A82198208C080E0E6
S11344B00E94182189819A8101969A83898389812E
S11344C09A81803491059CF30F900F900F90DF91A7
S11344D0CF910895CF93DF9300D0CDB7DEB71A8282
S11344E0198208C089810E94342289819A810196A7
S11344F09A83898389819A810897A4F30F900F90F6
S1134500DF91CF9108950F931F93CF93DF93CDB78E
S1134510DEB7C25AD1090FB6F894DEBF0FBECDBFC5
S11345209E012E553F4FF9018083198287E290E066
S1134530FC0110828BE290E02BE230E0F901208153
S11345402860FC0120838BE290E02BE230E0F9014B
S113455020812460FC012083CE018E559F4FFC01F5
S11345608081803498F48BE290E02BE230E0F90112
S113457020812062FC0120838BE290E02BE230E07A
S1134580F90120812F7BFC01208312C08BE290E093
S11345902BE230E0F90120812064FC0120838BE2CE
S11345A090E02BE230E0F90120812F7DFC01208393
S11345B080E090E0A0E8BFE38A839B83AC83BD8363
S11345C02BEA3AEA4AEA50E46A817B818C819D8134
S11345D00E943559DC01CB018E839F83A887B9875C
S11345E020E030E040E850E46A817B818C819D8149
S11345F00E943559DC01CB018A879B87AC87BD8734
S113460020E030E040E85FE36E817F818885998512
S11346100E949A5788231CF481E08E87B2C020E060
S11346203FEF4FE757E46A857B858C859D850E9423
S1134630305918160CF07BC020E030E04AE754E40F
S11346406A817B818C819D810E949F57DC01CB0113
S11346508F87988BA98BBA8B20E030E04AE755E42A
S11346606F85788989899A890E943559DC01CB0143
S11346708B8B9C8BAD8BBE8B20E030E040E85FE3FE
S11346806B897C898D899E890E949A5788232CF492
S113469081E090E0988F8F8B3FC020E03FEF4FE7A1
S11346A057E46B897C898D899E890E94305918163C
S11346B04CF520E030E040E251E46F857889898947
S11346C09A890E943559DC01CB01BC01CD010E94BD
S11346D01158DC01CB01988F8F8B0FC080E991E0DA
S11346E09A8F898F898D9A8D0197F1F79A8F898F87
S11346F08F89988D0197988F8F8B8F89988D892BAF
S113470069F73FC06B897C898D899E890E94115805
S1134710DC01CB01988F8F8B8F89988D9C8F8B8F29
S11347208B8D9C8D0197F1F79C8F8B8F2AC020E095
S113473030E04FE753E46E817F81888599850E943C
S113474030591816ACF46A857B858C859D850E944A
S11347501158DC01CB019E8F8D8F8D8D9E8D98A37A
S11347608F8F8F8D98A10197F1F798A38F8F0FC02A
S11347706E817F81888599850E941158DC01CB0167
S11347808E878E8589A389A18A95F1F789A38BE207
S113479090E02BE230E0F90120812061FC012083CC
S11347A080E090E0A0E2B1E48AA39BA3ACA3BDA304
S11347B02BEA3AEA4AEA50E46AA17BA18CA19DA1C2
S11347C00E943559DC01CB018EA39FA3A8A7B9A7EA
S11347D020E030E040E850E46AA17BA18CA19DA1D7
S11347E00E943559DC01CB018AA79BA7ACA7BDA7C2
S11347F020E030E040E85FE36EA17FA188A599A5A1
S11348000E949A5788231CF481E08EA7BCC020E044
S11348103FEF4FE757E46AA57BA58CA59DA50E94B1
S1134820305918160CF07BC020E030E04AE754E41D
S11348306AA17BA18CA19DA10E949F57DC01CB01A1
S11348408FA798ABA9ABBAAB20E030E04AE755E4B8
S11348506FA578A989A99AA90E943559DC01CB01D1
S11348608BAB9CABADABBEAB20E030E040E85FE38C
S11348706BA97CA98DA99EA90E949A5788232CF420
S113488081E090E098AF8FAB3FC020E03FEF4FE76F
S113489057E46BA97CA98DA99EA90E9430591816CA
S11348A04CF520E030E040E251E46FA578A989A9F5
S11348B09AA90E943559DC01CB01BC01CD010E94AB
S11348C01158DC01CB0198AF8FAB0FC080E991E0A8
S11348D09AAF89AF89AD9AAD0197F1F79AAF89AFD5
S11348E08FA998AD019798AF8FAB8FA998AD892BFD
S11348F069F749C06BA97CA98DA99EA90E9411588A
S1134900DC01CB0198AF8FAB8FA998AD9CAF8BAF77
S11349108BAD9CAD0197F1F79CAF8BAF34C020E019
S113492030E04FE753E46EA17FA188A599A50E94CA
S113493030591816FCF46AA57BA58CA59DA50E9488
S11349401158DC01CB019EAF8DAF2DAD3EADCE0134
S1134950CF96FC0131832083CE01CF96FC01808168
S113496091810197F1F79E01215C3F4FF9019183F9
S113497080831CC06EA17FA188A599A50E941158AF
S1134980DC01CB018EA7CE018F5B9F4F2EA5FC01CE
S11349902083CE018F5B9F4FFC018081282F2A95B5
S11349A0F1F7CE018F5B9F4FFC0120838BE290E0F7
S11349B02BE230E0F90120812F7EFC0120839E014F
S11349C02E5B3F4F80E090E0A0EAB1E4F9018083E0
S11349D09183A283B3838E010A5B1F4FCE018E5B4A
S11349E09F4F2BEA3AEA4AEA50E4FC016081718164
S11349F0828193810E943559DC01CB01F8018083C7
S1134A009183A283B3838E01065B1F4FCE018E5B1D
S1134A109F4F20E030E040E850E4FC016081718168
S1134A20828193810E943559DC01CB01F801808396
S1134A309183A283B383CE018A5B9F4F20E030E051
S1134A4040E85FE3FC0160817181828193810E946F
S1134A509A5788233CF4CE01825B9F4F21E0FC01EE
S1134A60208330C1CE01865B9F4F20E03FEF4FE7AC
S1134A7057E4FC0160817181828193810E943059E5
S1134A8018160CF0D1C0CE018E5B9F4F20E030E0B1
S1134A904AE754E4FC0160817181828193810E9420
S1134AA09F57DC01CB019E01215B3F4FF9018083BD
S1134AB09183A283B3838E010D5A1F4FCE01815B74
S1134AC09F4F20E030E04AE755E4FC0160817181AA
S1134AD0828193810E943559DC01CB01F8018083E6
S1134AE09183A283B383CE018D5A9F4F20E030E09F
S1134AF040E85FE3FC0160817181828193810E94BF
S1134B009A5788234CF4CE01895A9F4F21E030E014
S1134B10FC01318320836DC0CE018D5A9F4F20E06C
S1134B203FEF4FE757E4FC016081718182819381FB
S1134B300E94305918160CF04AC0CE01815B9F4F79
S1134B4020E030E040E251E4FC0160817181828127
S1134B5093810E943559DC01CB018E01095A1F4F04
S1134B60BC01CD010E941158DC01CB01F8019183F5
S1134B70808324C0CE01875A9F4F20E931E0FC0195
S1134B8031832083CE01875A9F4FFC01808191811C
S1134B900197F1F79E01275A3F4FF90191838083D2
S1134BA0CE01895A9F4F9E01295A3F4FF901208116
S1134BB0318121503109FC0131832083CE01895A8E
S1134BC09F4FFC0180819181892BA1F67BC08E01CE
S1134BD0095A1F4FCE018D5A9F4FFC01608171818C
S1134BE0828193810E941158DC01CB01F8019183E9
S1134BF08083CE01855A9F4F9E01295A3F4FF90168
S1134C0020813181FC0131832083CE01855A9F4F5D
S1134C10FC01808191810197F1F79E01255A3F4F54
S1134C20F901918380834EC0CE018A5B9F4F20E0BF
S1134C3030E04FE753E4FC0160817181828193810C
S1134C400E94305918166CF58E01035A1F4FCE017D
S1134C50865B9F4FFC0160817181828193810E94F8
S1134C601158DC01CB01F80191838083CE01815A74
S1134C709F4F9E01235A3F4FF90120813181FC014E
S1134C8031832083CE01815A9F4FFC018081918121
S1134C900197F1F79E01215A3F4FF90191838083D7
S1134CA028C08E01025B1F4FCE018A5B9F4FFC011F
S1134CB060817181828193810E941158DC01CB0152
S1134CC0F8018083CE018F599F4F9E01225B3F4F95
S1134CD0F9012081FC012083CE018F599F4FFC01F3
S1134CE08081282F2A95F1F7CE018F599F4FFC011F
S1134CF020838BE290E02BE230E0F90120812061F7
S1134D00FC0120839E012E593F4F80E090E0A0E8F3
S1134D10BFE3F90180839183A283B3838E010A598F
S1134D201F4FCE018E599F4F2BEA3AEA4AEA50E4CC
S1134D30FC0160817181828193810E943559DC017B
S1134D40CB01F80180839183A283B3838E0106593A
S1134D501F4FCE018E599F4F20E030E040E850E4D1
S1134D60FC0160817181828193810E943559DC014B
S1134D70CB01F80180839183A283B383CE018A5946
S1134D809F4F20E030E040E85FE3FC0160817181E7
S1134D90828193810E949A5788233CF4CE018259E0
S1134DA09F4F21E0FC01208330C1CE0186599F4FE3
S1134DB020E03FEF4FE757E4FC016081718182817D
S1134DC093810E94305918160CF0D1C0CE018E592F
S1134DD09F4F20E030E04AE754E4FC016081718198
S1134DE0828193810E949F57DC01CB019E0121594E
S1134DF03F4FF90180839183A283B3838E010D58C1
S1134E001F4FCE0181599F4F20E030E04AE755E41F
S1134E10FC0160817181828193810E943559DC019A
S1134E20CB01F80180839183A283B383CE018D5893
S1134E309F4F20E030E040E85FE3FC016081718136
S1134E40828193810E949A5788234CF4CE01895819
S1134E509F4F21E030E0FC01318320836DC0CE01FF
S1134E608D589F4F20E03FEF4FE757E4FC016081EE
S1134E707181828193810E94305918160CF04AC0C6
S1134E80CE0181599F4F20E030E040E251E4FC0123
S1134E9060817181828193810E943559DC01CB014B
S1134EA08E0109581F4FBC01CD010E941158DC012D
S1134EB0CB01F8019183808324C0CE0187589F4F92
S1134EC020E931E0FC0131832083CE0187589F4FD4
S1134ED0FC01808191810197F1F79E0127583F4F92
S1134EE0F90191838083CE0189589F4F9E012958EF
S1134EF03F4FF9012081318121503109FC01318377
S1134F002083CE0189589F4FFC0180819181892B98
S1134F10A1F67BC08E0109581F4FCE018D589F4FBB
S1134F20FC0160817181828193810E941158DC01AE
S1134F30CB01F80191838083CE0185589F4F9E0158
S1134F4029583F4FF90120813181FC0131832083AD
S1134F50CE0185589F4FFC01808191810197F1F723
S1134F609E0125583F4FF901918380834EC0CE01A5
S1134F708A599F4F20E030E04FE753E4FC01608101
S1134F807181828193810E94305918166CF58E01CB
S1134F9003581F4FCE0186599F4FFC0160817181D8
S1134FA0828193810E941158DC01CB01F801918325
S1134FB08083CE0181589F4F9E0123583F4FF901B2
S1134FC020813181FC0131832083CE0181589F4FA0
S1134FD0FC01808191810197F1F79E0121583F4F97
S1134FE0F9019183808328C08E0102591F4FCE019D
S1134FF08A599F4FFC0160817181828193810E9453
S11350001158DC01CB01F8018083CE018F579F4FEB
S11350109E0122593F4FF9012081FC012083CE01DA
S11350208F579F4FFC018081282F2A95F1F7CE01DD
S11350308F579F4FFC01208386E290E0FC01808122
S113504089838BE290E02BE230E0F90120812F7E0E
S1135050FC0120839E012E573F4F80E090E0A0E8A2
S1135060BFE3F90180839183A283B3838E010A573E
S11350701F4FCE018E579F4F2BEA3AEA4AEA50E47B
S1135080FC0160817181828193810E943559DC0128
S1135090CB01F80180839183A283B3838E010657E9
S11350A01F4FCE018E579F4F20E030E040E850E480
S11350B0FC0160817181828193810E943559DC01F8
S11350C0CB01F80180839183A283B383CE018A57F5
S11350D09F4F20E030E040E85FE3FC016081718194
S11350E0828193810E949A5788233CF4CE0182578F
S11350F09F4F21E0FC01208330C1CE0186579F4F92
S113510020E03FEF4FE757E4FC0160817181828129
S113511093810E94305918160CF0D1C0CE018E57DD
S11351209F4F20E030E04AE754E4FC016081718144
S1135130828193810E949F57DC01CB019E012157FC
S11351403F4FF90180839183A283B3838E010D566F
S11351501F4FCE0181579F4F20E030E04AE755E4CE
S1135160FC0160817181828193810E943559DC0147
S1135170CB01F80180839183A283B383CE018D5642
S11351809F4F20E030E040E85FE3FC0160817181E3
S1135190828193810E949A5788234CF4CE018956C8
S11351A09F4F21E030E0FC01318320836DC0CE01AC
S11351B08D569F4F20E03FEF4FE757E4FC0160819D
S11351C07181828193810E94305918160CF04AC073
S11351D0CE0181579F4F20E030E040E251E4FC01D2
S11351E060817181828193810E943559DC01CB01F8
S11351F08E0109561F4FBC01CD010E941158DC01DC
S1135200CB01F8019183808324C0CE0187569F4F40
S113521020E931E0FC0131832083CE0187569F4F82
S1135220FC01808191810197F1F79E0127563F4F40
S1135230F90191838083CE0189569F4F9E0129569F
S11352403F4FF9012081318121503109FC01318323
S11352502083CE0189569F4FFC0180819181892B47
S1135260A1F67BC08E0109561F4FCE018D569F4F6C
S1135270FC0160817181828193810E941158DC015B
S1135280CB01F80191838083CE0185569F4F9E0107
S113529029563F4FF90120813181FC01318320835C
S11352A0CE0185569F4FFC01808191810197F1F7D2
S11352B09E0125563F4FF901918380834EC0CE0154
S11352C08A579F4F20E030E04FE753E4FC016081B0
S11352D07181828193810E94305918166CF58E0178
S11352E003561F4FCE0186579F4FFC016081718189
S11352F0828193810E941158DC01CB01F8019183D2
S11353008083CE0181569F4F9E0123563F4FF90162
S113531020813181FC0131832083CE0181569F4F4E
S1135320FC01808191810197F1F79E0121563F4F45
S1135330F9019183808328C08E0102571F4FCE014B
S11353408A579F4FFC0160817181828193810E9401
S11353501158DC01CB01F8018083CE018F559F4F9A
S11353609E0122573F4FF9012081FC012083CE0189
S11353708F559F4FFC018081282F2A95F1F7CE018C
S11353808F559F4FFC01208387E290E02FEFFC01B3
S113539020838981CE55DF4F0FB6F894DEBF0FBE50
S11353A0CDBFDF91CF911F910F9108951F93CF939C
S11353B0DF9300D000D000D0CDB7DEB79B838A83C3
S11353C07D836C834E8319828C819D819C013695EB
S11353D0279536952795369527958A819B81B9011E
S11353E00E94FF208E81882F90E0892BA1F48C816C
S11353F09D819C012770332781E090E002C0880FD3
S1135400991F2A95E2F7182F10958A810E9483220A
S11354108123898313C08C819D819C01277033274C
S113542081E090E002C0880F991F2A95E2F7182FB7
S11354308A810E948322812B898300008C819D8133
S11354409C013695279536952795369527958A811B
S11354509B81B9010E94FF2089810E941821269610
S11354600FB6F894DEBF0FBECDBFDF91CF911F9171
S113547008950F93CF93DF93CDB7DEB729970FB677
S1135480F894DEBF0FBECDBF9C838B837E836D8378
S11354904F83288709878B819C819A83898312C0D3
S11354A089819A812D813E814985B9010E94D6293D
S11354B088858F5F882F90E029813A81820F931F1E
S11354C09A83898329813A818F81482F50E08B8187
S11354D09C81840F951F2817390710F329960FB65E
S11354E0F894DEBF0FBECDBFDF91CF910F91089529
S11354F00F93CF93DF93CDB7DEB72A970FB6F89407
S1135500DEBF0FBECDBF9C838B837E836D835887A4
S11355104F8329870A878D819E819A83898312C04C
S113552029813A818B819C814A85B9010E94D629BF
S113553089858F5F882F90E029813A81820F931F9C
S11355409A8389832F8138858D819E81280F391F05
S113555089819A818217930718F32A960FB6F894D3
S1135560DEBF0FBECDBFDF91CF910F9108956F9233
S11355707F928F929F92AF92BF92CF92DF92EF92DF
S1135580FF920F93CF93DF93CDB7DEB72B970FB670
S1135590F894DEBF0FBECDBF9D838C837F836E8363
S11355A0598748872A870B8788858B83198200C28D
S11355B04885598528853985429FC001439F900DB0
S11355C0529F900D11242981422F50E02981222FCE
S11355D030E0429FB001439F700D529F700D112423
S11355E09B01821B930BCC01A0E0B0E0BC01CD0178
S11355F00E944058DC01CB01BC01CD010E94A85996
S1135600DC01CB01BC01CD010E941158DC01CB01AE
S11356108A838A81282F30E08E819F81B901680FA7
S1135620791F8981282F30E08C819D81820F931FFF
S11356304B850E94D6298A81882F90E02E813F8154
S1135640B901681B790B8981282F30E08C819D81F9
S1135650820F931F4B850E94D6298A81282F30E020
S11356608E819F81B901680F791F8981882F90E00D
S11356702C813D81A901481B590BCA014B850E940D
S1135680D6298A81882F90E02E813F81B901681B39
S1135690790B8981882F90E02C813D81F901E81BE9
S11356A0F90BCF014B850E94D6298B81282F30E03E
S11356B08A81882F90E0A901481B590BCA019923BC
S11356C01CF491958195910902970CF46CC18B811E
S11356D0282F30E08A81882F90E0B901681B790B6C
S11356E0CB0199231CF49195819591093C018E81FC
S11356F09F81CC01A0E0B0E0BC01CD010E944058E4
S11357006B017C018A81882F90E0A0E0B0E0BC01AD
S1135710CD010E9440584B015C018B81882F90E0A1
S1135720A0E0B0E0BC01CD010E944058DC01CB01F7
S1135730A5019401BC01CD010E949C58DC01CB0160
S11357409C01AD01C701B6010E942E57DC01CB01BB
S113575020E030E040E85FE3BC01CD010E942E5719
S1135760DC01CB01BC01CD010E941158DC01CB014D
S1135770BC018981282F30E08C819D81820F931F89
S113578001970B852A85A3010E94782A8B81282FF3
S113579030E08A81882F90E0F901E81BF90BCF01F2
S11357A099231CF49195819591093C018E819F81E7
S11357B0CC01A0E0B0E0BC01CD010E9440586B01D7
S11357C07C018A81882F90E0A0E0B0E0BC01CD018B
S11357D00E9440584B015C018B81882F90E0A0E02F
S11357E0B0E0BC01CD010E944058DC01CB01A50111
S11357F09401BC01CD010E947D58DC01CB019C01C8
S1135800AD01C701B6010E942D57DC01CB01BC01DB
S1135810CD010E941158DC01CB01BC018981282FE4
S113582030E08C819D81820F931F01970B852A851F
S1135830A3010E94782A8B81282F30E08A81882F47
S113584090E0A901481B590BCA0199231CF49195B6
S1135850819591093C018E819F81CC01A0E0B0E04B
S1135860BC01CD010E9440586B017C018A81882FC4
S113587090E0A0E0B0E0BC01CD010E9440584B0193
S11358805C018B81882F90E0A0E0B0E0BC01CD01E9
S11358900E944058DC01CB01A5019401BC01CD015B
S11358A00E949C58DC01CB019C01AD01C701B601EB
S11358B00E942E57DC01CB0120E030E040E85FE39A
S11358C0BC01CD010E942E57DC01CB01BC01CD01EE
S11358D00E941158DC01CB01BC018981882F90E022
S11358E02C813D81F901E81BF90BCF0101960B8551
S11358F02A85A3010E94782A8B81282F30E08A818F
S1135900882F90E0A901481B590BCA0199231CF464
S11359109195819591093C018E819F81CC01A0E0F4
S1135920B0E0BC01CD010E9440586B017C018A812A
S1135930882F90E0A0E0B0E0BC01CD010E94405867
S11359404B015C018B81882F90E0A0E0B0E0BC01AA
S1135950CD010E944058DC01CB01A5019401BC019A
S1135960CD010E947D58DC01CB019C01AD01C70132
S1135970B6010E942D57DC01CB01BC01CD010E9470
S11359801158DC01CB01BC018981882F90E02C8166
S11359903D81F901E81BF90BCF0101960B852A859E
S11359A0A3010E94782A8A818B8389818F5F8983EE
S11359B08981282F30E0888599852817390708F4CC
S11359C0F7CD8A81482F50E08981282F30E08C81DF
S11359D09D81820F931F01976E817F810B852A859C
S11359E00E94782A8A81482F50E08A81882F90E08B
S11359F02E813F81B901681B790B8981282F30E002
S1135A008C819D81820F931F01970B852A850E94AB
S1135A10782A8A81482F50E08981882F90E02C8150
S1135A203D81B901681B790BCB0101966E817F81A1
S1135A300B852A850E94782A8A81482F50E08A8122
S1135A40882F90E02E813F81B901681B790B8981F1
S1135A50882F90E02C813D81F901E81BF90BCF01DF
S1135A6001960B852A850E94782A2B960FB6F89406
S1135A70DEBF0FBECDBFDF91CF910F91FF90EF90AE
S1135A80DF90CF90BF90AF909F908F907F906F905A
S1135A900895EF920F93CF93DF93CDB7DEB72A9794
S1135AA00FB6F894DEBF0FBECDBF9A8389837C8383
S1135AB06B835E834D8338872F830987EA869D81B4
S1135AC08981392F381B6B817C8189819A810A8570
S1135AD02985432F0E94392A9D818981392F381BBA
S1135AE06F81788589819A810A852985432F0E944F
S1135AF0392A2F8138858B819C81A901481B590B38
S1135B00CA01AC016B817C8189819A810A852985CE
S1135B100E94782A2F8138858B819C81A901481B9A
S1135B20590BCA010196AC016B817C818D819E81E8
S1135B300A8529850E94782A2A960FB6F894DEBF32
S1135B400FBECDBFDF91CF910F91EF900895CF930A
S1135B50DF9300D000D000D0CDB7DEB79A8389831D
S1135B607C836B834D832E838E81882F90E02981E3
S1135B703A81820F931F9A83898336C08D81815025
S1135B808D838D81882F90E029813A81F901E80F76
S1135B90F91F4B815C819A01ADECBCEC0E941F5A49
S1135BA0969587959695879596958795880F991FCD
S1135BB09C01220F331F220F331F820F931F9A0160
S1135BC0281B390BC901805D80838B819C819C01DA
S1135BD0ADECBCEC0E941F5A9695879596958795D7
S1135BE0969587959C838B838D81882339F6269699
S1135BF00FB6F894DEBF0FBECDBFDF91CF910895ED
S1135C00CF93DF9300D0CDB7DEB789836A839981C0
S1135C108A81891710F4898101C08A810F900F90BD
S1135C20DF91CF910895CF93DF9300D0CDB7DEB746
S1135C3089836A8399818A81891710F48A8101C0D2
S1135C4089810F900F90DF91CF9108950F931F9347
S1135C50CF93DF9300D000D0CDB7DEB79A8389838A
S1135C606B834C8389819A81FC018081882399F517
S1135C7089819A812B81FC0121838C81813051F4AB
S1135C8089819A812EE0FC01228389819A812FEFF8
S1135C90FC0120838C81823051F489819A8121E036
S1135CA0FC01228389819A8121E0FC01208389817E
S1135CB09A81FC018281682F70E089819A81FC01BC
S1135CC08181882F90E001E010E020E030E043E0A3
S1135CD050E00E94B72A0F900F900F900F90DF9121
S1135CE0CF911F910F910895CF93DF9300D000D0EF
