S00C00006D61696E2E7372656373
S11300000C94AC090C94C9090C94C9090C94C90941
S11300100C94C9090C94C9090C94C9090C94C90914
S11300200C94C9090C94C9090C94C9090C94C90904
S11300300C94C9090C94C9090C94C9090C94C909F4
S11300400C94C9090C94C9090C94C9090C94C909E4
S11300500C94C9090C94C9090C94C9090C94C909D4
S11300600C94C9090C94C9090C94C9090C94C909C4
S1130070C100C100C100C10000000000C200C200F4
S1130080FE00FE0001000000C300C3001F001F00AB
S113009001000000C400C400FC00FC0001000000DA
S11300A0C500C500C500C50001000100C600BD00B3
S11300B0BF00BE0001000100C700C700C000C000AF
S11300C001000000C80082008400830001000100D8
S11300D0C900C900FD00FD0001000000CA00850040
S11300E08700860001000100CB0088008A00890097
S11300F001000100CC008B00CC008B00010001004A
S1130100CD008C00CD008C0001000100CE00110058
S1130110CE00110001000100CF00CF001300130036
S113012001000000D000D0008F008F00010000000B
S1130130D100D1001B001B0001000000D200D2003E
S11301409100910001000000D300920094009300FC
S113015001000100D4009500970096000100010001
S1130160D50017009A00990001000100D6009B00F9
S11301709D009C0001000100D700D700D700D700E4
S113018000000000D800D8009E009E00010001007D
S1130190D900D9009F009F0001000100DA00A000EF
S11301A0A200A10001000100DB00A300A500A4003F
S11301B001000100DC00DC00DC00DC0000000000C9
S11301C0DD00A600A800A70001000100DE00A900D0
S11301D0AB00AA0001000100DF00AC00AE00AD00DE
S11301E001000100E000E000E000E0000000000089
S11301F0E100AF00B100B00001000100E200E20044
S1130200E200E20000000000E300B200B400B3002A
S113021001000100E400B500B700B60001000100D0
S1130220E500B800BA00B90001000100E600E600EC
S1130230BC00BC0001000000E700E700E700E700A5
S113024000000000E800E800E800E800000000000A
S1130250E900E900E900E90000000000EA00EA0022
S1130260EA00EA0000000000EB00EB00EB00EB000A
S113027000000000EC00BD00BF00BE000100010052
S1130280ED00BD00BF00BE0001000100EE00EE0065
S1130290EE00EE0000000000EF00EF00EF00EF00C2
S11302A000000000F000F000F000F000000000008A
S11302B0F100F100F100F10000000000F200F20092
S11302C0F200F20000000000F300F300F300F3007A
S11302D000000000F500F500F500F5000000000046
S11302E0F600F600F600F60000000000F700F70044
S11302F0F700F70000000000F800F800F800F8002C
S113030000000000FB00F900FB00FA0001000100FE
S1130310BB00BB00F400F4000100000081001C00DD
S11303201E001D0001000100900018001A001900B1
S113033001000100980014001600150001000100DE
S11303408E008E0012001200010000008D001000CB
S11303508D001000010001000000000000000000FA
S11303600000000000000000000000000000000089
S11303700000000000000000000000000000000079
S11303800000000000000000000000000000000069
S11303900000000000000000000000000000000059
S11303A00000000000000000000000000000000049
S11303B00000000000000000000000000000000039
S11303C00000000000000000000000000000000029
S11303D00000000000000000000000000000000019
S11303E00000000000000000000000000000000009
S11303F000000000000000000000000000000000F9
S113040000000000000000000000000000000000E8
S113041000000000000000000000000000000000D8
S113042000000000000000000000000000000000C8
S113043000000000000000000000000000000000B8
S113044000000000000000000000000000000000A8
S11304500000000000000000200020002800280008
S11304606800B000600020002000200028002A005E
S1130470280030002000200000008000800044009C
S11304803200240020002000000024002400240066
S11304903800200020002000200020002000200040
S11304A024002A0011000000200020002000240065
S11304B02A0011002000200030002000200020002D
S11304C024002A0011002000200020003000200019
S11304D030002800280018002000240022002100F9
S11304E024002A001100000024002200210024001E
S11304F02A001100200020003000240022002100E6
S113050024002A0011002000000080008000400028
S11305103000200020002000200020002000600087
S1130520A0006000280030002000200020006000AF
S1130530B0006000200020000000300028006000AF
S1130540A0006000300020000000040006001D0030
S1130550250024002000200000000000000000000E
S11305600000000000000000000000004F00000038
S11305700000000000000000000007000000070069
S11305800000000000000000000014007F001400C0
S11305907F00140000000000000024002A007F00F7
S11305A02A001200000000000000230013000800CD
S11305B0640062000000000000003600490055009D
S11305C022004000000000000000000005000300BD
S11305D0000000000000000000001C002200410098
S11305E000000000000000000000410022001C0088
S11305F000000000000000000000140008003E009D
S113060008001400000000000000080008003E007C
S11306100800080000000000000000002800180086
S113062000000000000000000000080008000800AE
S1130630080008000800000000003000300000003E
S1130640000000000000000000002000100008006E
S1130650040002000000000000003E0051004900B8
S113066045003E00000000000000000042007F0042
S11306704000000000000000000042006100510042
S11306804900460000000000000021004100450030
S11306904B0031000000000000001800140012009C
S11306A07F0010000000000000000000270045004B
S11306B0450045003900000000003C004A004900A4
S11306C04900300000000000000001007100090032
S11306D00500030000000000000036004900490046
S11306E049003600000000000000060049004900EF
S11306F029001E0000000000000000003600360043
S11307000000000000000000000000005600360059
S11307100000000000000000000008001400220097
S11307204100000000000000000024002400240018
S1130730240024000000000000000000410022000A
S11307401400080000000000000002000100510035
S11307500900060000000000000032004900790092
S113076041003E000000000000007E001100110066
S113077011007E000000000000007F0049004900D5
S1130780490036000000000000003E004100410026
S1130790410022000000000000007F0041004100F1
S11307A022001C000000000000007F0049004900F6
S11307B0490041000000000000007F00090009001A
S11307C0090001000000000000003E004100490053
S11307D049003A000000000000007F000800080003
S11307E008007F00000000000000000041007F00BE
S11307F04100000000000000000020004000410013
S11308003F0001000000000000007F000800140009
S1130810220041000000000000007F004000400072
S1130820400040000000000000007F0002000C00B7
S113083002007F000000000000007F0004000800A8
S113084010007F000000000000003E004100410055
S113085041003E000000000000007F000900090084
S113086009000600000000003E0041005100210084
S11308705E0000000000000000007F000900190075
S1130880290046000000000000004600490049001D
S113089049003100000000000000010001007F0059
S11308A0010001000000000000003F004000400083
S11308B040003F000000000000001F002000400036
S11308C020001F000000000000003F004000600006
S11308D040003F0000000000000063001400080016
S11308E0140063000000000000000700080070000E
S11308F008000700000000000000610051004900EA
S1130900450043000000000000007F00410041005A
S113091000000000000000000000150016007C002C
S113092016001500000000000000410041007F0097
S113093000000000000000000000040002000100AC
S113094002000400000000000000400040004000DD
S1130950400040000000000000000100020004000C
S113096000000000000000000000200054005400BB
S1130970540078000000000000007F0044004400A0
S11309804400380000000000000038004400440027
S1130990440000000000000000003800440044004F
S11309A048007F000000000000003800540054009C
S11309B05400180000000000000010007E00110028
S11309C0010002000000000000000C005200520070
S11309D052003E000000000000007F0008000400F8
S11309E004007800000000000000000044007D00C6
S11309F04000000000000000000020004000400013
S1130A003D0000000000000000007F0010002800EE
S1130A1044000000000000000000000041007F00CE
S1130A20400000000000000000007C0004001800EA
S1130A30040078000000000000007C0008000400AE
S1130A400400780000000000000038004400440066
S1130A50440038000000000000007C001400140072
S1130A601400080000000000000008001400140036
S1130A7018007C000000000000007C000800040056
S1130A800400080000000000000048005400540066
S1130A905400200000000000000004003F00440057
S1130AA0400020000000000000003C004000400026
S1130AB020007C000000000000001C00200040001A
S1130AC020001C000000000000001E002000100098
S1130AD020001E0000000000000022001400080096
S1130AE01400220000000000000006004800480036
S1130AF048003E0000000000000044006400540070
S1130B004C004400000000000000080036004100D2
S1130B1000000000000000000000000000007F0052
S1130B200000000000000000000041003600080042
S1130B3000000000000000000000080008002A0077
S1130B401C00080000000000000008001C002A002F
S1130B50080008000000000000003C0042004100C2
S1130B6042003C000000000000003000280060004B
S1130B70A000600028003000200020002000200099
S1130B80A0002000280030002000200020002000C9
S1130B90B0002000200020000000300028002000C9
S1130BA0A0002000300020002000200020002200AF
S1130BB02000220028003000200020002000220015
S1130BC03000220020002000000030002800220015
S1130BD020002200300020002000200020002200FD
S1130BE021002200280030002000200020002200E4
S1130BF031002200200020000000300028002200E4
S1130C0021002200300020002000200028002800BD
S1130C102800B00020002000200020002800280028
S1130C2028003000200020000000C000A800280098
S1130C306800B00060002000000000008000800018
S1130C4044003200040000000000240025002400B9
S1130C503800200020002000300024002200210061
S1130C6024002A00110000000000800080004000E1
S1130C703400200020002000200020002000380044
S1130C802000380020001800200020003800200038
S1130C9038002000380020006000800080007800C8
S1130CA02000380020001800200020002000380018
S1130CB02200390022001800200020003800220001
S1130CC03900220038002000600080008000780095
S1130CD022003900220018003000200020002000EB
S1130CE024002A0011000000200030002000300001
S1130CF02800280038002000600080008000600088
S1130D003000280028003800200020003000200097
S1130D10300028002A001800200030002000300095
S1130D2028002A0038002000600080008000600055
S1130D30300028002A003800200020003E00300047
S1130D402800280038002000200020003E00300049
S1130D5028002A0038002000200020002000200065
S1130D60300028002800000020002000200030006F
S1130D70280028002000200000004000A000B0004F
S1130D80280028002000200020002000200020004F
S1130D90300028002A00000020002000200030003D
S1130DA028002A002000200000004000A000B0001D
S1130DB028002A002000200020002000200020001D
S1130DC0300028002A0030002000200030002800D5
S1130DD02A0030002000200000001800200020001D
S1130DE0300028002A0030002000200020002000CD
S1130DF030002A00280032002000200030002A00A1
S1130E002800320020002000600080008000B20032
S1130E10A8007A00200020002200250025002500DB
S1130E2025002500250019002000200020001C00BA
S1130E302200210020002000300028002C002A007D
S1130E4020003F002000200020002000200020007F
S1130E50200020001F0000000F0018000100010006
S1130E6001001000D800CF00000030004000400016
S1130E703F0020002000200020002000200020004F
S1130E8030004800480030002000200030004800B6
S1130E90480030002000200080004000300048005E
S1130EA04800300020002000200020002000200006
S1130EB02200200018000000200020002000200054
S1130EC01A002000200020003000400044004000B0
S1130ED030002000200020002000200020003000EE
S1130EE028003A002C0018002000200030002800C0
S1130EF03A002C00380020000000180014001400F0
S1130F0018002000200020000000210022002400FE
S1130F10280010000F0000000000B000A8007800B6
S1130F202000200020002000200020002000A0003D
S1130F302000A00028003000200020002000A00095
S1130F403000A0002000200000006000800080002D
S1130F50A00050001000200000001E00200020000F
S1130F602000200020002000000020003000280085
S1130F70280020000000000000000400020002001D
S1130F803A00020002000100000000000400060014
S1130F903D00050004000000000000000400B6004D
S1130FA0AD007D0004000000000000008000C000CF
S1130FB0BF00A000800000000400660085009500CA
S1130FC0A800A800480000000000000000003F0046
S1130FD00000000000000000000030002800200095
S1130FE0A0002000280030000000000030002A008B
S1130FF02800320000000000000030002800220019
S113100020002200280030000000300028002200C8
S113101021002200280030000000C000A800A80021
S11310202800B000200020000000C000A800A80094
S1131030A8003000200020000000C000A800AA0082
S113104028003000200020000000000024002400BC
S113105024003800000000000000000024002500E7
S113106024003800000000000000800080004000E0
S1131070300000000000000000000000800080003C
S11310804000340000000000600080008000780010
S113109020003800200018006000800080007800E4
S11310A022003900220018006000800080006000E7
S11310B030002800280018006000800080006000D4
S11310C0300028002A001800000022001400080044
S11310D01400220000000000200020003E00300028
S11310E02800280018000000200020003E003000E6
S11310F028002A0018000000000000004000A000A2
S1131100B000280028000000000000004000A000FB
S1131110B0002A0028000000200020002000200049
S113112020002000200020000000180020002000E3
S1131130300028002A003000000060008000800099
S1131140B200A8007A0000000000300028002C0043
S11311502A0020003F00000000004000A900AA006F
S1131160A800F00000000000000000006000800003
S113117080007E000000000000004000AA00A900DA
S1131180AA00F0000000000000000000C0002000E1
S113119030002800280030000000000060008000BB
S11311A0880080006000000000000000300028007B
S11311B02800300000000000000000000000B00023
S11311C0A800780000000000040026002500250087
S11311D0280010000F000000040022002200260056
S11311E0290010000F00000000002100220024004C
S11311F0A800D000AF00A00000007000AA00A90061
S1131200AA0030000000000000007000AA00A8003E
S1131210AA00300000000000000030004000400040
S1131220500028000800000000003000C00040000A
S1131230D00028000800000000000000020079002F
S1131240020000000000000000000000020078001E
S11312500200000000000000000000000000000088
S11312600000050005000500000000000000040067
S113127003000B0006000600A000A000A000000070
S11312800000000000000000000000000100010058
S113129001000100000000000000210022002400E1
S11312A0280010002F0020000000000000000000B3
S11312B00000040003000300000000008000800020
S11312C080008000000000000000000010001000FA
S11312D05400100010000000000000000200040090
S11312E00200040002000000200024002600250063
S11312F025002000280030002000240026002500BE
S1131300350020002000200008006C008A008A00BC
S1131310A0005000100020000400B600AD007D00C5
S113132024002000200020000000190014001500F3
S113133018002000200020000400020002001A000F
S11313402200220021002000000040006000500024
S1131350480050004000400011241FBECFEFD0E1F0
S1131360DEBFCDBF11E0A0E0B1E0EAE5FDE102C0DF
S113137005900D92AC30B107D9F721E0ACE0B1E0B3
S113138001C01D92AF30B207E1F70E94390E0C94F0
S1131390AB0E0C9400005C9A80E38A95F1F75C989C
S11313A080E38A95F1F708955D9A5E9A5A985B985E
S11313B08FE388B90E94CB0908955A985B988034CA
S11313C0910518F45D9A5E9803C05D985E9A805406
S11313D08F73806488B90E94CB0908955A985B98EA
S11313E08770886B88B90E94CB090895CF93DF93E7
S11313F0EB010E94DD09CE010E94EE09DF91CF913D
S113140008955A9A5B9888B985E38A95F1F70000A4
S11314100E94CB090895CF93DF93C82FD0E0BE017B
S113142080E090E00E94F609BE0180E490E00E9412
S1131430F6095D9AC0E4D0E080E00E94010A219799
S1131440D9F7DF91CF910895CF93C0E08C2F0E94FC
S11314500B0ACF5FC830D1F7CF91089517B85B9AC4
S11314605A9A803418F45D9A5E9802C05E9A5D9828
S113147085E08A95F1F700005C9A95E39A95F1F777
S113148000005C988AE68A95F1F700C05C9A95E0C2
S11314909A95F1F7000086B15C9895E09A95F1F77A
S11314A000009FEF97B908958FEF87B98AB95F9AC3
S11314B05F988FEA94E00197F1F700C000005F9A0B
S11314C08FEA94E00197F1F700C000005F988FEA7B
S11314D094E00197F1F700C000005F9A0E94D409DC
S11314E00E94240A0895DF92EF92FF920F931F93B4
S11314F0CF93DF93F82EE92EEB01D42E8B011695B2
S113150007951695079516950795B8010E94F60953
S1131510DD2021F081E0D81689F01FC08F2D0E94B4
S11315202E0AC770DD2721E030E002C0220F331FEE
S1131530CA95E2F72095C82FC22310C08F2D0E94B0
S11315402E0AC770DD2721E030E002C0220F331FCE
S1131550CA95E2F7C82FC22B01C0C0E0B8018F2D95
S11315609E2D0E94F6098C2F0E94010ADF91CF91D3
S11315701F910F91FF90EF90DF900895AF92BF926B
S1131580CF92DF92EF92FF920F93CF93DF936C0190
S1131590C40ED11C8C159D0588F47B012F5FA22EEF
S11315A0B12CEC01CA0DDB1D402FB7010E94730A58
S11315B0CE01CA0DDB1D8C159D05B0F3DF91CF91D3
S11315C00F91FF90EF90DF90CF90BF90AF90089570
S11315D0AF92BF92CF92DF92EF92FF920F93CF938D
S11315E0DF935C01EB016B01C40ED51E6C157D0508
S11315F068F42F5FE22EF12C402FBE01C5010E943A
S1131600730ACE0DDF1DCC15DD05B0F3DF91CF914C
S11316100F91FF90EF90DF90CF90BF90AF9008951F
S11316208F929F92AF92BF92CF92DF92EF92FF92EE
S11316300F931F93CF93DF93F82EB92E6B01A42E33
S1131640852EE901102F942E981A0E2D212F492D45
S11316500E94BE0A212F492DBE018F2D9B2D0E9471
S1131660BE0ACC19DD09212FAE01B6018F2D9B2DA9
S11316700E94E80AAE014F5F5F4F212FB6018A2D09
S1131680982D0E94E80ADF91CF911F910F91FF904E
S1131690EF90DF90CF90BF90AF909F908F90089580
S11316A04423E9F0E82FF92F30E090E078E050E0AF
S11316B013C08081869560FD02C08C9302C080684F
S11316C08C939F5F941302C06695952F215089F7E0
S11316D03F5F3196341719F0272FDF01EACF0895C1
S11316E02F923F924F925F926F927F928F929F922E
S11316F0AF92BF92CF92DF92EF92FF920F931F931C
S1131700CF93DF93CDB7DEB72C970FB6F894DEBF37
S11317100FBECDBF8C01862F972F5A834983B22EDB
S11317202DB73EB73C872B872B2C312CEDB7FEB75A
S113173028E0B29EE019F10911240FB6F894FEBF17
S11317400FBEEDBF31967F01FA87E987C62ED72EEB
S11317500E94DD0989819A810E94EE09000F111F00
S1131760000F111F000F111F000F111F085A1C4FEB
S11317706894AA24A3F8F80164914B2DC7010E9430
S1131780500BAA940E5F1F4FE20CF31CA110F3CF71
S1131790BB2009F456C044244A944B0C512CFFEF4F
S11317A04F1A5F0A1E821D823C822B82CF82D8860A
S11317B03DC00034110531F469817A8180E490E000
S11317C00E94F609F70180810E94010A0F5F1F4FF2
S11317D0C016D10671F7FFEFAF1ABF0A2B813C8107
S11317E0820E931E38E0A316B10471F06401C40C98
S11317F0D51C84012A9C70012B9CF00C3A9CF00CA3
S11318001124E60CF71CD5CF89819A8101969A831D
S11318108983BC018F8198850E94F609ED81FE8140
S11318203196FE83ED83E415F50559F08F80988495
S1131830A12CB12C69847A842D813E81620E731EA1
S1131840D5CF8B859C850FB6F8949EBF0FBE8DBFF8
S11318502C960FB6F894DEBF0FBECDBFDF91CF91AB
S11318601F910F91FF90EF90DF90CF90BF90AF90BA
S11318709F908F907F906F905F904F903F902F90AC
S11318800895EF92FF920F931F93CF93DF93C82F86
S1131890D62FF72E142FE52E213009F090C08E3864
S11318A079F030F4813809F48FC08D3859F00CC0C8
S11318B0803921F0883909F489C006C0CBEF87C08C
S11318C0CDEF85C0CEEF83C0C13C08F495C08BC07A
S11318D0815C9109FC01EE0FFF1FE80FF91FEE0F69
S11318E0FF1FEE0FFF1FE658FF4FE491EE2391F127
S11318F02C2F30E0215C3109F901EE0FFF1FE20FBC
S1131900F31FEE0FFF1FEE0FFF1FE858FF4FE49188
S1131910EE2301F19C01220F331F820F931F880FC6
S1131920991FE0910E01F0E03196E80FF91FEE0FD8
S1131930FF1FE059FF4F849140910C0150E06091EA
S11319400D0170E0202F90E00E94700B82E08093E4
S11319500E0104C010920E01C13CE8F08C2F90E0FF
S1131960815C9109FC01EE0FFF1FE80FF91FEE0FD8
S1131970FF1F80910E01E80FF11DEE0FFF1FE059CC
S1131980FF4F8491202F412F5E2D6D2F7F2D90E0EE
S11319900E94700B09C0202F412F5E2D6D2F7F2DCB
S11319A08C2F90E00E94700B8C2F90E0909301019B
S11319B080930001D0930D0110930C0120C0202FBF
S11319C090E00E94700B1BC0CAEF01C0CCEF809165
S11319D0000190910101813C91050CF079CFBACFBF
S11319E010920E01BBCF8091000190910101813CC6
S11319F091050CF06DCFF4CF10920E01CCCFDF9196
S1131A00CF911F910F91FF90EF9008952F923F92E5
S1131A104F925F926F927F928F929F92AF92BF92FA
S1131A20CF92DF92EF92FF920F931F93CF93DF93A6
S1131A30CDB7DEB729970FB6F894DEBF0FBECDBF82
S1131A406C01798768872A0129830A830E2C000C8C
S1131A50FF08602E712CC7010896869D4001879D62
S1131A60900C969D900C112480E190E05C01A618E6
S1131A70B708AA0CBB1CAA0CBB1CAA0CBB1C10E00C
S1131A80212C312CFC82EB82F22EE02E19C0F601BF
S1131A90E80FF91F0E2D20E0A20168857985808169
S1131AA00E94410C28853985280D391D39872887DE
S1131AB0A216B30624F4460C571C288639861F5FE9
S1131AC0812F90E0F60101900020E9F73197EC199D
S1131AD0FD098E179F0730F1EB80FC80222433240C
S1131AE026183708220C331C220C331C220C331CFE
S1131AF088EF9FEF8E199F09689EF001699EF00D93
S1131B00789EF00D1124FF83EE834301880C991C09
S1131B10880C991C880C991CFFEF8F1A9F0AAB82C2
S1131B20BD823DC0FF2009F4B2CFEB80FC80D6CF4C
S1131B307601E20EF31EF7018081813E71F4F70114
S1131B409181973C09F442C0933C09F441C0923C12
S1131B5009F440C0953C09F43FC0A884B984A20CA0
S1131B60B31C0A8121E0A201B5010E94410CF701D6
S1131B708081803231F4AE80BF8028853985A20E01
S1131B80B31E1F5FB986A88688859985881599052F
S1131B9034F4460C571C9B819887ED81E987212FEB
S1131BA030E0F60101900020E9F73197EC19FD09C6
S1131BB02E173F0720F4F981F13009F4B9CF81ECF5
S1131BC090E0909301018093000116C089EF05C055
S1131BD087EE03C088EE01C089EE28853985220D81
S1131BE0331D398728870A8121E0A2016885798518
S1131BF00E94410C1E5FC8CF29960FB6F894DEBF31
S1131C000FBECDBFDF91CF911F910F91FF90EF9049
S1131C10DF90CF90BF90AF909F908F907F906F9008
S1131C205F904F903F902F900895EF92FF920F9303
S1131C301F93CF93DF937C01EB0161507109042F53
S1131C4020E043E00E94BE0A20E043E0BE01C70159
S1131C500E94BE0ABE016F5F7F4F20E043E0C701D0
S1131C600E94BE0ADF91CF911F910F91FF90EF90D8
S1131C70089580EF81B982B90E94540AE12C01E0F1
S1131C8020E043E050E064E170E082E091E00E94F3
S1131C90060D2FEF83ED90E3215080409040E1F753
S1131CA000C000000E94240AEE24E39400E02FE325
S1131CB030E040E650E060E070E080E290E00E94B6
S1131CC0100B01E020E04AE050E06BE170E082E2BA
S1131CD090E00E94E80A20E04AE050E06BE170E006
S1131CE08EE590E00E94E80AC3E2D0E041E060E2C1
S1131CF070E0CE010E94150E2FEF86E791E021508F
S1131D0080409040E1F700C0000040E060E270E0F5
S1131D10CE010E94150E2196CC35D10539F7CBE5BD
S1131D20D0E041E060E270E0CE010E94150E2FEF9A
S1131D3086E791E0215080409040E1F700C0000028
S1131D4040E060E270E0CE010E94150E2197C4329B
S10D1D50D10539F7C9CFF894FFCF8D
S10F1D5AC10050696E6720506F6E670076
S9030000FC
