:100000000C942A0F0C94470F0C94470F0C946E21FC
:100010000C94470F0C94470F0C94470F0C94C43367
:100020000C94470F0C94470F0C94470F0C94470FF8
:100030000C94470F0C94C9350C94470F0C94470F40
:100040000C94470F0C94470F0C94470F0C94470FD8
:100050000C94470F524553455420202D2072657350
:1000600065742074686520415652202D20436F6EC0
:1000700074726F6C6C65720D0A4152502020202002
:100080002D206C697374207468652041525020746F
:1000900061626C650D0A544350202020202D206C95
:1000A0006973742074686520746370207461626C75
:1000B000650D0A495020202020202D206C69737482
:1000C0002F6368616E67652069700D0A4E45542084
:1000D0002020202D206C6973742F6368616E676522
:1000E000206E65746D61736B0D0A524F5554455205
:1000F000202D206C6973742F6368616E67652072B0
:100100006F757465722069700D0A4E54502020205E
:10011000202D206C6973742F6368616E6765204EB3
:1001200054500D0A4E5450522020202D204E545031
:1001300020526566726573680D0A4D414320202088
:10014000202D206C697374204D41432D61646472CD
:100150006573730D0A564552202020202D206C69AE
:10016000737420656E632076657273696F6E206E9E
:10017000756D6265720D0A535620202020202D20B7
:10018000736574207661726961626C650D0A50490D
:100190004E472020202D2073656E642050696E67C5
:1001A0000D0A54494D452020202D20676574207488
:1001B000696D650D0A48454C502020202D20707235
:1001C000696E742048656C70746578740D0A3F2000
:1001D00020202020202D207072696E742048656CCC
:1001E00070746578740D0A004D792049503A2025C5
:1001F00031692E2531692E2531692E2531690D0A87
:10020000004E45544D41534B3A202531692E25313E
:10021000692E2531692E2531690D0A00526F7574DA
:1002200065722049503A202531692E2531692E25E5
:1002300031692E2531690D0A004D79204D41433A2F
:10024000202532783A2532783A2532783A253278A4
:100250003A2532783A2532780D0A00454E43323835
:100260004A36302D56657273696F6E3A20253178A3
:100270000D0A0025326920204D41433A253278008D
:100280002E253278002E253278002E253278002E49
:10029000253278002E25327800202049503A253327
:1002A00069002E253369002E253369002E25336918
:1002B00000202054696D653A2534690D0A00253205
:1002C0006900202049503A253369002E2533690002
:1002D0002E253369002E253369002020504F5254BB
:1002E0003A25346900202054696D653A2534690D3A
:1002F0000A00496E68616C742064657220566172F0
:100300006961626C655B2532695D203D202532693B
:100310000D0A000A0D54494D453A202532693A2507
:1003200032693A2532690D0A002563003C21444FA9
:1003300043545950452068746D6C205055424C49C7
:100340004320222D2F2F5733432F2F44544420482E
:10035000544D4C20342E3031205472616E736974C8
:10036000696F6E616C2F2F454E2220226874747065
:100370003A2F2F7777772E77332E6F72672F54525D
:100380002F68746D6C342F6C6F6F73652E6474649A
:10039000223E0D0A3C68746D6C3E3C686561643EAB
:1003A0000D0A3C6D65746120687474702D657175FB
:1003B00069763D22636F6E74656E742D7479706515
:1003C0002220636F6E74656E743D22746578742F9D
:1003D00068746D6C3B20636861727365743D49534A
:1003E0004F2D383835392D31223E0D0A3C74697451
:1003F0006C653E415652206D696E69205765627387
:100400006572766572203A20486F6D653C2F74697D
:10041000746C653E0D0A3C6C696E6B2072656C3DB8
:10042000227374796C6573686565742220747970C1
:10043000653D22746578742F63737322202068727F
:1004400065663D227374796C65732E637373223E07
:100450003C2F686561643E3C626F64793E0D0A3CE6
:1004600068313E415652206D696E6920576562734E
:100470006572766572203A20486F6D653C2F683151
:100480003E0D0A3C6469762069643D226E617622E5
:100490003E3C6120687265663D22696E6465782E17
:1004A00068746D223E486F6D653C2F613E3C612053
:1004B000687265663D227374617475732E68746D1D
:1004C000223E5374617475733C2F613E3C2F646906
:1004D000763E0D0A3C6469762069643D226D61694F
:1004E0006E223E3C68323E476CFC636B77756E73E0
:1004F0006368213C2F68323E3C62723E0D0A3C69C3
:100500006D67207372633D2272616B65742E67693B
:1005100066222077696474683D223930222068653C
:10052000696768743D2239322220616C743D222251
:100530003E3C62723E3C62723E0D0A3C703E447527
:1005400020686173742065732067657363686166F2
:1005500066743A20446572205765627365727665E9
:1005600072206CE4756674213C2F703E3C62723ED2
:100570003C68723E3C62723E0D0A3C6469762073B0
:1005800074796C653D2277696474683A32303070F2
:10059000783B6D617267696E3A2030206175746FC7
:1005A0003B223E0D0A3C646976207374796C653D8C
:1005B00022666C6F61743A6C6566743B776964742B
:1005C000683A3130307078223E0D0A3C666F726DA9
:1005D000206D6574686F643D22706F7374222061B2
:1005E0006374696F6E3D22696E6465782E68746D00
:1005F000223E0D0A3C696E707574206E616D653D1A
:10060000224F55542220747970653D2263686563DA
:100610006B626F78222076616C75653D22412220E5
:1006200025504F525441303E506F7274204120503B
:10063000696E20303C62723E0D0A3C696E707574C2
:10064000206E616D653D224F55542220747970658E
:100650003D22636865636B626F78222076616C75FA
:10066000653D2242222025504F525441313E506F69
:10067000727420412050696E20313C62723E0D0A36
:100680003C696E707574206E616D653D224F5554E6
:100690002220747970653D22636865636B626F78B0
:1006A000222076616C75653D2243222025504F52F1
:1006B0005441323E506F727420412050696E203296
:1006C0003C62723E3C62723E0D0A3C696E7075740B
:1006D000206E616D653D22535542222076616C7516
:1006E000653D2253656E64656E2220747970653DA8
:1006F000227375626D6974223E0D0A3C2F666F721B
:100700006D3E3C2F6469763E0D0A3C646976207329
:1007100074796C653D22666C6F61743A6C656674C1
:100720003B2077696474683A3130307078223E0D2E
:100730000A3C696D67207372633D222550494E441F
:10074000372220616C743D22223E20506F7274204B
:10075000442050696E20373C62723E3C696D6720D0
:100760007372633D222550494E44362220616C74D9
:100770003D22223E20506F727420442050696E202A
:10078000363C62723E3C696D67207372633D222580
:1007900050494E44352220616C743D22223E205047
:1007A0006F727420442050696E20353C62723E3C6A
:1007B0002F6469763E3C2F6469763E0D0A3C64697D
:1007C0007620636C6173733D22636C656172223EB7
:1007D0003C2F6469763E0D0A3C62723E3C68723E74
:1007E0003C62723E0D0A3C7461626C6520626F72FD
:1007F0006465723D22302220636C6173733D227404
:10080000656D7054626C2220616C69676E3D226375
:10081000656E746572222077696474683D22343095
:100820003070783B223E0D0A3C74723E0D0A3C74D7
:10083000683E45696E67616E673C2F74683E0D0ABD
:100840003C74683E42616C6B656E3C2F74683E0D73
:100850000A3C74683E54656D7065726174757220EF
:100860005BB0435D3C2F74683E0D0A3C2F74723EB2
:100870003C74723E0D0A3C74643E41442D4B616EE3
:10088000616C303C2F74643E0D0A3C7464207374B8
:10089000796C653D22746578742D616C69676E3A78
:1008A0006C656674223E3C696D67207372633D22FD
:1008B000696E6465782D4461746569656E2F626147
:1008C0006C6B652E6769662220616C743D22222064
:1008D0006865696768743D223130222077696474E5
:1008E000683D22255641403030223E3C2F74643E04
:1008F0000D0A3C74643E2556414030303C2F7464F0
:100900003E0D0A3C2F74723E3C74723E0D0A3C74DC
:10091000643E41442D4B616E616C313C2F74643EEA
:100920000D0A3C7464207374796C653D227465789B
:10093000742D616C69676E3A6C656674223E3C6921
:100940006D67207372633D22696E6465782D446122
:10095000746569656E2F62616C6B652E67696622CE
:1009600020616C743D2222206865696768743D22AD
:100970003130222077696474683D22255641403029
:1009800031223E3C2F74643E0D0A3C74643E255671
:10099000414030313C2F74643E0D0A3C2F74723E4E
:1009A0003C74723E0D0A3C74643E41442D4B616EB2
:1009B000616C323C2F74643E0D0A3C746420737485
:1009C000796C653D22746578742D616C69676E3A47
:1009D0006C656674223E3C696D67207372633D22CC
:1009E000696E6465782D4461746569656E2F626116
:1009F0006C6B652E6769662220616C743D22222033
:100A00006865696768743D223130222077696474B3
:100A1000683D22255641403032223E3C2F74643ED0
:100A20000D0A3C74643E2556414030323C2F7464BC
:100A30003E0D0A3C2F74723E3C74723E0D0A3C74AB
:100A4000643E41442D4B616E616C333C2F74643EB7
:100A50000D0A3C7464207374796C653D227465786A
:100A6000742D616C69676E3A6C656674223E3C69F0
:100A70006D67207372633D22696E6465782D4461F1
:100A8000746569656E2F62616C6B652E676966229D
:100A900020616C743D2222206865696768743D227C
:100AA0003130222077696474683D222556414030F8
:100AB00033223E3C2F74643E0D0A3C74643E25563E
:100AC000414030333C2F74643E0D0A3C2F74723E1B
:100AD0000D0A3C2F7461626C653E0D0A3C2F6469FF
:100AE000763E3C6469762069643D227461696C22BB
:100AF0003E3C6120687265663D22687474703A2FCE
:100B00002F7777772E756C72696368726164696795
:100B10002E6465223E7777772E756C7269636872F2
:100B2000616469672E64653C2F613E20556C726973
:100B3000636820526164696720323030383C2F642A
:100B400069763E0D0A3C2F626F64793E3C2F6874D3
:100B50006D6C3E25454E44003C21444F4354595052
:100B6000452068746D6C205055424C494320222D1D
:100B70002F2F5733432F2F4454442048544D4C209B
:100B8000342E3031205472616E736974696F6E61F6
:100B90006C2F2F454E222022687474703A2F2F77C5
:100BA00077772E77332E6F72672F54522F68746DBC
:100BB0006C342F6C6F6F73652E647464223E0D0A63
:100BC0003C68746D6C3E3C686561643E0D0A3C6D2A
:100BD00065746120687474702D65717569763D2245
:100BE000636F6E74656E742D747970652220636F07
:100BF0006E74656E743D22746578742F68746D6CC4
:100C00003B20636861727365743D49534F2D3838DA
:100C100035392D31223E0D0A3C7469746C653E41B4
:100C20005652206D696E69205765627365727665EC
:100C300072203A205374617475733C2F7469746C1C
:100C4000653E0D0A3C6C696E6B2072656C3D2273CB
:100C500074796C6573686565742220747970653D7C
:100C600022746578742F637373222020687265661E
:100C70003D227374796C65732E637373223E3C2F2F
:100C8000686561643E3C626F64793E3C68313E4118
:100C90005652206D696E692057656273657276657C
:100CA00072203A205374617475733C2F68313E0D85
:100CB0000A3C6469762069643D226E6176223E3C7E
:100CC0006120687265663D22696E6465782E68747D
:100CD0006D223E486F6D653C2F613E3C612068721D
:100CE00065663D227374617475732E68746D223E5F
:100CF0005374617475733C2F613E3C2F6469763E7A
:100D00000D0A3C6469762069643D226D61696E223A
:100D10003E0D0A436F6D70696C6965727420616D78
:100D200020446563203131203230313620756D200A
:100D300032303A31353A30383C62723E3C62723E73
:100D40000D0A436F6D70696C69657274206D69740A
:100D5000204743432056657273696F6E20342E39E5
:100D60002E323C62723E3C62723E0D0A42657375E1
:100D700063686572207365697420537461727420AE
:100D80006465732057656273657276657273202897
:100D9000255641403039293C62723E3C62723E0D1C
:100DA0000A3C2F6469763E3C6469762069643D2282
:100DB0007461696C223E3C6120687265663D226800
:100DC0007474703A2F2F7777772E756C7269636819
:100DD00072616469672E6465223E7777772E756C41
:100DE0007269636872616469672E64653C2F613E55
:100DF00020556C72696368205261646967203230E3
:100E000030383C2F6469763E0D0A3C2F626F64795E
:100E10003E3C2F68746D6C3E0D0A25454E440062C1
:100E20006F64797B6D617267696E3A2034307078D7
:100E30003B7D20626F64792C702C6469762C68315C
:100E40002C68322C74642C74687B666F6E742D660B
:100E5000616D696C793A73616E732D736572696641
:100E60003B666F6E742D73697A653A313170787DA7
:100E700068317B666F6E742D73697A653A323070B3
:100E8000783B636F6C6F723A77686974653B206278
:100E900061636B67726F756E642D636F6C6F723A0E
:100EA000233936423131433B6D617267696E3A31A5
:100EB00070783B70616464696E673A3570783B7432
:100EC0006578742D616C69676E3A63656E746572DE
:100ED0003B7D68327B666F6E742D73697A653A313B
:100EE0003870783B636F6C6F723A23393642313118
:100EF000437D702C68327B6D617267696E3A307029
:100F0000783070783570783070787D696D677B6285
:100F10006F726465723A307D68727B636F6C6F725A
:100F20003A73696C7665723B206261636B67726FBE
:100F3000756E642D636F6C6F723A73696C7665724F
:100F40003B626F726465723A303B686569676874CA
:100F50003A3170787D236E61767B666F6E742D7387
:100F6000697A653A20313670783B206261636B673D
:100F7000726F756E642D636F6C6F723A73696C7605
:100F800065723B6D617267696E3A3170783B706172
:100F90006464696E673A3570783B666F6E742D775E
:100FA00065696768743A626F6C647D236E61762050
:100FB000612C20237461696C20617B636F6C6F729C
:100FC0003A77686974653B2070616464696E673A5A
:100FD000313070783B746578742D6465636F72612D
:100FE00074696F6E3A6E6F6E657D236E61762061F7
:100FF0003A686F7665722C237461696C20613A6877
:101000006F7665727B746578742D6465636F726149
:1010100074696F6E3A756E6465726C696E657D2376
:101020007461696C7B20636F6C6F723A7768697466
:10103000653B206261636B67726F756E642D636FD1
:101040006C6F723A73696C7665723B746578742D57
:10105000616C69676E3A63656E7465723B7061645A
:1010600064696E673A3570787D236D61696E7B7453
:101070006578742D616C69676E3A63656E7465722C
:101080003B6D617267696E3A323070787D2E636CA9
:101090006561727B636C6561723A6C6566747D2E06
:1010A00074656D7054626C207B7461626C652D6C2C
:1010B00061796F75743A6175746F3B626F726465C4
:1010C000722D73706163696E673A307D2E74656D41
:1010D0007054626C2074647B746578742D616C69E3
:1010E000676E3A63656E7465723B70616464696EC5
:1010F000673A3770787D2E74656D7054626C207419
:10110000687B6261636B67726F756E642D636F6C71
:101110006F723A73696C7665727D25454E4400475F
:10112000494638396111001100A207006262621954
:10113000AD2121E22CA5A5A564E66BA5F3A9D5D523
:10114000D5FFFFFF21F90401000007002C0000007B
:10115000001100110000036078AAD6F366C9D3EA33
:10116000BB5156127A1700302C4DF109A8D0855981
:101170001308444CA46A48192A51EC73BA0E2ED8AD
:10118000AE10A30544411D8F56130D5EB2A231F47B
:1011900078A17ACCA3D3CA9C020C4F6EF777A876BD
:1011A0007D364AE8E4D38E1483B5C7439D1842F8D0
:1011B000FC7B528EE3F70A09003B25454E44474924
:1011C0004638396111001100A20700575657696966
:1011D000697E7E7E909191B0B0B0C8C8C8E7E7E75D
:1011E000FFFFFF21F90401000007002C00000000B0
:1011F0001100110000036F78AA5645B0AC794C730A
:10120000706839AD1901200642492C56416A4319CC
:1012100090016705034468A5F00A55D1128E47CBAB
:10122000A503AA6A85C62DA7A3390048CCB034828D
:10123000406B99A94004B00A58386615C42CBB000D
:10124000029FCE9C23750F2D125B0708280A2E796A
:101250003BF45610767C757C2713782F5C55140B65
:10126000372124840B09003B25454E444749463825
:10127000396102000A00A20000A2A5ED848FE56694
:101280007CDD4960D62144DAFE0102000000000046
:101290000021F90405140005002C000000000200E4
:1012A0000A0000030A483423120148001D530900B4
:1012B0003B25454E444749463839615A005C00A2F7
:1012C00004007979D8F6F4E1C9C9E09C98D8FFFF09
:1012D000FFF4F6B0F9FD7CA6A48E21F9040100000C
:1012E00004002C000000005A005C000003FF48BA14
:1012F000DCFE2E2C4982A5B35A21B49618068D64C3
:10130000697A8D85A65CA5A88F78CEB429BF99305F
:101310000C541FD7C0E00B36C4650803C0C018E8E2
:101320004C6EC228E9C22C1061802C2EB0937A69D1
:10133000A04B58614D55B2CB854009837EDF9FDEBF
:101340006E27085FD6EC57B2FE72C2836E16562027
:10135000493B597C61783C1549794D7C7F80442F0D
:1013600005655C4A0B7B4F8A9968126B7E913362EC
:101370002E13959F8E4D59228A1B9E4D7B6E66A221
:1013800071220195056775033AAF139A04781D978A
:1013900069A5B45362B6B81600BB599E4F3B206B8B
:1013A0003CAABCC647C70C17832015CB01ABC107AD
:1013B0000790DF052D153A2087A3B25282A7210599
:1013C00006A785F176B7DD1A75E8E5B693B0450A4C
:1013D00003CE14BD41B1E4A90860A05E087C43645B
:1013E000F8785763E2B96594E8D53BD30CFF1C88C5
:1013F00086959EDCF2A1A00EAC39739C488C716579
:1014000024A145FA1C6AA8041215008FB740E6A271
:1014100060A59B0E434A9E3DE345D1863E668E34D1
:1014200026D3B8F1D28153DF1ACABC50AE97D0434D
:101430001C1A350B18459F95A1FD6A4E90BA33CB07
:10144000017D511D3ED22A94688F4B5B6D40007820
:1014500050119B9C213F8A4D380897D5ABBC4C4E10
:10146000E840CDDC082ADB20E06A648817CD41150E
:10147000C85AD8034EC001B687DA20A9C3818312A7
:101480009546BEE8632C5480C6534CCB911340D68E
:101490000A1E349030F0A016B85D9C6C5304FE6AAE
:1014A00086F9A9CED4E568D63B35D41B150985B09D
:1014B000668EE04256B2E35B9270E9DDFAF7637242
:1014C000955EA721D54495A77B22B92373C91D3901
:1014D0000058CDD0300529B53DF6ECCF86254EFE1F
:1014E000B9D173852BE6C6537861556061FFEBB5C2
:1014F000D75E01C15572407C0F5503562F1BE08209
:1015000013185E6124CC1C43AD67A1813D3DA59DB0
:101510001C48F03214019971E0A03C15CD34A2773B
:10152000577972DA7A6779155C38F1BD70DE6B5BDA
:101530000913C059273AF7033723FE445F85023663
:1015400074A069FE3CF5D587C87986206CEFED0361
:10155000CF7E12D687C67941D6438E95375971A072
:1015600050145083203516F806996E42C454532CFB
:10157000AEB056E56300B4A81563EAB4E5DD2DEF1F
:101580008D51D42C89E544965D4205285C439C31FD
:10159000560782483C33D9564D3257620AF190556E
:1015A000085BA691859D90E830E6CA2B9C3068596F
:1015B0004FC655F4DC0D661A306456663145A09866
:1015C0005AC608171A25119584862671F59C19505C
:1015D000E6F8C4410560B6CA80A6B245C1A39975B4
:1015E0000763766DF038A293DB1C7BAC18FF8FF994
:1015F0000854A4411278950BB114320C1E46DAE15E
:1016000020AF24EA37A280CAC2D899B57E0AE38BFC
:1016100074C13C6A15913D05D8DA984FB0F4A74ED5
:1016200096B1AB8856BEED69DF67BF02104C8A8663
:101630006EBB26B2C5CAEA154834667BD9B8879C0A
:10164000F69A3554EC0170A9550E470A9E571401BD
:10165000258D6D1A59188DCBC009A60B1C6FD5C4EA
:10166000A4D196815B62CCD9525285A756A26B96C3
:10167000D2F24B4D29343AE62EAFC9CC45E60F7174
:10168000B201D201F5E86AE496E2C4F27271A7559C
:10169000DCCDC59E7ECACE56B8106D40CE05BEF9D3
:1016A000B21334B2EB1A394D3E8D4FCF2DD79A235A
:1016B0009AB80CFD2ABB48C7050A4766DD62D99671
:1016C00055851D61B80B35D7E8C01E1FF8CF85B80A
:1016D000E63A25D7E7AD1AA96B6E556DF58003F391
:1016E000C76CDA551A5929D857AED9C84FFFBFFC75
:1016F000952FE594435E317B39CE1AD1B1553DF239
:10170000C8DCE0A2E309262A681EA088A7FE9DB2D5
:10171000E352BB7CEB2073736E64B45B32131B5CCF
:101720004446DBD0A1F9E25D828E796744D3E203BF
:101730008AABCE220A5C6EAAE7C3C7E7A0E8DE0048
:10174000B1D0E36B0E783972D0C3C8C38A93120D3F
:101750005FC30FDE898D320237EEF133242F81947F
:1017600098EFD55F9556D00E47B07E2C5FF4B990B8
:101770001AAA1FABD4609E7CE9EF46476B5B9BF2D5
:10178000671DA9F9CC7FFF930A76E686A2D8F0E21E
:1017900055015A8DA97437AFD989ED2DA3EBE0FF20
:1017A000D0911D67D08101ADE0DDBC8E558F0886DC
:1017B0004E6FCA8AE1633628B90985427A1174A14D
:1017C0000CF1B6BDBBD10E4A8C1B1A1B3810868695
:1017D000E55087A8B9CFA722203ABD852A48306AAC
:1017E000DDD47677441DE6AD76EA63949EFF2A76D3
:1017F00089D6A5EB333B634F156B923DA8E1C90435
:10180000D4AB92304A02170302507F221CA1CA7E39
:1018100016AFC3EC2D759261157AD86021C9516E4F
:101820008C3AE18AF60E96BAB411CB50872A5C0C3A
:1018300075F7B96FB5267B92E8A0B284F89314D5FA
:101840004177C1D9541AB9B5378F94088818E9A4DB
:10185000222AF98C002E905403108E6BE208995ABC
:1018600091D11D3EB4C44CC8D216544A4E756E4236
:101870005FEC82172DF63105313EC36206B6680073
:101880005D718698AA4B6501866296DCB19224FB55
:10189000211B4B7AE632644EE92A6E044947965979
:1018A0001A7DCCED994770A01DA1D380158202331B
:1018B0008EE11D6B6A36000362C8913A9926307337
:1018C000131064DE880780B14CE48A470E625A899F
:1018D0008C2B7C4844446321DFD1C63F37999D75EA
:1018E000B8F54841F00A68803091645471FF2325AF
:1018F0005CAE9D3B0BE3BB4C350455CE110E66BB75
:10190000030F8664ADDDC5B13A1335D53C66F8D119
:10191000AE18AB585B39447CBCE627860254A55B05
:1019200098A120077994B7B493183662214A6B5274
:10193000503385A414119AA724667512EF0CAA4D92
:101940002B5A6141FFD40D4342B3204F229BE9D073
:10195000A320A80234A5602563270391457902736B
:1019600021DFA3862A1DFA55B14AC614810C8D5C6D
:10197000FF10021BFD444F550DAB5AB6988B8C5887
:101980002C04DA88C01A61111685AC68ACB394894E
:10199000F2A01258A41222582DC02BB3C42AD9C4C5
:1019A000CEF1A52B39067A0473BBBD4A961B6201A2
:1019B0000146B670144595691B5DB2D627221BA15E
:1019C0005BEDF51C8ABD882C6B51D6131CE724A057
:1019D000E98E8964E9D0CBE2E5B6587562637BE1B4
:1019E00096FE8DCDB51FFD6DB2BAE5C4DA5BE64655
:1019F0001D88E85F0879EB155F22E6B82B134535A3
:101A000041F8969EC290B1CAA34B4B032B50634042
:101A100041109AB98875496BC6C69A964CE8156FFD
:101A20005F6F75D6F6BA77A9A0026F47EBA9D4FB12
:101A30009E9689060BB073FD6B94F3F697C08DDD0F
:101A4000A97D114C5EE4213801003B25454E4448F8
:101A50005454502F312E302032303020446F637573
:101A60006D656E7420666F6C6C6F77730D0A5365CD
:101A7000727665723A204156525F536D616C6C5FAD
:101A80005765627365727665720D0A436F6E746591
:101A90006E742D547970653A20746578742F706C6B
:101AA00061696E0D0A0D0A00485454502F312E30D2
:101AB0002032303020446F63756D656E7420666F20
:101AC0006C6C6F77730D0A5365727665723A2041BC
:101AD00056525F536D616C6C5F57656273657276C9
:101AE00065720D0A436F6E74656E742D547970655E
:101AF0003A20746578742F68746D6C0D0A0D0A00B5
:101B0000485454502F312E302034303120556E61DE
:101B10007574686F72697A65640D0A5365727665CB
:101B2000723A204156525F536D616C6C5F5765622B
:101B30007365727665720D0A5757572D4175746833
:101B4000656E7469636174653A20426173696320EC
:101B50007265616C6D3D224E65656450617373778B
:101B60006F7264220D0A436F6E74656E742D547922
:101B700070653A20746578742F68746D6C0D0A0D69
:101B80000A00485454502F312E3020323030204437
:101B90006F63756D656E7420666F6C6C6F77730D17
:101BA0000A5365727665723A204156525F536D61F1
:101BB0006C6C5F5765627365727665720D0A436F70
:101BC0006E74656E742D547970653A20696D616725
:101BD000652F6A7065670D0A0D0A00485454502F2E
:101BE000312E302032303020446F63756D656E7455
:101BF00020666F6C6C6F77730D0A53657276657231
:101C00003A204156525F536D616C6C5F5765627349
:101C100065727665720D0A43616368652D436F6E68
:101C200074726F6C3A206D61782D6167653D363056
:101C300030303030300D0A436F6E74656E742D5441
:101C40007970653A20696D6167652F6769660D0A6D
:101C50000D0A00485454502F312E3020323030209D
:101C6000446F63756D656E7420666F6C6C6F77730F
:101C70000D0A5365727665723A204156525F536D74
:101C8000616C6C5F5765627365727665720D0A43AD
:101C9000616368652D436F6E74726F6C3A206D617D
:101CA000782D6167653D363030303030300D0A4375
:101CB0006F6E74656E742D547970653A2074657812
:101CC000742F6373730D0A0D0A0034303120556E82
:101CD000617574686F72697A656425454E44005079
:101CE0004F535400636865636B65640000006C6566
:101CF000646F6E2E676966006C65646F66662E673A
:101D00006966000A0D53797374656D2052656164CC
:101D1000790A0D00436F6D70696C6965727420619A
:101D20006D20446563203131203230313620756DAD
:101D30002032303A31353A30390D0A00436F6D7038
:101D4000696C69657274206D69742047434320563D
:101D5000657273696F6E20342E392E320D0A000DB4
:101D60000A49502020202531692E2531692E253140
:101D7000692E2531690D0A004D41534B20253169EB
:101D80002E2531692E2531692E2531690D0A00472E
:101D9000572020202531692E2531692E2531692EC5
:101DA0002531690D0A000D0A0052656164790D0A3A
:101DB0000D0A004552524F520D0A0D0A0047657434
:101DC00020504F4E473A2025692E25692E25692E31
:101DD00025690D0A000400051A06FF071F080009FF
:101DE000000AFF0B19C100C00DC233CAEECB05C4F7
:101DF00015C612E400E520E218E3B1E015E16F75C5
:101E000000FFFF000100140742FFFF56657273696F
:101E10006F6E3A202569200A436F6D6D3A20257355
:101E2000200A5044553A202569200A5265712049FC
:101E3000443A2025690A204572726F723A2025695A
:101E4000200A4572726F72204964783A2025692011
:101E50000A0A0A0011241FBECFE5D8E0DEBFCDBFBD
:101E600011E0A0E6B0E0E4E2F4E702C005900D92D4
:101E7000A63CB107D9F725E0A6ECB1E001C01D9260
:101E8000A53BB207E1F70E94A6160C94103A0C94F9
:101E900000000F931F93CF93DF9300D000D000D0AA
:101EA000CDB7DEB79E838D831982CE01059666E499
:101EB00071E00E9437399C838B8313C089818F5FC7
:101EC00089838981882F90E0880F991F880F991F37
:101ED000805A9F4FFC0180819181892B11F480E011
:101EE00048C08981882F90E0880F991F880F991F1B
:101EF000805A9F4FFC01808191812B813C81B901E7
:101F00000E941239892BD1F61A8221C0CE01059682
:101F100068E471E00E9437399C838B838A81082FA3
:101F200010E08B819C8140E050E060E070E00E9416
:101F3000DA37DC01CB019C01C801880F991F885654
:101F40009D4FFC01318320838A818F5F8A838A8140
:101F50008A30E0F28981882F90E0880F991F880FDE
:101F6000991F8E599F4FFC0180819181FC01099539
:101F700081E026960FB6F894DEBF0FBECDBFDF918D
:101F8000CF911F910F910895CF93DF93CDB7DEB717
:101F9000E0E0F0E00994DF91CF9108950F931F9353
:101FA000CF93DF93CDB7DEB78EE190E00E94411072
:101FB0000EE915E040EC58EA61E073E68EE190E04E
:101FC0000E94D61EDC01CB01F80180839183A2839D
:101FD000B3838091A105E82FF0E08091A005682FE0
:101FE00070E080919F05482F50E080919E05282F3A
:101FF00030E088EE91E0AF2FAF93EF93E72FEF93B0
:102000006F93652F6F934F93432F4F932F93292FE8
:102010002F938F930E9477348DB79EB70A960FB691
:10202000F894DEBF0FBECDBF6BEA75E08EE995E098
:10203000FC01208131814281538186EA95E0FC01D7
:1020400080819181A281B381282339234A235B2394
:1020500086EA95E0FC0180819181A281B38180951F
:102060009095A095B095822B932BA42BB52BFB01BB
:1020700080839183A283B383DF91CF911F910F91CE
:102080000895CF93DF9300D01F92CDB7DEB79B8327
:102090008A8388E992E0FC0180819181892B39F162
:1020A000198222C08CE390E0FC018081882F90E0AF
:1020B00082709927892BB1F78981882F90E0880F4A
:1020C000991F88569D4FFC0180819181482F8981FD
:1020D000282F30E08A819B81820F931F642F0E94FA
:1020E000A23989818F5F898389818430D8F20F90EA
:1020F0000F900F90DF91CF910895CF93DF93CDB7DD
:10210000DEB7DF91CF9108950F931F93CF93DF93A5
:10211000CDB7DEB782E290E00E94411006EA15E0FA
:102120004FEF5FEF6FEF70E082E290E00E94D61E0B
:10213000DC01CB01F80180839183A283B38380917A
:10214000A905E82FF0E08091A805682F70E0809144
:10215000A705482F50E08091A605282F30E081E0A8
:1021600092E0AF2FAF93EF93E72FEF936F93652F2D
:102170006F934F93432F4F932F93292F2F938F9329
:102180000E9477348DB79EB70A960FB6F894DEBFDB
:102190000FBECDBF6BEA75E08EE995E0FC012081B2
:1021A00031814281538186EA95E0FC0180819181F1
:1021B000A281B381282339234A235B2386EA95E051
:1021C000FC0180819181A281B38180959095A09539
:1021D000B095822B932BA42BB52BFB01808391838D
:1021E000A283B383DF91CF911F910F9108950F9335
:1021F0001F93CF93DF93CDB7DEB786E290E00E94C6
:10220000411002EA15E040EC58EA61E071E086E234
:1022100090E00E94D61EDC01CB01F80180839183FF
:10222000A283B3838091A505E82FF0E08091A405F7
:10223000682F70E08091A305482F50E08091A2059F
:10224000282F30E08CE192E0AF2FAF93EF93E72F90
:10225000EF936F93652F6F934F93432F4F932F936C
:10226000292F2F938F930E9477348DB79EB70A96AC
:102270000FB6F894DEBF0FBECDBFDF91CF911F9197
:102280000F910895FF920F931F93CF93DF93CDB7D4
:10229000DEB780913C03082F10E080913B03A82F0C
:1022A000B0E080913A03E82FF0E080913903682F85
:1022B00070E080913803482F50E080913703282F39
:1022C00030E089E392E0F12EFF92102F1F931B2F35
:1022D0001F93AF93AF2FAF93EF93E72FEF936F93CE
:1022E000652F6F934F93432F4F932F93292F2F9346
:1022F0008F930E9477348DB79EB70E960FB6F894E1
:10230000DEBF0FBECDBFDF91CF911F910F91FF9028
:102310000895CF93DF93CDB7DEB78091C601282F04
:1023200030E08BE592E0432F4F932F93292F2F938B
:102330008F930E9477340F900F900F900F90DF9142
:10234000CF910895CF93DF931F92CDB7DEB7198257
:102350009EC18981282F30E0C901880F991F820F03
:10236000931F880F991F880F991F855A9D4FFC0155
:102370008081482F50E08981282F30E083E792E068
:10238000652F6F934F93432F4F932F93292F2F93A5
:102390008F930E9477340F900F900F900F900F90B3
:1023A0000F908981282F30E0C901880F991F820F73
:1023B000931F880F991F880F991F845A9D4FFC0106
:1023C0008081282F30E080E892E0432F4F932F93B5
:1023D000292F2F938F930E9477340F900F900F9097
:1023E0000F908981282F30E0C901880F991F820F33
:1023F000931F880F991F880F991F835A9D4FFC01C7
:102400008081282F30E085E892E0432F4F932F936F
:10241000292F2F938F930E9477340F900F900F9056
:102420000F908981282F30E0C901880F991F820FF2
:10243000931F880F991F880F991F825A9D4FFC0187
:102440008081282F30E08AE892E0432F4F932F932A
:10245000292F2F938F930E9477340F900F900F9016
:102460000F908981282F30E0C901880F991F820FB2
:10247000931F880F991F880F991F815A9D4FFC0148
:102480008081282F30E08FE892E0432F4F932F93E5
:10249000292F2F938F930E9477340F900F900F90D6
:1024A0000F908981282F30E0C901880F991F820F72
:1024B000931F880F991F880F991F805A9D4FFC0109
:1024C0008081282F30E084E992E0432F4F932F93AF
:1024D000292F2F938F930E9477340F900F900F9096
:1024E0000F908981282F30E0C901880F991F820F32
:1024F000931F880F991F880F991F8F599D4FFC01BB
:1025000080819181A281B3819927AA27BB2729E9DC
:1025100032E04B2F4F934A2F4F93492F4F938F9376
:10252000832F8F93822F8F930E9477340F900F9079
:102530000F900F900F900F908981282F30E0C901E4
:10254000880F991F820F931F880F991F880F991F5B
:102550008F599D4FFC0180819181A281B381882791
:10256000AA27BB27892F9A2FAB2FBB2722EA32E05D
:102570004B2F4F934A2F4F93492F4F938F93832F76
:102580008F93822F8F930E9477340F900F900F902C
:102590000F900F900F908981282F30E0C901880F8C
:1025A000991F820F931F880F991F880F991F8F59AA
:1025B0009D4FFC0180819181A281B3818827992759
:1025C000BB27CD01AA27BB2727EA32E04B2F4F9329
:1025D0004A2F4F93492F4F938F93832F8F93822F9F
:1025E0008F930E9477340F900F900F900F900F9061
:1025F0000F908981282F30E0C901880F991F820F21
:10260000931F880F991F880F991F8F599D4FFC01A9
:1026100080819181A281B3818B2F9927AA27BB2723
:102620002CEA32E04B2F4F934A2F4F93492F4F9371
:102630008F93832F8F93822F8F930E9477340F90E5
:102640000F900F900F900F900F908981282F30E0FE
:10265000C901880F991F820F931F880F991F880F38
:10266000991F8B599D4FFC012081318181EB92E0B4
:10267000432F4F932F93292F2F938F930E947734BB
:102680000F900F900F900F9089818F5F89838981C0
:10269000853008F45ECE0F90DF91CF910895CF93EF
:1026A000DF931F92CDB7DEB7198209C18981282F28
:1026B00030E08EEB92E0432F4F932F93292F2F93EF
:1026C0008F930E9477340F900F900F900F90898115
:1026D000282F30E046E1429FC001439F900D112416
:1026E00083559D4FFC0180819181A281B3819927FF
:1026F000AA27BB2722EC32E04B2F4F934A2F4F9350
:10270000492F4F938F93832F8F93822F8F930E9404
:1027100077340F900F900F900F900F900F9089814A
:10272000282F30E046E1429FC001439F900D1124C5
:1027300083559D4FFC0180819181A281B3818827BF
:10274000AA27BB27892F9A2FAB2FBB272BEC32E070
:102750004B2F4F934A2F4F93492F4F938F93832F94
:102760008F93822F8F930E9477340F900F900F904A
:102770000F900F900F908981282F30E046E1429F03
:10278000C001439F900D112483559D4FFC01808112
:102790009181A281B38188279927BB27CD01AA27E0
:1027A000BB2720ED32E04B2F4F934A2F4F93492FF9
:1027B0004F938F93832F8F93822F8F930E94773421
:1027C0000F900F900F900F900F900F908981282FEE
:1027D00030E046E1429FC001439F900D1124835594
:1027E0009D4FFC0180819181A281B3818B2F99271C
:1027F000AA27BB2725ED32E04B2F4F934A2F4F934B
:10280000492F4F938F93832F8F93822F8F930E9403
:1028100077340F900F900F900F900F900F90898149
:10282000282F30E046E1429FC001439F900D1124C4
:102830008F549D4FFC0180819181382F22278981FF
:10284000482F50E066E1649FC001659F900D112400
:102850008F549D4FFC0180819181892F9927282BCE
:10286000392B8AED92E0432F4F932F93292F2F93EB
:102870008F930E9477340F900F900F900F90898163
:10288000282F30E046E1429FC001439F900D112464
:1028900080549D4FFC018081282F30E085EE92E02E
:1028A000432F4F932F93292F2F938F930E94773489
:1028B0000F900F900F900F9089818F5F898389818E
:1028C000853008F4F3CE0F90DF91CF910895CF9328
:1028D000DF93CDB7DEB78091980290919902209155
:1028E0009A0230919B02880F991F8E519F4FFC01D5
:1028F000318320838091980290919902880F991FCB
:102900008E519F4FFC01408151812091980230915E
:10291000990282EF92E0652F6F934F93432F4F936D
:102920002F93292F2F938F930E9477340F900F901E
:102930000F900F900F900F90DF91CF910895CF934C
:10294000DF93CDB7DEB767970FB6F894DEBF0FBE43
:10295000CDBF8091330390913403A0913503B091A2
:10296000360320E13EE040E050E0BC01CD010E9492
:102970008B36DA01C90128E130E040E050E0BC01CB
:10298000CD010E948B36DC01CB018983809133031A
:1029900090913403A0913503B09136032CE330E0DD
:1029A00040E050E0BC01CD010E948B36DA01C90144
:1029B0002CE330E040E050E0BC01CD010E948B36BA
:1029C000DC01CB018A838091330390913403A09181
:1029D0003503B09136032CE330E040E050E0BC0119
:1029E000CD010E948B36DC01CB018B838B81682F5C
:1029F00070E08A81482F50E08981282F30E083E100
:102A000093E0E72FEF936F93652F6F934F93432FCF
:102A10004F932F93292F2F938F930E9477348DB745
:102A20009EB708960FB6F894DEBF0FBECDBF67966F
:102A30000FB6F894DEBF0FBECDBFDF91CF910895E2
:102A4000CF93DF93CDB7DEB7DF91CF910895CF93CA
:102A5000DF93CDB7DEB7DF91CF910895EF92FF926C
:102A60000F931F93CF93DF93CDB7DEB788E992E042
:102A7000FC0180819181892B09F457C066E975E0DA
:102A800080919802909199029C0140E050E08091E1
:102A90009A0290919B02CC01A0E0B0E0BA2FA92F3E
:102AA000982F8827280F391F4A1F5B1F80919C028F
:102AB00090919D02CC01A0E0B0E0DC01992788272D
:102AC000280F391F4A1F5B1F80919E0290919F0221
:102AD000CC01A0E0B0E0B82FAA2799278827820F61
:102AE000931FA41FB51FFB0180839183A283B3832F
:102AF00086E995E0FC0180819181A281B381BC01CE
:102B0000CD010E94682686E995E0FC0180819181D3
:102B1000A281B381EE24E394F12C01E010E020E0E7
:102B200048E0BC01CD010E949127DF91CF911F9118
:102B30000F91FF90EF900895CF93DF9300D000D0D6
:102B400000D0CDB7DEB784E590E09A838983898190
:102B50009A819C012F5F3F4F3A8329839C838B830B
:102B60008B819C81FC0184918D838D818E838E81EC
:102B7000282F30E089E293E0432F4F932F93292FA2
:102B80002F938F930E9477340F900F900F900F9098
:102B90008E818823E1F626960FB6F894DEBF0FBE2D
:102BA000CDBFDF91CF910895CF93DF9300D01F92D7
:102BB000CDB7DEB719821BC08CE390E0FC018081A9
:102BC000882F90E082709927892BB1F78981882F0F
:102BD00090E082569A4FFC0120818981882F90E0F5
:102BE0004E96622F0E94A23989818F5F89838981E5
:102BF000843010F31A821BC08CE390E0FC018081CA
:102C0000882F90E082709927892BB1F78A81882FCD
:102C100090E08A559A4FFC0120818A81882F90E0AC
:102C20008296622F0E94A2398A818F5F8A838A816D
:102C3000843010F31B821BC08CE390E0FC01808188
:102C4000882F90E082709927892BB1F78B81882F8C
:102C500090E08E559A4FFC0120818B81882F90E067
:102C60008696622F0E94A2398B818F5F8B838B8126
:102C7000843010F30F900F900F90DF91CF91089553
:102C80000F931F93CF93DF93CDB7DEB70EE915E017
:102C900040EC58EA61E073E68EE190E00E94D61EB7
:102CA000DC01CB01F80180839183A283B38306EA20
:102CB00015E04FEF5FEF6FEF70E082E290E00E946F
:102CC000D61EDC01CB01F80180839183A283B383FC
:102CD00002EA15E040EC58EA61E071E086E290E03B
:102CE0000E94D61EDC01CB01F80180839183A28370
:102CF000B3836BEA75E08EE995E0FC0120813181B8
:102D00004281538186EA95E0FC0180819181A28114
:102D1000B381282339234A235B2386EA95E0FC010B
:102D200080819181A281B38180959095A095B09585
:102D3000822B932BA42BB52BFB0180839183A28341
:102D4000B383DF91CF911F910F910895CF93DF93BC
:102D5000CDB7DEB729970FB6F894DEBF0FBECDBF53
:102D600019821A821B821C821D828AE390E027E06E
:102D7000FC01208384E390E0FC01108281E390E079
:102D8000FC01108260E875E280E090E00E940B3464
:102D900083E09DE1292F2F938F930E9477340F902A
:102DA0000F9084E19DE1292F2F938F930E94773418
:102DB0000F900F908CE39DE1292F2F938F930E940A
:102DC00077340F900F901E821F82188619860CC0D0
:102DD00000008E819F81A885B9850196A11DB11D36
:102DE0008E839F83A887B9878E819F81A885B985A7
:102DF00080349244AF40B10558F30E945B1E0E949C
:102E0000AC1C8BE590E02BE530E0F90120812062DD
:102E1000FC01208378948091A105E82FF0E0809157
:102E2000A005682F70E080919F05482F50E08091A9
:102E30009E05282F30E08FE59DE1AF2FAF93EF93F4
:102E4000E72FEF936F93652F6F934F93432F4F931C
:102E50002F93292F2F938F930E9477348DB79EB78E
:102E60000A960FB6F894DEBF0FBECDBF8091A905BC
:102E7000E82FF0E08091A805682F70E08091A70509
:102E8000482F50E08091A605282F30E088E79DE18B
:102E9000AF2FAF93EF93E72FEF936F93652F6F9360
:102EA0004F93432F4F932F93292F2F938F930E944C
:102EB0007734EDB7FEB73A960FB6F894DEBF0FBE83
:102EC000CDBF8091A505E82FF0E08091A405682F83
:102ED00070E08091A305482F50E08091A205282F33
:102EE00030E08FE89DE1AF2FAF93EF93E72FEF93A3
:102EF0006F93652F6F934F93432F4F932F93292FEA
:102F00002F938F930E9477348DB79EB70A960FB692
:102F1000F894DEBF0FBECDBF0E94A3218091F601C1
:102F20008170882339F186EA9DE1292F2F938F93B1
:102F30000E9477340F900F9087EF91E00E94490F25
:102F4000882351F089EA9DE1292F2F938F930E94C6
:102F500077340F900F9009C083EB9DE1292F2F93B9
:102F60008F930E9477340F900F908091F6018E7F9F
:102F70008093F60180919B05882369F180919905E2
:102F8000E82FF0E080919805682F70E08091970518
:102F9000482F50E080919605282F30E08DEB9DE181
:102FA000AF2FAF93EF93E72FEF936F93652F6F934F
:102FB0004F93432F4F932F93292F2F938F930E943B
:102FC0007734EDB7FEB73A960FB6F894DEBF0FBE72
:102FD000CDBF10929B052091330330913403409173
:102FE0003503509136038A819B81AC81BD812817BE
:102FF00039074A075B0719F1809133039091340335
:10300000A0913503B09136038A839B83AC83BD8343
:103010008091970282FB882780F9882339F01982F2
:10302000809197028B7F8093970209C0898191E0FC
:10303000980F9983863018F019820E949E1B6CCFDE
:10304000CF93DF9300D01F92CDB7DEB79B838A83E7
:103050000AC084E0898301C0000089819FEF980F36
:1030600099838823C9F78A819B819C01215031096A
:103070003B832A83892B69F70F900F900F90DF9184
:10308000CF910895CF93DF93CDB7DEB787E390E07C
:1030900027E330E0F9012081206AFC01208388E3E6
:1030A00090E028E330E0F90120812068FC012083D2
:1030B00087E390E027E330E0F90120812F7BFC01DA
:1030C000208387E390E027E330E0F901208120614D
:1030D000FC0120838DE290E020E5FC0120838EE25C
:1030E00090E021E0FC01208380E197E20E9420181B
:1030F000DF91CF910895CF93DF931F92CDB7DEB7C5
:1031000089838FE290E02981FC01208300008EE218
:1031100090E0FC0180818823D4F70F90DF91CF915C
:103120000895CF93DF931F92CDB7DEB78FE290E083
:10313000FC018081898389810F90DF91CF9108956F
:10314000CF93DF93CDB7DEB788E390E028E330E09C
:10315000F90120812F7EFC0120838FEF0E947B18D4
:1031600088E390E028E330E0F90120812061FC0150
:10317000208388EE93E00E942018DF91CF9108957C
:10318000CF93DF9300D01F92CDB7DEB78A836B83D6
:103190008A818F71898388E390E028E330E0F90128
:1031A00020812F7EFC0120838981806A0E947B1808
:1031B0008B810E947B1888E390E028E330E0F901DE
:1031C00020812061FC0120830F900F900F90DF91F0
:1031D000CF910895CF93DF9300D01F92CDB7DEB784
:1031E0008A836B838A818F71898388E390E028E3E7
:1031F00030E0F90120812F7EFC01208389818068E5
:103200000E947B188B810E947B1888E390E028E362
:1032100030E0F90120812061FC0120830F900F90A4
:103220000F90DF91CF910895CF93DF9300D000D01E
:10323000CDB7DEB78C838C818F71898389818A3188
:1032400018F58C81882F90E0807699279595879541
:103250009595879595958795959587959595879556
:103260008A838091C7019A81981771F063E08FE19A
:103270000E94C0188A81882321F06A818FE10E9410
:10328000EA188A818093C70188E390E028E330E060
:10329000F90120812F7EFC01208389810E947B1807
:1032A00080E00E947B188C8188231CF480E00E94BF
:1032B0007B180E9491188B8388E390E028E330E02C
:1032C000F90120812061FC0120838B810F900F90F8
:1032D0000F900F90DF91CF910895CF93DF9300D09F
:1032E00000D0CDB7DEB78B836C838B818F718983E0
:1032F00089818A3118F58B81882F90E08076992713
:1033000095958795959587959595879595958795A5
:10331000959587958A838091C7019A81981771F056
:1033200063E08FE10E94C0188A81882321F06A81BE
:103330008FE10E94EA188A818093C70188E390E0B8
:1033400028E330E0F90120812F7EFC012083898170
:1033500080640E947B188C810E947B1888E390E037
:1033600028E330E0F90120812061FC0120830F90E7
:103370000F900F900F90DF91CF910895CF93DF932F
:1033800000D01F92CDB7DEB789837B836A836981C2
:1033900084ED0E946D198A81682F86ED0E946D1957
:1033A0008A819B81892F9927682F87ED0E946D194B
:1033B0008AE090E00E94201800008AEE0E94141912
:1033C000882F90E081709927892BB9F70F900F9083
:1033D0000F90DF91CF910895CF93DF9300D000D06D
:1033E000CDB7DEB79A8389837C836B8388E390E0D3
:1033F00028E330E0F90120812F7EFC0120838AE35D
:103400000E947B1814C080E00E947B180E949118D3
:10341000282F89819A81FC0120838B819C810197CF
:103420009C838B8389819A8101969A8389838B817E
:103430009C81892B41F788E390E028E330E0F90193
:1034400020812061FC0120830F900F900F900F903E
:10345000DF91CF910895CF93DF9300D000D0CDB707
:10346000DEB79A8389837C836B8388E390E028E3CB
:1034700030E0F90120812F7EFC0120838AE70E9441
:103480007B1810C089819A81FC0180810E947B1881
:103490008B819C8101979C838B8389819A81019682
:1034A0009A8389838B819C81892B61F788E390E0E3
:1034B00028E330E0F90120812061FC0120830F9096
:1034C0000F900F900F90DF91CF910895CF93DF93DE
:1034D000CDB7DEB727970FB6F894DEBF0FBECDBFCE
:1034E0009D838C837F836E831B8284E690E09A8326
:1034F00089830EC08FE10E941419882F90E0887094
:103500009927892B09F40DC088EE93E00E942018BA
:1035100089819A819C01215031093A832983892B21
:1035200049F78FE10E941419882F90E0887099273D
:10353000892B41F060E88FE10E94EA1860E88FE192
:103540000E94C01860E082E00E946D196AE183E089
:103550000E946D198C81682F86E00E946D198C8104
:103560009D81965E892F9927682F87E00E946D19AB
:10357000CE01039661E070E00E942B1A2C813D8100
:103580008E819F81B9010E942B1A68E08CE10E9414
:10359000C01868E08FE10E94EA1827960FB6F894E9
:1035A000DEBF0FBECDBFDF91CF910895CF93DF93E4
:1035B000CDB7DEB72F970FB6F894DEBF0FBECDBFE5
:1035C0009D878C877F876E8789E30E9414198B8380
:1035D0008B81882319F480E090E0A7C08091C80116
:1035E0009091C901682F80E00E946D198091C801F7
:1035F0009091C901892F9927682F81E00E946D1948
:10360000CE01069666E070E00E94EC198E81882F4C
:1036100090E09093C9018093C8018F81882F90E03A
:10362000382F22278091C8019091C901822B932BBA
:103630009093C9018093C8018885882F90E09A8370
:1036400089838985882F90E0982F882729813A815E
:10365000822B932B9A8389838A85882F90E09D8380
:103660008C838B85882F90E0982F88272C813D8133
:10367000822B932B9D838C838C819D8180789927CD
:10368000892B59F08C819D8199233CF029813A81C5
:103690008C859D858217930710F40E949E1B89815B
:1036A0009A8104979A83898329813A818C859D85A3
:1036B0008217930720F48C859D859A8389832981BD
:1036C0003A818E859F85B9010E94EC198091C801CD
:1036D0009091C901019781159A41C8F48091C80160
:1036E0009091C9018091C8019091C9018150682FC2
:1036F0008CE00E946D198091C8019091C9010197D9
:10370000892F9927682F8DE00E946D1908C06FEFEF
:103710008CE00E946D1969E18DE00E946D1960E4F2
:103720008EE10E94EA1889819A812F960FB6F8944B
:10373000DEBF0FBECDBFDF91CF910895CF93DF9352
:10374000CDB7DEB765970FB6F894DEBF0FBECDBF1D
:103750001A82198287E390E027E330E0F9012081A3
:103760002061FC01208388E390E028E330E0F90148
:1037700020812061FC0120830E9442180E94A01831
:1037800000008DE10E941419882F90E08170992724
:10379000892BB9F382E70E9414198093C601109215
:1037A000370380E28093380388E18093390381EB0B
:1037B00080933A0385E180933B038FE680933C033B
:1037C00089819A819C012F5F3F4F3A8329838B52D5
:1037D000924E9C838B838B819C81FC0184918D8391
:1037E0008D818E8389819A819C012F5F3F4F3A831F
:1037F00029838B52924E98878F838F819885FC0105
:103800008491898789858A878E818F3F21F48A8573
:103810008F3F09F405C06A858E810E946D19D0CF53
:1038200089819A819C012F5F3F4F3A8329838B5274
:10383000924E9C878B878B859C85FC0184918D871C
:103840008D858E8389819A819C012F5F3F4F3A83BA
:1038500029838B52924E9F878E878E859F85FC0190
:103860008491888B88898A878E818F3F21F48A850D
:103870008F3F09F429C08A85882F90E0982F8827E8
:103880009A8B898B89819A819C012F5F3F4F3A8364
:1038900029838B52924E9C8B8B8B8B899C89FC014C
:1038A00084918D8B8D898A878A85882F90E02989DC
:1038B0003A89822B932B9A8B898B89899A89BC01AF
:1038C0008E810E94BE19ACCF1092C9011092C8011E
:1038D00060EC8BE10E946D1964E08FE10E94EA18B0
:1038E00065960FB6F894DEBF0FBECDBFDF91CF91C6
:1038F0000895CF93DF931F92CDB7DEB78983898177
:10390000882331F06AEA7AE384E10E94BE1905C097
:103910006AE774E384E10E94BE190F90DF91CF91B2
:103920000895CF93DF931F92CDB7DEB782E38983EB
:1039300080EC0E9414198D3049F482EC0E94141915
:10394000982F898198238981981711F00E949E1BD6
:103950000F90DF91CF910895CF93DF93CDB7DEB76E
:1039600069EB7CE181EA90E00E94F320DF91CF9146
:1039700008951F93CF93DF93CDB7DEB768970FB647
:10398000F894DEBF0FBECDBF888F809168038C8313
:1039900019821D8280916703803309F02CC18C81CC
:1039A000882F90E001960E94AD369F838E831A8205
:1039B00015C08A81882F90E02E813F81820F931F4E
:1039C0002A81222F30E0245D3F4F235C3C4FF901D8
:1039D0002081FC0120838A818F5F8A839A818C8178
:1039E000981738F389818F5F898389818F5F8983F5
:1039F0008981882F90E02E813F81820F931FFC01E7
:103A00008081898789818F5F898389818F5F89839D
:103A10008981882F90E02E813F81820F931FFC01C6
:103A20008081888789818F5F89831B821CC08B81FD
:103A3000882F90E02981422F50E02B81222F30E007
:103A4000240F351FA9012E813F81240F351FF90155
:103A500040819E01265F3F4F820F931FFC014083F0
:103A60008B818F5F8B839B818885981700F3888576
:103A7000882F90E09E01265F3F4F820F931FFC012D
:103A8000108299818885890F89838981882F90E0A8
:103A90002E813F81820F931FFC0180818D8389815C
:103AA0008F5F898389818F5F89831D8A1C8A8981C1
:103AB000882F90E02E813F81820F931FFC0180812F
:103AC000823039F589818F5F89838C899D8929812D
:103AD000222F30E04E815F81240F351FF9012081B4
:103AE000222F30E0322F2227822B932B9D8B8C8B21
:103AF00089818F5F89838981882F90E02E813F8122
:103B0000820F931FFC018081882F90E09D8B8C8B0E
:103B10001BC08981882F90E02E813F81820F931FE7
:103B2000FC018081813081F489818F5F8983898163
:103B3000882F90E02E813F81820F931FFC018081AE
:103B4000882F90E09D8B8C8B89818F5F8983898101
:103B50008F5F898389818F5F89838981882F90E036
:103B60002E813F81820F931FFC0180818E8B898182
:103B70008F5F898389818F5F89838981882F90E016
:103B80002E813F81820F931FFC0180818F8B8F8953
:103B9000A82FB0E08E89E82FF0E06C897D898D81B7
:103BA000882F90E02985422F50E02BE03EE11B2F2B
:103BB0001F93AF93AF2FAF93EF93E72FEF936F93D5
:103BC000692F6F938F93CE0109960196692F6F939A
:103BD0008F93852F8F93842F8F93832F8F93822F93
:103BE0008F930E9477348DB79EB70E960FB6F894D8
:103BF000DEBF0FBECDBF68960FB6F894DEBF0FBE16
:103C0000CDBFDF91CF911F910895CF93DF9300D067
:103C1000CDB7DEB79A83898389819A8198278927CE
:103C200098270F900F90DF91CF910895CF93DF9356
:103C300000D000D0CDB7DEB769837A838B839C83B5
:103C400089819A81AB81BC812B2F3327442755274B
:103C500089819A81AB81BC8188279927BB27892FCD
:103C60009A2FAB2FBB27280F391F4A1F5B1F898153
:103C70009A81AB81BC818827AA27BB27BA2FA92F9D
:103C8000982F8827280F391F4A1F5B1F89819A8127
:103C9000AB81BC81B82FAA2799278827820F931F51
:103CA000A41FB51FBC01CD010F900F900F900F9076
:103CB000DF91CF9108950F931F93CF93DF93CDB7EB
:103CC000DEB70E949E330EE915E040EC58EA61E051
:103CD00073E68EE190E00E94D61EDC01CB01F80174
:103CE00080839183A283B38306EA15E04FEF5FEFF1
:103CF0006FEF70E082E290E00E94D61EDC01CB0103
:103D0000F80180839183A283B38302EA15E040EC3B
:103D100058EA61E071E086E290E00E94D61EDC0184
:103D2000CB01F80180839183A283B3836BEA75E0B2
:103D30008EE995E0FC01208131814281538186EA40
:103D400095E0FC0180819181A281B38128233923F0
:103D50004A235B2386EA95E0FC0180819181A28160
:103D6000B38180959095A095B095822B932BA42B31
:103D7000B52BFB0180839183A283B3831092370319
:103D800080E28093380388E18093390381EB80934C
:103D90003A0385E180933B038FE680933C030E94C6
:103DA0009E1BDF91CF911F910F9108950F931F9349
:103DB000CF93DF93CDB7DEB72B970FB6F894DEBF66
:103DC0000FBECDBF9F838E83488759876A877B87C5
:103DD000198220C08CE390E0FC018081882F90E064
:103DE00082709927892BB1F78981082F10E089818A
:103DF000282F30E08E819F81820F931F0E949A3975
:103E0000282FCE010296800F911FFC01208389810B
:103E10008F5F898389818430E8F2CE010296FC01AC
:103E200080819181A281B3818F3F9F4FAF4FBF4F60
:103E300029F488859985AA85BB8507C0CE0102969D
:103E4000FC0180819181A281B381BC01CD012B96BF
:103E50000FB6F894DEBF0FBECDBFDF91CF911F919B
:103E60000F910895CF93DF931F92CDB7DEB71982DC
:103E7000A8C08981282F30E046E1429FC001439FBE
:103E8000900D112480549D4FFC018081882309F0FE
:103E90006CC08981282F30E046E1429FC001439FDA
:103EA000900D112483559D4FFC0180819181A28149
:103EB000B381892B8A2B8B2B09F480C08981282F11
:103EC00030E046E1429FC001439F900D1124805491
:103ED0009D4F23E0FC0120838981882F90E046E1FB
:103EE000489F9001499F300D11242F533D4FF901F8
:103EF000408151E0540F66E1689F9001699F300D49
:103F00001124C9018F539D4FFC015083463048F165
:103F10008BE590E02BE530E0F90120812F7DFC015D
:103F200020838981282F30E046E1429FC001439FD2
:103F3000900D112483549D4F24E1FC01208369815D
:103F400080E090E00E9456308BE590E02BE530E079
:103F5000F90120812062FC01208389810E940B33BA
:103F60002DC089810E94F13129C08981282F30E03C
:103F700046E1429FC001439F900D112480549D4F04
:103F8000FC0180818F3FD1F08981882F90E046E14C
:103F9000489F9001499F300D112420543D4FF90155
:103FA00020814FEF420F56E1589F9001599F300DED
:103FB0001124C90180549D4FFC01408389818F5F8A
:103FC00089838981853008F454CF0F90DF91CF9198
:103FD0000895CF93DF9300D0CDB7DEB7198269C0C3
:103FE0008981282F30E0C901880F991F820F931F04
:103FF000880F991F880F991F8B599D4FFC01808155
:104000009181892B89F51A8218C08981282F30E087
:104010008A81482F50E0C901880F991F820F931F92
:10402000880F991F880F991F840F951F855A9D4FE0
:10403000FC0110828A818F5F8A838A81863028F30F
:104040008981282F30E0C901880F991F820F931FA3
:10405000880F991F880F991F8F599D4FFC0110825F
:1040600011821282138222C08981282F30E0C90177
:10407000880F991F820F931F880F991F880F991F10
:104080008B599D4FFC0180819181AC0141505109B8
:10409000C901880F991F820F931F880F991F880FDE
:1040A000991F8B599D4FFC015183408389818F5FFC
:1040B00089838981853008F493CF0F900F90DF9129
:1040C000CF910895CF93DF9300D000D01F92CDB74A
:1040D000DEB79B838A837D836C83198203C08981C9
:1040E0008F5F89838981882F90E0880F991F880FBF
:1040F000991F86539E4FFC0180819181892B79F70E
:104100008981853008F01DC08981882F90E0880F53
:10411000991F880F991F86539E4F2A813B81FC016E
:10412000318320838981882F90E0880F991F880F21
:10413000991F84539E4F2C813D81FC013183208344
:1041400000000F900F900F900F900F90DF91CF9184
:104150000895CF93DF9300D000D01F92CDB7DEB784
:104160009B838A837D836C83198203C089818F5FDF
:1041700089838981882F90E0880F991F880F991F64
:1041800086539E4FFC0180819181892B89F0898122
:10419000882F90E0880F991F880F991F86539E4F94
:1041A000FC01208131818A819B8128173907F1F632
:1041B0008981853008F00FC08981882F90E0880FB1
:1041C000991F880F991F86539E4F2C813D81FC01BA
:1041D0003183208300000F900F900F900F900F906D
:1041E000DF91CF910895CF93DF9300D000D01F923D
:1041F000CDB7DEB79B838A837D836C83198203C02E
:1042000089818F5F89838981882F90E0880F991F2A
:10421000880F991F82529E4FFC0180819181892BCA
:1042200079F78981853008F01DC08981882F90E059
:10423000880F991F880F991F82529E4F2A813B81B8
:10424000FC01318320838981882F90E0880F991F9A
:10425000880F991F80529E4F2C813D81FC01318334
:10426000208300000F900F900F900F900F90DF9120
:10427000CF910895CF93DF9300D01F92CDB7DEB7D3
:104280009B838A83198220C08981882F90E0880FC0
:10429000991F880F991F82529E4FFC012081318106
:1042A0008A819B812817390761F48981882F90E0E2
:1042B000880F991F880F991F82529E4FFC0111820F
:1042C000108289818F5F898389818530E8F20000BF
:1042D0000F900F900F90DF91CF9108951F920F9242
:1042E00000905F000F9211242F933F938F939F9321
:1042F000EF93FF93CF93DF93CDB7DEB78091970213
:104300008160809397021092320310923103809162
:1043100097028460809397028BE590E02BE530E074
:10432000F90120812F7DFC012083DF91CF91FF9146
:10433000EF919F918F913F912F910F9000925F008D
:104340000F901F901895CF93DF9300D0CDB7DEB7B5
:104350008091970286958170882349F00E94321FD0
:104360000E94E91F809197028D7F80939702809130
:1043700097028170882371F115C06DE373E088E5C1
:1043800092E00E94D61A9A83898389819A81892B27
:1043900049F089819A810196835C9C4FFC011082CF
:1043A0000E94F02186E390E0FC018081882F90E05C
:1043B00084709927892B09F3809197028E7F8093CF
:1043C00097028BE590E02BE530E0F9012081206237
:1043D000FC01208300000F900F90DF91CF91089592
:1043E000EF92FF920F931F93CF93DF9300D000D0F3
:1043F00000D0CDB7DEB78DE393E09A8389838BE459
:1044000093E09C838B838FE593E09E838D838981EA
:104410009A81FC01848595858830964019F40E9424
:104420007D259DC089819A81FC01848595850897A9
:1044300009F095C08B819C81FC01208931894289DA
:1044400053898EE995E0FC0180819181A281B3813D
:10445000281739074A075B0709F05AC00E94BD2296
:104460008B819C81FC018185813009F040C08D8168
:104470009E81FC018081882F90E00097E9F00897E9
:1044800009F06EC08D819E81FC01448155818D8132
:104490009E81FC01268137818B819C81FC01848572
:1044A0009585A685B7857A01890120E040E0BC01A9
:1044B000CD010E9491271AC086E995E0FC01208178
:1044C0003181428153818B819C81FC01848595855A
:1044D000A685B785281739074A075B0731F480910D
:1044E0009B05816080939B0500C0000039C08B81D3
:1044F0009C81FC018185863011F40E94D82C8B812F
:104500009C81FC018185813151F50E94BA2B28C024
:104510008B819C81FC0180899189A289B3898F3F1D
:104520009F4FAF4FBF4F99F08B819C81FC01208939
:104530003189428953898BEA95E0FC018081918120
:10454000A281B381281739074A075B0741F48B81A1
:104550009C81FC018185813111F40E94BA2B0000FD
:1045600026960FB6F894DEBF0FBECDBFDF91CF9178
:104570001F910F91FF90EF900895CF93DF93CDB7E8
:10458000DEB72C970FB6F894DEBF0FBECDBF8DE31C
:1045900093E098878F838BE493E09A8789878BE4F5
:1045A00093E09C878B871982FEC08F819885FC01E0
:1045B000848595858830964009F075C08981282FBB
:1045C00030E0C901880F991F820F931F880F991F30
:1045D000880F991F8F599D4FFC01208131814281A5
:1045E000538189859A85FC0186859785A089B18943
:1045F000281739074A075B0709F055C01A8222C0FD
:104600008981282F30E08A81482F50E08A81882FC5
:1046100090E06F817885860F971F0696FC01608178
:10462000C901880F991F820F931F880F991F880F48
:10463000991F840F951F855A9D4FFC0160838A81C5
:104640008F5F8A838A818630D8F28981682F70E0F3
:1046500089859A85FC012685378540895189CB015A
:10466000880F991F860F971F880F991F880F991F12
:104670008F599D4FFC01208331834283538389816D
:10468000282F30E0C901880F991F820F931F880FD0
:10469000991F880F991F8B599D4F24E630E0FC012C
:1046A0003183208362C18F819885FC018485958543
:1046B000089709F075C08981282F30E0C901880F5B
:1046C000991F820F931F880F991F880F991F8F5969
:1046D0009D4FFC0120813181428153818B859C85D6
:1046E000FC0184859585A685B785281739074A0773
:1046F0005B0709F055C01B8222C08981282F30E05A
:104700008B81482F50E08B81882F90E06F817885D6
:10471000860F971F0696FC016081C901880F991FBB
:10472000820F931F880F991F880F991F840F951F61
:10473000855A9D4FFC0160838B818F5F8B838B81BA
:104740008630D8F28981682F70E08B859C85FC01CA
:104750002485358546855785CB01880F991F860F9F
:10476000971F880F991F880F991F8F599D4FFC0124
:1047700020833183428353838981282F30E0C9010C
:10478000880F991F820F931F880F991F880F991FF9
:104790008B599D4F24E630E0FC0131832083E5C036
:1047A00089818F5F89838981853008F4FECE1C82E0
:1047B000D7C08C81282F30E0C901880F991F820F44
:1047C000931F880F991F880F991F8F599D4FFC01C8
:1047D00080819181A281B381892B8A2B8B2B09F057
:1047E000BCC08F819885FC01848595858830964072
:1047F00009F055C01D8222C08C81282F30E08D81A8
:10480000482F50E08D81882F90E06F817885860F4A
:10481000971F0696FC016081C901880F991F820FBE
:10482000931F880F991F880F991F840F951F855A12
:104830009D4FFC0160838D818F5F8D838D818630DC
:10484000D8F28C81682F70E089859A85FC012685D5
:10485000378540895189CB01880F991F860F971F93
:10486000880F991F880F991F8F599D4FFC01208336
:104870003183428353838C81282F30E0C901880F14
:10488000991F820F931F880F991F880F991F8B59AB
:104890009D4F24E630E0FC013183208366C08F8188
:1048A0009885FC0184859585089709F055C01E827E
:1048B00022C08C81282F30E08E81482F50E08E81DD
:1048C000882F90E06F817885860F971F0696FC01F0
:1048D0006081C901880F991F820F931F880F991F4C
:1048E000880F991F840F951F855A9D4FFC01608387
:1048F0008E818F5F8E838E818630D8F28C81682F77
:1049000070E08B859C85FC0124853585468557851F
:10491000CB01880F991F860F971F880F991F880F4B
:10492000991F8F599D4FFC0120833183428353830C
:104930008C81282F30E0C901880F991F820F931FA7
:10494000880F991F880F991F8B599D4F24E630E0DF
:10495000FC013183208309C008C08C818F5F8C8368
:104960008C81853008F425CF00002C960FB6F89482
:10497000DEBF0FBECDBFDF91CF910895CF93DF9300
:1049800000D000D01F92CDB7DEB76A837B838C83C3
:104990009D83198221C08981282F30E0C901880FA9
:1049A000991F820F931F880F991F880F991F8F5986
:1049B0009D4FFC0120813181428153818A819B81FD
:1049C000AC81BD81281739074A075B0711F489813B
:1049D00007C089818F5F898389818530E0F285E016
:1049E0000F900F900F900F900F90DF91CF9108953F
:1049F000CF93DF93CDB7DEB72B970FB6F894DEBF1A
:104A00000FBECDBF9F838E83488759876A877B8778
:104A10008E819F819C838B8388859985AA85BB85A0
:104A2000BC01CD010E94BE248D838D818530C1F1F2
:104A30001A8232C08A81482F50E08D81282F30E0C1
:104A40008A81682F70E0C901880F991F820F931F18
:104A5000880F991F880F991F860F971F855A9D4FA2
:104A6000FC0120818B819C81840F951FFC01208398
:104A70008A81882F90E02A81222F30E0295C3C4FE8
:104A8000F90140812B813C81820F931F0696FC0126
:104A900040838A818F5F8A838A81863058F224C05E
:104AA00019821EC08981882F90E02B813C81820F62
:104AB000931F2FEFFC0120838981882F90E02981AB
:104AC000222F30E0295C3C4FF90140812B813C8151
:104AD000820F931F0696FC01408389818F5F898333
:104AE00089818630F8F200002B960FB6F894DEBF6D
:104AF0000FBECDBFDF91CF910895CF93DF9300D04C
:104B000000D000D0CDB7DEB78DE393E09B838A83DE
:104B10008BE493E09D838C838C819D81FC0180815B
:104B200091818115914009F0C9C08C819D81FC0162
:104B300082819381089709F0C1C08C819D81FC011D
:104B40008481863009F0BAC08C819D81FC01858109
:104B5000843009F0B3C08C819D81FC01208D318DA2
:104B6000428D538D8EE995E0FC0180819181A28177
:104B7000B381281739074A075B0709F09FC08C816A
:104B80009D81FC01868197818115914009F08CC03F
:104B90000E94BD228C819D81FC0186859785A0891C
:104BA000B189AC01BD018DE393E00E94F8248A81B4
:104BB0009B8128E036E0FC01358724878C819D812C
:104BC000FC0186859785A089B189BC01CD010E9431
:104BD000BE248E838E818530C0F5198233C08981D1
:104BE000482F50E08E81282F30E08981682F70E0B7
:104BF000C901880F991F820F931F880F991F880F73
:104C0000991F860F971F855A9D4FFC0120818C812B
:104C10009D81840F951F4296FC0120838981882FF6
:104C200090E02981222F30E0295C3C4FF90140813E
:104C30002C813D81820F931F0896FC01408389815E
:104C40008F5F89838981863050F28C819D8120E03D
:104C500032E0FC01378326838C819D81FC018685AF
:104C60009785A089B1892C813D81F901808F918F31
:104C7000A28FB38F8EE995E0FC0180819181A281A2
:104C8000B3812C813D81F90186879787A08BB18BF9
:104C90006DE373E08CE390E00E94661A80919702C6
:104CA0008460809397020BC08C819D81FC0186817A
:104CB00097818115924011F40E94BD220000269632
:104CC0000FB6F894DEBF0FBECDBFDF91CF91089530
:104CD000CF93DF93CDB7DEB7ED970FB6F894DEBF75
:104CE0000FBECDBF6AAF7BAF8CAF9DAF1E82CE0132
:104CF000409698878F83CE0140960E969A87898733
:104D00008AAD9BADACADBDAD8B879C87AD87BE87B3
:104D10008EE995E0FC0120813181428153818AAD89
:104D20009BADACADBDAD282739274A275B2786EA66
:104D300095E0FC0180819181A281B381822393233C
:104D4000A423B523892B8A2B8B2B59F082EA95E07B
:104D5000FC0180819181A281B3818AAF9BAFACAF0E
:104D6000BDAF8F81988528E036E0FC013587248728
:104D70008AAD9BADACADBDAD9E01205F3F4FAC0198
:104D8000BD01C9010E94F8248EE995E0FC018081F3
:104D90009181A281B38129853A85F9018687978718
:104DA000A08BB18B29853A858AAD9BADACADBDADED
:104DB000F901808F918FA28FB38F19821EC08981D4
:104DC000882F90E02981222F30E0295C3C4FF901A7
:104DD000408129853A85820F931F0896FC01408304
:104DE0008981882F90E029853A85820F931F42960A
:104DF000FC01108289818F5F898389818630F8F276
:104E000089859A8520E031E0FC0131832083898502
:104E10009A8528E030E0FC013383228389859A85D6
:104E200026E0FC01248389859A8524E0FC01258302
:104E300089859A8520E031E0FC0137832683CE0105
:104E40004096BC018AE290E00E94661A8091970227
:104E5000846080939702198256C08B859C85AD85AE
:104E6000BE85BC01CD010E94BE248F878AAD9BAD5B
:104E7000ACADBDADBC01CD010E94BE248E838E8140
:104E8000853018F08F858530F8F48F85853010F4E3
:104E900081E03EC08E81282F30E0C901880F991F24
:104EA000820F931F880F991F880F991F9C012F59FC
:104EB0003D4F8B859C85AD85BE85F90180839183AF
:104EC000A283B38381E024C01A821B821C821D82CC
:104ED0000CC000008A819B81AC81BD810196A11D1F
:104EE000B11D8A839B83AC83BD838A819B81AC8106
:104EF000BD8180319742A105B10558F30E94A321DD
:104F000089818F5F89838981843108F4A6CF80E00D
:104F1000ED960FB6F894DEBF0FBECDBFDF91CF91F7
:104F20000895EF92FF920F931F93CF93DF93CDB726
:104F3000DEB760970FB6F894DEBF0FBECDBF6F83AC
:104F4000788789879A874B872C871E870D87F88AF1
:104F5000EF868BE493E09A8389838FE593E09C83CB
:104F60008B838B819C812B85FC0120838B819C8191
:104F70002C85FC0121838B819C812F853889FC0144
:104F8000358324838B819C812D853E85FC0137836D
:104F900026838B819C81FC011382128289819A81F4
:104FA00020E034E5FC013383228389819A8121E06A
:104FB000FC0121878F819885A985BA85AC01BD0147
:104FC0008DE393E00E94DC2889819A81FC01828133
:104FD00093810E94051E9E838D8389819A81FC01A5
:104FE0008081882F90E08F709927880F991F880FF4
:104FF000991F9C018D819E81821B930B9E838D83C3
:105000008B819C816D817E8120E030E0A9010E942E
:105010002D289E838D838D819E810E94051E9C017B
:105020008B819C81FC01338322836DE373E082E6F4
:1050300090E00E94661A80919702846080939702A4
:1050400060960FB6F894DEBF0FBECDBFDF91CF9153
:105050001F910F91FF90EF900895CF93DF93CDB7FD
:10506000DEB72C970FB6F894DEBF0FBECDBF9E8380
:105070008D8378876F8329873A874B875C871A826D
:10508000198236C08D819E819C012F5F3F4F3E83E8
:105090002D83FC0180818B838D819E819C012F5FFC
:1050A0003F4F3E832D83FC0180818C838B81882F31
:1050B00090E0382F22278C81882F90E0820F931F59
:1050C0009A83898389819A81CC01A0E0B0E0298507
:1050D0003A854B855C85820F931FA41FB51F898776
:1050E0009A87AB87BC878F819885029798878F8333
:1050F0008F819885029730F68F819885892BE9F00A
:105100008D819E81FC0180818B838B81882F90E033
:10511000982F88279A83898389819A81CC01A0E07E
:10512000B0E029853A854B855C85820F931FA41FCB
:10513000B51F89879A87AB87BC8789859A85AB8598
:10514000BC859C01AD014427552789859A85AB858F
:10515000BC85CD01AA27BB27820F931FA41FB51FB3
:1051600089879A87AB87BC8789859A85AB85BC85FB
:105170009C01AD014427552789859A85AB85BC855F
:10518000CD01AA27BB27820F931FA41FB51F8987B4
:105190009A87AB87BC8789859A85809590959887F3
:1051A0008F838F8198852C960FB6F894DEBF0FBE43
:1051B000CDBFDF91CF910895CF93DF93CDB7DEB709
:1051C0002C970FB6F894DEBF0FBECDBF98878F83A4
:1051D00049875A876B877C878F8198859A838983D3
:1051E0008F8198850E969C838B8389859A85AB8564
:1051F000BC852F813885AC01BD01C9010E94F8240E
:1052000089819A8128E030E0FC01358724878091EC
:10521000F2019091F30101969093F3018093F201D2
:105220008B819C8120E430E0FC01378326838B81D5
:105230009C8120E8FC0120878091F2019091F3018C
:105240000E94051E9C018B819C81FC013583248377
:105250008B819C8125E4FC0120838B819C81FC0156
:1052600011822B813C8189859A85AB85BC85F901AA
:10527000808B918BA28BB38B8EE995E0FC018081B2
:105280009181A281B3812B813C81F901848795872B
:10529000A687B7878B819C81FC01138612868B8140
:1052A0009C81FC018081882F90E08F709927880F66
:1052B000991F880F991F9E838D838B819C816D819F
:1052C0007E8120E030E0A9010E942D289E838D83FD
:1052D0008D819E810E94051E9C018B819C81FC0119
:1052E0003387228700002C960FB6F894DEBF0FBEDE
:1052F000CDBFDF91CF9108950F931F93CF93DF938D
:10530000CDB7DEB72C970FB6F894DEBF0FBECDBF7A
:105310009C878B878B859C8582969C838B838B85D2
:105320009C850E969E838D831982F0C08981282FDB
:1053300030E046E1429FC001439F900D1124835508
:105340009D4FFC0120813181428153818D819E815D
:10535000FC0184859585A685B785281739074A07F6
:105360005B0709F0D0C08981282F30E046E1429FD9
:10537000C001439F900D11248F549D4FFC0120814B
:1053800031818B819C81FC018081918128173907B3
:1053900009F0B9C08981482F50E08B819C81FC01C4
:1053A00080859185A285B38566E1649F9001659FA4
:1053B000300D11242B543D4FF90180839183A2833A
:1053C000B3838981482F50E08B819C81FC018481CB
:1053D0009581A681B78166E1649F9001659F300D3C
:1053E000112427543D4FF90180839183A283B38315
:1053F0008981282F30E08B819C81FC01458556E115
:10540000529FC001539F900D112483549D4FFC0166
:1054100040838981282F30E046E1429FC001439FAD
:10542000900D112480549D4FFC0180818F3F71F0BD
:105430008981282F30E046E1429FC001439F900DB3
:10544000112480549D4F23E0FC0120838D819E8197
:10545000FC01828193810E94051E9C018B819C81AD
:10546000FC018485882F90E0807F9927959587950A
:1054700095958795A901481B590BCA014497CC0102
:10548000A0E0B0E08F839887A987BA878981282F09
:1054900030E046E1429FC001439F900D11248754A4
:1054A0009D4FFC0180819181A281B381BC01CD011E
:1054B0000E94161E9B01AC018F819885A985BA8533
:1054C000820F931FA41FB51F8F839887A987BA8760
:1054D0008981082F10E08F819885A985BA85BC0144
:1054E000CD010E94161EDC01CB0146E1409F9001D8
:1054F000419F300D112427543D4FF9018083918342
:10550000A283B383DCC089818F5F898389818530E1
:1055100008F40CCF1A82CEC08A81282F30E046E1F1
:10552000429FC001439F900D112483559D4FFC0164
:1055300080819181A281B381892B8A2B8B2B09F0E9
:10554000B6C08A81482F50E08D819E81FC01848500
:105550009585A685B78566E1649F9001659F300DAE
:10556000112423553D4FF90180839183A283B38396
:105570008A81482F50E08B819C81FC012081318100
:1055800066E1649FC001659F900D11248F549D4F6B
:10559000FC01318320838A81482F50E08B819C81DC
:1055A000FC012281338166E1649FC001659F900DFB
:1055B00011248D549D4FFC01318320838A81482F13
:1055C00050E08B819C81FC0180859185A285B3850B
:1055D00066E1649F9001659F300D11242B543D4F6F
:1055E000F90180839183A283B3838A81482F50E09D
:1055F0008B819C81FC0184819581A681B78166E1C4
:10560000649F9001659F300D112427543D4FF9018F
:1056100080839183A283B3838A81282F30E08B819A
:105620009C81FC01458556E1529FC001539F900D1E
:10563000112483549D4FFC0140838A81282F30E040
:1056400046E1429FC001439F900D112482549D4F1B
:10565000FC01118210828A81282F30E046E1429FAE
:10566000C001439F900D112480549D4F23E0FC0105
:1056700020838A81282F30E046E1429FC001439F6A
:10568000900D11248F539D4FFC0110828A81282F89
:1056900030E046E1429FC001439F900D11248E539C
:1056A0009D4FFC0120812E7FFC01208308C08A8150
:1056B0008F5F8A838A81853008F42ECF00002C9674
:1056C0000FB6F894DEBF0FBECDBFDF91CF911F9113
:1056D0000F910895CF93DF93CDB7DEB727970FB61D
:1056E000F894DEBF0FBECDBF6A837B838C839D831E
:1056F0005F834E83198231C08981282F30E046E1D3
:10570000429FC001439F900D112483559D4FFC0182
:1057100020813181428153818A819B81AC81BD810D
:10572000281739074A075B07A9F48981282F30E039
:1057300046E1429FC001439F900D11248F549D4F1D
:10574000FC01208131818E819F812817390711F456
:10575000898107C089818F5F89838981853060F263
:1057600085E027960FB6F894DEBF0FBECDBFDF9160
:10577000CF9108950F931F93CF93DF9300D01F9283
:10578000CDB7DEB719828FE593E09B838A8303C090
:1057900089818F5F89838981882F90E0880F991F85
:1057A000880F991F82529E4FFC0180819181892B25
:1057B000B1F08981882F90E0880F991F880F991F79
:1057C00082529E4FFC01008111818A819B81FC01E4
:1057D000828193810E94051E08171907C9F68981E5
:1057E000882F90E0880F991F880F991F82529E4F33
:1057F000FC0180819181892B09F410C08981882F57
:1058000090E0880F991F880F991F80529E4FFC01CE
:105810002081318180E0F901099500000F900F90FF
:105820000F90DF91CF911F910F9108950F931F93C8
:10583000CF93DF93CDB7DEB764970FB6F894DEBF92
:105840000FBECDBF9C878B877E876D87588B4F8718
:10585000098B1A8B2B8B3C8B8FE593E09A83898382
:105860008BE493E09C838B838D859E850E94051E2F
:105870009C0189819A81FC01318320838F859889DD
:105880000E94051E9C0189819A81FC013383228339
:105890008B859C8508969C878B878B859C850E9431
:1058A000051E9C0189819A81FC01358324838B85A7
:1058B0009C8544969C878B878B859C850E94051EC2
:1058C0009C018B819C81FC01338322838B859C8589
:1058D0000E969C878B878B819C8121E1FC0121871F
:1058E00089899A89AB89BC89AC01BD018DE393E0BC
:1058F0000E94DC2889819A81FC01178216828B81A3
:105900009C81FC01828193810E94051E08969E83E2
:105910008D838B819C81FC018081882F90E08F702A
:105920009927880F991F880F991F9C018D819E814F
:10593000821B930B9E838D838D819E810996CC0162
:10594000A0E0B0E08F839887A987BA878B819C817C
:10595000FC013C968F819885A985BA856D817E81F1
:105960009C01AD01CF010E942D289E838D838D81E6
:105970009E810E94051E9C0189819A81FC013783CA
:1059800026838B859C856DE373E00E94661A809167
:105990009702846080939702000064960FB6F89493
:1059A000DEBF0FBECDBFDF91CF911F910F91089544
:1059B0000F931F93CF93DF93CDB7DEB72A970FB620
:1059C000F894DEBF0FBECDBF1A8219821B821C82E3
:1059D0001D821E828FE593E098878F838BE493E08E
:1059E0009A87898703C089818F5F89838981882FFE
:1059F00090E0880F991F880F991F86539E4FFC01D6
:105A000080819181892BB1F08981882F90E0880F66
:105A1000991F880F991F86539E4FFC0100811181A9
:105A20008F819885FC01828193810E94051E081751
:105A30001907C9F68981882F90E0880F991F880F70
:105A4000991F86539E4FFC0180819181892B09F417
:105A500022C38F819885FC018585882F90E0827014
:105A60009927892B09F48EC08F819885FC01858543
:105A7000882F90E080719927892B09F483C08DE3EA
:105A800093E00E947C298F819885FC0120813181DF
:105A900089859A85FC0184859585A685B785A901A8
:105AA000BC01CD010E946A2B8A838A81853008F06F
:105AB000F2C28A81282F30E046E1429FC001439F15
:105AC000900D112480549D4F2EE1FC0120838A818A
:105AD000282F30E046E1429FC001439F900D1124E2
