:100000000C94D0020C94ED020C94ED020C94ED02D1
:100010000C94ED020C943B060C94ED020C94ED0252
:100020000C94ED020C94ED020C94ED020C94FA1079
:100030000C94ED020C94ED020C94ED020C94ED0284
:100040000C94ED020C94ED020C94ED020C94ED0274
:100050000C94ED0205A84CCDB2D44EB93836A902A5
:100060000C50B9918688083CA6AAAA2ABE000000B6
:10007000803F1F111F00001F1D151715151F0704B6
:100080001F17151D1F151D01011F1F151F17157F98
:10009000000000000000005F0000000300030014E7
:1000A0007F147F14242A7F2A1226160834324A55D8
:1000B0002150000000030000001C224100004122EA
:1000C0001C0022147F142208083E0808000060303B
:1000D00000080808080800006060002010080402FA
:1000E0003E4141413E00427F40004261514946222B
:1000F000414949360C0A497F482F494949313E490F
:1001000049493201710905033649494936264949A9
:10011000493E0000363600000056360008142241E1
:100120000014141414144122140800020151090689
:100130003E415D551E7E0909097E7F494949363E8B
:10014000414141227F4141413E7F494949417F0927
:100150000909093E4149493A7F0808087F00417F63
:1001600041003040413F017F08081463007F404058
:10017000407F0408047F7F020C107F3E4141413ED6
:100180007F090909063E4151617E7F0919294626EA
:100190004949493201017F01013F4040403F071872
:1001A0006018071F6018601F631408146303047845
:1001B00004036151494543007F4141000204081096
:1001C000200041417F0004020102044040404040C1
:1001D0000001020000304A4A4A7C007F444438381B
:1001E00044444400003844447F3854545418087E32
:1001F0000901000C5252523C7F0404047800007A3A
:10020000000020403A00007F1028440000007F00DA
:10021000007C041804780078040478384444443896
:100220007C14242418182424147C7C08040400481A
:100230005454542400023F42003C4040403C1C20A7
:1002400040201C3C4030403C44281028440C505076
:10025000503C4464544C00083641410000007F008B
:1002600000414136080008040810084D435500526B
:100270006573746172742064656D6F20776974684A
:100280002066756C6C207370656564206F662074E1
:10029000686500536F6D6520616E696D6174696F8B
:1002A0006E73004E6F772075736520736F6D6520D8
:1002B000747269676F6D65747269632066756E63C9
:1002C00074696F6E7300536F6D652070617474652F
:1002D000726E73004C6574277320706C61792074A2
:1002E00068652067616D65206F66206C69666520B2
:1002F00000546869732069732074686520686F759D
:100300007365206F662073616E7461636C617573D1
:10031000004D616C74650062790044656D6F004149
:1003200000FE05040147616D65000000FE0B000240
:1003300041647643000000FEFF010343616C6900E5
:10034000CD0FFEFF020444656D6F008208FEFF03BF
:1003500000586D617300043400FF0A06546574721E
:1003600000751D00FF05075261636500041400FF5E
:10037000060858584F0000632300FF0709506F6EAE
:100380006700AA1600FF080A52657665009A2D00DC
:10039000FF0905536E616B008D1901FF0E0C496E4C
:1003A000700000831201FF0B0D43616C5300771343
:1003B00001FF0C0E52414D0000032801FF0D0B52AE
:1003C0006573650049284E6F7420636F6D70696CAA
:1003D000656420696E0047726176004A6F79004457
:1003E00065760053656C65637420696E7075742062
:1003F000646576696365200043616C693A00416C0D
:100400006C207369646573206D6F76652C20707243
:10041000657373206B657920696E2063656E746502
:10042000720056616C75657320736176656400595E
:100430006573004E6F0053617665206A6F7973743F
:1004400069636B2063616C696220696E2045455069
:10045000524F4D3F00454550524F4D206572726FCF
:10046000722C2063616C6962726174650041766F01
:100470006964207265642C20636F6C6C6563742002
:10048000677265656E0054696520004C6F73740077
:1004900057696E2000574F57004E656564206D6F99
:1004A00072652052414D210044442046402640645C
:1004B0006044600640464E656564206D6F7265203D
:1004C00052414D210041493A003250003150004D17
:1004D000696E20667265652052414D2042797465CF
:1004E0007300537461636B2D48656170206F76658E
:1004F000726C617020706F7373696C626521004E5D
:10050000657720626573742073657373696F6E20FD
:10051000706F696E747321004E6577206265737425
:1005200020676C6F62616C20706F696E747321005C
:100530004265737420706F696E747320676C6F62AC
:10054000616C2F73657373696F6E2F67616D6500E2
:10055000436C656172656400596573004E6F0043BA
:100560006C65617220616C6C206869676873636F89
:100570007265733F00101010101010101010101042
:1005800010101010105074733A00325000315000A7
:100590004E656564206D6F72652052414D210000EB
:1005A00011241FBECFE5D8E0DEBFCDBF10E0A0E62E
:1005B000B0E0E0EFF3E702C005900D92AE37B1076F
:1005C000D9F711E0AEE7B0E001C01D92AF3DB10731
:1005D000E1F70E9499340C94F6390C940000809154
:1005E0008500811107C082B790E00E946E3981E0DA
:1005F000809385000895803170F4603160F490E15B
:10060000699FF0011124E80FF11DE656FF4F90811C
:10061000907381E009F480E008956F927F928F9249
:100620009F92AF92BF92CF92DF92EF92FF920F9381
:100630001F93CF93DF931F92CDB7DEB700E010E09A
:1006400063C0962C730154E0EE0CFF1C5A95E1F741
:10065000D701A00FB11FA656BF4F2C912373662D53
:100660008A2D29830E94FB02D82E662D8B2D0E9495
:10067000FB02D80E862C8A94682D8C2D0E94FB02DA
:10068000D80E9394692D8C2D0E94FB02D80E682DF4
:100690008A2D0E94FB02D80E682D8B2D0E94FB0232
:1006A000D80E692D8A2D0E94FB02D80E692D8B2D44
:1006B0000E94FB02D80E662D8C2D0E94FB02298120
:1006C000811105C083E0D81208C090E409C08D2DC7
:1006D0008250823020F094E003C090E001C090ECA2
:1006E000922BF701E00FF11FE656FF4F9083EFEFDB
:1006F0006E1A7E0AF0E16F16710409F0A2CF0F5F47
:100700001F4F0031110501F1C02E612C712CA02E5C
:10071000A394B02EBA9495CFFC0144E0EE0FFF1FD6
:100720004A95E1F7E20FF31FE656FF4F40814695E9
:100730004695408301968031910571F72F5F3F4FB9
:100740002031310519F405C020E030E080E090E070
:10075000E3CF0F90DF91CF911F910F91FF90EF901A
:10076000DF90CF90BF90AF909F908F907F906F90D1
:100770000895E7E8F0E0119280E0E839F807D9F74A
:10078000089540E150E0BC0187E890E00C9479398D
:10079000803158F4603148F490E1699FF0011124F0
:1007A000E80FF11DE656FF4F40830895A7E8B0E03B
:1007B00020E030E040E1849FC00111244D91FC0114
:1007C000E20FF31FE656FF4F40832F5F3F4F20316C
:1007D0003105A1F70895A7E8B0E020E030E090E00F
:1007E0004D91F90154E0EE0FFF1F5A95E1F7E80F24
:1007F000F91FE656FF4F40832F5F3F4F20313105F1
:1008000079F70895CF93DF932FE030E090E0DC019B
:10081000A957BF4FEC01C656DF4FF901319764E08D
:10082000EE0FFF1F6A95E1F7E80FF91FE656FF4F3D
:100830004081F90174E0EE0FFF1F7A95E1F7E80FB0
:10084000F91FE656FF4F4083213011F44C91488345
:100850002150310911F7DF91CF910895CF93C0E076
:100860008C2F0E940204CF5FC031D1F7CF91089541
:10087000CF93DF9320E030E090E0EC01C957DF4FE9
:10088000A9014F5F5F4FFA01A4E0EE0FFF1FAA9589
:10089000E1F7E80FF91FE656FF4F6081D90134E018
:1008A000AA0FBB1F3A95E1F7A80FB91FA656BF4F75
:1008B0006C932E3011F4288120839A014F3051051A
:1008C000F9F6DF91CF910895CF93C0E08C2F0E946D
:1008D0003804CF5FC031D1F7CF910895CF932FE087
:1008E00030E090E0BC0144E0660F771F4A95E1F7E5
:1008F00089579F4FA90141505109FB01E40FF51F92
:10090000E656FF4FC081DB01A20FB31FA656BF4FB3
:10091000CC93213019F4DC012C9120839A014115EC
:10092000510541F7CF910895CF93C0E08C2F0E94DD
:100930006E04CF5FC031D1F7CF910895CF9320E0FF
:1009400030E090E0BC0154E0660F771F5A95E1F764
:1009500089579F4FA9014F5F5F4FFB01E40FF51FC0
:10096000E656FF4FC081DB01A20FB31FA656BF4F53
:10097000CC932E3019F4DC012C9120839A014F3056
:10098000510541F7CF910895CF93C0E08C2F0E947D
:100990009E04CF5FC031D1F7CF910895BF92CF921F
:1009A000DF92EF92FF920F931F93CF93DF93182F55
:1009B000F62EB42ED22E411103C0D11037C06AC01A
:1009C000822F992787FD9095982F642F772767FDB1
:1009D000709580E00E948F37EB01C12C4C2D9E0159
:1009E0004203F001439FF00D11248C2D810F6F2DD8
:1009F0006F0F9E2F991F9927991F690FEE2059F0AD
:100A000090E1699FF0011124E80FF11DE656FF4FB8
:100A10004081402B01C0402F0E94C803B7FE02C096
:100A2000CA9401C0C394CB10D9CFC7CF4B2D552743
:100A300047FD5095942F6D2D772767FD709580E0C9
:100A40000E948F37EB01C12C6C2D9E016203A00127
:100A5000639F500D1124812F850F942F991F992783
:100A6000991F890F6F0DEE2059F090E1699FF001F9
:100A70001124E80FF11DE656FF4F4081402B01C0C5
:100A8000402F0E94C803D7FE02C0CA9401C0C3947D
:100A9000CD10DACFDF91CF911F910F91FF90EF90A2
:100AA000DF90CF90BF900895CF9320E030E01BC03F
:100AB000FC0174E0EE0FFF1F7A95E1F7E20FF31FE0
:100AC000E656FF4F40814373542F550F550F542B5B
:100AD000508301968031910559F72F5F3F4F2031A8
:100AE000310509F44AC080E090E0E2CFF90164E00A
:100AF000EE0FFF1F6A95E1F7DF01A80FB91FA65699
:100B0000BF4F6C91462F4370562F52955695569570
:100B10005370541708F44150451708F44F5F6C7F29
:100B2000642B462F407342954F70562F5C7056953C
:100B30005695541708F44150451708F44F5F70E17B
:100B4000479FA00111246F7C642BE80FF91FE65624
:100B5000FF4F60832F5F3F4F2031310539F60196FB
:100B60008031910519F020E030E0C0CF84E690E0BC
:100B70000E94692AC15011F404C0C3E080E090E0F3
:100B8000F2CFCF910895CF92DF92EF92FF920F9321
:100B90001F93CF93DF93C82ED62E442309F122232F
:100BA000F9F0182F1150140FF62EFA94F20ED82FD8
:100BB00013C0DC1531F0D11721F0CD1511F0CF1194
:100BC00002C0402F01C04E2D6C2F8D2F0E94C803F4
:100BD000CF5FFC1670F7DF5F1D1710F0CD2DF9CF3A
:100BE000DF91CF911F910F91FF90EF90DF90CF9009
:100BF0000895EF920F93E12C00E020E140E160E0E6
:100C000080E00E94C3050F91EF900895FF920F932B
:100C10001F93CF93DF93082FEB01F42E1FE0C0FF4B
:100C200002C04F2D01C040E0D695C795602F812F9F
:100C30000E94C803115098F7DF91CF911F910F9137
:100C4000FF900895A39AA49AA59AA09AA19AA29A0D
:100C500014BC89B7806489BF82E085BDAB9A1092CD
:100C60009800AB98AC9A0895F894AB9A10929800BB
:100C7000AB98789408951F920F920FB60F9211249B
:100C80002F933F934F935F936F937F938F939F9394
:100C9000EF93FF938FE284BDAD9A409199006091EC
:100CA000980080E090E02FE030E0261B3109FC0145
:100CB00054E0EE0FFF1F5A95E1F7E20FF31FE656DF
:100CC000FF4F5081A898A998752F7370471708F4A3
:100CD000A89A52955370451708F4A99AAA9AAA9807
:100CE00001968031910519F7AD98862F8F5F80317D
:100CF00011F44F5F80E0443009F440E040939900E4
:100D0000809398002091690030916A008DB79EB75A
:100D10008217930730F48DB79EB790936A00809343
:100D200069002091CB013091CC018091DB01909141
:100D3000DC012817390720F49093CC018093CB0174
:100D4000FF91EF919F918F917F916F915F914F9163
:100D50003F912F910F900FBE0F901F90189544E276
:100D600050E0BC018AE991E00C9479396F927F924E
:100D70008F929F92AF92BF92CF92DF92EF92FF92AB
:100D80000F931F93CF93DF9300D000D000D0CDB747
:100D9000DEB7162FF42E80528E3508F06BC095E02A
:100DA000899FB001112460577F4F45E050E0CE018C
:100DB00001962E830E9479392E81E1100BC0CC243C
:100DC000C394D12CCC0EDD1E3E01E6E06E0E711CEC
:100DD00080E044C0FE013196CE010596DF0130E08F
:100DE0005D914C91541308C03F5F323009F402C04A
:100DF000343019F4108201C030E03196A817B907D9
:100E000079F7DDCFA4010A2E02C0559547950A94C3
:100E1000E2F740FF17C03031A8F4EF2DEA0FE031C0
:100E200088F4F0E094E0EE0FFF1F9A95E1F7EA0DE9
:100E3000FB1DE656FF4F013021F49081922B9083E9
:100E400001C020831196A730B105E1F6611102C0FF
:100E5000E11001C08F5FC614D70469F0F6016191FB
:100E60006F01862E912CA0E0B0E0382F310FA32E19
:100E7000B12CC8CF80E026960FB6F894DEBF0FBE27
:100E8000CDBFDF91CF911F910F91FF90EF90DF9039
:100E9000CF90BF90AF909F908F907F906F9008956C
:100EA0008F929F92AF92BF92CF92DF92EF92FF927A
:100EB0000F931F93CF93DF93182FB62EA42E922E4D
:100EC000802EEAE9F1E001900020E9F73197EA5934
:100ED000F140FE2E4AE9C42E41E0D42EE6010AC0BC
:100EE000682F610FE82C092D2A2D4B2D89910E9426
:100EF000B606180F8C2F8C198F1590F3DF91CF91B8
:100F00001F910F91FF90EF90DF90CF90BF90AF9027
:100F10009F908F9008957F928F929F92AF92BF92F1
:100F2000CF92DF92EF92FF920F931F93CF93DF93B5
:100F3000B82E962EA42E822EEAE9F1E00190002030
:100F4000E9F73197EA59F140FE2E8E2F8150833216
:100F5000E0F5CAE9D1E01E2FDC2EEE24E39400E098
:100F600020E040E060E189910E94B606180F8C2FC6
:100F70008D198F1590F3712E7A947A9410E023C016
:100F80001F5FEA2C0A2D27E040E16B2D80E00E94D4
:100F9000C305CAE9D1E05FE0C52E6C2D611B8C2F23
:100FA0008D19680FEE24E39400E0292D4B2D8991D3
:100FB0000E94B606C80E8C2F8D198F1570F3882DE0
:100FC00090E00E94692A1711DBCFDF91CF911F912A
:100FD0000F91FF90EF90DF90CF90BF90AF909F90D8
:100FE0008F907F9008958F929F92BF92CF92DF92C1
:100FF000EF92FF920F931F93CF93DF931F92CDB782
:10100000DEB7D62EC42E8A3028F593E0899F800162
:101010001124812C912C0E581F4FF801E80DF91D59
:10102000E490F12CB82CBD0CE0FE08C06F2D6C0DC7
:10103000422F8B2D29830E94C8032981E694F394C3
:10104000E5E0FE12F1CFFFEF8F1A9F0A83E08816CA
:10105000910419F70F90DF91CF911F910F91FF909D
:10106000EF90DF90CF90BF909F908F900895AF92B8
:10107000BF92DF92EF92FF920F931F93CF93DF9374
:101080001F92CDB7DEB75C01F62EE42ED22E8AE099
:10109000A816B10430F1E4E6AE16B10420F1F8EE82
:1010A000AF16F3E0BF0608F180E1A81687E2B806A4
:1010B00010F434E001C035E00AE010E0C501B801E9
:1010C0000E947B375B01632F660F660F64506F0DC4
:1010D0002D2D4E2D39830E94F3073981315071F740
:1010E00006C031E0E9CF32E0E7CF33E0E5CF0F9043
:1010F000DF91CF911F910F91FF90EF90DF90BF9004
:10110000AF9008952F923F924F925F926F927F928D
:101110008F929F92AF92BF92CF92DF92EF92FF9207
:101120000F931F93CF93DF93CDB7DEB72A970FB6F8
:10113000F894DEBF0FBECDBF1092860011E31DC62E
:101140000E94C9298FE193E00E94AF0600E020E0F1
:101150004FE061E086E00E9450078AE193E00E9440
:10116000AF0628E740E16FE089E00E948B078CE240
:1011700091E00E94692A85E795E00E94C10309E099
:101180000E94640488E290E00E94692A0150C1F73D
:1011900087E193E00E94AF0601E020E04FE069E0C4
:1011A00083E00E9450078CE291E00E94692A09E0E6
:1011B0000E94640488E290E00E94692A0150C1F70D
:1011C0008CE291E00E94692A0E94540588EC90E02C
:1011D0000E94692A81E193E00E94AF0626E941E07E
:1011E00060EF89E00E948B078CE291E00E94692AFF
:1011F0000E94E62988EC90E00E94692A81EF92E043
:101200000E94AF0624E640E16FE084E00E948B0775
:1012100000E10E94C4048BE490E00E94692A01501E
:10122000C1F784EF91E00E94692AEE24E39401E083
:1012300029EF40E06FE081E00E94CE0427EF40E01C
:101240006FE082E00E94CE0427EF40E06FE083E091
:101250000E94CE0428EF40E06FE084E00E94CE04BC
:1012600029EF40E06FE085E00E94CE04E12C0FE022
:101270002AEF40E06FE080E00E94CE048CE291E033
:101280000E94692A2DEF43E069E080E00E94CE04CD
:101290008CE291E00E94692A23E043E066E083E06B
:1012A0000E94CE048CE291E00E94692A26E040E090
:1012B00069E086E00E94CE048CE291E00E94692AF7
:1012C00020E04AEF6FE086E00E94CE048CE291E0DD
:1012D0000E94692A2AEF46E06FE080E00E94CE0477
:1012E0008CE291E00E94692A20E04AEF69E086E002
:1012F0000E94CE048CE291E00E94692A26E046E03A
:1013000069E080E00E94CE048CE291E00E94692AAC
:10131000EE24E39427EF40E06FE08AE00E94CE04E1
:1013200080E991E00E94692A27EF40E06FE08BE0BE
:101330000E94CE0480E991E00E94692A00EF20E03B
:1013400044E067E089E00E94CE0480E991E00E94D9
:10135000692AE12C20E048E066E087E00E94CE04A4
:1013600080E991E00E94692A20E04AE065E086E099
:101370000E94CE0480E991E00E94692A20E04AE0C0
:1013800064E086E00E94CE0480E991E00E94692A30
:1013900020E048E063E087E00E94CE0480E991E02D
:1013A0000E94692A20E046E062E088E00E94CE04C4
:1013B00080E293E00E94692A80E293E00E94692A19
:1013C0000E94540580E293E00E94692A0E94B903BA
:1013D0000E942E2A84ED92E00E94AF0624E640E0AF
:1013E00061E384E00E948B07E12CF12C0E940D0345
:1013F00084E690E00E94692A20E3E216F10459F4A1
:101400001093700110936F011093800110937E016F
:101410001093900114C04AE5E416F104A1F410936E
:101420009D001093AE001093BA001093BE0010936D
:10143000CB001093CC001093CD001093CE0088EE1B
:1014400093E00E94692A8FEFE81AF80A98E1E916FA
:1014500091E0F90659F686EC92E00E94AF0624E688
:1014600040E063E184E00E948B0784EF91E00E94FA
:10147000692AE12C01E020E140E160E080E00E9487
:10148000C30584EF91E00E94692A02E02EE04EE05D
:1014900061E081E00E94C30584EF91E00E94692A27
:1014A00001E12CE04CE062E082E00E94C30584EFA1
:1014B00091E00E94692A02E12AE04AE063E083E0C9
:1014C0000E94C30584EF91E00E94692A03E028E0AE
:1014D00048E064E084E00E94C30584EF91E00E944C
:1014E000692A03E126E046E065E085E00E94C30545
:1014F00084EF91E00E94692A03E224E044E066E080
:1015000086E00E94C30584EF91E00E94692A03E30C
:1015100022E042E067E087E00E94C30584EF91E0AB
:101520000E94692A0E94540588EE93E00E94692A6D
:1015300080E3E82E03E026E046E065E085E00E94D7
:10154000C3058CE291E00E94692A93E3E92E03E34C
:1015500024E044E062E082E00E94C30524E044E02D
:1015600062E08AE00E94C30524E044E06AE082E091
:101570000E94C30524E044E06AE08AE00E94C305BB
:101580008CE291E00E94692A21E1E22E01E123E050
:1015900043E060E080E00E94C30523E043E060E0B8
:1015A0008DE00E94C30523E043E06DE080E00E94EF
:1015B000C30523E043E06DE08DE00E94C3058CE2AB
:1015C00091E00E94692A30E1E32E00E122E04AE046
:1015D00060E083E00E94C30522E04AE06EE083E021
:1015E0000E94C3052AE042E063E080E00E94C30558
:1015F0002AE042E063E08EE00E94C3058CE291E0C5
:101600000E94692AE12C00E024E043E066E082E0E9
:101610000E94C30524E043E066E08BE00E94C3051E
:1016200023E044E062E086E00E94C30523E044E05A
:101630006BE086E00E94C30588EB9BE00E94692A6C
:1016400080E090E01BC04FE050E0421B530B437022
:101650005527FA2FE0E14E9FF00D11244F2FFB018B
:10166000E20FF31FE656FF4F40832F5F3F4F2031BD
:10167000310549F701968031910561F020E030E0B5
:10168000DC01A370BB27BC0104E0660F771F0A953D
:10169000E1F7D9CF88EB9BE00E94692A80E090E0D7
:1016A0001DC04FE050E0421B530B55954795559593
:1016B0004795EA2FB0E14B9FE00D11244E2FFB011F
:1016C000E20FF31FE656FF4F40832F5F3F4F20315D
:1016D000310539F701968031910561F0A82FA69563
:1016E000A69520E030E0BC01F4E0660F771FFA9584
:1016F000E1F7D7CF88EB9BE00E94692A80E090E079
:101700000FC0FA01E20FF31FE656FF4F60832F5F11
:101710003F4F20313105A9F7019680319105C1F085
:101720002FE030E0281B390B359527953595279507
:10173000682F66956695F0E12F9F600D112420E0DB
:1017400030E0AC01E4E0440F551FEA95E1F7D9CF52
:1017500088EB9BE00E94692A50E3E52E00E226E038
:1017600046E060E080E00E94C30526E046E060E0DD
:101770008AE00E94C30526E046E06AE080E00E941D
:10178000C30526E046E06AE08AE00E94C30584EFD4
:1017900091E00E94692AE12C03E020E040E166E04C
:1017A00080E00E94CE0420E040E169E080E00E94F9
:1017B000CE0420E140E060E086E00E94CE0420E11B
:1017C00040E060E089E00E94CE0484EF91E00E9456
:1017D000692AEE24E39401E022E046E067E080E03D
:1017E0000E94C30522E046E067E08AE00E94C3054C
:1017F00026E042E060E087E00E94C30526E042E088
:101800006AE087E00E94C30563E3E62E03E322E07B
:1018100042E067E087E00E94C30588EB9BE00E94FE
:10182000692AF12CDF2CDD0CE12C00E020E040E106
:101830006D2D80E00E94CE0420E140E060E08D2D1F
:101840000E94CE0484E690E00E94692AF39428E086
:10185000F212E8CFF12CDF2CDD0CD394EE24E394CC
:1018600000E320E040E16D2D80E00E94CE0402E024
:1018700020E140E060E08D2D0E94CE0484E690E0FF
:101880000E94692AF39448E0F412E5CF88EB9BE0CC
:101890000E94692A83EA92E00E94AF0624E640E1B2
:1018A00063E384E00E948B070E942E2AE12C02E36E
:1018B00020E040E167E080E00E94CE0420E140E0CB
:1018C00060E087E00E94CE0423E040E066E08EE026
:1018D0000E94CE0420E043E061E086E00E94CE0456
:1018E0004AEA642E712CD12CF12C00E06D2D7E2D56
:1018F0008F2D902F0E949935C62E8FE08C1508F4FD
:1019000040C02BED3FE049EC5EE36D2D7E2D8F2D29
:10191000902F0E94B4364B015C01792D9B2D0E94C3
:10192000173720E030E040E051E40E94B4360E94D6
:101930009935685F603150F490E1699FF00111249E
:10194000EC0DF11DE656FF4FA3E0A083682D792D25
:101950008A2D9B2D0E94293520E030E040E051E4A3
:101960000E94B4360E949935685F603150F4B0E14E
:101970006B9FF0011124EC0DF11DE656FF4F20E3A3
:1019800020832DEC3CEC4CEC5DE36D2D7E2D8F2DFA
:10199000902F0E94C134D62EE72EF82E092F41E059
:1019A000641A710809F0A2CF88EE93E00E94692AB8
:1019B0001A8619868985837031F0813031F0823042
:1019C00031F000E005C003E003C000E301C002E322
:1019D00036E4232E312C412C512C612C712C89851D
:1019E0009A85AA2797FDA095BA2F89839A83AB83FE
:1019F000BC83642D752D862D972D0E9417374B01C2
:101A00005C0169817A818B819C810E94C7356B0161
:101A10007C019B01AC01C501B4010E94B4360E9457
:101A2000993570E080E090E00E94C73520E030E01A
:101A300040EF50E40E94C1340E949935B62E2BED40
:101A40003FE049E450E4642D752D862D972D0E94CA
:101A5000C0340E942935AFE0AB15F0F0A701960124
:101A60000E94B4360E94993570E080E090E00E94B8
:101A7000C73520E030E040EF50E40E94C1340E94BE
:101A80009935603148F4B0E1BB9EF0011124E60FB6
:101A9000F11DE656FF4F00832CEE31E548EB5DE388
:101AA000642D752D862D972D0E94C1342B013C018C
:101AB000E1E02E1A310809F09CCF89859A850196BC
:101AC0009A8789870C9709F075CF88E893E10E947F
:101AD000692A83E992E00E94AF06EE24E39403E2D0
:101AE00020E040E163E080E00E94CE0420E040E19D
:101AF0006BE080E00E94CE0424E643E260E384E0F1
:101B00000E948B0788EC90E00E94692A612C712C5E
:101B1000B301882777FD8095982F0E94C7352BED5C
:101B20003FE049E45FE30E94B436962EA72EB82E1C
:101B3000092F902F0E9417376B017C01692D7A2D98
:101B40008B2D902F0E9429356D837E838F839887FC
:101B50000E94940420E030E040E85FE36D817E81E4
:101B60008F8198850E94C13429E23CE54FED5FE307
:101B70000E94B4360E949935062F0295007F20E01E
:101B800030E040E85FE3C701B6010E94C13429E2BA
:101B90003CE54FED5FE30E94B4360E949935600F3B
:101BA00080E090E0FC0124E0EE0FFF1F2A95E1F7B2
:101BB000E656FF4F608301968031910599F786E9DB
:101BC00090E00E94692A9FEF691A790AA0E16A16DB
:101BD000710409F09DCF88EE93E00E94692A212CC0
:101BE000312CB10180E090E00E94C5356B017C0191
:101BF00024E13AE342E15FE30E94B436962EA72E39
:101C0000B82E092F902F0E9417372B013C01692D08
:101C10007A2D8B2D902F0E94293569837A838B83AF
:101C20009C832CE739ED40EA5DE3C701B6010E94D1
:101C3000B436962EA72EB82E092F902F0E94173754
:101C40006B017C01692D7A2D8B2D902F0E942935F7
:101C50004B015C0120E030E040E85FE369817A817C
:101C60008B819C810E94C13429E23CE54FED5FE30A
:101C70000E94B4360E949935062F0295007F20E01D
:101C800030E040E85FE3C301B2010E94C13429E2C1
:101C90003CE54FED5FE30E94B4360E949935060F94
:101CA00020E030E040E851E4C501B4010E94B436C0
:101CB0000E949435B62E20E030E040E851E4C701A0
:101CC000B6010E94B4360E949435462FE12C2B2D8C
:101CD00068E088E00E94CE048FE090E00E94692ACC
:101CE000BFEF2B1A3B0AEEEE2E16E2E03E0609F09D
:101CF00078CFF12CE12C00E02F2D40E16FE080E067
:101D00000E94CE048BE490E00E94692AFA94F0EFDE
:101D1000FF12F0CF30E1E12C00E020EF432F6FE025
:101D200080E03D830E94CE048BE490E00E94692A0B
:101D30003D81315080F780918600811119C08FE676
:101D400092E00E94AF0624E640E063E080E00E945B
:101D50008B078BE692E00E94AF0601E020E043E1B2
:101D600068E080E00E94500788EE93E00E94692AB4
:101D7000809186008F5F80938600809186008230FC
:101D800008F4DEC9109286002A960FB6F894DEBFDA
:101D90000FBECDBFDF91CF911F910F91FF90EF90BC
:101DA000DF90CF90BF90AF909F908F907F906F907B
:101DB0005F904F903F902F900895CF93C82F85E765
:101DC00095E00E94C1032BE0C29FC00111248B5DEE
:101DD0009C4FCF910C94AF060F93CF930E94DD0ED2
:101DE000C9EE0E94940401E020E041E063E08C2F02
:101DF0000E9450078BE490E00E94692ACF5FC130B7
:101E000081F720E043E063E080E00E945007CF913B
:101E10000F910C9478120F93CF930E94DD0EC7E1BF
:101E20000E94C40401E020E041E063E08C2F0E94A6
:101E300050078BE490E00E94692AC15088F720E0A7
:101E400043E063E080E00E945007CF910F910C9433
:101E50007812CF93DF9300D01F92CDB7DEB780E02A
:101E60000E940B0FE12C8BE0F82E0E944612882373
:101E700061F0FE9CF0011124EF5DFC4F14911F30C6
:101E800020F4812F0E94EC0EE12E0E945012882334
:101E900069F1FE9C80011124F801EE5DFC4F9491E4
:101EA0009F3FE1F40E94B9030E942E2A0E947812FB
:101EB0000E943406B801665D7C4F42E050E0CE01DE
:101EC00001960E947939E981FA8109958E2D0E9447
:101ED000EC0E0E9478120E94340608C09F3030F445
:101EE000892F9B830E940B0F9B81E92E0E945A121F
:101EF000882331F1FE9CF0011124ED5DFC4FD4905C
:101F00008EE08D15E8F08D2D0E94DD0E1CEE0E94F6
:101F10002E0401E020E041E0612F80E00E945007A4
:101F20008BE490E00E94692A1F5F143081F720E063
:101F300043E063E080E00E9450070E947812ED2C9D
:101F40000E946412882309F490CFFE9CF0011124B2
:101F5000EC5DFC4FD4908EE08D1508F486CF8D2D6E
:101F60000E94DD0E1AE10E94640401E020E041E0DD
:101F7000612F80E00E9450078BE490E00E94692A64
:101F80001150123081F720E043E063E080E00E94CE
:101F900050070E947812ED2C68CF2F923F924F92FB
:101FA0005F926F927F928F929F92AF92BF92CF92E9
:101FB000DF92EF92FF920F931F93CF93DF93809165
:101FC000BF01813009F0F7C090917E00911110C0DF
:101FD00080937E008EEF93E00E94AF0624E640E0FF
:101FE00063E080E00E948B078AEF90E00E94692AFC
:101FF00088EF93E00E94AF06E12C00E028E040E18A
:1020000060E080E00E94C30501E020E043E060E082
:1020100080E00E94500789B78E7F89BFEE24E39449
:10202000F12CCC24C394D12CC0E0D4E000E014E027
:1020300073E0772E662463943AC077B8369A36995F
:10204000FECFA4B0B5B040E3B50189E00E9406061A
:10205000A016B10608F48501CA14DB0408F4650172
:1020600067B8369A3699FECFA4B0B5B040E3B50153
:102070008DE00E940606AC16BD0608F4E501EA14E0
:10208000FB0408F4750143E0B80188E00E940606ED
:1020900043E0B6018AE00E94060643E0BE018CE000
:1020A0000E94060643E0B7018EE00E94060689B34F
:1020B0008171813111F283E087B9369A3699FECF6A
:1020C00024B135B181E087B9369A3699FECFA4B0F4
:1020D000B5B00115110511F401E010E0209711F4DD
:1020E000C1E0D0E02115310511F421E030E0A11468
:1020F000B10419F4AA24A394B12C40E050E0412C7F
:1021000080EE582E66246394712CC301B2010E94A4
:10211000C5373093660020936500950140E050E09C
:10212000C301B2010E94C537309362002093610061
:102130002090650030906600960140E050E0812CD0
:1021400090E2992E9EEFA92EBB24BA94C501B4014A
:102150000E94C537822F820D80936700C090610076
:10216000D0906200970140E050E0C501B4010E94A8
:10217000C537C20EC0926300E0906500F090660023
:10218000980140E050E0C301B2010E94C5372E190A
:102190002093640000916100109162009E0140E074
:1021A00050E0C301B2010E94C537201B209360009C
:1021B00089B7816089BFDF91CF911F910F91FF9007
:1021C000EF90DF90CF90BF90AF909F908F907F90D7
:1021D0006F905F904F903F902F9008951ABA81EFC3
:1021E0008BBB12BE83E083BF89B7816089BF86E85D
:1021F00086B908951F920F920FB60F9211242F9354
:102200003F934F935F936F937F938F939F93AF937E
:10221000BF93CF93DF93EF93FF9378948091BF01A7
:10222000882371F0CC990AC08091C101811108C046
:1022300081E08093C9018093C10102C01092C10165
:102240004091BF01413009F00CC136992AC087B1D5
:10225000833099F4209183003091840084B195B14A
:10226000820F931F9093840080938300809180005D
:102270008F5F8093800047B913C020918100309117
:10228000820084B195B1820F931F90938200809356
:10229000810080917F008F5F80937F0083E087B90A
:1022A000369A80918000893108F46BC010928000CA
:1022B000809183009091840069E170E00E947B37F7
:1022C00010928400109283006B3071050CF459C099
:1022D000C0916500D09166009B01442737FD409571
:1022E000542F60E070EE81E090E00E94A337B901C6
:1022F0006C1B7D0B77FF09C04FEF469FC001479FC6
:10230000900D1124609164000BC061157105D1F02E
:102310004FEF469FC001479F900D112460916700C9
:10232000772767FD70950E948F3761388FEF7807A8
:1023300024F06038710524F405C061E87FEF02C025
:102340006FE770E06093C201613654F08091CA017A
:10235000811111C081E08093CA018093C6010BC036
:10236000603A4CF48091CA01811105C081E08093EC
:10237000CA018093C501262F215E2F3310F41092DD
:10238000CA0180917F00893108F46BC010927F00F0
:10239000809181009091820069E170E00E947B371A
:1023A00010928200109281006B3071050CF459C0BC
:1023B000C0916100D09162009B01442737FD409598
:1023C000542F60E070EE81E090E00E94A337B901E5
:1023D0006C1B7D0B77FF09C04FEF469FC001479FE5
:1023E000900D1124609160000BC061157105D1F052
:1023F0004FEF469FC001479F900D112460916300ED
:10240000772767FD70950E948F3761388FEF7807C7
:1024100024F06038710524F405C061E87FEF02C044
:102420006FE770E06093C301613654F08091C001A2
:10243000811111C081E08093C0018093C8010BC05D
:10244000603A4CF48091C001811105C081E0809315
:10245000C0018093C701262F215E2F3310F4109204
:10246000C00182E882BFFF91EF91DF91CF91BF91D0
:10247000AF919F918F917F916F915F914F913F911C
:102480002F910F900FBE0F901F9018958091C5014E
:10249000882321F01092C50181E0089580E008951D
:1024A0008091C601882321F01092C60181E0089531
:1024B00080E008958091C701882321F01092C70120
:1024C00081E0089580E008958091C801882321F07B
:1024D0001092C80181E0089580E008958091C901BB
:1024E000882321F01092C90181E0089580E00895C9
:1024F0001092C5011092C6011092C7011092C80136
:102500001092C9010895CF92DF92EF92FF920F933C
:102510001F93CF93DF93CDB7DEB728970FB6F8940C
:10252000DEBF0FBECDBF1092BF010E94781283EEB6
:1025300093E00E94AF062EE640E063E080E00E9458
:102540008B078FED93E00E94AF06E12C00E028E0BE
:1025500040E160E080E00E94C30501E020E043E04C
:1025600060E080E00E94500711E0F2E0FF2E29C0F9
:1025700089B381718131C9F01093BF018BED93E074
:102580000E94AF06E12C00E027E040E168E080E037
:102590000E94C30501E020E043E168E080E00E9482
:1025A000500784E690E00E94692A81E090E00E9452
:1025B000692A21E0C21AD10841F4F092BF010E94B9
:1025C0000434E0E2CE2EEEE4DE2E0E945012882388
:1025D00079F28091BF01813009F07AC044E050E087
:1025E00068E070E0CE0101960E94823944E050E03C
:1025F0006CE070E0CE0105960E94823999818D8150
:10260000981305C089818093640011E001C010E037
:102610002A813B818E819F812817390739F48A816D
:102620009B81909366008093650001C010E09C81BF
:102630008885981304C08C818093670001C010E0E6
:1026400044E050E060E070E0CE0101960E948239E3
:1026500044E050E064E070E0CE0105960E948239CB
:1026600099818D81981304C089818093600001C095
:1026700010E02A813B818E819F812817390739F428
:102680008A819B81909362008093610001C010E079
:102690009C818885981799F00E94F90585E594E05A
:1026A0000E94AF0628E740E063E080E00E948B07CD
:1026B0008CE291E00E94692A0E94CD0F09C08C81B2
:1026C00080936300112341F38A819B81019621F35A
:1026D00028960FB6F894DEBF0FBECDBFDF91CF9125
:1026E0001F910F91FF90EF90DF90CF900895EF92A0
:1026F0000F93CF930E94F90586E394E00E94AF0602
:1027000028E740E063E080E00E948B0783E394E0E9
:102710000E94AF0601E020E041E368E081E00E9412
:102720005007C0E034C00E945012882379F0C111D4
:102730000CC08FE294E00E94AF06E12C00E028E09C
:1027400040E168E080E00E94C305C1E00E944612BB
:10275000882371F083E394E00E94AF06E12C00E04F
:1027600028E040E168E080E00E94C305C0E008C0C6
:102770000E945A128111EECF0E9464128111EACF99
:1027800001E020E041E368E081E00E9450070E9400
:102790006E12882341F2C13099F544E050E068E0C0
:1027A00070E084E690E00E94A03944E050E060E0F0
:1027B00070E080E690E00E94A03944E050E06CE0D8
:1027C00070E084E690E00E94A03944E050E064E0CC
:1027D00070E080E690E00E94A03982E294E00E94DE
:1027E000AF0628E740E063E183E00E948B0784EFB7
:1027F00091E00E94692ACF910F91EF900C9478128A
:10280000CF910F91EF9008952F923F924F925F9248
:102810007F928F929F92AF92BF92CF92DF92EF9270
:10282000FF920F931F93CF93DF931F92CDB7DEB725
:1028300080916800882361F08DE694E00E94AF06E5
:1028400028E740E062E380E00E948B071092680076
:1028500084EF91E00E94692A18E00E94640482E3F8
:1028600090E00E94692A1150C1F7E12C01E020E1BB
:1028700040E060E081E00E94CE0420E140E060E0C2
:102880008EE00E94CE041DBC1CBC84E08EBD0E9464
:10289000EF0258EF252E33243A94912C30E0FF2498
:1028A000F394512C13E060E1862E75E1772EE1E37D
:1028B000CE2EDD24D394FCE0AF2EB12C2F2D21950C
:1028C000E12C03E140E06FE080E039830E94CE0418
:1028D000282D2F1900E040E060E080E00E94CE0447
:1028E000212F219503E140E06FE08FE00E94CE04AC
:1028F000282D211B00E040E060E08FE00E94CE0424
:102900008091C201672D0E946D37082F095F3981C0
:10291000023018F00E3018F403C002E001C00DE0E0
:10292000501631F040E06FE0852D0E94C80302C0D0
:102930003323E9F0202F30E026563F4FF901E051D4
:10294000FF4F8081833009F41150F901E051FF4FAE
:102950008081803319F4103108F41F5FF901E051D0
:10296000FF4F408141636FE0802F0E94C8038CB508
:102970009DB58B36984108F45CC04F2D50E060E067
:1029800070E041505109610971094C9DC0014D9D94
:10299000900D5C9D900D11249DBD8CBD92E0892F02
:1029A00099830E94020499819F5F9E30C1F70E9423
:1029B00069392C010E946939482259220E946939DB
:1029C0008421952122E030E080FF02C043E001C075
:1029D00040E0F901E656FF4F4083969587952F5FBB
:1029E0003F4F2E30310581F70E9469399C012370D9
:1029F00033272330310561F4969587959695879511
:102A0000B5010E947B3740E360E08E5F0E94C803FF
:102A1000939483E2981205C0EFE0EF1508F0F39469
:102A2000912C2114FDE73F0634F42FEF221A320ACD
:102A300002C030E001C031E0502E11113FCF88EECE
:102A400093E00E94692A1EBC10E10E94640482E3A4
:102A500090E00E94692A1150C1F7C10137FC01962C
:102A600061E0959587950F90DF91CF911F910F9120
:102A7000FF90EF90DF90CF90BF90AF909F908F909E
:102A80007F905F904F903F902F900C94D128FC0145
:102A90008281238130819181913031F09F3FA1F477
:102AA00003C031E001C03FEF2E3019F4913029F41A
:102AB0000895213011F49F3F39F0830F290F8823A7
:102AC00081F38F3081F3F0CF0895EF920F93CF937E
:102AD000DF931F92CDB7DEB789830E94F905898104
:102AE000813031F4E12C00E328E048E060E00FC0E1
:102AF000823031F4E12C00E328E048E060E010C0CF
:102B0000833039F4E12C00E328E048E068E080E01D
:102B100008C0843041F4E12C00E328E048E068E09C
:102B200088E00E94C305E12C01E023E341E061E07D
:102B300081E30E94B60623E241E069E082E30E945D
:102B4000B60623E149E061E083E30E94B60623E094
:102B500049E069E084E30E94B6060F90DF91CF91CF
:102B60000F91EF9008950F931F93CF93DF93EC0194
:102B70008B018881882371F06A81898190E1699F46
:102B8000F0011124E80FF11DE656FF4F408140731C
:102B90000E94C8038A81882311F08F3009F41882BB
:102BA0006881662379F0680F6A83898190E1699F63
:102BB000F0011124E80FF11DE656FF4F40814360FC
:102BC0000E94C8038981F8019181891320C06A811C
:102BD000928169131CC098819923C9F0908199232F
:102BE000B1F08230A0F08E3090F41882108290E123
:102BF000699FF0011124E80FF11DE656FF4F408157
:102C00004073DF91CF911F910F910C94C803DF9116
:102C1000CF911F910F910895EF92FF920F931F9301
:102C2000CF93DF9300D0CDB7DEB77C018B01FC01E1
:102C300081818F3F71F5C7012A8349830E9447151F
:102C40004981982F941B2A81992351F09F3F11F0BD
:102C5000913041F4F7018081882331F08FE005C085
:102C600084E103C080E001C086E1F70130813F3F8D
:102C700019F4923031F404C0313019F49E3F19F444
:102C8000865F9E3F11F0923029F4311103C0875EB8
:102C900001C080E0F80190819923C1F09181941BDB
:102CA00029F488503281333038F007C09F3F11F04B
:102CB000913019F4855001C08E51F80132813230C3
:102CC00028F4913011F09F3F09F4845168E070E0DE
:102CD000621B710977FF03C071956195710928E046
:102CE00030E0241B310937FF03C0319521953109AC
:102CF00026170CF48F5F62170CF4815041504E3050
:102D000008F08CE90F900F90DF91CF911F910F91F8
:102D1000FF90EF900895FC01862F9081911119C0CA
:102D20006183413021F49EE092839FEF04C04230E2
:102D300019F491E092839083628190E1699FF001A0
:102D40001124E80FF11DE656FF4F408143600C94BB
:102D5000C80308952F923F924F925F926F927F9295
:102D60008F929F92AF92BF92CF92DF92EF92FF929B
:102D70000F931F93CF93DF93CDB7DEB761970FB655
:102D8000F894DEBF0FBECDBFFE01319685E0DF01B6
:102D90001D928A95E9F781E08E838F83188687E0FC
:102DA00089871D861E861F861A861B861C8681E0E3
:102DB0000E946515FF24F3942CC00E9446128823BC
:102DC00031F0F0FC04C0FA948F2D0E9465150E942A
:102DD0005012882331F0F0FE04C0F3948F2D0E942E
:102DE00065150E945A12882341F0B2E0BF1528F4FD
:102DF000FA94FA948F2D0E9465150E94641288231C
:102E000041F022E02F1528F0F394F3948F2D0E94C7
:102E100065150E946E12882381F20E946E12811144
:102E2000FCCF88EC90E00E94692A0E94F9050E947C
:102E300078120E94EF021DBC1CBC84E08EBD3F2DA9
:102E40002BEF23034001112432E2830E911CA12CAD
:102E5000B12C512C18E0412C6E0186E0C80ED11C1B
:102E600077247A948091C20162E10E946D376EE00E
:102E7000895F0E94642A61E00E945F2A682E8CB5F7
:102E80009DB58D39910528F489818E3108F46AC089
:102E90000EC01DBC1CBCFE01319680818F3F11F01D
:102EA0008F5F80833196EC15FD05B9F7EDCF198260
:102EB00040E0698588850E94C8038E819885890FC6
:102EC0008887811103C091E09E8303C08F3009F48D
:102ED0007E826F819985690F69876130F1F4982F3F
:102EE000911B292F2F5F233008F46F839E3F49F4F5
:102EF0009E81913009F42BC0911131C091E09F83E4
:102F00001FC0923061F59E819F3F11F491E01FC078
:102F1000911125C091E09F8321C06E3001F5982F5B
:102F20009619292F2F5F233008F47F829E3F51F49A
:102F30009E81913011F47F820BC0911110C07F826D
:102F40007E820DC0923059F49E819F3F19F49F8379
:102F50001E8205C0911103C07F8291E09E8340E3F1
:102F60000E94C8038A8190E0881699060CF05FC021
:102F70001A82A2E0AF1508F40FC18E810885811175
:102F800005C0083010F40E5F01C00250B2E0FB1221
:102F900040C08A8581113DC00E9469398770992798
:102FA0000797B9F530C0512F01C0E22CE31614F099
:102FB000352E01C0E32E9F8197FF0DC0E8165CF40B
:102FC000011710F4363F44F4101718F426EF2216B8
:102FD0001CF433E0F312032D8A8581111AC01916EF
:102FE00064F40E94693987709927079731F442E0A9
:102FF000612FCE010A960E948B168E85181309C088
:1030000084E0F81206C042E0612FCE010A960E94C9
:103010008B16101708F41F5F011708F4115061E0B8
:10302000812F0E945F2A6EE00E94642A182F8B81F4
:103030008C3340F01B82BE01665F7F4FCE010D9640
:103040000E94B3158C818C3340F01C82BE01635FFB
:103050007F4FCE010A960E94B3158D81883C20F0E7
:103060001D82AFEFAA1ABA0AB1E0BF1558F40E9448
:103070006E12882339F041E0662DCE010D960E9434
:103080008B161B828985882329F021E08F3019F067
:1030900020E001C022E08A85882349F08C858F30AA
:1030A00031F48B858F5F861991E0833008F090E0D2
:1030B000922B8D85882351F08F85811107C08E85D5
:1030C0008F5F811B833010F482E001C080E0392ED5
:1030D000382A641489F0E12C00E020E043E06FE03E
:1030E000842D81500E94CE0402E320E043E06FE093
:1030F000862D81500E94CE04151589F0E12C00E048
:1031000020E043E060E0852D81500E94CE0402E380
:1031100020E043E060E0812F81500E94CE04462CE5
:10312000512E332009F49ECE1EBC88EE93E00E94FF
:10313000692AE12C00E02EE040E161E080E00E949D
:10314000C3050E94781221E0F21205C062E0C501B9
:103150000E94D1285AC086E894E00E94AF0631E070
:10316000331206C08BE894E00E94AF0663E00AC009
:1031700082E0381206C080E994E00E94AF0660E366
:1031800001C062E324E640E084E00E948B070E94D5
:103190006E128823E1F339C0212F412FBE01635FF6
:1031A0007F4FC6010E940C16E82E512F5F5F212F22
:1031B000452FBE01635F7F4FC601598B0E940C16DD
:1031C000282E312E3A94212F432DBE01635F7F4F6D
:1031D000C6010E940C16382FC601388B0E94471575
:1031E0006EE00E94642A61E00E945F2A082F212F6E
:1031F000482FBE01635F7F4FC6010E940C163889BD
:103200005989E2140CF4D1CECECE61960FB6F89463
:10321000DEBF0FBECDBFDF91CF911F910F91FF9009
:10322000EF90DF90CF90BF90AF909F908F907F9066
:103230006F905F904F903F902F900895FC01808198
:1032400091810097D9F02681378121153105C1F090
:103250002150310937832683A281B381A80FB91F7A
:103260006C9382819381019693838283208531853B
:103270008217930738F01382128204C08FEF0895EB
:1032800080E0089581E00895682F6F7041E3829592
:103290008F700C94C803CF93DF93C4E6D0E00E94F4
:1032A0006939BC016F70772782958F70FB0174E0DC
:1032B000EE0FFF1F7A95E1F7E80FF11DE656FF4F7D
:1032C0009081911101C01AC0219749F720E030E0A8
:1032D000B9016F707727C90144E0969587954A95A3
:1032E000E1F7FB0154E0EE0FFF1F5A95E1F7E80FFD
:1032F000F91FE656FF4F4081411105C043E00E948F
:10330000C80381E007C02F5F3F4F211581E03807D8
:10331000F9F680E0DF91CF9108953F924F925F924E
:103320006F927F928F929F92AF92BF92CF92DF92D5
:10333000EF92FF920F931F93CF93DF93CDB7DEB73A
:103340002A970FB6F894DEBF0FBECDBF00E011E0A4
:103350001A87098780E091E00E94E1379A83898388
:103360001C821B821E821D820097B1F118870F8379
:103370000E94EF0240E16FE08EE00E94C8036EEE13
:103380008E010F5F1F4FC8010E941E1940E36EE0BF
:103390008EE00E94C8038DEE0E9444196DEEC801B4
:1033A0000E941E190E944B191DBC1CBC84E08EBDDE
:1033B0000E94781240E08DEE782E9FEE692EC12C8F
:1033C000D12C7601312C812C912C502E412E2DEFB9
:1033D000A22EBB24BA9411C018861F820E94F90540
:1033E00089E994E00E94AF0624E640E063E084E0CF
:1033F0000E948B070E9478123FC18CB59DB589331E
:103400009140D8F31DBC1CBC8FEFC81AD80AE80A3B
:10341000F80A4F5F2091C201332727FD309537FF0F
:1034200003C03195219531098091C301992787FD0A
:10343000909597FF03C0919581959109281748F4BD
:10344000880F991FB5010E948F376C59641758F087
:10345000D4CFC901880F991FB5010E948F376C59CD
:10346000641798F0CACF8091C30183332CF081E0B8
:10347000311001C080E0382E8091C3018E3CBCF435
:1034800081E0381280E0382E12C08091C20183336F
:103490002CF092E0391611F0B3E03B2E8091C2017E
:1034A0008E3C2CF4E3E03E1611F0A2E03A2E172DEC
:1034B0001F7040E3612F872D82958F700E94C80393
:1034C000311005C081E0111180E07A9421C0F1E053
:1034D0003F1206C081E01F3009F080E0739418C0ED
:1034E00022E0321208C0972D907F81E009F080E041
:1034F00090EF790E0DC0E3E03E1209C0972D907F4A
:1035000081E0903F09F080E0F0E17F0E01C080E0B3
:10351000072D0F70972D92959F7020E1029F8001DB
:103520001124090F111D06561F4FF8019081907F3D
:1035300009F04DC0F3E0F31508F449C0811147C00C
:10354000672D852D942D0E941E19F80180818330EE
:1035500059F4FFEF8F1A9F0A872D0E9444190E9489
:103560004B19882389F12EC0872D0E944419662D9E
:103570006F7040E0862D82958F700E94C8032D8168
:103580003E81E981FA81E20FF31F60804F81588507
:1035900089859A854817590768F44F5F5F4F5887A8
:1035A0004F832F5F3F4F3E832D832817390710F03D
:1035B0001E821D82662D6F7040E1862D82958F7070
:1035C0000E94C80340E019CFF2E0BF2E01C0B12C29
:1035D00089819A810E947C381EBC88E592E00E9415
:1035E000692A8AE0889D8001899D100D1124C701F8
:1035F000B60124E630E040E050E00E94A337C80165
:10360000A0E0B0E0281739074A075B0748F47801C3
:10361000E21AF30A20E1E21627E2F20620F407C0DC
:10362000E12CF12C04C0EFE0EE2EE7E2FE2E0E942A
:10363000F90582E0B8121BC085E994E00E94AF064C
:1036400001E020E043E061E080E00E9450078CE26E
:1036500091E00E94692A0E9454058CE291E00E9448
:10366000692A0E9454058CE291E00E94692A64E074
:10367000C7010E94D12804C00E946E128823E1F382
:103680002A960FB6F894DEBF0FBECDBFDF91CF9163
:103690001F910F91FF90EF90DF90CF90BF90AF9070
:1036A0009F908F907F906F905F904F903F90089584
:1036B0002F923F924F925F926F927F929F92AF9222
:1036C000BF92CF92DF92EF92FF920F931F93CF930F
:1036D000DF9300D000D0CDB7DEB79C838B83DB01B6
:1036E00051969C9180E0492F50E01A01B3E02B0ED7
:1036F000311C73C0FB019088092D10E01A830983E7
:10370000280113E0410E511C3901641A750A690140
:1037100014E0CC0CDD1C1A95E1F758C08F01A9818B
:10372000BA810A1B1B0B000F111F000F111F060D82
:10373000171D060F171FD8011C91112309F445C04E
:10374000192D13501C3018F4903108F401C081E099
:1037500086010E0F1F1F06561F4FD8011C91112303
:10376000A1F10B811C810115110571F1D801509651
:103770000C91901648F110E07801B3E0EB0EF11CCB
:10378000EE16FF060CF1AB81BC815196EC909E15B4
:10379000D8F0F12C5701B3E0AB0EB11CA216B30662
:1037A0009CF0D901AE19BF097D01E01BF10BEE0FB2
:1037B000FF1FEE0FFF1FEE0DFF1D0B811C81E00FA1
:1037C000F11FE081E11101C081E09394E92DF0E067
:1037D0004E165F060CF0A2CF9F5F292F30E0221615
:1037E00033060CF087CF0F900F900F900F90DF9162
:1037F000CF911F910F91FF90EF90DF90CF90BF90EE
:10380000AF909F907F906F905F904F903F902F90E0
:103810000895FF920F931F93CF93DF93EC01EB89F1
:10382000F0E0EE0FFF1FE855FB4F25913491AC01FE
:10383000C90164E071E014C0FA01E20FF31F97FDC3
:1038400002C0108201C07083880F991F2C5F3F4F08
:103850002031310589F761504F5F5F4F662319F0C2
:1038600020E030E0E9CF88E0888B198A0E9469392E
:103870008C010E94693963E070E00E948F37282F25
:103880002F5FC80164E070E00E948F3790E1299FAC
:10389000800D11248A8B0E94693967E070E00E94D4
:1038A0008F378B8B9927880F991F88559B4FFC0169
:1038B00025913491C901F12CEC01CC0FDD1F96FF4D
:1038C00002C040E301C040E06F2D80E00E94C803C9
:1038D0008E01000F111FD6FF02C040E301C040E07F
:1038E0006F2D81E00E94C803C801880F991F880FBF
:1038F000991FF39424E0F212DFCFDF91CF911F9153
:103900000F91FF9008958F929F92AF92BF92CF92A6
:10391000DF92EF92FF920F931F93CF93DF93CDB778
:10392000DEB764970FB6F894DEBF0FBECDBF8C0133
:10393000A62EB42EDC0150968C915097860F898B61
:1039400051968C91840F8A8B7801BE016F5F7F4FF7
:10395000AE014B5F5F4F9E01275F3F4F4E01BDE0C1
:103960008B0E911C80E090E0F701A1917F01FB019B
:10397000A193BF01F801E80FF91FD480DA01DD92AD
:10398000AD01D084D901DD929D01E485D401ED9390
:103990004D0101968430910539F7A11002C0BB207A
:1039A00029F0BE016F5F7F4FC80103C0B80180E0FE
:1039B00090E00E94581B882309F46EC080E082C00A
:1039C0008E2DF8012089E21610F44FEF24C030E06C
:1039D000A9014D5F5F4F4E155F05BCF341899416F9
:1039E000A0F350E0BA016D5F7F4F6C157D056CF35D
:1039F000F601E41BF50BAF01F701E21BF30BEE0F31
:103A0000FF1FEE0FFF1FE40FF51FE00FF11F908166
:103A10009923D9F240E02989821748F130E0B901B1
:103A20006D5F7F4F6E157F0514F1EA899E16F8F0E1
:103A3000F0E0BF016D5F7F4F6C157D05C4F0B601EE
:103A40006E1B7F0BF701E21BF30BEE0FFF1FEE0F58
:103A5000FF1FE60FF71F21E030E02C0F3D1FE20FA4
:103A6000F31F9081992319F0D80152964C914F3F42
:103A700019F0692D0E94C803BFEFEB1AFB0AEFE0B3
:103A8000EE16F10409F09CCFFFEFCF1ADF0A20E118
:103A9000C216D10419F407C0C12CD12C9C2CB3E060
:103AA000EB2EF12C8DCFD80150968C9150978A0D2A
:103AB00050968C93509751968C9151978B0D5196AF
:103AC0008C9381E064960FB6F894DEBF0FBECDBF35
:103AD000DF91CF911F910F91FF90EF90DF90CF90EA
:103AE000BF90AF909F908F9008952F923F924F92EA
:103AF0005F926F927F928F929F92AF92BF92CF927E
:103B0000DF92EF92FF920F931F93CF93DF93CDB786
:103B1000DEB7E4970FB6F894DEBF0FBECDBF0E94AC
:103B2000F905E12C03E020E140E060E082E00E9442
:103B3000CE0420E140E060E08FE00E94CE040E94CD
:103B4000EF020E94693967E070E00E948F3788A712
:103B50005E0125E1A20EB11CC5010E94091C40E0D6
:103B600060E0C5010E94831C1DBC1CBC84E08EBDAE
:103B70000E947812412C512CC12CD12C66246394C4
:103B8000712C0E946E12882309F4C0C0AE014B5EF6
:103B90005F4F5CA74BA79E012C5F3F4FCE0149961C
:103BA00098AB8FA7DE011396BCABABABFE017D9645
:103BB000FAA7E9A7FE013296AE014F5D5F4F5EA7FF
:103BC0004DA7BA018E01035E1F4F7C01150180E0F5
:103BD00090E0D1014D911D01D9014C93D7014D9138
:103BE0007D01ABA9BCA94C93D8014D918D014083B7
:103BF000DB019D90BD0141E050E04C0F5D1F480F7F
:103C0000591FDA019C922C5F3F4F04964BA95CA987
:103C10004C5F5F4F5CAB4BAB349680319105C9F67E
:103C20008DA1898B8EA18A8BBE016F5F7F4FC501ED
:103C30000E94581B882351F169C0F401EE0DFF1D4D
:103C40008081811102C04FEF01C040E0F101EE0D13
:103C5000FF1D808181114FA14F3F51F06EA1620F76
:103C60008DA1890F29AB9AAB0E94C8039AA929A9F3
:103C70009F5F54E0E50EF11C60E1E616F104E9F601
:103C80000F5F1F4F0430110519F415C000E010E05C
:103C9000202FE12CF12C90E055E1852E912C8C0EFB
:103CA0009D1E800E911E22242394312C2C0E3D1E2D
:103CB000200E311EC2CF9E012F5F3F4FCE010596D1
:103CC000DE011996BE01635F7F4F44E0F901519117
:103CD0009F01EBA5FCA55193FCA7EBA7FC0151911B
:103CE000CF01EFA5F8A95193F8ABEFA75D91E9A536
:103CF000FAA55193FAA7E9A7FB015191BF01EDA5E0
:103D0000FEA55193FEA7EDA7415001F78CB59DB5D7
:103D10008933914008F4CDC01DBC1CBC2FEF52125A
:103D200053948091C201452D50E0992787FD9095CD
:103D300097FF03C09195819591099BEA899F812DF9
:103D40001124869524E330E0281B31092417350718
:103D5000A4F48091C201883D34F440E06FEFC501C6
:103D60000E94831C512C8091C201893234F040E0C2
:103D700061E0C5010E94831C512C439486EF689E2C
:103D8000802D112482599091C301993254F0609191
:103D9000C30167FD6D5F659565956195665D0E94E0
:103DA000642A481608F485C041E060E0C5010E941D
:103DB000831C882309F440C0412C7BC0FA01E80F22
:103DC000F91FE656FF4F6081611101C020E00196A6
:103DD0008F30910599F7222351F13F5F03E010E006
:103DE00018C0E62EEA94F80140E1E49EE00DF11DD2
:103DF0001124E656FF4F4081892D39AB0E94C8033C
:103E00006E2D39A96111EDCF0F5F1F4F0F301105D6
:103E100019F0902E6F2DF6CFE12C00E020E04CE061
:103E200060E083E039AB0E94CE0439A901C0F3946D
:103E30005FE05F1518F40AC030E0F12C83E090E0F9
:103E400021E060E1F69EA0011124B8CF313021F4C9
:103E50008FEFC81AD80A11C0323021F493E0C90E8E
:103E6000D11C0BC0333021F4A5E0CA0ED11C05C013
:103E7000343019F4B8E0CB0ED11CE1E0CE16EAEFF5
:103E8000DE0618F0C12C4AEFD42E730EF9E0F615B9
:103E900028F0F71518F4639426EF720EC5010E94FE
:103EA000091C40E060E0C5010E94831C412C88236E
:103EB00011F011E001C010E0262D2195E12C02E067
:103EC00040E06FE080E00E94CE043AE0F32E2F2D18
:103ED000261900E040E066E080E00E94CE04872DD5
:103EE0006F2D0E946137292F219501E340E06FE09B
:103EF00081E09AAB0E94CE049AA92F2D291B00E0E5
:103F000040E066E081E00E94CE0411113ACE1EBC72
:103F100088EE93E00E94692A60E0C6010E94D128E1
:103F2000E4960FB6F894DEBF0FBECDBFDF91CF9100
:103F30001F910F91FF90EF90DF90CF90BF90AF90C7
:103F40009F908F907F906F905F904F903F902F90B9
:103F50000895FC01828193816150681770F441508B
:103F6000491758F40190F081E02D849FE00DF11D78
:103F70001124E60FF11D808108958FEF0895FC0153
:103F8000828193816150681768F44150491750F459
:103F90000190F081E02D849FE00DF11D1124E60FCA
:103FA000F11D208308951F93CF93DF93DC01262F0B
:103FB000642F13961C911397C42FC150D0E012C0E8
:103FC00012963C911297912F9150ED91FC9111977F
:103FD000399FE00DF11D1124EC0FFD1F30813323BB
:103FE00021F0192F1111ECCF04C0412FCD010E94F7
:103FF000BF1F812FDF91CF911F910895FA01D90141
:10400000882349F061113CC0843061F42FEF3FEF09
:104010003183208307C0643029F42FEF3FEF1196DE
:104020003C932E93408151814F3F9FEF590741F1BF
:104030002D913C9111972F3F9FEF390709F1833064
:1040400019F44E5C5F4F13C0633019F42E5C3F4F80
:1040500015C0823019F4485F5F4F09C0623019F40F
:10406000285F3F4F0BC0813029F44E5F5F4F518373
:1040700040830895613021F42E5F3F4F2D933C9390
:104080000895BF92CF92DF92EF92FF920F931F930A
:10409000CF93DF93EC01062FF42E8A81B62EBA94CB
:1040A000C42ECA94E881F9818C9DE00DF11D112484
:1040B000EB0DF11D1081812F8150823008F0ABC0D3
:1040C000E12CD62ED3946D2D6E0D4F2DCE010E9476
:1040D000A91F811711F0D12C05C0E39483E0E812E9
:1040E000F2CFF9CF6B2D6D194F2DCE010E94A91F74
:1040F000811304C0D39483E0D812F4CF8D2D90E0C7
:104100008E0D911D03971CF028E730E086C0E12C4E
:10411000DF2CD3944D2D4E0D602FCE010E94A91F90
:10412000811711F0D12C05C0E39483E0E812F2CF9F
:10413000F9CF4C2D4D19602FCE010E94A91F81137C
:1041400004C0D39483E0D812F4CF8D2D90E08E0D6F
:10415000911D0397CCF6EE24E39401C0E82EDE2CEB
:10416000DA944E2D4F0D6E2D600FCE010E94A91FC7
:10417000811719F0EE24E39407C08E2D8F5F8430F1
:1041800069F7DE2CF7CFE82ECE2CCA944F2D4E19AE
:10419000602F6E19CE010E94A91F811305C08E2DBC
:1041A0008F5F843081F7CE2C8C2D90E08D0D911D8A
:1041B00003970CF0A9CFEE24E39401C0E82EDE2C87
:1041C000DA944F2D4E196E2D600FCE010E94A91F5B
:1041D000811719F0EE24E39407C08E2D8F5F843091
:1041E00069F7DE2CF7CFE82ECE2CCA944E2D4F0D5A
:1041F000602F6E19CE010E94A91F811305C08E2D5C
:104200008F5F843081F7CE2C8C2D90E08D0D911D29
:1042100003970CF079CF20E030E0C901DF91CF9116
:104220001F910F91FF90EF90DF90CF90BF90089576
:104230000F931F93CF93DF93EC010A8111E008C025
:1042400041E0612FCE010E94A91F882329F01F5F42
:104250000117B0F781E001C080E0DF91CF911F919D
:104260000F910895EF920F93CF93DF931F92CDB7E5
:10427000DEB789830E94F9058981813031F4E12C10
:1042800003E028E040E160E007C0823041F4E12C27
:1042900003E028E040E168E080E00E94C30521E3FC
:1042A00042E063E087E090E00E943708E12C01E300
:1042B00023E043E063E087E00E94CE042DEF43E07B
:1042C00065E087E00E94CE0421E342E06BE086E0F7
:1042D00090E00E94370821E349E06FEF8AE090E028
:1042E0000E94370823E043E06AE087E00E94CE04A2
:1042F0002DEF43E06CE087E00E94CE0421E349E02B
:1043000069E08AE090E00F90DF91CF910F91EF90FC
:104310000C943708EF920F93CF93DF931F92CDB792
:10432000DEB789830E94F9058981813031F4E12C5F
:1043300003E028E040E160E007C0823041F4E12C76
:1043400003E028E040E168E080E00E94C3058CECD7
:1043500094E00E94AF0600E020E041E361E083E0EA
:104360000E94500789EC94E00E94AF0620E041E3F0
:1043700069E083E00E9450070F90DF91CF910F9189
:10438000EF900895EF920F93CF93C82F0E94F905F5
:1043900085EC94E00E94AF0600E020E041E361E09C
:1043A00080E00E945007E12C00E220E042E06EE055
:1043B00087E00E94CE04CC2359F100E320E044E0E2
:1043C0006DE086E00E94CE04C23010F101E320E0EF
:1043D00046E06CE085E00E94CE04C230C9F002E302
:1043E00020E048E06BE084E00E94CE04C33081F01E
:1043F00002E120E04AE06AE083E00E94CE04C4309B
:1044000039F003E020E04CE069E082E00E94CE0455
:10441000CF910F91EF900895BF92CF92DF92EF92DC
:10442000FF920F931F93CF93DF93EC014A81842F68
:10443000869598E0B92ECB2CC81AFB80F69497E0AD
:10444000192F1F19D92ED81A4E5FE12C01E320E055
:10445000612F8D2D0E94CE044A814E5F6B2D6F1906
:104460008B81680F20E08D2D0E94CE042B812E5F62
:1044700040E0612F8D2D0E94CE042B812E5F8A811A
:1044800040E0612F8C0D0E94CE0480E0D12E1EC032
:104490001F5F412F6F2DCE010E94A91F813021F097
:1044A000823021F040E003C040E301C043E06D2DC5
:1044B000610F8B2D0E94C80305C010E0F82EF39405
:1044C000B82EBC0C8B81181718F38F2D9A81891781
:1044D000A0F3DF91CF911F910F91FF90EF90DF90AC
:1044E000CF90BF9008952F923F924F925F926F921C
:1044F0007F929F92AF92BF92CF92DF92EF92FF9204
:104500000F931F93CF93DF931F92CDB7DEB77C013C
:10451000762E642E422EADB6BEB6FC0132808DB72B
:104520009EB7E2E03E9E8019910911240FB6F894DF
:104530009EBF0FBE8DBF0DB71EB70F5F1F4F22244A
:104540002394722F7150798343E0542E561A46C03B
:10455000422D672DC7010E94D31F982EC22CD12C4B
:10456000882389F181E0C81AD108492D622DC7013D
:104570000E944120CC0CDD1CF801EC0DFD1D7610D5
:1045800001C003C091958195910991838083C00EEC
:10459000D11EF6018081918189589F4F8F3E9105F0
:1045A00058F4442049F02981462D652DC7010E9409
:1045B0007322F6019183808320E0492D622DC7018B
:1045C0000E94BF1F0AC0F6013197EE0FFF1FE00FD8
:1045D000F11F83E89FEF918380832394321408F0C6
:1045E000B7CFF80160E08FE790E021E83FEF0FC020
:1045F0004191519144387FEF570744F02417350714
:104600000CF49A01481759070CF4CA016F5F631143
:10461000EFCF761006C02A3031054CF02A50310910
:1046200006C09C01873F9F4F14F4265F3F4FC9018E
:104630000FB6F894BEBE0FBEADBE0F90DF91CF9106
:104640001F910F91FF90EF90DF90CF90BF90AF90B0
:104650009F907F906F905F904F903F902F90089524
:10466000EF92FF920F931F93CF93DF93EC01E62E0F
:10467000042F11E02E2D412F602FCE010E94BF1F6D
:10468000CE010E940C2288EC90E00E94692A8B8166
:10469000181788F4F12EF3944F2D602FCE010E944D
:1046A000A91F811108C020E0412F602FCE010E9478
:1046B000BF1F1F2DDFCF812FDF91CF911F910F9152
:1046C000FF90EF9008952F923F924F925F926F92DA
:1046D0007F928F929F92AF92BF92CF92DF92EF9292
:1046E000FF920F931F93CF93DF93CDB7DEB76497FD
:1046F0000FB6F894DEBF0FBECDBF8DB79EB7998BB6
:10470000888B81E00E94322187E08F8386E0888752
:1047100007E0E6E0FE2E1AE012C00E945A1288233B
:1047200029F081E00E9432210F83F8860E946412F2
:10473000882329F082E00E9432211F8318870E947B
:104740006E12882351F39F818885989FC0011124A0
:104750000E94E1379E838D83009709F463C011E0C6
:104760000EC020E0402F612FCE0105960E94BF1F92
:104770000F5F01C001E08885801798F71F5F8F8168
:104780008117C0F70E946E128111FCCF0E9478122F
:104790000DC00E946412882329F082E00E948A21C1
:1047A00072E0472E0E945A12882329F081E00E946D
:1047B0008A21442443940E946E12882351F391E08D
:1047C00049122CC00E946E128111FCCF0E947812F7
:1047D00083E00E94C22163E0962E1BC00E946412F7
:1047E000882331F0992021F09A94892D0E94C221CA
:1047F0000E945A12882369F09F81892D8F5F98301B
:1048000010F465E001C064E00E94642A982E0E94C2
:10481000C2210E946E12882309F301C0912C0E94CC
:10482000F90502C0912C412C0E94EF028F8190E08B
:104830000196959587958D878E87442009F484C3CA
:10484000CE0105960E940C2284EF91E00E94692A15
:104850000E94693981709927882E8394E1E04E1275
:10486000F5C0F2E08F12F2C08885869566E0681B7D
:10487000E12C00E020E040E180E00E94CE042DB673
:104880003EB6AF808DB79EB7E2E0AE9E801991092B
:1048900011240FB6F8949EBF0FBE8DBFEDB6FEB6C5
:1048A0008FEFE81AF80ABB24B39433E8C32EDD2453
:1048B000DA94792C7A9447E0542E49C04B2D62E06B
:1048C000CE0105960E94D31F682E0B2D10E0882381
:1048D00041F101501109482F6B2DCE0105960E9420
:1048E0004120000F111F0E0D1F1DF80191838083C1
:1048F00089589F4F8F3E910560F4992051F0272DE4
:1049000042E061E0CE0105960E947322F801918396
:10491000808320E0462D6B2DCE0105960E94BF1F9F
:1049200008C0F8013197EE0FFF1FEE0DFF1DD18279
:10493000C0828885869566E0681B8F818695F52DF7
:10494000F81B8F2F43E08B0D0E94C803B394AB1468
:1049500008F0B4CF6A2C639477247394F3E0BF2EED
:10496000ADE7CA2ED12C21E83FEF1CC0F701019121
:1049700011917F010438FFEF1F077CF00217130726
:1049800039F40E94693983709927039729F403C089
:104990002017310714F4B72C98010C151D050CF4E1
:1049A000680173947610E2CF23394FEF3407DCF4BB
:1049B0000E9469396A2D70E00E948F37B82E11E08D
:1049C0000FC08B2D6A2D0E946137B92EB39441E040
:1049D0006B2DCE0105960E94A91F882379F01F5FD9
:1049E000A11678F70BC0232B49F4CD2839F4B12C4C
:1049F0008FEFA81AB80AB594A794BA2C822D932DDC
:104A00000FB6F8949EBF0FBE8DBF4F8188858695E7
:104A100066E0681B942F9695E12C03E020E088E087
:104A2000891B0E94CE0441E06B2DCE0105960E94A9
:104A3000A91F811106C04B2D62E0CE0105960E9490
:104A4000302388EE93E00E94692A76C0C82CD12CCE
:104A500091E0C91AD108EDE0F0E0EC0FFD1FEC0D7C
:104A6000FD1D10818885869556E0F52EF81A0F8178
:104A700006950E947812E12C66E2A62E62E0B62E20
:104A800077E0772E701A01C0E12E0E946E1281111C
:104A900005C08091C2018333C4F011C041E0612F91
:104AA000CE0105960E94A91F8111F3CF412F682DD9
:104AB000CE0105960E943023882359F336C06F81BA
:104AC000812F8F5F0E94642A182F8091C2018E3C33
:104AD00034F461E0812F81500E945F2A182FE11683
:104AE00099F2E12C00E020E040E16F2D80E00E948F
:104AF000CE04E1E08E1202C040E301C043E06F2D1E
:104B0000872D810F0E94C8032091C201F3E02F027C
:104B10009001112437FF03C0319521953109C5015A
:104B2000821B930B0E94692AAFCFEDE0F0E0EC0FFF
:104B3000FD1FEC0DFD1D108383E08819882E1C8657
:104B40001B861A86198619821A821B821C82788417
:104B5000312C072D10E0025011091BC1822F90E06B
:104B6000A62CAA94B12CED81FE81EA0DFB1D229D9D
:104B7000E00DF11D1124508023E0522209F01F8620
:104B8000C62CD12C0297C816D906A4F519821A8210
:104B90001B82E1E0F0E0EC0FFD1FE50DF11D8081CF
:104BA0008F5F80834F812D813E81962D9D5F862D65
:104BB000429D200D311D1124F901E80FF11D4081A6
:104BC0004370E1E0F0E0EC0FFD1FE40FF11D4081C8
:104BD0004F5F40838F5F8913EFCF8981843051F01D
:104BE0009E01275F3F4FAE01455F5F4F6B818A811A
:104BF0000E94FE1FE016F10694F519821A821B82AC
:104C0000E1E0F0E0EC0FFD1FE50DF11D80818F5F0D
:104C100080833F818D819E81272D8A0D9B1DFC0104
:104C2000329FE00DF11D11244081E1E0F0E0EC0F36
:104C3000FD1FE40FF11D40814F5F40832F5F4A89C4
:104C40002413EDCF8981843051F09E01275F3F4FBF
:104C5000AE01455F5F4F6B818A810E94FE1F2F81ED
:104C6000822F90E00297C816D90624F089818430FB
:104C700061F535C0E016F106CCF719821A821B8265
:104C8000E1E0F0E0EC0FFD1FE50DF11D80818F5F8D
:104C900080838D819E8130E0532F570D432F460D29
:104CA000FC01259FE00DF11D1124E40FF11D408151
:104CB000E1E0F0E0EC0FFD1FE40FF11D40814F5FDC
:104CC00040833F5F333041F7D1CF9E01275F3F4F95
:104CD000AE01455F5F4F6B818A810E94FE1F83E0BA
:104CE0008615D0F5E016F106BCF519821A821B82F2
:104CF000E1E0F0E0EC0FFD1FE50DF11D80818F5F1D
:104D000080835F818D819E8120E0662D6250472DDA
:104D1000421B362F320FFC01549FE00DF11D112470
:104D2000E30FF11D3081E1E0F0E0EC0FFD1FE30F38
:104D3000F11D30813F5F308321502D3F41F7898144
:104D4000843051F09E01275F3F4FAE01455F5F4FBA
:104D50006B818A810E94FE1F63940BC091E09F8744
:104D600066246394272C2A94E72CF12C972D9D5FC1
:104D70009A8B2F81261508F0F1CE9F8591113394DF
:104D8000E4E03E1205C08B859C85019629F407C09E
:104D90007A947110E3CFF7CF00E010E002C008E78B
:104DA00010E089859A85019611F408E81FEF42E02A
:104DB000841203C0119501951109CE0105960E9438
:104DC000182181110AC017FF03C01195019511091F
:104DD0000837110509F042CDDCC08D819E810E940B
:104DE0007C38BEC0C016D106ECF4B12CA12C512CDD
:104DF000652D670D462DCE0105960E94A91F8130B5
:104E000011F4A39403C0823009F4B394539484E062
:104E10005812EECF50E0A81609F4ADC034E0B81631
:104E200009F46AC0862D90E08E159F050CF053C0E2
:104E3000B12CA12C512C452D460D672DCE01059688
:104E40000E94A91F813011F4A39403C0823009F499
:104E5000B394539494E05912EECFA91609F487C085
:104E6000B9128BC084C0B12CA12C512C452D460DFC
:104E7000652D670DCE0105960E94A91F813011F4A2
:104E8000A39403C0823009F4B3945394E4E05E1217
:104E9000EDCFAE1609F46EC0BE1274C06BC0B12C5B
:104EA000A12C512C452D460D672D6519CE01059677
:104EB0000E94A91F813011F4A39403C0823009F429
:104EC000B3945394F4E05F12EDCF54E03CEFAF168F
:104ED00099F0BF1689F0639404C066246394C72CCC
:104EE000D12C861408F07ECF24E0A21629F0B21649
:104EF00019F07394971488F7969487E0F82EF918B0
:104F00008694D82ED81814E0D60CF70CCE0105964E
:104F10003B8B5C8B0E940C228EE591E00E94692AFB
:104F2000E12C02E35C89252F3B89432F6D2D8F2DCA
:104F30000E94CE048EE591E00E94692A11503B89BF
:104F40005C891111E3CF49CF0E94F90586EB94E00B
:104F50000E94AF0624E640E063E084E00E948B07F5
:104F60000E9478120E946E128823E1F32CC054E054
:104F700030E0C2CF54E034E0BFCFC016D1060CF40D
:104F800072CF1AC043E0471508F489CF54E034E0EB
:104F9000A2CF9F808884E82CF12C82E0E81AF108E7
:104FA00050E030E0B12CA12C612C77247394092DB2
:104FB00010E0025011099ECF93E0971508F46FCFCF
:104FC00054E030E088CFE889F9890FB6F894FEBF45
:104FD0000FBEEDBF64960FB6F894DEBF0FBECDBF17
:104FE000DF91CF911F910F91FF90EF90DF90CF90C5
:104FF000BF90AF909F908F907F906F905F904F90F9
:105000003F902F900895CF93DF9300D0CDB7DEB7B8
:10501000F8942091690030916A008091CB019091C1
:10502000CC0182179307F8F48091690090916A008F
:105030002091CB013091CC01821B930B9A83898301
:1050400078948FEC94E00E94AF062CE840E060E397
:1050500081E00E948B0789819A8121E34AE060E028
:105060000E9437080BC0789482EE94E00E94AF064D
:105070002CE840E063E081E00E948B070E947812F8
:105080000E946E128823E1F30F900F90DF91CF9171
:105090000895EF920F931F93CF93DF930E94F9052A
:1050A0008FE595E00E94AF0628E740E063E080E0EE
:1050B0000E948B078CE595E00E94AF0601E020E09E
:1050C00041E368E081E00E945007C0E034C00E94E4
:1050D0005012882379F0C1110CC088E595E00E9438
:1050E000AF06E12C00E028E040E168E080E00E94AB
:1050F000C305C1E00E944612882371F08CE595E05B
:105100000E94AF06E12C00E028E040E168E080E08A
:105110000E94C305C0E008C00E945A128111EECF60
:105120000E9464128111EACF01E020E041E368E0CF
:1051300081E00E9450070E946E12882341F2C13024
:1051400051F50DEC11E0C0E0D0E0CE01880F991FC1
:1051500060E070E08F5E9F4F0E94B739F8011192B6
:1051600011928F012196C530D10579F780E595E040
:105170000E94AF0628E740E063E183E00E948B07CE
:1051800084EF91E00E94692ADF91CF911F910F91E6
:10519000EF900C947812DF91CF911F910F91EF90C7
:1051A0000895AF92BF92CF92DF92EF92FF920F934A
:1051B0001F93CF93DF938C01A62E85E895E00E9484
:1051C000AF0624E640E061E389E00E948B0788ECAB
:1051D00090E00E94692AC9E00E94640486E490E09D
:1051E0000E94692AC150C1F786E990E00E94692AAD
:1051F000E801003187E2180710F0CFE0D7E220E3A2
:1052000049E060E0CE010E9437080E94781205C094
:105210000E944612F82E811113C00E94501288235A
:1052200011F0F12C0DC00E945A128111FACF0E9488
:1052300064128111F6CF0E946E12882349F3F1CFD8
:10524000B12C8501000F111F0F5E1F4FC8010E9476
:105250009A396C018031E7E29E0710F0C12CD12C05
:10526000CC16DD0620F4BE01C8010E94B739FF202C
:1052700061F0F501EE0FFF1FE353FE4F8081918136
:105280008C179D0708F478C079C080916B00882343
:10529000C1F010926B00E12C01E020E040E168E0F9
:1052A00080E00E94CE0480E395E00E94AF0624E6F1
:1052B00041E060E389E00E948B078AEF90E00E9462
:1052C000692A0E94F9058AEA90E00E94692A20E38F
:1052D00040E060E0C6010E9437088AEA90E00E9440
:1052E000692A8501000F111F03531E4F23E345E078
:1052F00060E0F801808191810E9437088AEA90E09D
:105300000E94692A23E04AE060E0CE010E9437084B
:10531000F801808191818C179D0738F50E947812E1
:105320000E946E128823E1F3CC16DD0618F488E1A2
:1053300095E002C08FEF94E00E94AF0632E0E32ECA
:1053400002E029E040E160E080E00E94C305E12C3A
:1053500000E020E040E169E080E00E94CE042EE61B
:1053600042E060E381E00E948B070E9478120E9475
:105370006E128823E1F37DCFD183C083DF91CF917B
:105380001F910F91FF90EF90DF90CF90BF90AF9063
:10539000089580E090E060E10FC0FA01E20FF31F92
:1053A000E656FF4F60832F5F3F4F20313105A9F74D
:1053B00001968031910549F020E030E0AC0174E0C5
:1053C000440F551F7A95E1F7E8CF0895DF92EF92E9
:1053D000FF920F931F93CF93DF93C1E0D0E0A0E142
:1053E000DA2E28C0F701E00FF11FE656FF4FD082FA
:1053F00084E190E00E94692A0F5F1F4F0031110580
:1054000089F70FE010E07E01F4E0EE0CFF1CFA9546
:10541000E1F7F701E00FF11FE656FF4FD08284E17C
:1054200090E00E94692A0150110998F72296C13133
:10543000D10561F07E0181E0E81AF10800E010E09A
:10544000E4E0EE0CFF1CEA95E1F7CCCFDF91CF91C1
:105450001F910F91FF90EF90DF900895CF93DF930E
:10546000D0E111C08C2FC0FD03C00E949E0402C079
:105470000E946E0485E090E00E94692ACF5FC031EF
:1054800089F7D15011F0C0E0EDCFDF91CF910895B1
:10549000CF93DF93820F911D9C01EAE0F0E00AC0F8
:1054A0004150E901C40FD11DCB01BF010E947B37E0
:1054B000805D88834111F4CFDF91CF910895681703
:1054C00008F4682F862F0895861708F4682F862F12
:1054D000089520918600213031F408950197F90153
:1054E0003197F1F702C02BE334E00097B9F7089544
:1054F0006150683070F44150483058F4DC01ED914F
:10550000FC91B8E04B9FE00DF11D1124E60FF11D59
:1055100020830895EF920F93CF93DF931F92CDB71F
:10552000DEB789830E94F9058981813031F4E12C4D
:1055300003E028E040E160E007C0823041F4E12C64
:1055400003E028E040E168E080E00E94C3058DE8C8
:1055500095E00E94AF0600E020E041E361E083E0D7
:105560000E9450078AE895E00E94AF0620E041E3E0
:1055700069E083E00E9450070F90DF91CF910F9177
:10558000EF900895AF92BF92CF92DF92EF92FF9289
:105590000F931F93CF93DF931F92CDB7DEB76C01AC
:1055A000E12C01E320E04AE063E083E00E94CE04C6
:1055B00020E04AE06CE083E00E94CE042AE040E074
:1055C00063E083E00E94CE042AE040E063E08CE0E8
:1055D0000E94CE04A12CB12C23C0D601ED91FC91E8
:1055E000EA0DFB1DE00FF11F2081213021F0223058
:1055F00021F040E003C040E301C043E0692F8F2D5C
:1056000099830E94C803085F1F4F99819F5F9C3058
:1056100021F7BFEFAB1ABB0AE8E0AE16B10439F0D0
:1056200094E000E010E084E0F82EFA0CD6CF0F9062
:10563000DF91CF911F910F91FF90EF90DF90CF906E
:10564000BF90AF900895FC018081918158E020E0E7
:1056500030E00DC071917370761302C02F5F3F4F21
:105660004F5F4830B9F751500896552319F0FC01A7
:1056700041E0F0CFC90108954F925F926F927F92FF
:105680008F929F92AF92BF92CF92DF92EF92FF9252
:105690000F931F93CF93DF93CDB7DEB728970FB645
:1056A000F894DEBF0FBECDBFE6E7F0E0DE01119655
:1056B00038E001900D923A95E1F72150E42FE15046
:1056C0004E2E512C38E0239F400C511C1124DE013A
:1056D00011965E0179E0A70EB11C30E0742E7A9429
:1056E0007A9403E010E0061B11095D91752F7F701D
:1056F000330F733008F03FC052955F70452F415013
:105700004F3FCCF14230BCF5872E8A9411F44423EC
:1057100091F1FC01C080D1807601E40CF51CF70109
:10572000F080F11028C0520F972C970E612C04C006
:1057300066246394540F980CF7E0F915E0F05523B4
:10574000D1F05930C0F4752F71507601E8E07E9F9A
:10575000E00CF11C1124E90CF11CF7017081772396
:1057600051F0E72EF12C0E151F0551F06713E2CF13
:10577000F1E06F1639F0AA15BB0509F0B6CF04C0E9
:105780006713D6CF3160F7CF832F28960FB6F894E2
:10579000DEBF0FBECDBFDF91CF911F910F91FF9064
:1057A000EF90DF90CF90BF90AF909F908F907F90C1
:1057B0006F905F904F9008952F923F924F925F921B
:1057C0006F927F928F929F92AF92BF92CF92DF9211
:1057D000EF92FF920F931F93CF93DF93CDB7DEB776
:1057E0002A970FB6F894DEBF0FBECDBF8C01862E70
:1057F000642E522EE6E7F0E0DE01119688E001907B
:105800000D928A95E1F7C8010E943C2B782E8823DF
:1058100009F460C0EE24E394F12CEC0EFD1E5E0151
:1058200089E0A80EB11C352C3A94262C2A942A948F
:1058300023E0C22ED12CC818D108D7014D917D018B
:1058400077FE3BC0842F8F708330B8F542954F7040
:10585000342F31503F3F8CF132307CF5482E4A9442
:1058600011F4332351F1430D922C980E692D6F5F83
:10587000B7E0B91510F1442301F14930F0F4842F59
:105880008150D801ED91FC91B8E08B9FE00DF11DA6
:105890001124E90DF11D808190E0542F530F940CD9
:1058A000C816D90651F4282DC80139875A870E9495
:1058B000782A5A85452F3985D9CF770CEA14FB040D
:1058C00009F0BBCF282D452D662DC8010E94782AEE
:1058D00080E001C081E02A960FB6F894DEBF0FBECB
:1058E000CDBFDF91CF911F910F91FF90EF90DF908F
:1058F000CF90BF90AF909F908F907F906F905F9070
:105900004F903F902F900895EF92FF920F931F9327
:10591000CF93DF93EC01E62E01E0F12C0EC0212F96
:10592000402F6E2DCE010E943C2B8111F3941F5FFE
:105930001930A9F70F5F093011F011E0F0CF8F2D6A
:10594000DF91CF911F910F91FF90EF9008952F92CB
:105950003F925F926F927F928F929F92AF92BF928F
:10596000CF92DF92EF92FF920F931F93CF93DF932B
:1059700000D0CDB7DEB76C01B62EA42E922E80E4F7
:1059800090E00E94E1379A838983009709F08CC0E8
:105990006B2DC6010E94232B8C0163E06B19C6019D
:1059A0000E94232B0817190709F097C0A0C0282DC3
:1059B000472D6B2DC6010E943C2B882309F46CC037
:1059C00080E090E0D601ED91FC91E80FF91F208175
:1059D000E981FA81E80FF91F20830196803491054F
:1059E00089F7282D472D6B2DCE0101960E94DC2BC7
:1059F000911043C0A981BA8131E0212C312C80E083
:105A000090E01BC0313021F0383011F021E001C0AE
:105A100023E0FB014191BF014370413019F4820F33
:105A2000911D04C0423011F4220E311C5F5F5830CA
:105A300049F73F5F1896393019F0BD0151E0E8CFC2
:105A400082199309F2E0AF1203C0919581959109F3
:105A50004091D7015091D8016091D9017091DA013C
:105A60004F5F5F4F6F4F7F4F4093D7015093D801E7
:105A70006093D9017093DA0107C0252D4A2D662D58
:105A8000CE0101960E94A72C081719070CF48C016F
:105A90008E159F050CF47C01839429E0821287CF38
:105AA000739472120EC010C07724739468EEE62EC1
:105AB00063E0F62E00EF18ED592C5A9473E0672E30
:105AC0006B188824839473CF89819A810E947C38D3
:105AD000003F88ED1807B9F45BCF8017910768F491
