S00C00006D61696E2E7372656373
S11300000C9429010C9446010C9446010C9446016D
S11300100C9446010C9446010C9446010C94460140
S11300200C9446010C9446010C9446010C94460130
S11300300C9446010C9446010C9446010C94460120
S11300400C9446010C9446010C9446010C94460110
S11300500C9446010C9446010C9446010C94460100
S11300600C9446010C9446010C9446010C944601F0
S113007048414C4C4F00000000000000005F0000AD
S11300800003000300147F147F14242A7F2A1226FD
S1130090160834324A552150000000030000001CA9
S11300A02241000041221C0022147F142208083E31
S11300B008080000603000080808080800006060B4
S11300C00020100804023E4141413E00427F4000AE
S11300D0426151494622414949360C0A497F482F19
S11300E0494949313E4949493201710905033649B3
S11300F0494936264949493E000036360000005633
S11301003600081422410014141414144122140853
S11301100002015109063E415D551E7E0909097E12
S11301207F494949363E414141227F4141413E7F19
S1130130494949417F090909093E4149493A7F082A
S113014008087F00417F41003040413F017F08089B
S11301501463007F4040407F0408047F7F020C103A
S11301607F3E4141413E7F090909063E4151617E7E
S11301707F09192946264949493201017F01013F76
S11301804040403F07186018071F6018601F631441
S113019008146303047804036151494543007F4113
S11301A0410002040810200041417F0004020102C2
S11301B00440404040400001020000304A4A4A7C6A
S11301C0007F4444383844444400003844447F3871
S11301D054545418087E0901000C5252523C7F04B6
S11301E004047800007A000020403A00007F1028C0
S11301F0440000007F00007C0418047800780404A4
S11302007838444444387C14242418182424147C56
S11302107C08040400485454542400023F42003C27
S11302204040403C1C2040201C3C4030403C442882
S11302301028440C5050503C4464544C000836413F
S1130240410000007F000041413608000804081006
S1130250080011241FBECFEFD0E1DEBFCDBF21E0E7
S1130260A6E0B1E001C01D92AB32B207E1F711E0A4
S1130270A0E0B1E0EAE5F8E002C005900D92A630F6
S1130280B107D9F70E94CA020C942B040C94000005
S11302905C9A80E38A95F1F75C9880E38A95F1F79C
S11302A008955D9A5E9A5A985B988FE388B90E9484
S11302B0480108955A985B988034910518F45D9A22
S11302C05E9806C08038910540F45D985E9A80542B
S11302D08F73806488B90E94480108955A985B9886
S11302E08770886B88B90E9448010895CF93DF9383
S11302F0EB010E945A01CE010E946E01DF91CF9161
S113030008955A9A5B9888B985E38A95F1F70000B5
S11303100E9448010895CF93DF93C82FD0E0BE0117
S113032080E090E00E947601BE0180E490E00E94AB
S113033076015D9AC0E4D0E080E00E9481012197BB
S1130340D9F7DF91CF910895CF93C0E08C2F0E940D
S11303508B01CF5FC830D1F7CF9108958FEF87B964
S11303608AB95F9A5F988FEA94E00197F1F700C029
S113037000005F9A8FEA94E00197F1F700C0000053
S11303805F988FEA94E00197F1F700C000005F9A4C
S11303900E9451010E94A401089517B85B9A5A9AC9
S11303A0803418F45D9A5E9802C05E9A5D9885E088
S11303B08A95F1F700005C9A95E39A95F1F70000AD
S11303C05C988AE68A95F1F700C05C9A95E09A9564
S11303D0F1F7000086B15C9895E09A95F1F700007A
S11303E09FEF97B90895DF92EF92FF920F931F93B7
S11303F0CF93DF93F82EE92EEB01D42E8B011695C3
S113040007951695079516950795B8010E947601EC
S1130410D11010C08F2D0E94CD01C770DD2721E0BF
S113042030E002C0220F331FCA95E2F72095C82F8F
S1130430C2230EC08F2D0E94CD01C770DD2721E09D
S113044030E002C0220F331FCA95E2F7C82FC22B37
S1130450B8018F2D9E2D0E9476018C2F0E94810160
S1130460DF91CF911F910F91FF90EF90DF9008954E
S1130470AF92BF92CF92DF92EF92FF920F93CF93FE
S1130480DF936C01C40ED11C8C159D0588F47B018F
S11304902F5FA22EB12CEC01CA0DDB1D402FB7013A
S11304A00E94F301CE01CA0DDB1D8C159D05B0F32E
S11304B0DF91CF910F91FF90EF90DF90CF90BF909D
S11304C0AF900895AF92BF92CF92DF92EF92FF92D6
S11304D00F93CF93DF935C01EB016B01C40ED51E28
S11304E06C157D0568F42F5FE22EF12C402FBE01C0
S11304F0C5010E94F301CE0DDF1DCC15DD05B0F35F
S1130500DF91CF910F91FF90EF90DF90CF90BF904C
S1130510AF9008958F929F92AF92BF92CF92DF9245
S1130520EF92FF920F931F93CF93DF93F82EB92E80
S11305306B01A42E852EE901102F942E981A0E2DEE
S1130540212F492D0E943802212F492DBE018F2DC4
S11305509B2D0E943802CC19DD09212FAE01B60172
S11305608F2D9B2D0E946202AE014F5F5F4F212FA2
S1130570B6018A2D982D0E946202DF91CF911F91BE
S11305800F91FF90EF90DF90CF90BF90AF909F902E
S11305908F9008958DEA809366008AEF90E090939F
S11305A00501809304010E94AE0178940E944C03DB
S11305B080E090E00895CF92DF92EF92FF920F9344
S11305C01F93CF93DF936C01EB01E42EF12C615068
S11305D07109870120E030E043E050E00E943802D6
S11305E020E030E043E050E0BE01C6010E94380242
S11305F0BE016F5F7F4F20E030E043E050E0C60172
S11306000E943802DF91CF911F910F91FF90EF90DC
S1130610DF90CF900895EF92FF920F931F93EE24F3
S1130620E394F12C00E010E02FE330E040E650E0EA
S113063060E070E080E290E00E948A0201E010E055
S113064020E030E04AE050E06BE170E082E290E0CC
S11306500E94620220E030E04AE050E06BE170E08A
S11306608EE590E00E94620241E060E270E080E486
S113067090E00E94DB021F910F91FF90EF9008958C
S11306800E940B0380E790E00E944F0341E060E288
S113069080E40E94E90308950E944003FFCF44E2EE
S11306A050E0BC0186E091E00E94220408952F925C
S11306B03F924F925F926F927F928F929F92AF92EE
S11306C0BF92CF92DF92EF92FF920F931F93CF933B
S11306D0DF93CDB7DEB727970FB6F894DEBF0FBE12
S11306E0CDBF80528E3508F059C0222E142F6F834F
S11306F090E0BC01660F771F660F771F860F971F68
S1130700BC016A587F4F45E050E0CE0101960E943B
S11307102204CE0101963C014E0196E0890E911C03
S1130720312C1E8331C0E52CFC2CF301808190E038
S1130730002E02C0959587950A94E2F780FF14C0B5
S1130740442094F0FFE3FD1578F0211007C06D2DCF
S113075070E040E0C5010E94F30106C06D2D70E019
S113076041E0C5010E94F3010F5F1F4FD39407308E
S11307701105C9F68FEF681A780AF7018081811193
S113078033946814790459F0DE8000E010E0562CAC
S1130790C72C4F80430CA42CB12CC5CF312C832DF6
S11307A027960FB6F894DEBF0FBECDBFDF91CF9171
S11307B01F910F91FF90EF90DF90CF90BF90AF907B
S11307C09F908F907F906F905F904F903F902F906D
S11307D00895BF92CF92DF92EF92FF920F931F93EF
S11307E0CF93DF93182F062FB42EE6E0F1E00190AB
S11307F00020E9F73197E650F140EE23C9F00F2EBF
S1130800F6E0CF2EF1E0DF2EF02DE150F0E0CF0145
S1130810895F9E4F7C01E6016C2F6C19610F2B2DB3
S1130820402F89910E945703180FCE15DF05A1F7B9
S1130830DF91CF911F910F91FF90EF90DF90CF90B8
S1130840BF900895FB01DC0102C005900D92415058
S10D08505040D8F70895F894FFCF44
S109085A00002B01200048
S9030000FC
