S00C00006D61696E2E7372656373
S11300000C946B050C9488050C9488050C948F3320
S11300100C9488050C9488050C9488050C94880528
S11300200C9488050C9488050C9488050C94880518
S11300300C9488050C94A5470C9488050C948805A9
S11300400C9488050C9488050C9488050C948805F8
S11300500C94AA490C9488050C9488050C94880582
S11300600C9488050C9488050C9488050C948805D8
S1130070524553455420202D2072657365742074B5
S1130080686520415652202D20436F6E74726F6C48
S11300906C65720D0A415250202020202D206C697D
S11300A073742074686520415250207461626C65D9
S11300B00D0A544350202020202D206C6973742095
S11300C074686520746370207461626C650D0A49FC
S11300D05020202020202D206C6973742F636861C8
S11300E06E67652069700D0A4E4554202020202D2E
S11300F0206C6973742F6368616E6765206E657424
S11301006D61736B0D0A524F55544552202D206C6E
S11301106973742F6368616E676520726F757465A7
S1130120722069700D0A4E5450202020202D206C1E
S11301306973742F6368616E6765204E54500D0AAD
S11301404E5450522020202D204E5450205265668B
S1130150726573680D0A4D4143202020202D206CC8
S1130160697374204D41432D616464726573730D2A
S11301700A564552202020202D206C697374206576
S11301806E632076657273696F6E206E756D62653D
S1130190720D0A535620202020202D2073657420D0
S11301A07661726961626C650D0A50494E47202080
S11301B0202D2073656E642050696E670D0A5449C2
S11301C04D452020202D206765742074696D650DD0
S11301D00A48454C502020202D207072696E7420EE
S11301E048656C70746578740D0A3F2020202020C7
S11301F0202D207072696E742048656C7074657867
S1130200740D0A004D792049503A202531692E2574
S113021031692E2531692E2531690D0A004E455468
S11302204D41534B3A202531692E2531692E253114
S1130230692E2531690D0A00526F75746572204963
S1130240503A202531692E2531692E2531692E2514
S113025031690D0A004D79204D41433A2025327809
S11302603A2532783A2532783A2532783A25327866
S11302703A2532780D0A00454E4332384A36302D3D
S113028056657273696F6E3A202531780D0A002520
S1130290326920204D41433A253278002E253278A8
S11302A0002E253278002E253278002E2532780053
S11302B02E25327800202049503A253369002E2516
S11302C03369002E253369002E253369002020541C
S11302D0696D653A2534690D0A00253269002020CC
S11302E049503A253369002E253369002E25336998
S11302F0002E253369002020504F52543A2534698A
S113030000202054696D653A2534690D0A000A0DF0
S113031054494D453A202532693A2532693A253205
S1130320690D0A00256300000000000000005F0062
S1130330000003000300147F147F14242A7F2A1270
S113034026160834324A55215000000003000000EC
S11303501C2241000041221C0022147F14220808A0
S11303603E08080000603000080808080800006023
S1130370600020100804023E4141413E00427F409B
S113038000426151494622414949360C0A497F4895
S11303902F494949313E494949320171090503361A
S11303A049494936264949493E000036360000008D
S11303B05636000814224100141414141441221453
S11303C0080002015109063E415D551E7E090909D6
S11303D07E7F494949363E414141227F4141413E68
S11303E07F494949417F090909093E4149493A7F01
S11303F00808087F00417F41003040413F017F08E9
S1130400081463007F4040407F0408047F7F020C8F
S1130410107F3E4141413E7F090909063E41516139
S11304207E7F09192946264949493201017F010184
S11304303F4040403F07186018071F6018601F6363
S11304401408146303047804036151494543007F8D
S113045041410002040810200041417F00040201D0
S1130460020440404040400001020000304A4A4A31
S11304707C007F4444383844444400003844447F7A
S11304803854545418087E0901000C5252523C7FCF
S11304900404047800007A000020403A00007F1031
S11304A028440000007F00007C04180478007804CD
S11304B0047838444444387C14242418182424141C
S11304C07C7C08040400485454542400023F420035
S11304D03C4040403C1C2040201C3C4030403C44BC
S11304E0281028440C5050503C4464544C000836A6
S11304F041410000007F0000414136080008040823
S113050010081F111F00001F1D151715151F0704C4
S11305101F17151D1F151D01011F1F151F17157FFF
S11305200A0D53797374656D2052656164790A0DFF
S113053000436F6D70696C6965727420616D204A47
S1130540616E203236203230313720756D203139DA
S11305503A33323A34380D0A00436F6D70696C696E
S1130560657274206D697420474343205665727325
S1130570696F6E20342E392E320D0A000D0A49504F
S11305802020202531692E2531692E2531692E251B
S113059031690D0A004D41534B202531692E253117
S11305A0692E2531692E2531690D0A00475720200F
S11305B0202531692E2531692E2531692E25316991
S11305C00D0A000D0A0052656164790D0A0D0A00D6
S11305D04552524F520D0A0D0A0047657420504F80
S11305E04E473A2025692E25692E25692E25690D49
S11305F00A000400051A06FF071F080009000AFF85
S11306000B19C100C00DC233CAEECB05C415C61206
S1130610E400E520E218E3B1E015E16F7500FFFFA7
S1130620000100140742FFFF0A0D4E494320696E82
S113063069743A004D792049503A202531692E25B4
S113064031692E2531692E2531690D0A0D0A0045BF
S1130650696E74726167207769726420656E74666E
S113066065726E74204D41585F4552524F5220536B
S11306705441434B3A25690D0A005061636B65741C
S113068020776972642065726E657574206765737E
S1130690656E64657420535441434B3A25690D0AD1
S11306A000544350205A757669656C6520416E7715
S11306B0656E64756E67656E2077757264656E200D
S11306C06765737461727465740D0A005443502035
S11306D0416E77656E64756E672077697264206910
S11306E06E204C697374652065696E676574726108
S11306F067656E3A2045696E747261672025690DDD
S11307000A0028506F7274E46E646572756E67290E
S113071020506F7274207775726465206E69636807
S11307207420676566756E64656E0D0A00544350E7
S113073020416E77656E64756E6720506F72742009
S1130740E46E6465726E3A2045696E747261672066
S113075025690D0A005A757669656C652055445003
S113076020416E77656E64756E67656E207775726D
S113077064656E206765737461727465740D0A0034
S113078055445020416E77656E64756E67207769B5
S1130790726420696E204C697374652065696E67A4
S11307A06574726167656E3A2045696E747261673B
S11307B02025690D0A002569002E2569002E25696A
S11307C0002E2569203A004B65696E204152502065
S11307D06F646572204950205061636B6574210D0C
S11307E00A0041525020656E74727920746162650A
S11307F06C6C6520766F6C6C210D0A0041525020A0
S113080045696E74726167206E69636874206765F8
S113081066756E64656E2A0D0A0041525020456962
S11308206E74726167206E696368742067656675AB
S11308306E64656E0D0A00415250205245504C5969
S113084020454D5046414E47454E210D0A004D5915
S1130850204E4554574F524B210D0A00524F5554C8
S1130860494E47210D0A004152502045494E5452E9
S1130870414720474546554E44454E210D0A002A1E
S11308802A4B45494E454E204152502045494E542D
S113089052414720474546554E44454E2A2A0D0AA3
S11308A00054435020456E74727920676566756EF6
S11308B064656E2025690D0A0054435020456E740A
S11308C07279206E657565722045696E7472616710
S11308D02025690D0A00536572766572204275738E
S11308E07920284E4F204D4F524520434F4E4E45C0
S11308F04354494F4E5329210D0A00554450204B6F
S113090065696E6520416E77656E64756E672067F4
S11309106566756E64656E210D0A00544350204B64
S113092065696E6520416E77656E64756E672067D4
S11309306566756E64656E210D0A0054435020454A
S1130940696E74726167206E69636874206572668B
S11309506F6C677265696368210D0A005443502007
S1130960506F727420777572646520766F6D2053B2
S11309706572766572206765F666666E65742053E7
S11309805441434B3A25690D0A00544350204569AC
S11309906E74726167206E69636874206572666F35
S11309A06C677265696368210D0A00544350204ED8
S11309B065772053455256455220436F6E6E6563EA
S11309C074696F6E2120535441434B3A25690D0AD3
S11309D0005443502045696E74726167206E6963E8
S11309E0687420676566756E64656E0D0A0054430D
S11309F0502D537461636B2045696E747261672076
S1130A0067656CF6736368742120535441434B3A11
S1130A1025690D0A005443502D537461636B2045BE
S1130A20696E747261672067656CF673636874211C
S1130A3020535441434B3A25690D0A005443502036
S1130A40537263506F7274202534690D0A00506F1D
S1130A507274207769726420696D20544350205366
S1130A607461636B2067657363686C6F7373656E21
S1130A7020535441434B3A25690D0A004F6566667D
S1130A80656E2065696E657320506F727473206D96
S1130A906974205365727665720D0A0054435020C0
S1130AA04F70656E206E657565722045696E74724F
S1130AB061672025690D0A004275737920284E4F1D
S1130AC0204D4F524520434F4E4E454354494F4EBF
S1130AD05329210D0A0011241FBECFEFD0E1DEBF40
S1130AE0CDBF11E0A0E0B1E0E8E5F0EA02C0059076
S1130AF00D92A239B107D9F727E0A2E9B1E001C00C
S1130B001D92A23DB207E1F70E9473290C942A506A
S1130B100C9400000F931F93CF93DF9300D000D069
S1130B2000D0CDB7DEB79E838D831982CE010596A2
S1130B3062E871E00E94384F9C838B8313C08981E3
S1130B408F5F89838981882F90E0880F991F880F90
S1130B50991F80509F4FFC0180819181892B11F452
S1130B6080E048C08981882F90E0880F991F880F02
S1130B70991F80509F4FFC01808191812B813C8182
S1130B80B9010E940A4F892BD1F61A8221C0CE01E5
S1130B90059664E871E00E94384F9C838B838A81B8
S1130BA0082F10E08B819C8140E050E060E070E011
S1130BB00E94C94DDC01CB019C01C801880F991F1B
S1130BC08C599D4FFC01318320838A818F5F8A83F6
S1130BD08A818A30E0F28981882F90E0880F991FFA
S1130BE0880F991F8E5F9E4FFC0180819181FC01CB
S1130BF0099581E026960FB6F894DEBF0FBECDBFEF
S1130C00DF91CF911F910F910895CF93DF93CDB7CB
S1130C10DEB7E0E0F0E00994DF91CF9108950F93FF
S1130C201F93CF93DF93CDB7DEB78EE190E00E94A0
S1130C30820600EC17E040EC58EA61E073E68EE1CE
S1130C4090E00E948730DC01CB01F801808391831E
S1130C50A283B3838091C307E82FF0E08091C20799
S1130C60682F70E08091C107482F50E08091C00741
S1130C70282F30E084E092E0AF2FAF93EF93E72F7B
S1130C80EF936F93652F6F934F93432F4F932F934E
S1130C90292F2F938F930E9458488DB79EB70A9699
S1130CA00FB6F894DEBF0FBECDBF6CEC77E080ECDE
S1130CB097E0FC01208131814281538188EC97E0E7
S1130CC0FC0180819181A281B381282339234A23A5
S1130CD05B2388EC97E0FC0180819181A281B38140
S1130CE080959095A095B095822B932BA42BB52B32
S1130CF0FB0180839183A283B383DF91CF911F9102
S1130D000F910895CF93DF9300D01F92CDB7DEB734
S1130D109B838A8384E692E0FC0180819181892B04
S1130D2039F1198222C08FE390E0FC018081882F81
S1130D3090E082709927892BB1F78981882F90E000
S1130D40880F991F8C599D4FFC0180819181482FF8
S1130D508981282F30E08A819B81820F931F642F21
S1130D600E94A34F89818F5F898389818430D8F25F
S1130D700F900F900F90DF91CF910895CF93DF9351
S1130D80CDB7DEB7DF91CF9108950F931F93CF9323
S1130D90DF93CDB7DEB782E290E00E94820608ECD2
S1130DA017E04FEF5FEF6FEF70E082E290E00E9498
S1130DB08730DC01CB01F80180839183A283B38364
S1130DC08091CB07E82FF0E08091CA07682F70E08C
S1130DD08091C907482F50E08091C807282F30E040
S1130DE08DE192E0AF2FAF93EF93E72FEF936F93E3
S1130DF0652F6F934F93432F4F932F93292F2F9347
S1130E008F930E9458488DB79EB70A960FB6F894F0
S1130E10DEBF0FBECDBF6CEC77E080EC97E0FC0149
S1130E20208131814281538188EC97E0FC018081EB
S1130E309181A281B381282339234A235B2388EC3F
S1130E4097E0FC0180819181A281B3818095909586
S1130E50A095B095822B932BA42BB52BFB018083FB
S1130E609183A283B383DF91CF911F910F91089552
S1130E700F931F93CF93DF93CDB7DEB786E290E055
S1130E800E94820604EC17E040EC58EA61E071E04D
S1130E9086E290E00E948730DC01CB01F801808378
S1130EA09183A283B3838091C707E82FF0E08091F8
S1130EB0C607682F70E08091C507482F50E08091E5
S1130EC0C407282F30E088E392E0AF2FAF93EF936D
S1130ED0E72FEF936F93652F6F934F93432F4F93A8
S1130EE02F93292F2F938F930E9458488DB79EB725
S1130EF00A960FB6F894DEBF0FBECDBFDF91CF9137
S1130F001F910F910895FF920F931F93CF93DF9337
S1130F10CDB7DEB780910803082F10E08091070356
S1130F20A82FB0E080910603E82FF0E0809105033C
S1130F30682F70E080910403482F50E080910303F0
S1130F40282F30E085E592E0F12EFF92102F1F93B9
S1130F501B2F1F93AF93AF2FAF93EF93E72FEF9315
S1130F606F93652F6F934F93432F4F932F93292F95
S1130F702F938F930E9458488DB79EB70E960FB645
S1130F80F894DEBF0FBECDBFDF91CF911F910F91BB
S1130F90FF900895CF93DF93CDB7DEB78091920190
S1130FA0282F30E087E792E0432F4F932F93292F88
S1130FB02F938F930E9458480F900F900F900F908B
S1130FC0DF91CF910895CF93DF931F92CDB7DEB712
S1130FD019829EC18981282F30E0C901880F991F89
S1130FE0820F931F880F991F880F991F895D9D4F4A
S1130FF0FC018081482F50E08981282F30E08FE860
S113100092E0652F6F934F93432F4F932F93292F84
S11310102F938F930E9458480F900F900F900F902A
S11310200F900F908981282F30E0C901880F991FF4
S1131030820F931F880F991F880F991F885D9D4FFA
S1131040FC018081282F30E08CE992E0432F4F93FC
S11310502F93292F2F938F930E9458480F900F900E
S11310600F900F908981282F30E0C901880F991FB4
S1131070820F931F880F991F880F991F875D9D4FBB
S1131080FC018081282F30E081EA92E0432F4F93C6
S11310902F93292F2F938F930E9458480F900F90CE
S11310A00F900F908981282F30E0C901880F991F74
S11310B0820F931F880F991F880F991F865D9D4F7C
S11310C0FC018081282F30E086EA92E0432F4F9381
S11310D02F93292F2F938F930E9458480F900F908E
S11310E00F900F908981282F30E0C901880F991F34
S11310F0820F931F880F991F880F991F855D9D4F3D
S1131100FC018081282F30E08BEA92E0432F4F933B
S11311102F93292F2F938F930E9458480F900F904D
S11311200F900F908981282F30E0C901880F991FF3
S1131130820F931F880F991F880F991F845D9D4FFD
S1131140FC018081282F30E080EB92E0432F4F9305
S11311502F93292F2F938F930E9458480F900F900D
S11311600F900F908981282F30E0C901880F991FB3
S1131170820F931F880F991F880F991F835D9D4FBE
S1131180FC0180819181A281B3819927AA27BB2781
S113119025EB32E04B2F4F934A2F4F93492F4F9318
S11311A08F93832F8F93822F8F930E9458480F9091
S11311B00F900F900F900F900F908981282F30E09F
S11311C0C901880F991F820F931F880F991F880FD9
S11311D0991F835D9D4FFC0180819181A281B38120
S11311E08827AA27BB27892F9A2FAB2FBB272EEB43
S11311F032E04B2F4F934A2F4F93492F4F938F93A6
S1131200832F8F93822F8F930E9458480F900F90B3
S11312100F900F900F900F908981282F30E0C90113
S1131220880F991F820F931F880F991F880F991F8A
S1131230835D9D4FFC0180819181A281B3818827C8
S11312409927BB27CD01AA27BB2723EC32E04B2FDC
S11312504F934A2F4F93492F4F938F93832F8F93FD
S1131260822F8F930E9458480F900F900F900F90E9
S11312700F900F908981282F30E0C901880F991FA2
S1131280820F931F880F991F880F991F835D9D4FAD
S1131290FC0180819181A281B3818B2F9927AA2798
S11312A0BB2728EC32E04B2F4F934A2F4F93492F03
S11312B04F938F93832F8F93822F8F930E9458483D
S11312C00F900F900F900F900F900F908981282FFF
S11312D030E0C901880F991F820F931F880F991F4F
S11312E0880F991F8F5C9D4FFC01208131818DEC0B
S11312F092E0432F4F932F93292F2F938F930E9484
S113130058480F900F900F900F9089818F5F8983B9
S11313108981853008F45ECE0F90DF91CF910895D6
S1131320CF93DF931F92CDB7DEB7198209C18981AC
S1131330282F30E08AED92E0432F4F932F93292FEB
S11313402F938F930E9458480F900F900F900F90F7
S11313508981282F30E046E1429FC001439F900DD0
S1131360112487589D4FFC0180819181A281B38112
S11313709927AA27BB272EED32E04B2F4F934A2FF4
S11313804F93492F4F938F93832F8F93822F8F9354
S11313900E9458480F900F900F900F900F900F904D
S11313A08981282F30E046E1429FC001439F900D80
S11313B0112487589D4FFC0180819181A281B381C2
S11313C08827AA27BB27892F9A2FAB2FBB2727EE65
S11313D032E04B2F4F934A2F4F93492F4F938F93C4
S11313E0832F8F93822F8F930E9458480F900F90D2
S11313F00F900F900F900F908981282F30E046E1D5
S1131400429FC001439F900D112487589D4FFC01BA
S113141080819181A281B38188279927BB27CD013F
S1131420AA27BB272CEE32E04B2F4F934A2F4F9322
S1131430492F4F938F93832F8F93822F8F930E94E3
S113144058480F900F900F900F900F900F90898134
S1131450282F30E046E1429FC001439F900D1124A4
S113146087589D4FFC0180819181A281B3818B2F8C
S11314709927AA27BB2721EF32E04B2F4F934A2FFE
S11314804F93492F4F938F93832F8F93822F8F9353
S11314900E9458480F900F900F900F900F900F904C
S11314A08981282F30E046E1429FC001439F900D7F
S11314B0112483589D4FFC0180819181382F22276C
S11314C08981482F50E066E1649FC001659F900DBB
S11314D0112483589D4FFC0180819181892F992784
S11314E0282B392B86EF92E0432F4F932F93292FEC
S11314F02F938F930E9458480F900F900F900F9046
S11315008981282F30E046E1429FC001439F900D1E
S1131510112484579D4FFC018081282F30E081E005
S113152093E0432F4F932F93292F2F938F930E9450
S113153058480F900F900F900F9089818F5F898387
S11315408981853008F4F3CE0F90DF91CF9108950F
S1131550CF93DF93CDB7DEB767970FB6F894DEBFAE
S11315600FBECDBF8091FF0290910003A0910103B3
S1131570B091020320E13EE040E050E0BC01CD0127
S11315800E943C4DDA01C90128E130E040E050E01E
S1131590BC01CD010E943C4DDC01CB0189838091CB
S11315A0FF0290910003A0910103B09102032CE388
S11315B030E040E050E0BC01CD010E943C4DDA0136
S11315C0C9012CE330E040E050E0BC01CD010E94B1
S11315D03C4DDC01CB018A838091FF029091000392
S11315E0A0910103B09102032CE330E040E050E00D
S11315F0BC01CD010E943C4DDC01CB018B838B816E
S1131600682F70E08A81482F50E08981282F30E0CC
S11316108EE093E0E72FEF936F93652F6F934F93D3
S1131620432F4F932F93292F2F938F930E94584822
S11316308DB79EB708960FB6F894DEBF0FBECDBF28
S113164067960FB6F894DEBF0FBECDBFDF91CF9182
S11316500895CF93DF93CDB7DEB7DF91CF9108958F
S1131660CF93DF93CDB7DEB7DF91CF910895EF929B
S1131670FF920F931F93CF93DF93CDB7DEB784E62A
S113168092E0FC0180819181892B09F457C06AEBB7
S113169077E080916402909165029C0140E050E003
S11316A08091660290916702CC01A0E0B0E0BA2F6D
S11316B0A92F982F8827280F391F4A1F5B1F809155
S11316C0680290916902CC01A0E0B0E0DC019927A6
S11316D08827280F391F4A1F5B1F80916A02909147
S11316E06B02CC01A0E0B0E0B82FAA279927882785
S11316F0820F931FA41FB51FFB0180839183A283D4
S1131700B3838AEB97E0FC0180819181A281B3814C
S1131710BC01CD010E943A398AEB97E0FC0180813B
S11317209181A281B381EE24E394F12C01E010E0D5
S113173020E048E0BC01CD010E94883ADF91CF91BE
S11317401F910F91FF90EF900895CF93DF9300D0F6
S113175000D000D0CDB7DEB780E790E09A838983CC
S113176089819A819C012F5F3F4F3A8329839C830F
S11317708B838B819C81FC0184918D838D818E83ED
S11317808E81282F30E084E293E0432F4F932F93F0
S1131790292F2F938F930E9458480F900F900F90EA
S11317A00F908E818823E1F626960FB6F894DEBF5B
S11317B00FBECDBFDF91CF910895CF93DF9300D0BB
S11317C01F92CDB7DEB719821BC08FE390E0FC01F6
S11317D08081882F90E082709927892BB1F78981C5
S11317E0882F90E08054984FFC0120818981882FB4
S11317F090E04E96622F0E94A34F89818F5F898368
S11318008981843010F31A821BC08FE390E0FC01BD
S11318108081882F90E082709927892BB1F78A8183
S1131820882F90E08853984FFC0120818A81882F6B
S113183090E08296622F0E94A34F8A818F5F8A83F1
S11318408A81843010F31B821BC08FE390E0FC017B
S11318508081882F90E082709927892BB1F78B8142
S1131860882F90E08C53984FFC0120818B81882F26
S113187090E08696622F0E94A34F8B818F5F8B83AB
S11318808B81843010F30F900F900F90DF91CF91E4
S113189008950F931F93CF93DF93CDB7DEB700EC7A
S11318A017E040EC58EA61E073E68EE190E00E94B4
S11318B08730DC01CB01F80180839183A283B38359
S11318C008EC17E04FEF5FEF6FEF70E082E290E01B
S11318D00E948730DC01CB01F80180839183A283CD
S11318E0B38304EC17E040EC58EA61E071E086E26F
S11318F090E00E948730DC01CB01F8018083918362
S1131900A283B3836CEC77E080EC97E0FC01208148
S113191031814281538188EC97E0FC01808191817F
S1131920A281B381282339234A235B2388EC97E0DF
S1131930FC0180819181A281B38180959095A095CD
S1131940B095822B932BA42BB52BFB018083918321
S1131950A283B383DF91CF911F910F910895CF9309
S1131960DF93CDB7DEB7C054D1090FB6F894DEBF0C
S11319700FBECDBF8BE290E02BE230E0F901208175
S11319802061FC01208380E090E0A0E1B1E4898340
S11319909A83AB83BC832BEA3AEA4AEA5EE3698121
S11319A07A818B819C810E94744CDC01CB018D83F4
S11319B09E83AF83B88720E030E040E85EE369812E
S11319C07A818B819C810E94744CDC01CB018987D4
S11319D09A87AB87BC8720E030E040E85FE36D8105
S11319E07E818F8198850E94D94A88231CF481E0E6
S11319F08D87B2C020E03FEF4FE757E469857A85D1
S1131A008B859C850E946F4C18160CF07BC020E0DF
S1131A1030E04AE754E469817A818B819C810E9499
S1131A20DE4ADC01CB018E879F87A88BB98B20E02F
S1131A3030E04AE753E46E857F85888999890E945E
S1131A40744CDC01CB018A8B9B8BAC8BBD8B20E06F
S1131A5030E040E85FE36A897B898C899D890E9434
S1131A60D94A88232CF481E090E09F8B8E8B3FC071
S1131A7020E03FEF4FE757E46A897B898C899D8991
S1131A800E946F4C18164CF520E030E040E251E41F
S1131A906E857F85888999890E94744CDC01CB010D
S1131AA0BC01CD010E94504BDC01CB019F8B8E8B7E
S1131AB00FC089E190E0998F888F888D998D019767
S1131AC0F1F7998F888F8E899F8901979F8B8E8BD1
S1131AD08E899F89892B69F73FC06A897B898C89A4
S1131AE09D890E94504BDC01CB019F8B8E8B8E898C
S1131AF09F899B8F8A8F8A8D9B8D0197F1F79B8F8E
S1131B008A8F2AC020E030E04FE753E46D817E8164
S1131B108F8198850E946F4C1816ACF469857A857C
S1131B208B859C850E94504BDC01CB019D8F8C8F53
S1131B308C8D9D8D9F8F8E8F8E8D9F8D0197F1F74C
S1131B409F8F8E8F0FC06D817E818F8198850E94BB
S1131B50504BDC01CB018D878D8588A388A18A95A4
S1131B60F1F788A38BE290E02BE230E0F9012081C9
S1131B702F7EFC01208380E090E0A0E1B1E489A302
S1131B809AA3ABA3BCA32BEA3AEA4AEA5EE369A1AF
S1131B907AA18BA19CA10E94744CDC01CB018DA382
S1131BA09EA3AFA3B8A720E030E040E85EE369A1BC
S1131BB07AA18BA19CA10E94744CDC01CB0189A762
S1131BC09AA7ABA7BCA720E030E040E85FE36DA193
S1131BD07EA18FA198A50E94D94A88231CF481E094
S1131BE08DA7B2C020E03FEF4FE757E469A57AA57F
S1131BF08BA59CA50E946F4C18160CF07BC020E0AE
S1131C0030E04AE754E469A17AA18BA19CA10E9427
S1131C10DE4ADC01CB018EA79FA7A8ABB9AB20E0BD
S1131C2030E04AE753E46EA57FA588A999A90E94EC
S1131C30744CDC01CB018AAB9BABACABBDAB20E0FD
S1131C4030E040E85FE36AA97BA98CA99DA90E94C2
S1131C50D94A88232CF481E090E09FAB8EAB3FC03F
S1131C6020E03FEF4FE757E46AA97BA98CA99DA91F
S1131C700E946F4C18164CF520E030E040E251E42D
S1131C806EA57FA588A999A90E94744CDC01CB019B
S1131C90BC01CD010E94504BDC01CB019FAB8EAB4C
S1131CA00FC089E190E099AF88AF88AD99AD0197F5
S1131CB0F1F799AF88AF8EA99FA901979FAB8EAB1F
S1131CC08EA99FA9892B69F73FC06AA97BA98CA912
S1131CD09DA90E94504BDC01CB019FAB8EAB8EA91A
S1131CE09FA99BAF8AAF8AAD9BAD0197F1F79BAFDC
S1131CF08AAF2AC020E030E04FE753E46DA17EA113
S1131D008FA198A50E946F4C1816ACF469A57AA50A
S1131D108BA59CA50E94504BDC01CB019DAF8CAFE1
S1131D208CAD9DAD9FAF8EAF8EAD9FAD0197F1F79A
S1131D309FAF8EAF1CC06DA17EA18FA198A50E94FC
S1131D40504BDC01CB018DA72DA5CE01805C9F4FAC
S1131D50FC012083CE01805C9F4FFC018081282FF1
S1131D602A95F1F7CE01805C9F4FFC012083C05C73
S1131D70DF4F0FB6F894DEBF0FBECDBFDF91CF911A
S1131D8008950F931F93CF93DF93CDB7DEB7C0565B
S1131D90D1090FB6F894DEBF0FBECDBF87E290E045
S1131DA02FEFFC0120838AE290E02FEFFC012083D7
S1131DB08BE290E02BE230E0F90120812068FC0105
S1131DC020838BE290E02BE230E0F90120812F7731
S1131DD0FC01208380E090E0A6E9B3E489839A8340
S1131DE0AB83BC832BEA3AEA4AEA5EE369817A81EF
S1131DF08B819C810E94744CDC01CB018D839E837A
S1131E00AF83B88720E030E040E85EE369817A81FF
S1131E108B819C810E94744CDC01CB0189879A8759
S1131E20AB87BC8720E030E040E85FE36D817E81D2
S1131E308F8198850E94D94A88231CF481E08D877C
S1131E40B2C020E03FEF4FE757E469857A858B8580
S1131E509C850E946F4C18160CF07BC020E030E08B
S1131E604AE754E469817A818B819C810E94DE4A2D
S1131E70DC01CB018E879F87A88BB98B20E030E0F3
S1131E804AE753E46E857F85888999890E94744C5A
S1131E90DC01CB018A8B9B8BAC8BBD8B20E030E0CB
S1131EA040E85FE36A897B898C899D890E94D94ACD
S1131EB088232CF481E090E09F8B8E8B3FC020E040
S1131EC03FEF4FE757E46A897B898C899D890E949B
S1131ED06F4C18164CF520E030E040E251E46E857A
S1131EE07F85888999890E94744CDC01CB01BC01EF
S1131EF0CD010E94504BDC01CB019F8B8E8B0FC018
S1131F0089E190E0998F888F888D998D0197F1F7F9
S1131F10998F888F8E899F8901979F8B8E8B8E894D
S1131F209F89892B69F73FC06A897B898C899D8940
S1131F300E94504BDC01CB019F8B8E8B8E899F8935
S1131F409B8F8A8F8A8D9B8D0197F1F79B8F8A8F48
S1131F502AC020E030E04FE753E46D817E818F8119
S1131F6098850E946F4C1816ACF469857A858B8528
S1131F709C850E94504BDC01CB019D8F8C8F8C8DF6
S1131F809D8D9F8F8E8F8E8D9F8D0197F1F79F8FE3
S1131F908E8F0FC06D817E818F8198850E94504BFA
S1131FA0DC01CB018D878D8588A388A18A95F1F703
S1131FB088A38BE290E02BE230E0F90120812068D5
S1131FC0FC01208380E090E0A6E9B3E489A39AA30E
S1131FD0ABA3BCA32BEA3AEA4AEA5EE369A17AA17D
S1131FE08BA19CA10E94744CDC01CB018DA39EA308
S1131FF0AFA3B8A720E030E040E85EE369A17AA18E
S11320008BA19CA10E94744CDC01CB0189A79AA7E7
S1132010ABA7BCA720E030E040E85FE36DA17EA160
S11320208FA198A50E94D94A88231CF481E08DA72A
S1132030B2C020E03FEF4FE757E469A57AA58BA52E
S11320409CA50E946F4C18160CF07BC020E030E079
S11320504AE754E469A17AA18BA19CA10E94DE4ABB
S1132060DC01CB018EA79FA7A8ABB9AB20E030E081
S11320704AE753E46EA57FA588A999A90E94744CE8
S1132080DC01CB018AAB9BABACABBDAB20E030E059
S113209040E85FE36AA97BA98CA99DA90E94D94A5B
S11320A088232CF481E090E09FAB8EAB3FC020E00E
S11320B03FEF4FE757E46AA97BA98CA99DA90E9429
S11320C06F4C18164CF520E030E040E251E46EA568
S11320D07FA588A999A90E94744CDC01CB01BC019D
S11320E0CD010E94504BDC01CB019FAB8EAB0FC0E6
S11320F089E190E099AF88AF88AD99AD0197F1F788
S113210099AF88AF8EA99FA901979FAB8EAB8EA97B
S11321109FA9892B69F73FC06AA97BA98CA99DA9AE
S11321200E94504BDC01CB019FAB8EAB8EA99FA9C3
S11321309BAF8AAF8AAD9BAD0197F1F79BAF8AAF96
S11321402AC020E030E04FE753E46DA17EA18FA1C7
S113215098A50E946F4C1816ACF469A57AA58BA5B6
S11321609CA50E94504BDC01CB019DAF8CAF8CAD84
S11321709DAD9FAF8EAF8EAD9FAD0197F1F79FAF31
S11321808EAF1CC06DA17EA18FA198A50E94504B5B
S1132190DC01CB018DA72DA5CE01805C9F4FFC01F6
S11321A02083CE01805C9F4FFC018081282F2A95DB
S11321B0F1F7CE01805C9F4FFC0120838BE290E01D
S11321C02BE230E0F90120812F77FC0120839E016E
S11321D02F5B3F4F80E090E0A6E9B3E4F9018083F0
S11321E09183A283B3838E010B5B1F4FCE018F5B60
S11321F09F4F2BEA3AEA4AEA5EE3FC01608171816F
S1132200828193810E94744CDC01CB01F8018083AC
S11322109183A283B3838E01075B1F4FCE018F5B33
S11322209F4F20E030E040E85EE3FC016081718173
S1132230828193810E94744CDC01CB01F80180837C
S11322409183A283B383CE018B5B9F4F20E030E068
S113225040E85FE3FC0160817181828193810E9487
S1132260D94A88233CF4CE01835B9F4F21E0FC01D3
S1132270208330C1CE01875B9F4F20E03FEF4FE7C3
S113228057E4FC0160817181828193810E946F4CCB
S113229018160CF0D1C0CE018F5B9F4F20E030E0C8
S11322A04AE754E4FC0160817181828193810E9438
S11322B0DE4ADC01CB019E01225B3F4FF9018083A2
S11322C09183A283B3838E010E5A1F4FCE01825B8A
S11322D09F4F20E030E04AE753E4FC0160817181C4
S11322E0828193810E94744CDC01CB01F8018083CC
S11322F09183A283B383CE018E5A9F4F20E030E0B6
S113230040E85FE3FC0160817181828193810E94D6
S1132310D94A88234CF4CE018A5A9F4F21E030E0F9
S1132320FC01318320836DC0CE018E5A9F4F20E083
S11323303FEF4FE757E4FC01608171818281938113
S11323400E946F4C18160CF04AC0CE01825B9F4F5E
S113235020E030E040E251E4FC016081718182813F
S113236093810E94744CDC01CB018E010A5A1F4FE9
S1132370BC01CD010E94504BDC01CB01F8019183DB
S1132380808324C0CE01885A9F4F29E130E0FC01AC
S113239031832083CE01885A9F4FFC018081918133
S11323A00197F1F79E01285A3F4FF90191838083E9
S11323B0CE018A5A9F4F9E012A5A3F4FF90120812C
S11323C0318121503109FC0131832083CE018A5AA5
S11323D09F4FFC0180819181892BA1F67BC08E01E6
S11323E00A5A1F4FCE018E5A9F4FFC0160817181A2
S11323F0828193810E94504BDC01CB01F8019183CF
S11324008083CE01865A9F4F9E012A5A3F4FF9017D
S113241020813181FC0131832083CE01865A9F4F74
S1132420FC01808191810197F1F79E01265A3F4F6B
S1132430F901918380834EC0CE018B5B9F4F20E0D6
S113244030E04FE753E4FC01608171818281938124
S11324500E946F4C18166CF58E01045A1F4FCE0162
S1132460875B9F4FFC0160817181828193810E940F
S1132470504BDC01CB01F80191838083CE01825A59
S11324809F4F9E01245A3F4FF90120813181FC0165
S113249031832083CE01825A9F4FFC018081918138
S11324A00197F1F79E01225A3F4FF90191838083EE
S11324B028C08E01035B1F4FCE018B5B9F4FFC0135
S11324C060817181828193810E94504BDC01CB0138
S11324D0F8018083CE01805A9F4F9E01235B3F4FBA
S11324E0F9012081FC012083CE01805A9F4FFC0119
S11324F08081282F2A95F1F7CE01805A9F4FFC0145
S113250020838BE290E02BE230E0F9012081206807
S1132510FC0120830E949A120E942B15C05ADF4F9F
S11325200FB6F894DEBF0FBECDBFDF91CF911F91E0
S11325300F910895CF93DF93CDB7DEB78BE290E090
S11325402BE230E0F90120812062FC0120838BE240
S113255090E02BE230E0F90120812064FC0120832B
S11325608BE290E02BE230E0F90120812B7FFC012B
S113257020838BE290E02BE230E0F9012081277F79
S1132580FC01208388E290E02FE3FC0120830E9479
S1132590AF0CDF91CF910895CF93DF93CDB7DEB722
S11325A08BE290E02BE230E0F90120812062FC0113
S11325B020838BE290E02BE230E0F901208120645B
S11325C0FC0120838BE290E02BE230E0F9012081D2
S11325D02B7FFC0120838BE290E02BE230E0F901B9
S11325E02081277FFC01208388E290E02EE3FC0118
S11325F020830E94AF0CDF91CF910895CF93DF9396
S11326001F92CDB7DEB789838BE290E02BE230E0F6
S1132610F90120812B7FFC0120838BE290E02BE2E7
S113262030E0F9012081277FFC0120838BE290E0D8
S11326302BE230E0F90120812062FC0120838BE24F
S113264090E02BE230E0F90120812064FC0120833A
S113265088E290E02981206CFC0120830E94AF0C69
S11326600F90DF91CF910895CF93DF9300D01F9205
S1132670CDB7DEB79B838A838BE290E02BE230E018
S1132680F90120812B7FFC0120838BE290E02BE277
S113269030E0F9012081277FFC0120838A819B811E
S11326A080349105A8F48BE290E02BE230E0F9014C
S11326B020812062FC0120838BE290E02BE230E059
S11326C0F90120812F7BFC0120838A8189831CC02E
S11326D08A819B8180389105B0F48BE290E02BE2F3
S11326E030E0F90120812F7DFC0120838BE290E012
S11326F02BE230E0F90120812064FC0120838A81EF
S11327008054898301C00BC089818F73806489835D
S113271088E290E02981FC0120830E94AF0C0F9095
S11327200F900F90DF91CF910895CF93DF9300D056
S11327301F92CDB7DEB79B838A838BE290E02BE2B6
S113274030E0F90120812B7FFC0120838BE290E0B3
S11327502BE230E0F9012081277FFC0120838A816C
S11327608770886B898388E290E02981FC0120834B
S11327700E94AF0C0F900F900F90DF91CF910895AE
S1132780CF93DF9300D000D0CDB7DEB79A8389838F
S11327907C836B8389819A810E9434138B819C8111
S11327A00E9495130F900F900F900F90DF91CF918F
S11327B00895CF93DF93CDB7DEB7A1970FB6F89402
S11327C0DEBF0FBECDBF89A38BE290E02BE230E0E9
S11327D0F90120812460FC0120838BE290E02BE24C
S11327E030E0F9012081277FFC01208388E290E01A
S11327F029A1FC01208380E090E0A0E2B1E4898378
S11328009A83AB83BC832BEA3AEA4AEA5EE36981A2
S11328107A818B819C810E94744CDC01CB018D8375
S11328209E83AF83B88720E030E040E85EE36981AF
S11328307A818B819C810E94744CDC01CB01898755
S11328409A87AB87BC8720E030E040E85FE36D8186
S11328507E818F8198850E94D94A88231CF481E067
S11328608D87B2C020E03FEF4FE757E469857A8552
S11328708B859C850E946F4C18160CF07BC020E061
S113288030E04AE754E469817A818B819C810E941B
S1132890DE4ADC01CB018E879F87A88BB98B20E0B1
S11328A030E04AE753E46E857F85888999890E94E0
S11328B0744CDC01CB018A8B9B8BAC8BBD8B20E0F1
S11328C030E040E85FE36A897B898C899D890E94B6
S11328D0D94A88232CF481E090E09F8B8E8B3FC0F3
S11328E020E03FEF4FE757E46A897B898C899D8913
S11328F00E946F4C18164CF520E030E040E251E4A1
S11329006E857F85888999890E94744CDC01CB018E
S1132910BC01CD010E94504BDC01CB019F8B8E8BFF
S11329200FC089E190E0998F888F888D998D0197E8
S1132930F1F7998F888F8E899F8901979F8B8E8B52
S11329408E899F89892B69F73FC06A897B898C8925
S11329509D890E94504BDC01CB019F8B8E8B8E890D
S11329609F899B8F8A8F8A8D9B8D0197F1F79B8F0F
S11329708A8F2AC020E030E04FE753E46D817E81E6
S11329808F8198850E946F4C1816ACF469857A85FE
S11329908B859C850E94504BDC01CB019D8F8C8FD5
S11329A08C8D9D8D9F8F8E8F8E8D9F8D0197F1F7CE
S11329B09F8F8E8F0FC06D817E818F8198850E943D
S11329C0504BDC01CB018D878D8588A388A18A9526
S11329D0F1F788A30E94AF0CA1960FB6F894DEBF5E
S11329E00FBECDBFDF91CF910895CF93DF9300D079
S11329F01F92CDB7DEB78B838B81882F90E0BC010B
S1132A0080E090E00E94C0138B81882F90E0BC018D
S1132A1080E490E00E94C0138BE290E02BE230E06F
S1132A20F90120812062FC0120831A82198208C0E6
S1132A3080E00E94D91389819A8101969A838983BF
S1132A4089819A81803491059CF30F900F900F90A7
S1132A50DF91CF910895CF93DF9300D0CDB7DEB748
S1132A601A82198208C089810E94F51489819A8189
S1132A7001969A83898389819A810897A4F30F9098
S1132A800F90DF91CF9108950F931F93CF93DF930E
S1132A90CDB7DEB7C25AD1090FB6F894DEBF0FBE68
S1132AA0CDBF9E012E553F4FF9018083198287E2E5
S1132AB090E0FC0110828BE290E02BE230E0F9011F
S1132AC020812860FC0120838BE290E02BE230E03F
S1132AD0F90120812460FC012083CE018E559F4F93
S1132AE0FC018081803498F48BE290E02BE230E0AA
S1132AF0F90120812062FC0120838BE290E02BE22B
S1132B0030E0F90120812F7BFC01208312C08BE28D
S1132B1090E02BE230E0F90120812064FC01208365
S1132B208BE290E02BE230E0F90120812F7DFC0163
S1132B30208380E090E0A0E8BFE38A839B83AC839A
S1132B40BD832BEA3AEA4AEA5EE36A817B818C819F
S1132B509D810E94744CDC01CB018E839F83A887E6
S1132B60B98720E030E040E85EE36A817B818C81B4
S1132B709D810E94744CDC01CB018A879B87AC87C2
S1132B80BD8720E030E040E85FE36E817F81888587
S1132B9099850E94D94A88231CF481E08E87B2C0AB
S1132BA020E03FEF4FE757E46A857B858C859D8560
S1132BB00E946F4C18160CF07BC020E030E04AE70E
S1132BC054E46A817B818C819D810E94DE4ADC0110
S1132BD0CB018F87988BA98BBA8B20E030E04AE732
S1132BE053E46F85788989899A890E94744CDC0141
S1132BF0CB018B8B9C8BAD8BBE8B20E030E040E80F
S1132C005FE36B897C898D899E890E94D94A8823D8
S1132C102CF481E090E0988F8F8B3FC020E03FEF51
S1132C204FE757E46B897C898D899E890E946F4C9C
S1132C3018164CF520E030E040E251E46F857889C5
S1132C4089899A890E94744CDC01CB01BC01CD01B5
S1132C500E94504BDC01CB01988F8F8B0FC089E110
S1132C6090E09A8F898F898D9A8D0197F1F79A8FC9
S1132C70898F8F89988D0197988F8F8B8F89988DE5
S1132C80892B69F73FC06B897C898D899E890E9455
S1132C90504BDC01CB01988F8F8B8F89988D9C8F43
S1132CA08B8F8B8D9C8D0197F1F79C8F8B8F2AC016
S1132CB020E030E04FE753E46E817F818885998579
S1132CC00E946F4C1816ACF46A857B858C859D85B3
S1132CD00E94504BDC01CB019E8F8D8F8D8D9E8D7C
S1132CE098A38F8F8F8D98A10197F1F798A38F8F59
S1132CF00FC06E817F81888599850E94504BDC01CD
S1132D00CB018E878E8589A389A18A95F1F789A342
S1132D108BE290E02BE230E0F90120812061FC019C
S1132D20208380E090E0A0E2B1E48AA39BA3ACA35B
S1132D30BDA32BEA3AEA4AEA5EE36AA17BA18CA12D
S1132D409DA10E94744CDC01CB018EA39FA3A8A774
S1132D50B9A720E030E040E85EE36AA17BA18CA142
S1132D609DA10E94744CDC01CB018AA79BA7ACA750
S1132D70BDA720E030E040E85FE36EA17FA188A515
S1132D8099A50E94D94A88231CF481E08EA7BCC06F
S1132D9020E03FEF4FE757E46AA57BA58CA59DA5EE
S1132DA00E946F4C18160CF07BC020E030E04AE71C
S1132DB054E46AA17BA18CA19DA10E94DE4ADC019E
S1132DC0CB018FA798ABA9ABBAAB20E030E04AE7C0
S1132DD053E46FA578A989A99AA90E94744CDC01CF
S1132DE0CB018BAB9CABADABBEAB20E030E040E89D
S1132DF05FE36BA97CA98DA99EA90E94D94A882367
S1132E002CF481E090E098AF8FAB3FC020E03FEF1F
S1132E104FE757E46BA97CA98DA99EA90E946F4C2A
S1132E2018164CF520E030E040E251E46FA578A993
S1132E3089A99AA90E94744CDC01CB01BC01CD0183
S1132E400E94504BDC01CB0198AF8FAB0FC089E1DE
S1132E5090E09AAF89AF89AD9AAD0197F1F79AAF37
S1132E6089AF8FA998AD019798AF8FAB8FA998AD13
S1132E70892B69F749C06BA97CA98DA99EA90E94D9
S1132E80504BDC01CB0198AF8FAB8FA998AD9CAFB1
S1132E908BAF8BAD9CAD0197F1F79CAF8BAF34C07A
S1132EA020E030E04FE753E46EA17FA188A599A507
S1132EB00E946F4C1816FCF46AA57BA58CA59DA5F1
S1132EC00E94504BDC01CB019EAF8DAF2DAD3EADCA
S1132ED0CE01CF96FC0131832083CE01CF96FC0135
S1132EE0808191810197F1F79E01215C3F4FF901A7
S1132EF0918380831CC06EA17FA188A599A50E949F
S1132F00504BDC01CB018EA7CE018F5B9F4F2EA5CA
S1132F10FC012083CE018F5B9F4FFC018081282F11
S1132F202A95F1F7CE018F5B9F4FFC0120838BE242
S1132F3090E02BE230E0F90120812F7EFC01208318
S1132F409E012E5B3F4F80E090E0A0EAB1E4F901DE
S1132F5080839183A283B3838E010A5B1F4FCE01CA
S1132F608E5B9F4F2BEA3AEA4AEA5EE3FC016081FA
S1132F707181828193810E94744CDC01CB01F80140
S1132F8080839183A283B3838E01065B1F4FCE019E
S1132F908E5B9F4F20E030E040E85EE3FC016081FF
S1132FA07181828193810E94744CDC01CB01F80110
S1132FB080839183A283B383CE018A5B9F4F20E0F9
S1132FC030E040E85FE3FC0160817181828193819C
S1132FD00E94D94A88233CF4CE01825B9F4F21E0B2
S1132FE0FC01208330C1CE01865B9F4F20E03FEF80
S1132FF04FE757E4FC0160817181828193810E94D3
S11330006F4C18160CF0D1C0CE018E5B9F4F20E0A0
S113301030E04AE754E4FC0160817181828193814C
S11330200E94DE4ADC01CB019E01215B3F4FF90186
S113303080839183A283B3838E010D5A1F4FCE01E7
S1133040815B9F4F20E030E04AE753E4FC0160815C
S11330507181828193810E94744CDC01CB01F8015F
S113306080839183A283B383CE018D5A9F4F20E046
S113307030E040E85FE3FC016081718182819381EB
S11330800E94D94A88234CF4CE01895A9F4F21E0EB
S113309030E0FC01318320836DC0CE018D5A9F4FF7
S11330A020E03FEF4FE757E4FC01608171818281AA
S11330B093810E946F4C18160CF04AC0CE01815BBC
S11330C09F4F20E030E040E251E4FC0160817181D7
S11330D0828193810E94744CDC01CB018E01095AD8
S11330E01F4FBC01CD010E94504BDC01CB01F80104
S11330F09183808324C0CE01875A9F4F29E130E019
S1133100FC0131832083CE01875A9F4FFC018081CB
S113311091810197F1F79E01275A3F4FF90191835D
S11331208083CE01895A9F4F9E01295A3F4FF9014E
S11331302081318121503109FC0131832083CE016A
S1133140895A9F4FFC0180819181892BA1F67BC014
S11331508E01095A1F4FCE018D5A9F4FFC01608189
S11331607181828193810E94504BDC01CB01F80173
S113317091838083CE01855A9F4F9E01295A3F4FE8
S1133180F90120813181FC0131832083CE01855AEC
S11331909F4FFC01808191810197F1F79E01255A8F
S11331A03F4FF901918380834EC0CE018A5B9F4FCC
S11331B020E030E04FE753E4FC01608171818281BB
S11331C093810E946F4C18166CF58E01035A1F4FA1
S11331D0CE01865B9F4FFC01608171818281938166
S11331E00E94504BDC01CB01F80191838083CE0116
S11331F0815A9F4F9E01235A3F4FF901208131810B
S1133200FC0131832083CE01815A9F4FFC018081D0
S113321091810197F1F79E01215A3F4FF901918362
S1133220808328C08E01025B1F4FCE018A5B9F4FB3
S1133230FC0160817181828193810E94504BDC0189
S1133240CB01F8018083CE018F599F4F9E01225BF1
S11332503F4FF9012081FC012083CE018F599F4FFC
S1133260FC018081282F2A95F1F7CE018F599F4FB9
S1133270FC0120838BE290E02BE230E0F901208115
S11332802061FC0120839E012E593F4F80E090E095
S1133290A0E8BFE3F90180839183A283B3838E0105
S11332A00A591F4FCE018E599F4F2BEA3AEA4AEA38
S11332B05EE3FC0160817181828193810E94744C80
S11332C0DC01CB01F80180839183A283B3838E0157
S11332D006591F4FCE018E599F4F20E030E040E841
S11332E05EE3FC0160817181828193810E94744C50
S11332F0DC01CB01F80180839183A283B383CE01E7
S11333008A599F4F20E030E040E85FE3FC01608190
S11333107181828193810E94D94A88233CF4CE0131
S113332082599F4F21E0FC01208330C1CE01865990
S11333309F4F20E03FEF4FE757E4FC01608171812C
S1133340828193810E946F4C18160CF0D1C0CE017B
S11333508E599F4F20E030E04AE754E4FC0160813D
S11333607181828193810E94DE4ADC01CB019E013E
S113337021593F4FF90180839183A283B3838E0146
S11333800D581F4FCE0181599F4F20E030E04AE78E
S113339053E4FC0160817181828193810E94744CA9
S11333A0DC01CB01F80180839183A283B383CE0136
S11333B08D589F4F20E030E040E85FE3FC016081DE
S11333C07181828193810E94D94A88234CF4CE0171
S11333D089589F4F21E030E0FC01318320836DC088
S11333E0CE018D589F4F20E03FEF4FE757E4FC019B
S11333F060817181828193810E946F4C18160CF058
S11334004AC0CE0181599F4F20E030E040E251E4B0
S1133410FC0160817181828193810E94744CDC0182
S1133420CB018E0109581F4FBC01CD010E94504BA6
S1133430DC01CB01F8019183808324C0CE0187583D
S11334409F4F29E130E0FC0131832083CE0187586E
S11334509F4FFC01808191810197F1F79E012758CC
S11334603F4FF90191838083CE0189589F4F9E017C
S113347029583F4FF9012081318121503109FC0144
S113348031832083CE0189589F4FFC018081918133
S1133490892BA1F67BC08E0109581F4FCE018D5890
S11334A09F4FFC0160817181828193810E94504B06
S11334B0DC01CB01F80191838083CE0185589F4FB5
S11334C09E0129583F4FF90120813181FC0131834C
S11334D02083CE0185589F4FFC0180819181019703
S11334E0F1F79E0125583F4FF901918380834EC027
S11334F0CE018A599F4F20E030E04FE753E4FC01AE
S113350060817181828193810E946F4C18166CF5E1
S11335108E0103581F4FCE0186599F4FFC016081D5
S11335207181828193810E94504BDC01CB01F801AF
S113353091838083CE0181589F4F9E0123583F4F32
S1133540F90120813181FC0131832083CE0181582E
S11335509F4FFC01808191810197F1F79E012158D1
S11335603F4FF9019183808328C08E0102591F4F78
S1133570CE018A599F4FFC016081718182819381C0
S11335800E94504BDC01CB01F8018083CE018F57A0
S11335909F4F9E0122593F4FF9012081FC01208356
S11335A0CE018F579F4FFC018081282F2A95F1F778
S11335B0CE018F579F4FFC01208386E290E0FC01EF
S11335C0808189838BE290E02BE230E0F901208155
S11335D02F7EFC0120839E012E573F4F80E090E018
S11335E0A0E8BFE3F90180839183A283B3838E01B2
S11335F00A571F4FCE018E579F4F2BEA3AEA4AEAE9
S11336005EE3FC0160817181828193810E94744C2C
S1133610DC01CB01F80180839183A283B3838E0103
S113362006571F4FCE018E579F4F20E030E040E8F1
S11336305EE3FC0160817181828193810E94744CFC
S1133640DC01CB01F80180839183A283B383CE0193
S11336508A579F4F20E030E040E85FE3FC0160813F
S11336607181828193810E94D94A88233CF4CE01DE
S113367082579F4F21E0FC01208330C1CE01865741
S11336809F4F20E03FEF4FE757E4FC0160817181D9
S1133690828193810E946F4C18160CF0D1C0CE0128
S11336A08E579F4F20E030E04AE754E4FC016081EC
S11336B07181828193810E94DE4ADC01CB019E01EB
S11336C021573F4FF90180839183A283B3838E01F5
S11336D00D561F4FCE0181579F4F20E030E04AE73F
S11336E053E4FC0160817181828193810E94744C56
S11336F0DC01CB01F80180839183A283B383CE01E3
S11337008D569F4F20E030E040E85FE3FC0160818C
S11337107181828193810E94D94A88234CF4CE011D
S113372089569F4F21E030E0FC01318320836DC036
S1133730CE018D569F4F20E03FEF4FE757E4FC0149
S113374060817181828193810E946F4C18160CF004
S11337504AC0CE0181579F4F20E030E040E251E45F
S1133760FC0160817181828193810E94744CDC012F
S1133770CB018E0109561F4FBC01CD010E94504B55
S1133780DC01CB01F8019183808324C0CE018756EC
S11337909F4F29E130E0FC0131832083CE0187561D
S11337A09F4FFC01808191810197F1F79E0127567B
S11337B03F4FF90191838083CE0189569F4F9E012B
S11337C029563F4FF9012081318121503109FC01F3
S11337D031832083CE0189569F4FFC0180819181E2
S11337E0892BA1F67BC08E0109561F4FCE018D5641
S11337F09F4FFC0160817181828193810E94504BB3
S1133800DC01CB01F80191838083CE0185569F4F63
S11338109E0129563F4FF90120813181FC013183FA
S11338202083CE0185569F4FFC01808191810197B1
S1133830F1F79E0125563F4FF901918380834EC0D5
S1133840CE018A579F4F20E030E04FE753E4FC015C
S113385060817181828193810E946F4C18166CF58E
S11338608E0103561F4FCE0186579F4FFC01608186
S11338707181828193810E94504BDC01CB01F8015C
S113388091838083CE0181569F4F9E0123563F4FE3
S1133890F90120813181FC0131832083CE018156DD
S11338A09F4FFC01808191810197F1F79E01215680
S11338B03F4FF9019183808328C08E0102571F4F27
S11338C0CE018A579F4FFC0160817181828193816F
S11338D00E94504BDC01CB01F8018083CE018F554F
S11338E09F4F9E0122573F4FF9012081FC01208305
S11338F0CE018F559F4FFC018081282F2A95F1F727
S1133900CE018F559F4FFC01208387E290E02FEF7B
S1133910FC0120838981CE55DF4F0FB6F894DEBFBA
S11339200FBECDBFDF91CF911F910F9108951F93CB
S1133930CF93DF9300D000D000D0CDB7DEB79B8308
S11339408A837D836C834E832FE730E08A819B8159
S1133950A901481B590BCA019B838A832FE330E0DA
S11339608C819D81A901481B590BCA019D838C83BD
S113397019828C819D819C013695279536952795D2
S1133980369527958A819B81B9010E94C0138E8147
S1133990882F90E0892BA1F48C819D819C01277054
S11339A0332781E090E002C0880F991F2A95E2F73F
S11339B0182F10958A810E9444158123898313C08E
S11339C08C819D819C012770332781E090E002C0A7
S11339D0880F991F2A95E2F7182F8A810E944415AF
S11339E0812B898300008C819D819C0136952795CC
S11339F036952795369527958A819B81B9010E9432
S1133A00C01389810E94D91326960FB6F894DEBF9D
S1133A100FBECDBFDF91CF911F9108950F93CF9328
S1133A20DF93CDB7DEB729970FB6F894DEBF0FBE8C
S1133A30CDBF9C838B837E836D834F8328870987C7
S1133A408B819C819A83898312C089819A812D817B
S1133A503E814985B9010E94971C88858F5F882F14
S1133A6090E029813A81820F931F9A838983298167
S1133A703A818F81482F50E08B819C81840F951F60
S1133A802817390710F329960FB6F894DEBF0FBE36
S1133A90CDBFDF91CF910F9108950F93CF93DF9313
S1133AA0CDB7DEB72A970FB6F894DEBF0FBECDBFF1
S1133AB09C838B837E836D8358874F8329870A87F2
S1133AC08D819E819A83898312C029813A818B8159
S1133AD09C814A85B9010E94971C89858F5F882F34
S1133AE090E029813A81820F931F9A8389832F81E1
S1133AF038858D819E81280F391F89819A8182178B
S1133B00930718F32A960FB6F894DEBF0FBECDBF05
S1133B10DF91CF910F9108956F927F928F929F9230
S1133B20AF92BF92CF92DF92EF92FF920F93CF9317
S1133B30DF93CDB7DEB72B970FB6F894DEBF0FBE79
S1133B40CDBF9D838C837F836E83598748872A8763
S1133B500B8788858B83198200C2488559852885FF
S1133B603985429FC001439F900D529F900D1124AF
S1133B702981422F50E02981222F30E0429FB00159
S1133B80439F700D529F700D11249B01821B930B58
S1133B90CC01A0E0B0E0BC01CD010E947F4BDC0170
S1133BA0CB01BC01CD010E94E74CDC01CB01BC017F
S1133BB0CD010E94504BDC01CB018A838A81282FDE
S1133BC030E08E819F81B901680F791F8981282F88
S1133BD030E08C819D81820F931F4B850E94971C3E
S1133BE08A81882F90E02E813F81B901681B790B6F
S1133BF08981282F30E08C819D81820F931F4B8512
S1133C000E94971C8A81282F30E08E819F81B90100
S1133C10680F791F8981882F90E02C813D81A9014B
S1133C20481B590BCA014B850E94971C8A81882F17
S1133C3090E02E813F81B901681B790B8981882F1F
S1133C4090E02C813D81F901E81BF90BCF014B85F4
S1133C500E94971C8B81282F30E08A81882F90E066
S1133C60A901481B590BCA0199231CF4919581950C
S1133C70910902970CF46CC18B81282F30E08A8162
S1133C80882F90E0B901681B790BCB0199231CF4B0
S1133C909195819591093C018E819F81CC01A0E091
S1133CA0B0E0BC01CD010E947F4B6B017C018A8195
S1133CB0882F90E0A0E0B0E0BC01CD010E947F4BD2
S1133CC04B015C018B81882F90E0A0E0B0E0BC0147
S1133CD0CD010E947F4BDC01CB01A5019401BC0105
S1133CE0CD010E94DB4BDC01CB019C01AD01C7017E
S1133CF0B6010E946D4ADC01CB0120E030E040E8CF
S1133D005FE3BC01CD010E946D4ADC01CB01BC0123
S1133D10CD010E94504BDC01CB01BC018981282FCD
S1133D2030E08C819D81820F931F01970B852A853A
S1133D30A3010E944D1D8B81282F30E08A81882F9A
S1133D4090E0F901E81BF90BCF0199231CF491953C
S1133D50819591093C018E819F81CC01A0E0B0E066
S1133D60BC01CD010E947F4B6B017C018A81882FAD
S1133D7090E0A0E0B0E0BC01CD010E947F4B4B017C
S1133D805C018B81882F90E0A0E0B0E0BC01CD0104
S1133D900E947F4BDC01CB01A5019401BC01CD0144
S1133DA00E94BC4BDC01CB019C01AD01C701B601F3
S1133DB00E946C4ADC01CB01BC01CD010E94504B36
S1133DC0DC01CB01BC018981282F30E08C819D81ED
S1133DD0820F931F01970B852A85A3010E944D1D15
S1133DE08B81282F30E08A81882F90E0A901481B1D
S1133DF0590BCA0199231CF49195819591093C01B1
S1133E008E819F81CC01A0E0B0E0BC01CD010E9475
S1133E107F4B6B017C018A81882F90E0A0E0B0E0A9
S1133E20BC01CD010E947F4B4B015C018B81882F2B
S1133E3090E0A0E0B0E0BC01CD010E947F4BDC012A
S1133E40CB01A5019401BC01CD010E94DB4BDC0137
S1133E50CB019C01AD01C701B6010E946D4ADC0192
S1133E60CB0120E030E040E85FE3BC01CD010E94DB
S1133E706D4ADC01CB01BC01CD010E94504BDC0139
S1133E80CB01BC018981882F90E02C813D81F9010F
S1133E90E81BF90BCF0101960B852A85A3010E942B
S1133EA04D1D8B81282F30E08A81882F90E0A90155
S1133EB0481B590BCA0199231CF4919581959109CA
S1133EC03C018E819F81CC01A0E0B0E0BC01CD011A
S1133ED00E947F4B6B017C018A81882F90E0A0E0D7
S1133EE0B0E0BC01CD010E947F4B4B015C018B8192
S1133EF0882F90E0A0E0B0E0BC01CD010E947F4B90
S1133F00DC01CB01A5019401BC01CD010E94BC4B95
S1133F10DC01CB019C01AD01C701B6010E946C4AD2
S1133F20DC01CB01BC01CD010E94504BDC01CB0173
S1133F30BC018981882F90E02C813D81F901E81B27
S1133F40F90BCF0101960B852A85A3010E944D1D13
S1133F508A818B8389818F5F89838981282F30E0CF
S1133F60888599852817390708F4F7CD8A81482F61
S1133F7050E08981282F30E08C819D81820F931F2E
S1133F8001976E817F810B852A850E944D1D8A8150
S1133F90482F50E08A81882F90E02E813F81B9011B
S1133FA0681B790B8981282F30E08C819D81820FD9
S1133FB0931F01970B852A850E944D1D8A81482FE6
S1133FC050E08981882F90E02C813D81B901681BE4
S1133FD0790BCB0101966E817F810B852A850E9426
S1133FE04D1D8A81482F50E08A81882F90E02E81D0
S1133FF03F81B901681B790B8981882F90E02C815E
S11340003D81F901E81BF90BCF0101960B852A8547
S11340100E944D1D2B960FB6F894DEBF0FBECDBF88
S1134020DF91CF910F91FF90EF90DF90CF90BF90F1
S1134030AF909F908F907F906F900895EF920F9321
S1134040CF93DF93CDB7DEB72A970FB6F894DEBFD0
S11340500FBECDBF9A8389837C836B835E834D833C
S113406038872F830987EA869D818981392F381BF8
S11340706B817C8189819A810A852985432F0E94DD
S11340800E1D9D818981392F381B6F817885898127
S11340909A810A852985432F0E940E1D2F81388518
S11340A08B819C81A901481B590BCA01AC016B810E
S11340B07C8189819A810A8529850E944D1D2F81E1
S11340C038858B819C81A901481B590BCA01019633
S11340D0AC016B817C818D819E810A8529850E943A
S11340E04D1D2A960FB6F894DEBF0FBECDBFDF91EB
S11340F0CF910F91EF900895CF93DF9300D000D02C
S113410000D0CDB7DEB79A8389837C836B834D83DC
S11341102E838E81882F90E029813A81820F931F0C
S11341209A83898336C08D8181508D838D81882FB8
S113413090E029813A81F901E80FF91F4B815C81F4
S11341409A01ADECBCEC0E945E4D969587959695D0
S1134150879596958795880F991F9C01220F331F89
S1134160220F331F820F931F9A01281B390BC90199
S1134170805D80838B819C819C01ADECBCEC0E94B2
S11341805E4D9695879596958795969587959C838C
S11341908B838D81882339F626960FB6F894DEBF7B
S11341A00FBECDBFDF91CF910895CF93DF9300D0A1
S11341B0CDB7DEB789836A8399818A81891710F420
S11341C0898101C08A810F900F90DF91CF9108956A
S11341D0CF93DF9300D0CDB7DEB789836A8399810B
S11341E08A81891710F48A8101C089810F900F9008
S11341F0DF91CF9108950F93CF93DF9300D000D038
S1134200CDB7DEB79A8389836B834C8389819A8186
S1134210FC018081882389F589819A812B81FC01A5
S113422021838C81813051F489819A812EE0FC01B3
S1134230228389819A812FEFFC0120838C81823033
S113424051F489819A8121E0FC01228389819A8138
S113425021E0FC01208389819A81FC018281682FFD
S113426070E089819A81FC018181882F90E001E0CE
S113427020E043E050E00E948C1D0F900F900F90BF
S11342800F90DF91CF910F910895CF93DF9300D0DA
S113429000D01F92CDB7DEB79B838A836C834D8396
S11342A08A819B81FC018081882319F18A819B8109
S11342B0FC018281882319F48D81823049F08A813E
S11342C09B81FC0182818F30A1F48D81813089F43E
S11342D08A819B81FC0191818C81F92FF81B8F2F9E
S11342E0898389818F3F2CF08981823014F48D81F8
S11342F001C080E00F900F900F900F900F90DF910E
S1134300CF9108950F93CF93DF9300D000D0CDB712
S1134310DEB79A8389837C836B8389819A81FC01CC
S11343208081882391F089819A81FC018281682FA0
S113433070E089819A81FC018181882F90E000E0FE
S113434020E043E050E00E948C1D89819A81FC01A9
S11343508281882331F089819A81FC0182818F30A6
S113436021F489819A81FC01108289819A81FC015E
S113437080818823F9F089819A81FC0122818981D5
S11343809A81FC018081280F89819A81FC01228312
S113439089819A81FC018281682F70E089819A81E8
S11343A0FC018181882F90E001E020E043E050E0AF
S11343B00E948C1D89819A81FC0121818B819C81C1
S11343C0FC0181812817E1F589819A81FC01228110
S11343D08B819C81FC018281281791F589819A81C6
S11343E0FC018081882361F18B819C81FC018081A7
S11343F0882331F189819A81FC018181823000F125
S113440089819A81FC0181818E30D0F489819A81DD
S1134410FC0110828B819C81FC01108289819A812C
S1134420FC018281682F70E089819A81FC0181817D
S1134430882F90E000E020E043E050E00E948C1DD3
S11344400F900F900F900F90DF91CF910F910895DF
S1134450CF93DF9300D000D000D0CDB7DEB79E83DA
S11344608D838D819E81FC0182818B838D819E81D0
S1134470FC0183818C838D819E81FC0180818983F1
S11344808D819E81FC0181818A838A81813019F02A
S11344908A818F3FF9F48C818E3019F48A818130BE
S11344A0C9F08C81813019F48A818F3F99F08B8116
S11344B09981890F8B838C819A81890F8C838B815D
S11344C0882311F481E089838B818F3011F48FEF7D
S11344D08983E1CF8B8126960FB6F894DEBF0FBE99
S11344E0CDBFDF91CF9108950F93CF93DF93CDB7D5
S11344F0DEB72B970FB6F894DEBF0FBECDBF9D83FA
S11345008C837F836E83598748872A870B87198218
S11345108C819D81FC0181818F3F09F046C08C8193
S11345209D810E942822982F8A85F92FF81B8F2FAE
S11345308A838A81882319F489818C5E89838A819C
S11345408F3F19F08A81813061F48981815F898389
S11345508C819D81FC018081882319F48981895F84
S113456089838C819D81FC0180818F3F19F48A812C
S1134570823049F08C819D81FC018081813031F44D
S11345808A818E3F19F48981865F89838A818E3F6F
S113459019F08A81823049F48C819D81FC018081EB
S11345A0882319F48981875E89838E819F81FC0128
S11345B08081882399F18E819F81FC0191818A8574
S11345C0F92FF81B8F2F8A838A81882319F4898114
S11345D0885089838A818F3F19F08A81813019F448
S11345E08981855089838A81882349F48E819F81BA
S11345F0FC018281833018F489818E5189838E81F4
S11346009F81FC018281823048F48A81813019F0D3
S11346108A818F3F19F48981845189838B85882FFE
S113462090E028E030E0A901481B590BCA01992306
S11346301CF49195819591098A838A85882F90E04D
S113464028E030E0F901E81BF90BCF0199231CF4B1
S11346509195819591098B839A818B8189171CF49B
S113466089818F5F89839A818B8198171CF4898152
S1134670815089838A85882319F08A858F3010F0C8
S11346808CE9898389812B960FB6F894DEBF0FBE1F
S1134690CDBFDF91CF910F910895EF920F93CF93F8
S11346A0DF93CDB7DEB760970FB6F894DEBF0FBEC9
S11346B0CDBF998788877B876A875D874C872E87DC
S11346C00F87E88A88E0898388898330A0F5888504
S11346D09985FC018081882331F088859985FC01C6
S11346E08281898313C088859985FC018281883001
S11346F038F488859985FC0182818E5F898306C0A0
S113470088859985FC0182818250898388898230D9
S113471091F48C859D85FC018081882361F40E943D
S1134720B94D87709927079731F48C859D8542E0B0
S11347306F850E94FB208889833008F496C04C85DD
S11347405D856A857B85888599850F852F850E947F
S113475074228C838F8521E0280F4C855D856A85C2
S11347607B85888599850F850E9474228D838F852A
S11347702FEF280F4C855D856A857B858885998513
S11347800F850E9474228E83888599850E94282231
S11347906EE00E94E82061E00E94D5208B834C8566
S11347A05D856A857B85888599850F852B810E9427
S11347B074228F838F8589838C818A839D818C81E8
S11347C089172CF48F858F5F89838D818A839E81DD
S11347D08A8189172CF48F85815089838E818A83FD
S11347E088859985FC0181818823BCF49F818A8115
S11347F089179CF49B818F85981718F48E81863FC6
S113480054F49B818F85891718F48D81863F1CF49D
S11348108889833011F48B8189838C859D85FC0183
S11348208081882311F588859985FC01818118167A
S113483064F40E94B94D87709927079731F48C85E9
S11348409D8542E06F850E94FB208A859B85FC0143
S113485091818F85981749F48889843031F48C8547
S11348609D8542E06F850E94FB209F858981981772
S113487018F48F858F5F8F879F858981891718F436
S11348808F8581508F8761E08F850E94D5208F8727
S11348906EE08F850E94E8208F878F8560960FB623
S11348A0F894DEBF0FBECDBFDF91CF910F91EF9093
S11348B008950F93CF93DF9300D000D01F92CDB70C
S11348C0DEB79A8389837C836B834D838B819C8140
S11348D0BC016150710989819A810D8120E043E016
S11348E00E940E1D6B817C8189819A810D8120E05B
S11348F043E00E940E1D8B819C81BC016F5F7F4F42
S113490089819A810D8120E043E00E940E1D0F9061
S11349100F900F900F900F90DF91CF910F9108950A
S1134920CF93DF9300D000D01F92CDB7DEB79B8327
S11349308A836C834D838A819B81FC018381282F28
S113494030E08A819B81FC018281882F90E040E0E5
S1134950B9010E9459248A819B81FC0122818A81A8
S11349609B81FC018081280F8A819B81FC01228329
S11349708A819B81FC018281882329F48A819B811D
S113498021E0FC0120838A819B81FC0182818F309C
S113499029F48A819B812FEFFC0120838A819B81EA
S11349A0FC0123818A819B81FC018181280F8A81FA
S11349B09B81FC0123838A819B81FC01838181305B
S11349C009F05AC08A819B81FC0192818D81F92F63
S11349D0F81B8F2F898389818F3F44F0898182302E
S11349E02CF48A819B8121E0FC01218389818E3F03
S11349F001F58A819B81FC018081813051F48A8197
S1134A009B8121E0FC0121838A819B81FC0110822E
S1134A1010C08A819B81FC018081882351F48A81A2
S1134A209B8121E0FC0121838A819B812FEFFC0182
S1134A3020838981823001F58A819B81FC018081F8
S1134A408F3F51F48A819B8121E0FC0121838A817B
S1134A509B81FC01108210C08A819B81FC018081B2
S1134A60882351F48A819B8121E0FC0121838A817E
S1134A709B8121E0FC0120838A819B81FC0183814D
S1134A808E3009F05AC08A819B81FC0192818C810D
S1134A90F92FF81B8F2F898389818F3F44F08981F7
S1134AA082302CF48A819B812FEFFC012183898140
S1134AB08E3F01F58A819B81FC018081813051F414
S1134AC08A819B812FEFFC0121838A819B81FC01D8
S1134AD0108210C08A819B81FC018081882351F45B
S1134AE08A819B812FEFFC0121838A819B812FEF97
S1134AF0FC0120838981823001F58A819B81FC013C
S1134B0080818F3F51F48A819B812FEFFC012183A7
S1134B108A819B81FC01108210C08A819B81FC01E7
S1134B208081882351F48A819B812FEFFC012183AA
S1134B308A819B8121E0FC0120838A819B81FC0185
S1134B408381282F30E08A819B81FC018281882F18
S1134B5090E041E0B9010E9459240F900F900F900A
S1134B600F900F90DF91CF910895CF93DF931F9211
S1134B70CDB7DEB789830F90DF91CF9108950F935E
S1134B80CF93DF9300D000D0CDB7DEB789836A839B
S1134B904B832C8399818A819817A1F000E020E04F
S1134BA04AE050E06BE170E082E290E00E944D1D2B
S1134BB001E020E04AE050E06BE170E082E290E046
S1134BC00E944D1D9B818C819817A1F000E020E08C
S1134BD04AE050E06BE170E08EE590E00E944D1DEC
S1134BE001E020E04AE050E06BE170E08EE590E007
S1134BF00E944D1D0F900F900F900F90DF91CF9159
S1134C000F910895EF920F93CF93DF93CDB7DEB753
S1134C10EE24E39400E02FE330E040E650E060E06F
S1134C2070E080E290E00E941E2001E020E04AE073
S1134C3050E06BE170E082E290E00E944D1D01E0E3
S1134C4020E04AE050E06BE170E08EE590E00E94E5
S1134C504D1D41E060E270E080E490E00E94592440
S1134C60DF91CF910F91EF900895CF93DF93CDB75C
S1134C70DEB70E94022621E040E060E088E891E08F
S1134C800E940E2721E049E36EE68DE891E00E9440
S1134C900E27DF91CF910895CF93DF93CDB7DEB781
S1134CA066970FB6F894DEBF0FBECDBF19828BE1B5
S1134CB08A831B828BE18C831D8225E0CE010896BA
S1134CC0FC01322F11923A95E9F71F821E8281E08E
S1134CD08D8781E08E8780E48F8780E2888B198AB4
S1134CE01A8A1B8A1C8A1D8A1E8A0E943526FFCFB7
S1134CF0CF93DF93CDB7DEB72E970FB6F894DEBF10
S1134D000FBECDBF8B876C874D872E871A828B850C
S1134D1080528B878B858E3508F073C08B85282F46
S1134D2030E0C901880F991F880F991F820F931FC4
S1134D309C01295D3C4FCE01069645E050E0B90147
S1134D400E94014F198259C01B8241C08981882F5A
S1134D5090E09E012A5F3F4F820F931FFC018081E8
S1134D60882F90E02B81222F30E002C09595879503
S1134D702A95E2F781709927892B31F19C858A81E4
S1134D80890F8C839D858B81890F8D838C818823EA
S1134D90DCF08D818034C0F48E85882359F48D81B4
S1134DA0282F30E08C81882F90E040E0B9010E94E8
S1134DB0971C0AC08D81282F30E08C81882F90E0C9
S1134DC041E0B9010E94971C8B818F5F8B838B819B
S1134DD0873008F4BBCF8981882F90E09E012A5F39
S1134DE03F4F820F931FFC018081882319F08A8131
S1134DF08F5F8A8389818F5F89838981853008F4F5
S1134E00A3CF8A8191E0980F9A832E960FB6F894D7
S1134E10DEBF0FBECDBFDF91CF910895CF93DF9357
S1134E20CDB7DEB727970FB6F894DEBF0FBECDBF60
S1134E309C838B836D834E832F8319828B819C810A
S1134E400E942F4F8A8319C09D818981592F580F41
S1134E508981882F90E02B813C81820F931FFC0174
S1134E6080812F814E81652F0E947826982F8D8115
S1134E70890F8D8389818F5F898399818A819817AE
S1134E8018F327960FB6F894DEBF0FBECDBFDF919F
S1134E90CF9108950F93CF93DF93CDB7DEB72B97C0
S1134EA00FB6F894DEBF0FBECDBF9F838E83688795
S1134EB049872A870B8719821B828E819F810E94D2
S1134EC02F4F8D838D818C838D81843208F053C064
S1134ED08D81882309F44FC015C08981882F90E003
S1134EE02E813F81820F931FFC01808121E040E0ED
S1134EF060E80E947826982F8C81890F8C838981A1
S1134F008F5F898399818D81981738F38C818250C2
S1134F108C832EC08C8181508C838B818F5F8B839B
S1134F208FE78A8319821BC09A818981980F8B81AC
S1134F30592F581B8981882F90E02E813F81820F41
S1134F40931FFC01808129854885652F0E9478265E
S1134F50982F8A81890F8A8389818F5F89839981B8
S1134F608D81981708F38B85882F90E00E949D28E7
S1134F708C81882379F62B960FB6F894DEBF0FBE8A
S1134F80CDBFDF91CF910F910895CF93DF93CDB72C
S1134F90DEB72A970FB6F894DEBF0FBECDBF8F835E
S1134FA0688749872A878F818A3008F048C0198228
S1134FB042C08F81282F30E0C901880F991F820FCA
S1134FC0931F9C018981882F90E0820F931F8E5F2D
S1134FD09A4F9D838C838C819D81FC0184918E8367
S1134FE08E818A831B8221C08A81882F90E0817000
S1134FF09927892BA1F08985282F30E08B81882F70
S113500090E0820F931FBC018885282F30E08981AE
S1135010882F90E0820F931F4A850E94971C8A81F3
S113502086958A838B818F5F8B838B818530E0F2B9
S113503089818F5F89838981833008F4BACF2A9666
S11350400FB6F894DEBF0FBECDBFDF91CF910895A8
S1135050CF93DF93CDB7DEB727970FB6F894DEBFB3
S11350600FBECDBF9C838B836D834E832F8381E0E2
S113507089838B819C810A9710F082E089838B81DC
S11350809C818436910510F083E089838B819C8117
S1135090883E934010F084E089838B819C81803129
S11350A0974210F085E089833CC04B815C819A0172
S11350B0ADECBCEC0E945E4D9695879596958795D0
S11350C096958795880F991F9C01220F331F220FF5
S11350D0331F820F931F9A01281B390BC9018A833E
S11350E08B819C819C01ADECBCEC0E945E4D96953D
S11350F0879596958795969587959C838B838981CB
S1135100882F90E00197982F990F990F8D81890F1F
S11351102F814E81682F8A810E94C5278981815001
S113512089838981882309F627960FB6F894DEBF10
S11351300FBECDBFDF91CF910895CF93DF93CDB74D
S1135140DEB760970FB6F894DEBF0FBECDBF988B65
S11351508F8777C08F8598890197988B8F8780E098
S113516090E0A0E8BFE389839A83AB83BC8320E00B
S113517030E04AE753E469817A818B819C810E9403
S1135180744CDC01CB018D839E83AF83B88720E010
S113519030E040E85FE36D817E818F8198850E94D5
S11351A0D94A88232CF481E090E09A8789873FC00C
S11351B020E03FEF4FE757E46D817E818F81988532
S11351C00E946F4C18164CF520E030E040E251E4A8
S11351D069817A818B819C810E94744CDC01CB01B2
S11351E0BC01CD010E94504BDC01CB019A87898719
S11351F00FC089E190E09C878B878B859C85019704
S1135200F1F79C878B8789859A8501979A87898787
S113521089859A85892B69F714C06D817E818F8178
S113522098850E94504BDC01CB019A878987898538
S11352309A859E878D878D859E850197F1F79E8738
S11352408D878F859889892B09F084CF60960FB656
S1135250F894DEBF0FBECDBFDF91CF9108950F93B9
S11352601F93CF93DF93CDB7DEB780911903882FB7
S113527090E0382F222780911A03882F90E0820F24
S1135280931F0F96875F9C4FFC01108221E04AE038
S11352906AE083E393E00E940E2780911903882F2C
S11352A090E0382F222780911A03882F90E0820FF4
S11352B0931F4C9700EC18EA21E033E340E157EDEB
S11352C06EEA78E00E94413F82E290E022E230E020
S11352D0F901308120E22327FC012083DF91CF9163
S11352E01F910F910895CF93DF93CDB7DEB7299720
S11352F00FB6F894DEBF0FBECDBF19821A821B828F
S11353001C821D8281E290E020E7FC01208382E27E
S113531090E022E230E0F90120812061FC01208349
S113532060E875E280E090E00E94EC4780E295E05E
S1135330292F2F938F930E9458480F900F9081E349
S113534095E0292F2F938F930E9458480F900F9028
S113535089E595E0292F2F938F930E9458480F9049
S11353600F901E821F82188619860CC000008E8141
S11353709F81A885B9850196A11DB11D8E839F8348
S1135380A887B9878E819F81A885B9858034924486
S1135390AF40B10558F30E94D82F0E94C10E8DE38F
S11353A090E02DE330E0F90120812460FC012083AA
S11353B078948091C307E82FF0E08091C207682FAA
S11353C070E08091C107482F50E08091C007282FDA
S11353D030E08CE795E0AF2FAF93EF93E72FEF9397
S11353E06F93652F6F934F93432F4F932F93292FD1
S11353F02F938F930E9458488DB79EB70A960FB685
S1135400F894DEBF0FBECDBF8091CB07E82FF0E04C
S11354108091CA07682F70E08091C907482F50E037
S11354208091C807282F30E085E995E0AF2FAF932E
S1135430EF93E72FEF936F93652F6F934F93432F62
S11354404F932F93292F2F938F930E945848EDB792
S1135450FEB73A960FB6F894DEBF0FBECDBF80916B
S1135460C707E82FF0E08091C607682F70E08091AD
S1135470C507482F50E08091C407282F30E08CEAFC
S113548095E0AF2FAF93EF93E72FEF936F93652FD3
S11354906F934F93432F4F932F93292F2F938F93D2
S11354A00E9458488DB79EB70A960FB6F894DEBF8F
S11354B00FBECDBF6FE279E28EEA98E00E94FA3225
S11354C00E9435260E94C4338091C20181708823D2
S11354D039F183EC95E0292F2F938F930E9458483C
S11354E00F900F9083EC91E00E948A05882351F07D
S11354F086EC95E0292F2F938F930E9458480F90A4
S11355000F9009C080ED95E0292F2F938F930E946F
S113551058480F900F908091C2018E7F8093C201F2
S11355208091BF07882369F18091BD07E82FF0E0DF
S11355308091BC07682F70E08091BB07482F50E032
S11355408091BA07282F30E08AED95E0AF2FAF9312
S1135550EF93E72FEF936F93652F6F934F93432F41
S11355604F932F93292F2F938F930E945848EDB771
S1135570FEB73A960FB6F894DEBF0FBECDBF1092B9
S1135580BF072091FF023091000340910103509125
S113559002038A819B81AC81BD81281739074A07A0
S11355A05B0719F18091FF0290910003A091010320
S11355B0B09102038A839B83AC83BD838091630291
S11355C082FB882780F9882339F01982809163024D
S11355D08B7F8093630209C0898191E0980F99833E
S11355E0863018F019820E94742E6CCFCF93DF930B
S11355F000D01F92CDB7DEB79B838A830AC084E0B4
S1135600898301C0000089819FEF980F99838823C3
S1135610C9F78A819B819C01215031093B832A83EC
S1135620892B69F70F900F900F90DF91CF91089518
S1135630CF93DF93CDB7DEB784E290E024E230E08D
S1135640F9012081206AFC01208385E290E025E2B3
S113565030E0F90120812068FC01208384E290E09D
S113566024E230E0F90120812F7BFC01208384E2D5
S113567090E024E230E0F90120812061FC012083E4
S11356808CE490E020E5FC0120838DE490E021E0AF
S1135690FC01208380E197E20E94F62ADF91CF91FA
S11356A00895CF93DF931F92CDB7DEB789838EE43D
S11356B090E02981FC01208300008DE490E0FC014E
S11356C080818823D4F70F90DF91CF910895CF93F1
S11356D0DF931F92CDB7DEB78EE490E0FC018081AA
S11356E0898389810F90DF91CF910895CF93DF93C0
S11356F0CDB7DEB785E290E025E230E0F901208104
S11357002F7EFC0120838FEF0E94512B85E290E0D5
S113571025E230E0F90120812061FC01208388EE3C
S113572093E00E94F62ADF91CF910895CF93DF93FF
S113573000D01F92CDB7DEB78A836B838A818F71C5
S1135740898385E290E025E230E0F90120812F7E13
S1135750FC0120838981806A0E94512B8B810E94E5
S1135760512B85E290E025E230E0F90120812061AF
S1135770FC0120830F900F900F90DF91CF9108953B
S1135780CF93DF9300D01F92CDB7DEB78A836B83AC
S11357908A818F71898385E290E025E230E0F90106
S11357A020812F7EFC012083898180680E94512BF7
S11357B08B810E94512B85E290E025E230E0F901D3
S11357C020812061FC0120830F900F900F90DF91C6
S11357D0CF910895CF93DF9300D000D0CDB7DEB73B
S11357E08C838C818F71898389818A3118F58C81AE
S11357F0882F90E08076992795958795959587953C
S11358009595879595958795959587958A838091A4
S113581093019A81981771F063E08FE10E94962BAF
S11358208A81882321F06A818FE10E94C02B8A81BA
S11358308093930185E290E025E230E0F901208134
S11358402F7EFC01208389810E94512B80E00E94DD
S1135850512B8C8188231CF480E00E94512B0E94E0
S1135860672B8B8385E290E025E230E0F90120810B
S11358702061FC0120838B810F900F900F900F907B
S1135880DF91CF910895CF93DF9300D000D0CDB7AF
S1135890DEB78B836C838B818F71898389818A3195
S11358A018F58B81882F90E08076992795958795B8
S11358B095958795959587959595879595958795CC
S11358C08A83809193019A81981771F063E08FE144
S11358D00E94962B8A81882321F06A818FE10E949D
S11358E0C02B8A818093930185E290E025E230E029
S11358F0F90120812F7EFC012083898180640E942C
S1135900512B8C810E94512B85E290E025E230E0FE
S1135910F90120812061FC0120830F900F900F90EA
S11359200F90DF91CF910895CF93DF9300D01F9212
S1135930CDB7DEB789837B836A83698184ED0E9456
S1135940432C8A81682F86ED0E94432C8A819B8197
S1135950892F9927682F87ED0E94432C8AE090E0D5
S11359600E94F62A00008AEE0E94EA2B882F90E01B
S113597081709927892BB9F70F900F900F90DF91C1
S1135980CF910895CF93DF9300D000D0CDB7DEB789
S11359909A8389837C836B8385E290E025E230E0FF
S11359A0F90120812F7EFC0120838AE30E94512B80
S11359B014C080E00E94512B0E94672B282F8981FC
S11359C09A81FC0120838B819C8101979C838B832A
S11359D089819A8101969A8389838B819C81892B01
S11359E041F785E290E025E230E0F9012081206171
S11359F0FC0120830F900F900F900F90DF91CF91B7
S1135A000895CF93DF9300D000D0CDB7DEB79A834B
S1135A1089837C836B8385E290E025E230E0F901A1
S1135A2020812F7EFC0120838AE70E94512B10C025
S1135A3089819A81FC0180810E94512B8B819C81F8
S1135A4001979C838B8389819A8101969A838983A8
S1135A508B819C81892B61F785E290E025E230E01F
S1135A60F90120812061FC0120830F900F900F9099
S1135A700F90DF91CF910895CF93DF93CDB7DEB729
S1135A8027970FB6F894DEBF0FBECDBF9D838C83DE
S1135A907F836E831B8284E690E09A8389830EC0A1
S1135AA08FE10E94EA2B882F90E088709927892B38
S1135AB009F40DC088EE93E00E94F62A89819A8148
S1135AC09C01215031093A832983892B49F78FE1BD
S1135AD00E94EA2B882F90E088709927892B41F047
S1135AE060E88FE10E94C02B60E88FE10E94962B52
S1135AF060E082E00E94432C6AE183E00E94432C30
S1135B008C81682F86E00E94432C8C819D81965E57
S1135B10892F9927682F87E00E94432CCE01039692
S1135B2061E070E00E94012D2C813D818E819F8176
S1135B30B9010E94012D68E08CE10E94962B68E077
S1135B408FE10E94C02B27960FB6F894DEBF0FBEDC
S1135B50CDBFDF91CF910895CF93DF93CDB7DEB75B
S1135B602F970FB6F894DEBF0FBECDBF9D878C87ED
S1135B707F876E8789E30E94EA2B8B838B8188233E
S1135B8019F480E090E0A7C0809194019091950170
S1135B90682F80E00E94432C80919401909195019C
S1135BA0892F9927682F81E00E94432CCE01069605
S1135BB066E070E00E94C22C8E81882F90E0909362
S1135BC09501809394018F81882F90E0382F2227AC
S1135BD08091940190919501822B932B9093950140
S1135BE0809394018885882F90E09A83898389859E
S1135BF0882F90E0982F882729813A81822B932B34
S1135C009A8389838A85882F90E09D838C838B85F2
S1135C10882F90E0982F88272C813D81822B932B0D
S1135C209D838C838C819D8180789927892B59F061
S1135C308C819D8199233CF029813A818C859D85B5
S1135C408217930710F40E94742E89819A81049715
S1135C509A83898329813A818C859D85821793074C
S1135C6020F48C859D859A83898329813A818E8548
S1135C709F85B9010E94C22C809194019091950155
S1135C80019781159A41C8F48091940190919501EE
S1135C9080919401909195018150682F8CE00E942D
S1135CA0432C80919401909195010197892F992714
S1135CB0682F8DE00E94432C08C06FEF8CE00E9497
S1135CC0432C69E18DE00E94432C60E48EE10E9444
S1135CD0C02B89819A812F960FB6F894DEBF0FBE30
S1135CE0CDBFDF91CF910895CF93DF93CDB7DEB7CA
