S011000050696E6720506F6E672E73726563D1
S11300000C94A0030C94BD030C94BD030C947B0CC2
S11300100C94BD030C94BD030C94BD030C94BD035C
S11300200C94BD030C94BD030C94BD030C94BD034C
S11300300C94BD030C94BD170C94BD030C94BD0328
S11300400C94BD030C94BD030C94BD030C94BD032C
S11300500C945A190C94BD030C94BD030C94BD0369
S11300600C94BD030C94BD030C94BD030C94BD030C
S113007047657420504F4E473A2025692E25692E36
S113008025692E25690D0A004552524F520D0A0D5D
S11300900A0052656164790D0A0D0A000D0A0047D1
S11300A0572020202531692E2531692E2531692ECE
S11300B02531690D0A004D41534B202531692E2508
S11300C031692E2531692E2531690D0A000D0A4941
S11300D0502020202531692E2531692E2531692EA5
S11300E02531690D0A00436F6D70696C696572741E
S11300F0206D6974204743432056657273696F6E9F
S113010020342E392E320D0A00436F6D70696C69EC
S113011065727420616D204A616E20323520323060
S1130120313720756D2032313A31373A35360D0A80
S1130130000A0D53797374656D2052656164790A00
S11301400D002563000A0D54494D453A20253269B6
S11301503A2532693A2532690D0A00202054696D26
S1130160653A2534690D0A002020504F52543A252F
S11301703469002E253369002E253369002E25337A
S11301806900202049503A2533690025326900204E
S11301902054696D653A2534690D0A002E253369AA
S11301A0002E253369002E25336900202049503A5A
S11301B0253369002E253278002E253278002E252D
S11301C03278002E253278002E25327800253269C7
S11301D020204D41433A25327800454E4332384A77
S11301E036302D56657273696F6E3A202531780D5D
S11301F00A004D79204D41433A202532783A253280
S1130200783A2532783A2532783A2532783A2532C6
S1130210780D0A00526F757465722049503A202592
S113022031692E2531692E2531692E2531690D0A52
S1130230004E45544D41534B3A202531692E25310A
S1130240692E2531692E2531690D0A004D79204921
S1130250503A202531692E2531692E2531692E2504
S113026031690D0A00524553455420202D207265F2
S11302707365742074686520415652202D20436FA5
S11302806E74726F6C6C65720D0A4152502020209E
S1130290202D206C697374207468652041525020AD
S11302A07461626C650D0A544350202020202D2077
S11302B06C6973742074686520746370207461625F
S11302C06C650D0A495020202020202D206C697374
S11302D0742F6368616E67652069700D0A4E45541A
S11302E0202020202D206C6973742F6368616E6751
S11302F065206E65746D61736B0D0A524F555445DC
S113030052202D206C6973742F6368616E676520B9
S1130310726F757465722069700D0A4E54502020F6
S113032020202D206C6973742F6368616E676520CB
S11303304E54500D0A4E5450522020202D204E541D
S11303405020526566726573680D0A4D4143202042
S113035020202D206C697374204D41432D61646409
S1130360726573730D0A564552202020202D206C8F
S113037069737420656E632076657273696F6E208D
S11303806E756D6265720D0A535620202020202D53
S113039020736574207661726961626C650D0A5020
S11303A0494E472020202D2073656E642050696ECD
S11303B0670D0A54494D452020202D20676574207F
S11303C074696D650D0A48454C502020202D20701D
S11303D072696E742048656C70746578740D0A3F98
S11303E02020202020202D207072696E7420486502
S11303F06C70746578740D0A000400051A06FF0712
S11304001F080009000AFF0B19C100C00DC233CA3E
S1130410EECB05C415C612E400E520E218E3B1E012
S113042015E16F7500FFFF000100140742FFFF5440
S1130430435020537263506F7274202534690D0A3F
S1130440005443502D537461636B2045696E74727C
S113045061672067656CF6736368742120535441A7
S1130460434B3A25690D0A005443502D537461637C
S11304706B2045696E747261672067656CF67363FF
S113048068742120535441434B3A25690D0A0054A2
S113049043502045696E74726167206E69636874A5
S11304A020676566756E64656E0D0A0054435020BE
S11304B04E65772053455256455220436F6E6E6504
S11304C06374696F6E2120535441434B3A25690D7F
S11304D00A005443502045696E74726167206E6946
S11304E0636874206572666F6C67726569636821FE
S11304F00D0A0054435020506F7274207775726453
S11305006520766F6D20536572766572206765F697
S113051066666E657420535441434B3A25690D0A4F
S1130520005443502045696E74726167206E69639C
S11305306874206572666F6C677265696368210D03
S11305400A00544350204B65696E6520416E7765FF
S11305506E64756E6720676566756E64656E210DE1
S11305600A00554450204B65696E6520416E7765DD
S11305706E64756E6720676566756E64656E210DC1
S11305800A00536572766572204275737920284E8D
S11305904F204D4F524520434F4E4E454354494FF3
S11305A04E5329210D0A0054435020456E7472792C
S11305B0206E657565722045696E747261672025C9
S11305C0690D0A0054435020456E747279206765A2
S11305D066756E64656E2025690D0A002A2A4B45EE
S11305E0494E454E204152502045494E54524147B0
S11305F020474546554E44454E2A2A0D0A0041528D
S1130600502045494E5452414720474546554E4493
S1130610454E210D0A00524F5554494E47210D0AAB
S1130620004D59204E4554574F524B210D0A00415D
S11306305250205245504C5920454D5046414E474A
S1130640454E210D0A004152502045696E74726175
S113065067206E6963687420676566756E64656E8D
S11306600D0A004152502045696E74726167206E14
S11306706963687420676566756E64656E2A0D0A21
S11306800041525020656E74727920746162656C09
S11306906C6520766F6C6C210D0A004B65696E20C9
S11306A0415250206F646572204950205061636B41
S11306B06574210D0A002E2569203A002E25690053
S11306C02E2569002569005061636B657420776984
S11306D072642065726E65757420676573656E64F7
S11306E0657420535441434B3A25690D0A0045690A
S11306F06E74726167207769726420656E746665D2
S1130700726E74204D41585F4552524F52205354DB
S113071041434B3A25690D0A004D792049503A204E
S11307202531692E2531692E2531692E2531690D32
S11307300A0D0A000A0D4E494320696E69743A0095
S113074011241FBECFEFD0E1DEBFCDBF11E0A0E08A
S1130750B1E0E8EAF8E302C005900D92A238B107CF
S1130760D9F727E0A2E8B1E001C01D92A53CB20789
S1130770E1F70E94BF030C94521C0C94000060E843
S113078075E280E090E00E94FC1781E391E09F9382
S11307908F930E943D1889E091E09F938F930E946C
S11307A03D1886EE90E09F938F930E943D180F9022
S11307B00F900F900F900F900F9080E492E4AFE0B1
S11307C0B0E000000197A109B109D9F70E94A30B79
S11307D0EA9A7894E2EBF7E083811F928F93828107
S11307E01F928F9381811F928F9380811F928F9389
S11307F08DEC90E09F938F930E943D18EAEBF7E015
S113080083811F928F9382811F928F9381811F9284
S11308108F9380811F928F9386EB90E09F938F93A9
S11308200E943D18E6EBF7E083811F928F9382814B
S11308301F928F9381811F928F9380811F928F9338
S11308408FE990E09F938F930E943D188DB79EB7D8
S11308504E960FB6F8949EBF0FBE8DBF812C912C7F
S11308605401512C0F2EFCE9EF2EF0E0FF2EF02D59
S11308700F2EF8E8CF2EF0E0DF2EF02D0F2EF2E948
S11308806F2EF0E07F2EF02DCAEAD7E000E710E0EB
S1130890412C0E946F168091EF0180FF1EC0FF92D1
S11308A0EF920E943D188BE792E00E948A070F9016
S11308B00F90882339F07F926F920E943D180F9019
S11308C00F9006C0DF92CF920E943D180F900F90B8
S11308D08091EF018E7F8093EF018D818823C9F091
S11308E08B811F928F938A811F928F9389811F928C
S11308F08F9388811F928F931F930F930E943D18AB
S11309001D828DB79EB70A960FB6F8949EBF0FBE90
S11309108DBF8091770290917802A0917902B09175
S11309207A0288159905AA05BB0509F4B2CF80900F
S1130930770290907802A0907902B0907A02809128
S1130940EE0182FF07C08091EE018B7F8093EE0160
S1130950542C9FCF95E0951510F053949ACF0E9494
S1130960250A542C96CFE0E0F0E009940895089508
S11309700895E3EFF2E085811F928F9384811F92A3
S11309808F9383811F928F9382811F928F93818192
S11309901F928F9380811F928F9382EF91E09F9398
S11309A08F930E943D188DB79EB70E960FB6F8949C
S11309B09EBF0FBE8DBF0895809185011F928F93B6
S11309C08AED91E09F938F930E943D180F900F90B2
S11309D00F900F9008952F923F924F925F926F92D3
S11309E07F928F929F92AF92BF92CF92DF92EF92BB
S11309F0FF920F931F93CF93DF93812C912C0F2E93
S1130A00FDECAF2EF1E0BF2EF02D0F2EF8ECCF2E23
S1130A10F1E0DF2EF02D0F2EF3ECEF2EF1E0FF2EA0
S1130A20F02D0F2EFEEB6F2EF1E07F2EF02D0F2E0A
S1130A30F9EB4F2EF1E05F2EF02D0F2EF4EB2F2E5D
S1130A40F1E03F2EF02D8401000F111FE801C80DC5
S1130A50D91DCC0FDD1FCC0FDD1FCE54DE4F888196
S1130A601F928F939F928F92BF92AF920E943D18D4
S1130A7089811F928F93DF92CF920E943D188A81C1
S1130A801F928F93FF92EF920E943D188B811F92C9
S1130A908F937F926F920E943D188C811F928F9347
S1130AA05F924F920E943D188D811F928F933F92C7
S1130AB02F920E943D188E819F81A885B985992720
S1130AC0AA27BB27BF93AF939F938F93ABEAB1E061
S1130AD0BF93AF930E943D188E819F81A885B985ED
S1130AE02DB73EB7205E3F4F0FB6F8943EBF0FBE02
S1130AF02DBF892F90E0A0E0B0E0BF93AF939F9308
S1130B008F93A6EAB1E0BF93AF930E943D188E8104
S1130B109F81A885B9858A2F90E0A0E0B0E0BF93BB
S1130B20AF939F938F93A1EAB1E0BF93AF930E94D9
S1130B303D188E819F81A885B9858B2F9927AA2777
S1130B40BB27BF93AF939F938F93ACE9B1E0BF935F
S1130B50AF930E943D188A859B859F938F93AFE83E
S1130B60B1E0BF93AF930E943D183FEF831A930AFD
S1130B708DB79EB746960FB6F8949EBF0FBE8DBF35
S1130B8095E08916910409F05ECFDF91CF911F9112
S1130B900F91FF90EF90DF90CF90BF90AF909F9018
S1130BA08F907F906F905F904F903F902F9008951B
S1130BB02F923F924F925F926F927F928F929F9269
S1130BC0AF92BF92CF92DF92EF92FF920F931F9357
S1130BD0CF93DF9300E010E00F2EFBE8AF2EF1E09F
S1130BE0BF2EF02D0F2EF2E8CF2EF1E0DF2EF02DE8
S1130BF00F2EFDE7EF2EF1E0FF2EF02D0F2EF8E77C
S1130C008F2EF1E09F2EF02D0F2EF3E76F2EF1E0E3
S1130C107F2EF02D0F2EF8E64F2EF1E05F2EF02DF3
S1130C200F2EFBE52F2EF1E03F2EF02D1F930F9397
S1130C30BF92AF920E943D1826E1209FE001219FC0
S1130C40D00D1124CF50DE4F88819981AA81BB81B8
S1130C509927AA27BB27BF93AF939F938F93DF92C4
S1130C60CF920E943D1888819981AA81BB81892FE6
S1130C7090E0A0E0B0E0BF93AF939F938F93FF9277
S1130C80EF920E943D1888819981AA81BB818A2FA5
S1130C9090E0A0E0B0E0BF93AF939F938F939F92B7
S1130CA08F920E943D1888819981AA81BB818B2FE4
S1130CB09927AA27BB27BF93AF939F938F937F92C4
S1130CC06F920E943D188C819D812C813D81232F40
S1130CD03327982F8827822B932B9F938F935F9290
S1130CE04F920E943D188B892DB73EB7205E3F4F2F
S1130CF00FB6F8943EBF0FBE2DBF1F928F933F9245
S1130D002F920E943D180F5F1F4F0F900F900F906E
S1130D100F900530110509F089CFDF91CF911F9114
S1130D200F91FF90EF90DF90CF90BF90AF909F9086
S1130D308F907F906F905F904F903F902F90089589
S1130D404F925F926F927F928F929F92AF92BF92D7
S1130D50CF92DF92EF92FF92809077029090780288
S1130D60A0907902B0907A02409077025090780275
S1130D706090790270907A026091770270917802A3
S1130D808091790290917A020F2EFCE3CF2ED12C20
S1130D90E12CF12CF02DA70196010E94F9191F9264
S1130DA06F93C301B201A70196010E94F919CA0108
S1130DB0B901A70196010E94F9191F926F93C50109
S1130DC0B40120E13EE040E050E00E94F919CA017C
S1130DD0B90128E130E040E050E00E94F9191F9287
S1130DE06F9385E491E09F938F930E943D188DB794
S1130DF09EB708960FB6F8949EBF0FBE8DBFFF90A6
S1130E00EF90DF90CF90BF90AF909F908F907F90A6
S1130E106F905F904F900895EF92FF921F93CF933E
S1130E20DF93C5E6D2E00F2EF2E4EF2EF1E0FF2EC1
S1130E30F02DFE0114911F921F93FF92EF920E94D6
S1130E403D1821960F900F900F900F901111F1CF34
S1130E50DF91CF911F91FF90EF900895EF92FF9251
S1130E600F931F93CF93DF938091DF029091E00261
S1130E70892B09F448C0AFEDB2E0ED91FC911197D4
S1130E8012968D919C91139714964D915C911597A0
S1130E9016962D913C911797A0E0B0E0BA2FA92F98
S1130EA0982F882760E070E0BA0155274427840F03
S1130EB0951FA61FB71F8E0F9F1FA11DB11DA9014E
S1130EC060E070E0742F6627552744278C019D014C
S1130ED0040F151F261F371FC901B801CAEAD7E03E
S1130EE0088319832A833B830E9498166881798139
S1130EF08A819B81EE24E394F12C01E010E020E050
S1130F0048E00E94CC0FDF91CF911F910F91FF9089
S1130F10EF900895CF92DF92FF920F931F93CF9398
S1130F20DF9300D0CDB7DEB79A83898362E471E0A2
S1130F30CE0101960E94871B8C01F12C0DC0F39405
S1130F40EF2DF0E0EE0FFF1FEE0FFF1FE050FF4FFD
S1130F5080819181892BB9F1CF2CD12CF601EE0F30
S1130F60FF1FEE0FFF1FE050FF4FB80180819181FA
S1130F700E94621B892B19F700E010E060E471E025
S1130F80CE0101960E94871B40E050E060E070E0D3
S1130F900E942A1AF801EE0FFF1FE152FD4F7183E0
S1130FA060830F5F1F4F0A30110541F7F601EE0F02
S1130FB0FF1FEE0FFF1FE050FF4F0280F381E02D73
S1130FC0099581E001C080E00F900F90DF91CF91EF
S1130FD01F910F91FF90DF90CF9008950F931F936F
S1130FE0CF93DF932091DF023091E002232BA9F00D
S1130FF08C01C0E0D0E0F999FECFFE01EE0FFF1F97
S1131000E152FD4F60817181CE01800F911F0E94DA
S1131010F21B2196C430D10571F7DF91CF911F9156
S11310200F9108950F931F93CF93DF938EE190E078
S11310300E94EE0740EC58EA61E073E68EE190E02E
S11310400E94580BC2EBD7E0688379838A839B8321
S11310508B811F928F938A811F928F9389811F9214
S11310608F9388811F928F938CE492E09F938F9348
S11310700E943D188091BA079091BB07A091BC07CC
S1131080B091BD078C019D01009510952095309578
S1131090488159816A817B8184239523A623B723C0
S11310A0802B912BA22BB32B8093BF079093C00767
S11310B0A093C107B093C2078DB79EB70A960FB627
S11310C0F8949EBF0FBE8DBFDF91CF911F910F91FA
S11310D008950F931F93CF93DF9382E290E00E94D1
S11310E0EE074FEF5FEF6FEF70E082E290E00E9457
S11310F0580BCAEBD7E0688379838A839B838B81FF
S11311001F928F938A811F928F9389811F928F934D
S113111088811F928F9381E392E09F938F930E9423
S11311203D1888819981AA81BB818C019D0100951C
S11311301095209530954091B2075091B307609176
S1131140B4077091B50784239523A623B723802B76
S1131150912BA22BB32B8093BF079093C007A0932E
S1131160C107B093C2078DB79EB70A960FB6F8941D
S11311709EBF0FBE8DBFDF91CF911F910F91089538
S113118086E290E00E94EE0740EC58EA61E071E0EC
S113119086E290E00E94580BE6EBF7E060837183EF
S11311A08283938383811F928F9382811F928F9373
S11311B081811F928F9380811F928F9384E192E0AB
S11311C09F938F930E943D188DB79EB70A960FB6D2
S11311D0F8949EBF0FBE8DBF0895019728F00000BC
S11311E0000000000000F9CF08952C988F71806AE8
S11311F08EBD0DB407FEFDCF6EBD0DB407FEFDCF51
S11312002C9A08952C988F7180688EBD0DB407FEBA
S1131210FDCF6EBD0DB407FEFDCF2C9A0895FF924D
S11312200F931F93CF93DF93C82FD82FDF71DA3139
S1131230E8F4082F007610E01595079515950795A5
S11312401595079515950795159507958091840132
S1131250081761F063E08FE10E94F508002321F094
S1131260602F8FE10E940209009384012C98DEBD57
S11312700DB407FEFDCF1EBC0DB407FEFDCFCC237D
S113128024F41EBC0DB407FEFDCF8EB52C9ADF915D
S1131290CF911F910F91FF900895FF920F931F9389
S11312A0CF93DF93062F182F1F711A31E8F480763D
S11312B0C82FD0E0D595C795D595C795D595C79531
S11312C0D595C795D595C79580918401C81761F0C8
S11312D063E08FE10E94F508CC2321F06C2F8FE1AD
S11312E00E940209C09384012C9810641EBD0DB4A1
S11312F007FEFDCF0EBD0DB407FEFDCF2C9ADF9186
S1131300CF911F910F91FF900895CF93DF93D62F24
S1131310C72F682F84ED0E944D096D2F86ED0E9422
S11313204D096C2F87ED0E944D098AE090E00E94E0
S1131330ED088AEE0E940F0980FDFBCFDF91CF916B
S11313400895FC012C988AE38EBD0DB407FEFDCFF1
S11313506115710559F06E0F7F1F1EBC0DB407FE99
S1131360FDCF8EB58193E617F707B9F72C9A089548
S11313702C982AE72EBD0DB407FEFDCF611571052B
S113138059F0FC01680F791F91919EBD0DB407FEC1
S1131390FDCFE617F707C1F72C9A0895CF92DF9295
S11313A0EF92FF920F931F93CF93DF931F92CDB7CA
S11313B0DEB77C016B01198204E610E08FE10E9424
S11313C00F0983FF07C088EE93E00E94ED080150E7
S11313D01109A1F78FE10E940F0983FF08C060E89B
S11313E08FE10E94020960E88FE10E94F50860E045
S11313F082E00E944D096AE183E00E944D096E2D4E
S113140086E00E944D09C701965E692F87E00E941D
S11314104D0961E070E0CE0101960E94B809B70160
S1131420C6010E94B80968E08CE10E94F50868E0F2
S11314308FE10E9402090F90DF91CF911F910F91CC
S1131440FF90EF90DF90CF900895CF93DF93249A8D
S11314502C9A84B1806A84B92F9A2698249A80E5BC
S11314608CBD81E08DBD80E197E20E94ED082C984F
S11314708FEF8EBD0DB407FEFDCF2C9A88EE93E05E
S11314800E94ED088DE10E940F0980FFFBCF82E7E7
S11314900E940F0980938501E3EFF2E0108280E25D
S11314A0818388E1828381EB838385E184838FE672
S11314B08583C0E0D0E0FE01E750FC4F8491229682
S11314C0FE01E850FC4F64918F3F11F46F3F19F017
S11314D00E944D09F0CFC750DC4FFE018491319634
S11314E064918F3F11F46F3F59F070E0762F6627B7
S11314F0FE013296E4916E2B0E9485092396EDCF6E
S1131500109283011092820160EC8BE10E944D09DC
S113151064E08FE10E940209DF91CF910895CF9298
S1131520DF92EF92FF920F931F93CF93DF9300D03C
S113153000D000D0CDB7DEB78C017B0189E30E94D7
S11315400F09882309F46EC06091820170918301B0
S113155080E00E944D098091820190918301692F5E
S113156081E00E944D0966E070E0CE0101960E9480
S1131570A109898190E090938301809382018091F5
S11315808201909183012A81922B9093830180930D
S11315908201CB808C81D12CD82A2D818E8130E0A0
S11315A0382B27FF05C033231CF00C151D0510F440
S11315B00E94250A24E0C21AD1080C151D0508F45E
S11315C06801B601C7010E94A1098091820190912E
S11315D08301019781159A41B0F480918201909121
S11315E08301609182017091830161508CE00E94BB
S11315F04D0980918201909183010197692F8DE0BB
S11316000E944D0908C06FEF8CE00E944D0969E10A
S11316108DE00E944D0960E48EE10E9402098C2D48
S11316209D2D02C080E090E026960FB6F894DEBFB0
S11316300FBECDBFDF91CF911F910F91FF90EF901F
S1131640DF90CF900895CF92DF92EF92FF920F93A5
S11316501F93F62EEE24DD24CC24092F11272227F4
S113166033270C0D1D1D2E1D3F1D6B017C01CC2449
S1131670DD24FF24CD2CDE2CEF2CFF240C0D1D1DAE
S11316802E1D3F1DDC01CB018827AA27BB27BA2FBB
S1131690A92F982F8827BC01CD01600F711F821FCD
S11316A0931F1F910F91FF90EF90DF90CF900895BB
S11316B08F929F92AF92BF92CF92DF92EF92FF925E
S11316C00F931F93CF93DF9300D000D0CDB7DEB735
S11316D0842E952EA62EB72E9E012F5F3F4F6E01AE
S11316E045E0C40ED11C89017C01E21AF30AF99980
S11316F0FECFC701800F911F0E94EA1BF80181935E
S11317008F01EC15FD0599F769817A818B819C81A4
S11317106F3FFFEF7F078F079F0721F4682D792D17
S11317208A2D9B2D0F900F900F900F90DF91CF91EA
S11317301F910F91FF90EF90DF90CF90BF90AF90EB
S11317409F908F9008950F931F93CF93DF930E94E0
S1131750A81740EC58EA61E073E68EE190E00E943D
S1131760580BC2EBD7E0688379838A839B834FEF5E
S11317705FEF6FEF70E082E290E00E94580B0AEB9B
S113178017E0F801608371838283938340EC58EA05
S113179061E071E086E290E00E94580B6093B60726
S11317A07093B7078093B8079093B907F8018081C5
S11317B09181A281B3818C019D01009510952095A2
S11317C03095488159816A817B8184239523A6239E
S11317D0B723802B912BA22BB32B8093BF0790931D
S11317E0C007A093C107B093C207E3EFF2E01082F1
S11317F080E2818388E1828381EB838385E1848332
S11318008FE6858384E397E09F938F930E943D182E
S11318100E94250A8B811F928F938A811F928F9336
S113182089811F928F9388811F928F9389E197E01A
S11318309F938F930E943D188DB79EB70C960FB659
S1131840F8949EBF0FBE8DBFDF91CF911F910F9172
S1131850089580E090E0FC01EE0FFF1FE80FF91FF0
S1131860EE0FFF1FEE0FFF1FEE54FE4F2285338550
S1131870232B01F59C01220F331FF901E80FF91FF7
S1131880EE0FFF1FEE0FFF1FEE54FE4F108211826A
S11318901282138214821582F901E80FF91FEE0FE8
S11318A0FF1FEE0FFF1FEE54FE4F168217821086A5
S11318B011861BC09C01220F331FF901E80FF91F89
S11318C0EE0FFF1FEE0FFF1FEE54FE4F42855385B0
S11318D041505109F901E80FF91FEE0FFF1FEE0FF8
S11318E0FF1FEE54FE4F53874287019685309105C2
S11318F009F0B1CF08951F920F920FB60F921124E1
S11319008F938091EE0181608093EE0110927602B4
S1131910109275028091EE0184608093EE01EA9842
S11319208F910F900FBE0F901F9018958F929F92DA
S1131930AF92BF92CF92DF92EF92FF92CF93DF9359
S1131940E9EFF2E024853585C28CD38CE48CF58CE8
S1131950448D558D668D778D80E090E02830E6E0EB
S11319603E0709F043C0DC01FC01EE0FFF1FE80F46
S1131970F91FEE0FFF1FEE0FFF1FEE54FE4F868080
S11319809780A084B18484169506A606B70609F04C
S113199073C0CFEFD2E080E090E07D01EE0CFF1C3D
S11319A0EA0EFB1EEE0CFF1CEE0CFF1C2991F70146
S11319B0E80FF91FEE54FE4F2083019686309105FF
S11319C0A9F7FD01EE0FFF1FEF01CA0FDB1FCC0FBC
S11319D0DD1FCC0FDD1FCE54DE4F4E835F8368873F
S11319E0798784E690E09B878A87FCC0283031059C
S11319F009F042C0DC01FC01EE0FFF1FE80FF91FE4
S1131A00EE0FFF1FEE0FFF1FEE54FE4F86809780F0
S1131A10A084B1848C149D04AE04BF0469F5CFEF97
S1131A20D2E080E090E0AD01440F551F4A0F5B1FE8
S1131A30440F551F440F551F2991FA01E80FF91F50
S1131A40EE54FE4F2083019686309105A9F7FD01DF
S1131A50EE0FFF1FEF01CA0FDB1FCC0FDD1FCC0FF2
S1131A60DD1FCE54DE4FCE82DF82E886F98684E61F
S1131A7090E09B878A87B6C001968530910509F06E
S1131A806DCF8091B8019091B901A091BA01B09144
S1131A90BB01892B8A2B8B2B09F48FC081E090E04A
S1131AA0DC01FC01EE0FFF1FE80FF91FEE0FFF1F13
S1131AB0EE0FFF1FEE54FE4F4681578160857185FE
S1131AC0452B462B472B09F06AC079C02991FA01AE
S1131AD0E80FF91FEE54FE4F2083019686309105DE
S1131AE0A9F7409115035091160360911703709163
S1131AF01803CD01880F991FFC01EA0FFB1FEE0F9D
S1131B00FF1FEE0FFF1FEE54FE4F4683578360877F
S1131B10718784E690E09387828764C0283031051A
S1131B20A9F5CFEFD2E080E090E0AD01440F551F5E
S1131B304A0F5B1F440F551F440F551F2991FA018B
S1131B40E80FF91FEE54FE4F20830196863091056D
S1131B50A9F74091130350911403609115037091F8
S1131B601603CD01880F991FFC01EA0FFB1FEE0F2E
S1131B70FF1FEE0FFF1FEE54FE4F4683578360870F
S1131B80718784E690E0938782872CC08BE996E086
S1131B909F938F930E943D180F900F9023C001963E
S1131BA08530910509F07CCF81E896E09F938F936F
S1131BB00E943D180F900F9015C0A0E0B0E02830AF
S1131BC086E0380709F0AACFCFEFD2E080E090E0BA
S1131BD0AD01440F551F4A0F5B1F440F551F440F9F
S1131BE0551F74CFDF91CF91FF90EF90DF90CF908E
S1131BF0BF90AF909F908F900895CF92DF92EF9215
S1131C00FF926B017C018091B8019091B901A09180
S1131C10BA01B091BB018C159D05AE05BF05C1F09D
S1131C2021E030E0822FF901EE0FFF1FE20FF31FD6
S1131C30EE0FFF1FEE0FFF1FEE54FE4F468157813C
S1131C40608571854C155D056E057F0519F408C026
S1131C5080E006C02F5F3F4F2530310519F785E03E
S1131C60FF90EF90DF90CF9008950F931F93CF9341
S1131C70DF938C01CB01BA010E94FD0D853011F177
S1131C80A801C3EFD2E0D801169620E030E090E03E
S1131C90BC01660F771F860F971F880F991F880F47
S1131CA0991FFC01E20FF31FEE54FE4F6081FA010D
S1131CB06193AF0169916D932F5F3F4F26303105DA
S1131CC081F717C083E696E09F938F930E943D1897
S1131CD0F80183EF92E00A5F1F4F0F900F90E80125
S1131CE03FEF3193DC012D91CD012993E017F107EA
S1131CF0C1F7DF91CF911F910F910895CF93DF9397
S1131D0080910703909108038115914009F0A4C0C4
S1131D108091090390910A03089709F09DC080916E
S1131D200B03863009F098C080910C03843009F0CD
S1131D3093C040911F03509120036091210370913F
S1131D4022038091B2079091B307A091B407B09198
S1131D50B507481759076A077B0709F07DC08091CA
S1131D600D0390910E038115E1E09E0709F067C011
S1131D700E94960CC9EFD2E04C8D5D8D6E8D7F8DE7
S1131D80CE010E94350E88E096E09D878C876C8D8D
S1131D907D8D8E8D9F8D0E94FD0D853018F549E156
S1131DA053E0C3EFD2E0AFE0B3E020E030E090E0F6
S1131DB0BC01660F771F860F971F880F991F880F26
S1131DC0991FFC01E20FF31FEE54FE4F6081FA01EC
S1131DD06193AF0169916D932F5F3F4F26303105B9
S1131DE081F708C086E496E09F938F930E943D1884
S1131DF00F900F90E9EFF2E080E092E0958B848BF6
S1131E00848D958DA68DB78D86A397A3A0A7B1A722
S1131E108091B2079091B307A091B407B091B50730
S1131E20848F958FA68FB78FBF018CE390E00E94BB
S1131E30CE098091EE0184608093EE010DC081157E
S1131E40924051F40E94960C8FE296E09F938F93F8
S1131E500E943D180F900F90DF91CF9108950F933A
S1131E601F93CF93DF9389019A0162307105F0F0DB
S1131E70DB01FC014081329650E0542F4427EF01EE
S1131E802197C8814C0F511D040F151F211D311DB1
S1131E901297A230B10570F7AB01425051094E7F41
S1131EA04E5F5F4F840F951F61707727672B49F052
S1131EB0FC01808190E0982F8827080F191F211DAD
S1131EC0311DD901C801AA27BB278901222733273D
S1131ED0080F191F2A1F3B1FD901C801AA27BB27B6
S1131EE0890122273327080F191F2A1F3B1FC80106
S1131EF080959095DF91CF911F910F910895CF9286
S1131F00DF92EF92FF92CF93DF93EC016A017B01A2
S1131F100E94350E88E090E09D878C878091860131
S1131F20909187010196909387018093860120E424
S1131F3030E03D8B2C8B20E82E8B9827892798271F
S1131F409B8B8A8B85E48E871F86CE8EDF8EE8A2DC
S1131F50F9A28091B2079091B307A091B407B09110
S1131F60B5078A8F9B8FAC8FBD8F198E188E20E09A
S1131F7030E0A90164E170E0CE010E960E942F0FBB
S1131F80982789279827998F888FDF91CF91FF9081
S1131F90EF90DF90CF900895EF92FF920F931F93ED
S1131FA0CF93DF93C9EFD2E04AA32BA3FFA2EEA203
S1131FB019A708A71DA21CA220E034E5398B288BA1
S1131FC021E02F8BAB01BC01CE010E947F0F6889F9
S1131FD079897627672776278E858F7094E0899F85
S1131FE060197109112420E030E0A9018BE193E02C
S1131FF00E942F0F9827892798279DA38CA3BE01A1
S113200082E690E00E94CE098091EE018460809384
S1132010EE01DF91CF911F910F91FF90EF90089502
S1132020CF92DF92EF92FF920F931F93CF93DF93A0
S1132030DC015A96CD90DD90ED90FC905D9720E008
S113204030E086E1E901829FF001839FF00D1124C5
S1132050EF50FE4F40815181628173814C155D05C3
S11320606E057F0509F07BC0829FF001839FF00D10
S11320701124EF50FE4F6481758192964D915C91CD
S113208093976417750709F06AC09A964D915D910C
S11320906D917C919D9786E1829FF001839FF00D65
S11320A01124EF50FE4F40875187628773879696BD
S11320B04D915D916D917C91999744875587668781
S11320C077879F968C919F97808B83898F3F51F060
S11320D086E1829FF001839FF00D1124EF50FE4FA3
S11320E083E0838B5096CD90DC905197DC24CD24F3
S11320F0DC2484E1C81AD1089E968C91807F90E0FC
S11321009595879595958795C81AD90AE12CF12C50
S113211086E18C9F80018D9F100D11240F501E4F5E
S1132120F80164857585868597850E94230B6C0D5F
S11321307D1D8E1D9F1D0E94230BF80164877587EA
S113214086879787DF93CF9384EC95E09F938F9353
S11321500E943D180F900F900F900F907FC02F5F3B
S11321603F4F2530310509F06DCF4091F101509179
S1132170F2016091F3017091F401452B462B472B3A
S1132180A9F021E030E0C6E1C901C29FF001C39F7C
S1132190F00D1124EF50FE4F408151816281738113
S11321A0452B462B472B09F04BC002C080E090E042
S11321B046E1489F9001499F300D1124F901EF50E9
S11321C0FE4FC082D182E282F38292964D915C915D
S11321D093975583448394964D915C919597578337
S11321E046839A964D915D916D917C919D97408720
S11321F051876287738796964D915D916D917C911D
S1132200999744875587668777879F964C91408B2B
S1132210128A118A43E0438B148AF901EA5FFD4F65
S113222020812E7F20839F938F9387EA95E09F934D
S11322308F930E943D180F900F900F900F900EC037
S11322402F5F3F4F2530310509F09ECF82E895E09E
S11322509F938F930E943D180F900F90DF91CF9121
S11322601F910F91FF90EF90DF90CF900895CF9240
S1132270DF92EF92FF92CF93DF936B017C01EA012F
S113228020E030E056E1529FF001539FF00D1124FD
S1132290EF50FE4F80819181A281B3818C159D0501
S11322A0AE05BF0561F4529FF001539FF00D112458
S11322B0EF50FE4F848195818C179D0739F02F5F75
S11322C03F4F25303105F9F685E001C0822FDF91BB
S11322D0CF91FF90EF90DF90CF9008958091880187
S11322E090918901009711F160911D0370911E0373
S11322F076276727762786179707A1F080E08F5FF8
S1132300482F50E0FA01EE0FFF1FEE0FFF1FE857B2
S1132310FE4F208131812115310541F02617370701
S113232071F702C040E050E0672B49F482E695E083
S11323309F938F930E943D180F900F900895440F20
S1132340551F440F551FFA01E857FE4F0280F381D1
S1132350E02D80E009950895CF92DF92EF92FF92ED
S11323600F931F93CF93DF938C01C62ED12C26E1BC
S1132370629FE0011124CF50DE4F8E819F810F2E8A
S1132380F9EFEF2EF2E0FF2EF02DF70193A382A3D5
S11323902C813D8135A324A315AA14AA24E03CE48E
S11323A031AB20AB20E526A79827892798279F9350
S11323B08F938FE294E09F938F930E943D186C85D6
S11323C07D858E859F850E94230B2889F70127A789
S11323D028890F900F900F900F9021FF0FC06F5F0F
S11323E07F4F8F4F9F4F22E026AB24E027AB20AFD7
S11323F02CE421AF20E626A704E010E00E94230B82
S1132400C9EFD2E06AA77BA78CA79DA726E12C9DE4
S1132410C0012D9D900D11249C012F503E4F790138
S1132420F90180859185A285B3858EA39FA3A8A772
S1132430B9A7C8018896982789279827998B888BEC
S113244086E08F8B4081518162817381CE010E942D
S11324507F0F1BAA1AAA68897989762767277627A6
S1132460685F7F4F8E858F70F4E08F9F60197109CC
S113247011249B012250310940E050E083E193E0B4
S11324800E942F0F9827892798279BAB8AABBE0100
S1132490C801C6960E94CE098091EE0184608093A3
S11324A0EE01F701108ADF91CF911F910F91FF90F8
S11324B0EF90DF90CF900895CF93DF93682F70E073
S11324C096E1899FF0011124EF50FE4F2681378158
S11324D032272327322740919C0150919D014217B6
S11324E05307F9F0ECE9F1E041E050E096E1969F02
S11324F0D001979FB00D1124A950BE4FEA012D9130
S11325003C91119732272327322764817581621702
S1132510730721F04F5F5F4F3496F0CF453018F0CA
S11325200BC0C0E0D0E0CC0FDD1FCC0FDD1FC456C4
S1132530DE4FEA81FB810995DF91CF9108958630C2
S113254070F596E1899FF0011124DF01AF50BE4F71
S11325501D921D921D921C92139715961C921E9209
S1132560149717961C921E92169718961D921D92F8
S11325701D921C921B971C961D921D921D921C92DB
S11325801F9750961C92509752961C921E925197E8
S113259053961C92EA5FFD4F80818E7F808308955D
S11325A08F929F92AF92BF92CF92DF92EF92FF925F
S11325B00F931F93CF93DF93C0E0D0E00F2EF6E18B
S11325C0BF2EF02D0F2EF3E0AF2EF02D0F2EF7ECD3
S11325D0EF2EF6E0FF2EF02D0EEE16E00F2EF4E1B6
S11325E09F2EF02D6E01BC9EF001BD9EF00D1124B6
S11325F0EF50FE4F9389911149C0BC9EF001BD9EDE
S1132600F00D1124EF50FE4F80819181A281B3819E
S1132610892B8A2B8B2B09F44DC0BC9CF001BD9CEB
S1132620F00D1124EF50FE4FA38A848991E0980F96
S1132630948B8630E8F0DF92CF921F930F930E9421
S11326403D18EA98BC9CF001BD9CF00D1124EF509C
S1132650FE4F908A6C2F80E090E00E94AC11EA9AC1
S11326608C2F0E949F120F900F900F900F9022C0FA
S1132670DF92CF92FF92EF920E943D188C2F0E941E
S11326805C120F900F900F900F9014C0BC9EF0013D
S1132690BD9EF00D1124EF50FE4F83898F3F51F002
S11326A0BC9CF001BD9CF00D1124EF50FE4F8389BA
S11326B08150838B2196C530D10509F093CFDF91EA
S11326C0CF911F910F91FF90EF90DF90CF90BF902B
S11326D0AF909F908F900895CF92DF92EF92FF92E8
S11326E01F93CF93DF9380919C0190919D0100975C
S11326F011F140911D0350911E035427452754277F
S113270084179507A1F080E08F5FC82FD0E0FE0109
S1132710EE0FFF1FEE0FFF1FE456FE4F20813181A5
S11327202115310541F02417350771F702C0C0E0C7
S1132730D0E0452B49F482E495E09F938F930E9467
S11327403D180F900F90F1C180912803982F92713A
S1132750923109F04AC089EF92E00E941010E9EF2B
S1132760F2E042A153A1628D738D848D958D0E94F8
S11327703711182F853048F081E295E09F938F93AD
S11327800E943D180F900F90D0C126E1829FE00176
S11327901124CF50DE4F8EE18B8B1F921F9383EF5A
S11327A094E09F938F930E943D186C857D858E8560
S11327B09F850E94230B6F5F7F4F8F4F9F4F0E9417
S11327C0230B6C877D878E879F8780E1888B612FA1
S11327D080E090E00E94AC1181E090E09A8B898BBC
S11327E00F900F900F900F90A0C18230C1F589EF28
S11327F092E00E941010E9EFF2E042A153A1628D31
S1132800738D848D958D0E943711C82F853048F0C3
S113281082ED94E09F938F930E943D180F900F9048
S113282084C1E82EF12C1F928F938CEA94E09F933D
S11328308F930E943D1886E18E9DF0018F9DF00DCF
S11328401124EF50FE4F82E1808B6C2F80E090E0EA
S11328500E94AC110F900F900F900F9066C1E9EF9A
S1132860F2E042A153A1628D738D848D958D0E94F7
S11328703711182F853008F44BC08FE894E09F93EC
S11328808F930E943D188091280385700F900F90BC
S113289009F44BC189EF92E00E941010E12EF12C53
S11328A036E1139FE0011124CF50DE4F6C857D8506
S11328B08E859F850E94230B6F5F7F4F8F4F9F4FA5
S11328C00E94230B6C877D878E879F87888980FF72
S11328D00FC086E18E9DF0018F9DF00D1124EF5005
S11328E0FE4F80E1808B612F80E090E00E94AC116C
S11328F0812F0E949F121F921F9388E694E09F935A
S11329008F930E943D180F900F900F900F900DC160
S113291089EF92E00E941010C12ED12C86E1189FFD
S1132920F0011124EF50FE4F808980FD0BC086E139
S11329308C9DF0018D9DF00D1124EF50FE4F808988
S113294082FF40C026E12C9DC0012D9D900D1124D5
S1132950FC01EF50FE4F7F01648575858685978560
S11329600E94230B6F5F7F4F8F4F9F4F0E94230B5B
S1132970F7016487758786879787808980FF12C0EF
S1132980CC0FDD1FCC0FDD1FC456DE4FEA81FB8167
S1132990812F0995F70181E1808B612F80E090E020
S11329A00E94AC11812F0E949F121F921F9381E4F9
S11329B094E09F938F930E943D180F900F900F9077
S11329C00F90B3C086E18C9DF0018D9DF00D112414
S11329D0EF50FE4F808983FF3CC086E18C9DF0015F
S11329E08D9DF00D1124EF50FE4F808984FF31C07E
S11329F086E18C9DF0018D9DF00D1124EF50FE4F6A
S1132A00818992898E3F9F4F68F486E18C9DF00105
S1132A108D9DF00D1124EF50FE4F8189928901960E
S1132A20928B818B86E18C9DF0018D9DF00D11249C
S1132A30EF50FE4F88E1808BFE01EE0FFF1FEE0F7B
S1132A40FF1FE456FE4F0280F381E02D812F09958C
S1132A506CC086E18C9DF0018D9DF00D1124EF502A
S1132A60FE4F808984FF17C086E18C9DF0018D9D07
S1132A70F00D1124EA5FFD4F808180FD0CC086E1DA
S1132A808C9DF0018D9DF00D1124EA5FFD4F808136
S1132A90816080834AC086E18C9DF0018D9DF00D9C
S1132AA01124EF50FE4F808984FF3FC086E18C9D46
S1132AB0F0018D9DF00D1124EA5FFD4F808180FFB0
S1132AC034C086E18C9DF0018D9DF00D1124EF50F2
S1132AD0FE4F81899289019641F186E18C9DF00136
S1132AE08D9DF00D1124EF50FE4F80E1808B818984
S1132AF092898E3F9F4F68F486E18C9DF0018D9DF5
S1132B00F00D1124EF50FE4F818992890196928B2A
S1132B10818BFE01EE0FFF1FEE0FFF1FE456FE4FE9
S1132B200280F381E02D812F0995DF91CF911F91D0
S1132B30FF90EF90DF90CF900895EF92FF920F9364
S1132B401F93CF93DF938091050390910603883000
S1132B5026E0920719F40E947E0EBAC0089709F085
S1132B60B7C08091170390911803A0911903B091F5
S1132B701A034091B2075091B3076091B407709162
S1132B80B50784179507A607B70709F088C00E9400
S1132B90960C80911003813009F076C080911B035C
S1132BA0882391F0883009F093C0E9EFF2E0E6A0C1
S1132BB0F7A000A511A5628D738D848D958D20E0FD
S1132BC040E00E94CC0F84C08091130390911403C1
S1132BD0A0911503B09116034091AA075091AB0739
S1132BE06091AC077091AD07481759076A077B07D6
S1132BF029F4EAEAF7E02581216025839927AA27A9
S1132C00BB27BF93AF939F938F9384EC96E09F93DE
S1132C108F930E943D18C9EFD2E08B8D90E0A0E025
S1132C20B0E0BF93AF939F938F9380EC96E09F9314
S1132C308F930E943D188C8D90E0A0E0B0E0BF938C
S1132C40AF939F938F938CEB96E09F938F930E9407
S1132C503D188A8D9B8DAC8DBD8D8B2F9927AA270E
S1132C60BB27BF93AF939F938F9386EB96E09F937D
S1132C708F930E943D188DB79EB748960FB6F8946F
S1132C809EBF0FBE8DBF24C0863011F40E946C130A
S1132C90809110038131E1F40E946E1119C08F3FBD
S1132CA02FEF9207A207B20769F04091BF07509136
S1132CB0C0076091C1077091C20784179507A607E2
S1132CC0B70731F480911003813111F40E946E1121
S1132CD0DF91CF911F910F91FF90EF900895809114
S1132CE0EE0181FF09C00E94D0120E94290C80913C
S1132CF0EE018D7F8093EE018091EE0180FD0FC087
S1132D00089569EF72E080EB94E00E948F0A0097C7
S1132D1031F0FC01E750FD4F11820E949D151A9B72
S1132D20F0CF8091EE018E7F8093EE01EA9A0895B0
S1132D303F924F925F926F927F928F929F92AF9247
S1132D40BF92CF92DF92EF92FF920F931F93CF9394
S1132D50DF93CDB7DEB7AA970FB6F894DEBF0FBEE8
S1132D60CDBF6B017C018091B2079091B307A09114
S1132D70B407B091B5078C259D25AE25BF2540919C
S1132D80BA075091BB076091BC077091BD078423BB
S1132D909523A623B723892B8A2B8B2B69F481E2F5
S1132DA096E09F938F930E943D180F900F909C2C58
S1132DB08D2C7E2C6F2C10C086E196E09F938F9310
S1132DC00E943D189090B6078090B7077090B8079E
S1132DD06090B9070F900F9088E096E09E878D87EA
S1132DE0492D582D672D762DCE0101960E94350E62
S1132DF08091B2079091B307A091B407B091B50741
S1132E008D8F9E8FAF8FB8A39FA288A679A66AA63E
S1132E1083EF92E0BE01695E7F4FFE01B1969E0191
S1132E20295D3F4FDC014D91CD01DB014D93BD0187
S1132E301192E217F307B1F780E091E0988B8F8746
S1132E4028E030E03A8B298B26E02B8B24E02C8B76
S1132E509E8B8D8BBE016F5F7F4F8AE290E00E9454
S1132E60CE098091EE0184608093EE0114E1412C3F
S1132E70512C0F2EFCEDAF2EF5E0BF2EF02DC70127
S1132E80B6010E94FD0D382E692D782D872D962DC3
S1132E900E94FD0D082F853030F0B4E0B315B8F56D
S1132EA0242D352D1EC08EEF95E09F938F930E94A5
S1132EB03D180F900F9084E0831538F5802F90E033
S1132EC0FC01EE0FFF1FE80FF91FEE0FFF1FEE0FBF
S1132ED0FF1FEE54FE4FC682D782E086F18681E062
S1132EE01FC000002F5F3F4F2031A7E23A07C9F708
S1132EF00E946F16BF92AF920E943D1811500F901E
S1132F000F9009F0BCCF80E00BC081E009C08EEFC8
S1132F1095E09F938F930E943D180F900F9081E04E
S1132F20AA960FB6F894DEBF0FBECDBFDF91CF9146
S1132F301F910F91FF90EF90DF90CF90BF90AF90D3
S1132F409F908F907F906F905F904F903F900895E7
S1132F50E1E8F0E080818D6080831092850010921A
S1132F60840088E09DE39093890080938800EFE6D5
S1132F70F0E080818260808308951F920F920FB6E3
S1132F800F9211242F933F938F939F93AF93BF93EB
S1132F908091770290917802A0917902B0917A029F
S1132FA00196A11DB11D8093770290937802A0939E
S1132FB07902B0937A0280917502909176029C0115
S1132FC02F5F3F4F3093760220937502813B9440EC
S1132FD018F0E0E0F0E009948091EE0182608093C3
S1132FE0EE01BF91AF919F918F913F912F910F90DF
S1132FF00FBE0F901F90189528E92093C100DC01A3
S1133000CB01880F991FAA1FBB1F880F991FAA1FE6
S1133010BB1F9C01AD01220F331F441F551F220FFC
S1133020331F441F551F60E074E284EF90E00E9458
S1133030F91921502093C4008091EF018B7F809374
S1133040EF0108959091EF0192FD07C0E0ECF0E0EC
S1133050908195FFFDCF8093C6000895CF93DF93B1
S1133060EC018881882331F021960E9422188991ED
S11330708111FBCFDF91CF9108952F923F924F9210
S11330805F926F927F928F929F92AF92BF92CF92F4
S1133090DF92EF92FF920F931F93CF93DF93CDB7FD
S11330A0DEB764970FB6F894DEBF0FBECDBFFE0146
S11330B0B996E190F1906F01812C6894662461F8CF
S11330C0512C412C212C712C0F2EF0E39F2EF02D2E
S11330D06894332433F801C0750187010F5F1F4FD3
S11330E0F7018491882309F4CCC0853209F09CC08F
S11330F05701F2E0AF0EB11CF8010491802F90E06B
S1133100C0970A9708F09EC00B877C86CE010B9669
S11331100E943B1B882EF3E0EF0EF11CF501849115
S1133120893609F4A2C028F4823691F1833601F17C
S1133130D4CF833731F0883739F18F3671F620C018
S11331407501F6010190F081E02D82E0C80ED11CDA
S11331508081882309F4C1CF8F010F5F1F4F0E9424
S11331602218F80181918F018111F9CFB6CF750131
S1133170F6018081F2E0CF0ED11C0E942218ADCF5F
S113318057017501432D75C05701750140E171C0A8
S113319086010E5F1F4FF60180819181462D552DCA
S11331A0BE016F5F7F4F0E949F1BFE013196842DED
S11331B0922D01C0CA01AC014F5F5F4F21912111D3
S11331C0F9CF282D30E0821793073CF5881A282D73
S11331D030E01216130654F4FE013B96CF01880D1D
S11331E0911D9192E817F907E1F702C0242D322DC1
S11331F0EBE0F0E0EC0FFD1FE20FF31F1082BE01C5
S11332006F5F7F4FCE010B960E94751BBE01655FF9
S11332107F4FCE0101960E94801BCE0101960E9431
S11332202E186801872C59CF0E942218780155CF97
S113323086010E5F1F4FF601808191817501462D35
S1133240552DAECF093699F030F4023689F30336A2
S113325009F48DCF41CF033709F472CF083709F44D
S113326094CF0F3609F038CF8CCF4AE002C07501F5
S11332704AE050E086010E5F1F4FF6018081918184
S11332808FCF64960FB6F894DEBF0FBECDBFDF912B
S1133290CF911F910F91FF90EF90DF90CF90BF904F
S11332A0AF909F908F907F906F905F904F903F90E2
S11332B02F9008951F920F920FB60F9211242F93FF
S11332C03F934F935F936F937F938F939F93AF93AA
S11332D0BF93CF93EF93FF938091EF0182FD55C08D
S11332E0C091C6008C2F0E9422188091EF0180FFAC
S11332F006C08091EF0182608093EF0168C0C830FE
S113330089F48091B0019091B101892B09F45FC0D7
S11333108091B0019091B10101979093B101809394
S1133320B00155C0CD30D1F4E091B001F091B101BC
S1133330E658FD4F80818C3589F0E091B001F09121
S1133340B101E558FD4F10821092B1011092B00105
S11333508091EF0181608093EF0139C08091B001C9
S11333609091B1018336910590F58091B0019091CF
S1133370B1019C012F5F3F4F3093B1012093B00105
S1133380FC01E558FD4FC08322C0E0913E01F0915D
S11333903F0180913C0190913D010197E817F907A5
S11333A0B1F0CF01019690933F0180933E0180914B
S11333B0C600808380913E0190913F018E5D9240D2
S11333C031F48BE792E090933F0180933E01FF91AB
S11333D0EF91CF91BF91AF919F918F917F916F9119
S11333E05F914F913F912F910F900FBE0F901F90BF
S11333F01895A1E21A2EAA1BBB1BFD010DC0AA1F22
S1133400BB1FEE1FFF1FA217B307E407F50720F049
S1133410A21BB30BE40BF50B661F771F881F991FC4
S11334201A9469F760957095809590959B01AC010D
S1133430BD01CF010895A29FB001B39FC001A39F16
S1133440700D811D1124911DB29F700D811D1124D9
S1133450911D0895A0E0B0E0E0E3FAE10C941B1C98
S11334605C016B017A016115710519F0FB0191830F
S11334708083E114F10429F0C7010297839708F0CF
S1133480F1C0E5012196F5011081812F90E00E94A1
S1133490591B892B11F05E01F4CF1D3229F42196BA
S11334A0F501118101E007C01B3221F4E5012296E8
S11334B0F501118100E0E114F10459F1F0E1EF1696
S11334C0F10461F41033E1F488818F7D883569F566
S11334D019812296026070E1E72EF12C88E0E8164B
S11334E0F10439F12CF4F2E0EF16F104C9F12AC029
S11334F08AE0E816F10479F0E0E1EE16F10411F542
S113350050E1E52EF12C812C912CA12C68E0B62EF3
S11335102CC01033C9F23AE0E32EF12C4CEC842E8B
S1133520982CA82C4CE0B42E20C010E3E114F10434
S1133530A9F698E0E92EF12C812C912CA12C20E104
S1133540B22E13C060E070E080E090E897010F2C89
S1133550000C440B550B0E94F91949015A0105C08E
S1133560812C912CA12C80E4B82E60E020E030E086
S1133570A90127010F2C000C660877081E01E0ED55
S1133580E10FEA3060F08FEB810F8A3110F4E9EC3F
S113359005C08FE9810F8A3128F5E9EAE10F8E2F02
S11335A090E08E159F05F4F467FD18C0821693060B
S11335B0A406B50690F0C301B2010E94001C9B0151
S11335C0AC012E0F311D411D511D21303105410526
S11335D0F0E85F0710F461E001C06FEF2196F1019C
S11335E01081CCCF802F8170C114D10471F0662377
S11335F029F02197F601D183C08307C001FF19C0C8
S11336002297F601D183C08314C067FF12C08111D1
S113361005C02FEF3FEF4FEF5FE704C020E030E03D
S113362040E050E882E290E09093C4078093C3079F
S113363016C0882341F050954095309521953F4F11
S11336404F4F5F4F0CC057FF0AC082E290E0909347
S1133650C4078093C3072FEF3FEF4FEF5FE7B90134
S1133660CA0104C060E070E080E090E0CDB7DEB74E
S1133670E2E10C94371CFC0188279927E8942191F6
S11336802032E9F3293010F02E30C8F32B3241F008
S11336902D3239F4689404C00E94B51B820F911D29
S11336A0219120532A30C0F31EF4909581959F4FA9
S11336B0089591110C94D71B803219F089508550CC
S11336C0C8F70895FB01DC018D9181341CF08B3522
S11336D00CF4805E619161341CF06B350CF4605E17
S11336E0861B611189F3990B0895FB01DC010D9090
S11336F00020E9F7119701900D920020E1F7089559
S1133700FB01DC0101900D920020E1F70895FC011A
S1133710A081B181AD01109681F03D91FB01019032
S113372003160110E1F7C9F7002011F4D00102C01B
S11337301E921196FC01A083B183CA0108954532FB
S1133740510520F4423010F00C94AA1BFB011082A6
S1133750CB010895BB274A3031F4992322F4BDE20A
S1133760909581959F4F0C94BE1B7AE0979F902D66
S1133770879F802D910D11240895BB27FB015527A8
S1133780AA27880F991FAA1FA41710F0A41B8395BA
S11337905051B9F7A05DAA3308F0A95DA193009731
S11337A079F7B111B1931192CB010C94DA1B9927DB
S11337B088270895DC01FC01672F71917723E1F7D5
S11337C0329704C07C916D9370836291AE17BF07EA
S11337D0C8F30895F999FECF92BD81BDF89A99274F
S11337E080B50895262FF999FECF1FBA92BD81BDE9
S11337F020BD0FB6F894FA9AF99A0FBE019608956F
S1133800DB018F939F930E94101CBF91AF91A29FE5
S1133810800D911DA39F900DB29F900D11240895CA
S11338200E941B1AA59F900DB49F900DA49F800D1C
S1133830911D112408952F923F924F925F926F929F
S11338407F928F929F92AF92BF92CF92DF92EF922C
S1133850FF920F931F93CF93DF93CDB7DEB7CA1BAD
S1133860DB0B0FB6F894DEBF0FBECDBF09942A88D8
S1133870398848885F846E847D848C849B84AA8480
S1133880B984C884DF80EE80FD800C811B81AA810D
S1133890B981CE0FD11D0FB6F894DEBF0FBECDBFD8
S10B38A0ED010895F894FFCF37
S11338A84401B3044A01EB044E01D805520112083D
S11338B8550169085901C0086001B7046401B904D5
S11338C86801DC046C01A0067101B80476012E07B6
S11338D87B010C0780010C07000000007B027B02BF
S11338E82E2C200052455345540041525000544355
S11338F850004950004E455400524F55544552000B
S11339084E5450004D4143005645520054494D45CC
S1133918004E5450520050494E470048454C500000
S10539283F005A
S9030000FC
